{
	"contracts/Loops.sol": {
		"Loops": {
			"abi": [
				{
					"inputs": [],
					"name": "getAll",
					"outputs": [
						{
							"internalType": "uint256[15]",
							"name": "",
							"type": "uint256[15]"
						}
					],
					"stateMutability": "view",
					"type": "function"
				},
				{
					"inputs": [],
					"name": "getall1",
					"outputs": [
						{
							"internalType": "uint256[15]",
							"name": "",
							"type": "uint256[15]"
						}
					],
					"stateMutability": "view",
					"type": "function"
				},
				{
					"inputs": [],
					"name": "listByfor",
					"outputs": [],
					"stateMutability": "nonpayable",
					"type": "function"
				},
				{
					"inputs": [
						{
							"internalType": "uint256",
							"name": "",
							"type": "uint256"
						}
					],
					"name": "numbers0",
					"outputs": [
						{
							"internalType": "uint256",
							"name": "",
							"type": "uint256"
						}
					],
					"stateMutability": "view",
					"type": "function"
				},
				{
					"inputs": [
						{
							"internalType": "uint256",
							"name": "",
							"type": "uint256"
						}
					],
					"name": "numbers1",
					"outputs": [
						{
							"internalType": "uint256",
							"name": "",
							"type": "uint256"
						}
					],
					"stateMutability": "view",
					"type": "function"
				},
				{
					"inputs": [],
					"name": "whileDongusu",
					"outputs": [],
					"stateMutability": "nonpayable",
					"type": "function"
				}
			],
			"devdoc": {
				"kind": "dev",
				"methods": {},
				"version": 1
			},
			"evm": {
				"assembly": "    /* \"contracts/Loops.sol\":60:730  contract Loops{... */\n  mstore(0x40, 0x80)\n  callvalue\n  dup1\n  iszero\n  tag_1\n  jumpi\n  0x00\n  dup1\n  revert\ntag_1:\n  pop\n  dataSize(sub_0)\n  dup1\n  dataOffset(sub_0)\n  0x00\n  codecopy\n  0x00\n  return\nstop\n\nsub_0: assembly {\n        /* \"contracts/Loops.sol\":60:730  contract Loops{... */\n      mstore(0x40, 0x80)\n      callvalue\n      dup1\n      iszero\n      tag_1\n      jumpi\n      0x00\n      dup1\n      revert\n    tag_1:\n      pop\n      jumpi(tag_2, lt(calldatasize, 0x04))\n      shr(0xe0, calldataload(0x00))\n      dup1\n      0x53ed5143\n      eq\n      tag_3\n      jumpi\n      dup1\n      0x60257b1e\n      eq\n      tag_4\n      jumpi\n      dup1\n      0x62b44ce1\n      eq\n      tag_5\n      jumpi\n      dup1\n      0xc84c7205\n      eq\n      tag_6\n      jumpi\n      dup1\n      0xfd3d3f2d\n      eq\n      tag_7\n      jumpi\n      dup1\n      0xfe498271\n      eq\n      tag_8\n      jumpi\n    tag_2:\n      0x00\n      dup1\n      revert\n        /* \"contracts/Loops.sol\":350:442  function getAll() public view returns (uint256[15] memory){... */\n    tag_3:\n      tag_9\n      tag_10\n      jump\t// in\n    tag_9:\n      mload(0x40)\n      tag_11\n      swap2\n      swap1\n      tag_12\n      jump\t// in\n    tag_11:\n      mload(0x40)\n      dup1\n      swap2\n      sub\n      swap1\n      return\n        /* \"contracts/Loops.sol\":632:725  function getall1() public view returns (uint256[15] memory){... */\n    tag_4:\n      tag_13\n      tag_14\n      jump\t// in\n    tag_13:\n      mload(0x40)\n      tag_15\n      swap2\n      swap1\n      tag_12\n      jump\t// in\n    tag_15:\n      mload(0x40)\n      dup1\n      swap2\n      sub\n      swap1\n      return\n        /* \"contracts/Loops.sol\":117:144  uint256[15] public numbers1 */\n    tag_5:\n      tag_16\n      0x04\n      dup1\n      calldatasize\n      sub\n      dup2\n      add\n      swap1\n      tag_17\n      swap2\n      swap1\n      tag_18\n      jump\t// in\n    tag_17:\n      tag_19\n      jump\t// in\n    tag_16:\n      mload(0x40)\n      tag_20\n      swap2\n      swap1\n      tag_21\n      jump\t// in\n    tag_20:\n      mload(0x40)\n      dup1\n      swap2\n      sub\n      swap1\n      return\n        /* \"contracts/Loops.sol\":83:110  uint256[15] public numbers0 */\n    tag_6:\n      tag_22\n      0x04\n      dup1\n      calldatasize\n      sub\n      dup2\n      add\n      swap1\n      tag_23\n      swap2\n      swap1\n      tag_18\n      jump\t// in\n    tag_23:\n      tag_24\n      jump\t// in\n    tag_22:\n      mload(0x40)\n      tag_25\n      swap2\n      swap1\n      tag_21\n      jump\t// in\n    tag_25:\n      mload(0x40)\n      dup1\n      swap2\n      sub\n      swap1\n      return\n        /* \"contracts/Loops.sol\":450:626  function whileDongusu() public {... */\n    tag_7:\n      tag_26\n      tag_27\n      jump\t// in\n    tag_26:\n      stop\n        /* \"contracts/Loops.sol\":153:344  function listByfor() public{... */\n    tag_8:\n      tag_28\n      tag_29\n      jump\t// in\n    tag_28:\n      stop\n        /* \"contracts/Loops.sol\":350:442  function getAll() public view returns (uint256[15] memory){... */\n    tag_10:\n        /* \"contracts/Loops.sol\":389:407  uint256[15] memory */\n      tag_30\n      tag_31\n      jump\t// in\n    tag_30:\n        /* \"contracts/Loops.sol\":426:434  numbers0 */\n      0x00\n        /* \"contracts/Loops.sol\":419:434  return numbers0 */\n      0x0f\n      dup1\n      0x20\n      mul\n      mload(0x40)\n      swap1\n      dup2\n      add\n      0x40\n      mstore\n      dup1\n      swap3\n      swap2\n      swap1\n      dup3\n      0x0f\n      dup1\n      iszero\n      tag_33\n      jumpi\n      0x20\n      mul\n      dup3\n      add\n      swap2\n    tag_34:\n      dup2\n      sload\n      dup2\n      mstore\n      0x20\n      add\n      swap1\n      0x01\n      add\n      swap1\n      dup1\n      dup4\n      gt\n      tag_34\n      jumpi\n    tag_33:\n      pop\n      pop\n      pop\n      pop\n      pop\n      swap1\n      pop\n        /* \"contracts/Loops.sol\":350:442  function getAll() public view returns (uint256[15] memory){... */\n      swap1\n      jump\t// out\n        /* \"contracts/Loops.sol\":632:725  function getall1() public view returns (uint256[15] memory){... */\n    tag_14:\n        /* \"contracts/Loops.sol\":672:690  uint256[15] memory */\n      tag_35\n      tag_31\n      jump\t// in\n    tag_35:\n        /* \"contracts/Loops.sol\":709:717  numbers1 */\n      0x0f\n        /* \"contracts/Loops.sol\":702:717  return numbers1 */\n      dup1\n      dup1\n      0x20\n      mul\n      mload(0x40)\n      swap1\n      dup2\n      add\n      0x40\n      mstore\n      dup1\n      swap3\n      swap2\n      swap1\n      dup3\n      0x0f\n      dup1\n      iszero\n      tag_37\n      jumpi\n      0x20\n      mul\n      dup3\n      add\n      swap2\n    tag_38:\n      dup2\n      sload\n      dup2\n      mstore\n      0x20\n      add\n      swap1\n      0x01\n      add\n      swap1\n      dup1\n      dup4\n      gt\n      tag_38\n      jumpi\n    tag_37:\n      pop\n      pop\n      pop\n      pop\n      pop\n      swap1\n      pop\n        /* \"contracts/Loops.sol\":632:725  function getall1() public view returns (uint256[15] memory){... */\n      swap1\n      jump\t// out\n        /* \"contracts/Loops.sol\":117:144  uint256[15] public numbers1 */\n    tag_19:\n      0x0f\n      dup2\n      0x0f\n      dup2\n      lt\n      tag_39\n      jumpi\n      0x00\n      dup1\n      revert\n    tag_39:\n      add\n      0x00\n      swap2\n      pop\n      swap1\n      pop\n      sload\n      dup2\n      jump\t// out\n        /* \"contracts/Loops.sol\":83:110  uint256[15] public numbers0 */\n    tag_24:\n      0x00\n      dup2\n      0x0f\n      dup2\n      lt\n      tag_41\n      jumpi\n      0x00\n      dup1\n      revert\n    tag_41:\n      add\n      0x00\n      swap2\n      pop\n      swap1\n      pop\n      sload\n      dup2\n      jump\t// out\n        /* \"contracts/Loops.sol\":450:626  function whileDongusu() public {... */\n    tag_27:\n        /* \"contracts/Loops.sol\":492:501  uint256 i */\n      0x00\n        /* \"contracts/Loops.sol\":524:609  while (i<numbers1.length){... */\n    tag_44:\n        /* \"contracts/Loops.sol\":533:548  numbers1.length */\n      0x0f\n        /* \"contracts/Loops.sol\":531:532  i */\n      dup2\n        /* \"contracts/Loops.sol\":531:548  i<numbers1.length */\n      lt\n        /* \"contracts/Loops.sol\":524:609  while (i<numbers1.length){... */\n      iszero\n      tag_45\n      jumpi\n        /* \"contracts/Loops.sol\":578:579  i */\n      dup1\n        /* \"contracts/Loops.sol\":564:572  numbers1 */\n      0x0f\n        /* \"contracts/Loops.sol\":573:574  i */\n      dup3\n        /* \"contracts/Loops.sol\":564:575  numbers1[i] */\n      0x0f\n      dup2\n      lt\n      tag_46\n      jumpi\n      tag_47\n      tag_48\n      jump\t// in\n    tag_47:\n    tag_46:\n      add\n        /* \"contracts/Loops.sol\":564:579  numbers1[i] = i */\n      dup2\n      swap1\n      sstore\n      pop\n        /* \"contracts/Loops.sol\":594:597  i++ */\n      dup1\n      dup1\n      tag_50\n      swap1\n      tag_51\n      jump\t// in\n    tag_50:\n      swap2\n      pop\n      pop\n        /* \"contracts/Loops.sol\":524:609  while (i<numbers1.length){... */\n      jump(tag_44)\n    tag_45:\n        /* \"contracts/Loops.sol\":481:626  {... */\n      pop\n        /* \"contracts/Loops.sol\":450:626  function whileDongusu() public {... */\n      jump\t// out\n        /* \"contracts/Loops.sol\":153:344  function listByfor() public{... */\n    tag_29:\n        /* \"contracts/Loops.sol\":191:211  uint[15] memory nums */\n      0x00\n        /* \"contracts/Loops.sol\":214:222  numbers0 */\n      dup1\n        /* \"contracts/Loops.sol\":191:222  uint[15] memory nums = numbers0 */\n      0x0f\n      dup1\n      0x20\n      mul\n      mload(0x40)\n      swap1\n      dup2\n      add\n      0x40\n      mstore\n      dup1\n      swap3\n      swap2\n      swap1\n      dup3\n      0x0f\n      dup1\n      iszero\n      tag_53\n      jumpi\n      0x20\n      mul\n      dup3\n      add\n      swap2\n    tag_54:\n      dup2\n      sload\n      dup2\n      mstore\n      0x20\n      add\n      swap1\n      0x01\n      add\n      swap1\n      dup1\n      dup4\n      gt\n      tag_54\n      jumpi\n    tag_53:\n      pop\n      pop\n      pop\n      pop\n      pop\n      swap1\n      pop\n        /* \"contracts/Loops.sol\":237:246  uint256 i */\n      0x00\n        /* \"contracts/Loops.sol\":233:311  for(uint256 i =0 ; i< nums.length ; i++){... */\n    tag_55:\n        /* \"contracts/Loops.sol\":255:266  nums.length */\n      0x0f\n        /* \"contracts/Loops.sol\":252:253  i */\n      dup2\n        /* \"contracts/Loops.sol\":252:266  i< nums.length */\n      lt\n        /* \"contracts/Loops.sol\":233:311  for(uint256 i =0 ; i< nums.length ; i++){... */\n      iszero\n      tag_56\n      jumpi\n        /* \"contracts/Loops.sol\":298:299  i */\n      dup1\n        /* \"contracts/Loops.sol\":288:292  nums */\n      dup3\n        /* \"contracts/Loops.sol\":293:294  i */\n      dup3\n        /* \"contracts/Loops.sol\":288:295  nums[i] */\n      0x0f\n      dup2\n      lt\n      tag_58\n      jumpi\n      tag_59\n      tag_48\n      jump\t// in\n    tag_59:\n    tag_58:\n      0x20\n      mul\n      add\n        /* \"contracts/Loops.sol\":288:299  nums[i] = i */\n      dup2\n      dup2\n      mstore\n      pop\n      pop\n        /* \"contracts/Loops.sol\":269:272  i++ */\n      dup1\n      dup1\n      0x01\n      add\n      swap2\n      pop\n      pop\n        /* \"contracts/Loops.sol\":233:311  for(uint256 i =0 ; i< nums.length ; i++){... */\n      jump(tag_55)\n    tag_56:\n      pop\n        /* \"contracts/Loops.sol\":332:336  nums */\n      dup1\n        /* \"contracts/Loops.sol\":321:329  numbers0 */\n      0x00\n        /* \"contracts/Loops.sol\":321:336  numbers0 = nums */\n      swap1\n      0x0f\n      tag_60\n      swap3\n      swap2\n      swap1\n      tag_61\n      jump\t// in\n    tag_60:\n      pop\n        /* \"contracts/Loops.sol\":180:344  {... */\n      pop\n        /* \"contracts/Loops.sol\":153:344  function listByfor() public{... */\n      jump\t// out\n    tag_31:\n      mload(0x40)\n      dup1\n      0x01e0\n      add\n      0x40\n      mstore\n      dup1\n      0x0f\n      swap1\n      0x20\n      dup3\n      mul\n      dup1\n      calldatasize\n      dup4\n      calldatacopy\n      dup1\n      dup3\n      add\n      swap2\n      pop\n      pop\n      swap1\n      pop\n      pop\n      swap1\n      jump\t// out\n    tag_61:\n      dup3\n      0x0f\n      dup2\n      add\n      swap3\n      dup3\n      iszero\n      tag_62\n      jumpi\n      swap2\n      0x20\n      mul\n      dup3\n      add\n    tag_63:\n      dup3\n      dup2\n      gt\n      iszero\n      tag_64\n      jumpi\n      dup3\n      mload\n      dup3\n      sstore\n      swap2\n      0x20\n      add\n      swap2\n      swap1\n      0x01\n      add\n      swap1\n      jump(tag_63)\n    tag_64:\n    tag_62:\n      pop\n      swap1\n      pop\n      tag_65\n      swap2\n      swap1\n      tag_66\n      jump\t// in\n    tag_65:\n      pop\n      swap1\n      jump\t// out\n    tag_66:\n    tag_67:\n      dup1\n      dup3\n      gt\n      iszero\n      tag_68\n      jumpi\n      0x00\n      dup2\n      0x00\n      swap1\n      sstore\n      pop\n      0x01\n      add\n      jump(tag_67)\n    tag_68:\n      pop\n      swap1\n      jump\t// out\n        /* \"#utility.yul\":7:112   */\n    tag_69:\n        /* \"#utility.yul\":73:79   */\n      0x00\n        /* \"#utility.yul\":101:105   */\n      0x0f\n        /* \"#utility.yul\":91:105   */\n      swap1\n      pop\n        /* \"#utility.yul\":7:112   */\n      swap2\n      swap1\n      pop\n      jump\t// out\n        /* \"#utility.yul\":118:262   */\n    tag_70:\n        /* \"#utility.yul\":216:227   */\n      0x00\n        /* \"#utility.yul\":253:256   */\n      dup2\n        /* \"#utility.yul\":238:256   */\n      swap1\n      pop\n        /* \"#utility.yul\":118:262   */\n      swap3\n      swap2\n      pop\n      pop\n      jump\t// out\n        /* \"#utility.yul\":268:367   */\n    tag_71:\n        /* \"#utility.yul\":334:338   */\n      0x00\n        /* \"#utility.yul\":357:360   */\n      dup2\n        /* \"#utility.yul\":349:360   */\n      swap1\n      pop\n        /* \"#utility.yul\":268:367   */\n      swap2\n      swap1\n      pop\n      jump\t// out\n        /* \"#utility.yul\":373:450   */\n    tag_72:\n        /* \"#utility.yul\":410:417   */\n      0x00\n        /* \"#utility.yul\":439:444   */\n      dup2\n        /* \"#utility.yul\":428:444   */\n      swap1\n      pop\n        /* \"#utility.yul\":373:450   */\n      swap2\n      swap1\n      pop\n      jump\t// out\n        /* \"#utility.yul\":456:564   */\n    tag_73:\n        /* \"#utility.yul\":533:557   */\n      tag_90\n        /* \"#utility.yul\":551:556   */\n      dup2\n        /* \"#utility.yul\":533:557   */\n      tag_72\n      jump\t// in\n    tag_90:\n        /* \"#utility.yul\":528:531   */\n      dup3\n        /* \"#utility.yul\":521:558   */\n      mstore\n        /* \"#utility.yul\":456:564   */\n      pop\n      pop\n      jump\t// out\n        /* \"#utility.yul\":570:749   */\n    tag_74:\n        /* \"#utility.yul\":639:649   */\n      0x00\n        /* \"#utility.yul\":660:706   */\n      tag_92\n        /* \"#utility.yul\":702:705   */\n      dup4\n        /* \"#utility.yul\":694:700   */\n      dup4\n        /* \"#utility.yul\":660:706   */\n      tag_73\n      jump\t// in\n    tag_92:\n        /* \"#utility.yul\":738:742   */\n      0x20\n        /* \"#utility.yul\":733:736   */\n      dup4\n        /* \"#utility.yul\":729:743   */\n      add\n        /* \"#utility.yul\":715:743   */\n      swap1\n      pop\n        /* \"#utility.yul\":570:749   */\n      swap3\n      swap2\n      pop\n      pop\n      jump\t// out\n        /* \"#utility.yul\":755:867   */\n    tag_75:\n        /* \"#utility.yul\":824:828   */\n      0x00\n        /* \"#utility.yul\":856:860   */\n      0x20\n        /* \"#utility.yul\":851:854   */\n      dup3\n        /* \"#utility.yul\":847:861   */\n      add\n        /* \"#utility.yul\":839:861   */\n      swap1\n      pop\n        /* \"#utility.yul\":755:867   */\n      swap2\n      swap1\n      pop\n      jump\t// out\n        /* \"#utility.yul\":907:1607   */\n    tag_76:\n        /* \"#utility.yul\":1045:1098   */\n      tag_95\n        /* \"#utility.yul\":1092:1097   */\n      dup2\n        /* \"#utility.yul\":1045:1098   */\n      tag_69\n      jump\t// in\n    tag_95:\n        /* \"#utility.yul\":1114:1199   */\n      tag_96\n        /* \"#utility.yul\":1192:1198   */\n      dup2\n        /* \"#utility.yul\":1187:1190   */\n      dup5\n        /* \"#utility.yul\":1114:1199   */\n      tag_70\n      jump\t// in\n    tag_96:\n        /* \"#utility.yul\":1107:1199   */\n      swap3\n      pop\n        /* \"#utility.yul\":1223:1278   */\n      tag_97\n        /* \"#utility.yul\":1272:1277   */\n      dup3\n        /* \"#utility.yul\":1223:1278   */\n      tag_71\n      jump\t// in\n    tag_97:\n        /* \"#utility.yul\":1301:1308   */\n      dup1\n        /* \"#utility.yul\":1332:1333   */\n      0x00\n        /* \"#utility.yul\":1317:1600   */\n    tag_98:\n        /* \"#utility.yul\":1342:1348   */\n      dup4\n        /* \"#utility.yul\":1339:1340   */\n      dup2\n        /* \"#utility.yul\":1336:1349   */\n      lt\n        /* \"#utility.yul\":1317:1600   */\n      iszero\n      tag_100\n      jumpi\n        /* \"#utility.yul\":1418:1424   */\n      dup2\n        /* \"#utility.yul\":1412:1425   */\n      mload\n        /* \"#utility.yul\":1445:1508   */\n      tag_101\n        /* \"#utility.yul\":1504:1507   */\n      dup8\n        /* \"#utility.yul\":1489:1502   */\n      dup3\n        /* \"#utility.yul\":1445:1508   */\n      tag_74\n      jump\t// in\n    tag_101:\n        /* \"#utility.yul\":1438:1508   */\n      swap7\n      pop\n        /* \"#utility.yul\":1531:1590   */\n      tag_102\n        /* \"#utility.yul\":1583:1589   */\n      dup4\n        /* \"#utility.yul\":1531:1590   */\n      tag_75\n      jump\t// in\n    tag_102:\n        /* \"#utility.yul\":1521:1590   */\n      swap3\n      pop\n        /* \"#utility.yul\":1377:1600   */\n      pop\n        /* \"#utility.yul\":1364:1365   */\n      0x01\n        /* \"#utility.yul\":1361:1362   */\n      dup2\n        /* \"#utility.yul\":1357:1366   */\n      add\n        /* \"#utility.yul\":1352:1366   */\n      swap1\n      pop\n        /* \"#utility.yul\":1317:1600   */\n      jump(tag_98)\n    tag_100:\n        /* \"#utility.yul\":1321:1335   */\n      pop\n        /* \"#utility.yul\":1021:1607   */\n      pop\n      pop\n      pop\n        /* \"#utility.yul\":907:1607   */\n      pop\n      pop\n      jump\t// out\n        /* \"#utility.yul\":1613:1932   */\n    tag_12:\n        /* \"#utility.yul\":1754:1758   */\n      0x00\n        /* \"#utility.yul\":1792:1795   */\n      0x01e0\n        /* \"#utility.yul\":1781:1790   */\n      dup3\n        /* \"#utility.yul\":1777:1796   */\n      add\n        /* \"#utility.yul\":1769:1796   */\n      swap1\n      pop\n        /* \"#utility.yul\":1806:1925   */\n      tag_104\n        /* \"#utility.yul\":1922:1923   */\n      0x00\n        /* \"#utility.yul\":1911:1920   */\n      dup4\n        /* \"#utility.yul\":1907:1924   */\n      add\n        /* \"#utility.yul\":1898:1904   */\n      dup5\n        /* \"#utility.yul\":1806:1925   */\n      tag_76\n      jump\t// in\n    tag_104:\n        /* \"#utility.yul\":1613:1932   */\n      swap3\n      swap2\n      pop\n      pop\n      jump\t// out\n        /* \"#utility.yul\":2019:2136   */\n    tag_78:\n        /* \"#utility.yul\":2128:2129   */\n      0x00\n        /* \"#utility.yul\":2125:2126   */\n      dup1\n        /* \"#utility.yul\":2118:2130   */\n      revert\n        /* \"#utility.yul\":2265:2387   */\n    tag_80:\n        /* \"#utility.yul\":2338:2362   */\n      tag_109\n        /* \"#utility.yul\":2356:2361   */\n      dup2\n        /* \"#utility.yul\":2338:2362   */\n      tag_72\n      jump\t// in\n    tag_109:\n        /* \"#utility.yul\":2331:2336   */\n      dup2\n        /* \"#utility.yul\":2328:2363   */\n      eq\n        /* \"#utility.yul\":2318:2381   */\n      tag_110\n      jumpi\n        /* \"#utility.yul\":2377:2378   */\n      0x00\n        /* \"#utility.yul\":2374:2375   */\n      dup1\n        /* \"#utility.yul\":2367:2379   */\n      revert\n        /* \"#utility.yul\":2318:2381   */\n    tag_110:\n        /* \"#utility.yul\":2265:2387   */\n      pop\n      jump\t// out\n        /* \"#utility.yul\":2393:2532   */\n    tag_81:\n        /* \"#utility.yul\":2439:2444   */\n      0x00\n        /* \"#utility.yul\":2477:2483   */\n      dup2\n        /* \"#utility.yul\":2464:2484   */\n      calldataload\n        /* \"#utility.yul\":2455:2484   */\n      swap1\n      pop\n        /* \"#utility.yul\":2493:2526   */\n      tag_112\n        /* \"#utility.yul\":2520:2525   */\n      dup2\n        /* \"#utility.yul\":2493:2526   */\n      tag_80\n      jump\t// in\n    tag_112:\n        /* \"#utility.yul\":2393:2532   */\n      swap3\n      swap2\n      pop\n      pop\n      jump\t// out\n        /* \"#utility.yul\":2538:2867   */\n    tag_18:\n        /* \"#utility.yul\":2597:2603   */\n      0x00\n        /* \"#utility.yul\":2646:2648   */\n      0x20\n        /* \"#utility.yul\":2634:2643   */\n      dup3\n        /* \"#utility.yul\":2625:2632   */\n      dup5\n        /* \"#utility.yul\":2621:2644   */\n      sub\n        /* \"#utility.yul\":2617:2649   */\n      slt\n        /* \"#utility.yul\":2614:2733   */\n      iszero\n      tag_114\n      jumpi\n        /* \"#utility.yul\":2652:2731   */\n      tag_115\n      tag_78\n      jump\t// in\n    tag_115:\n        /* \"#utility.yul\":2614:2733   */\n    tag_114:\n        /* \"#utility.yul\":2772:2773   */\n      0x00\n        /* \"#utility.yul\":2797:2850   */\n      tag_116\n        /* \"#utility.yul\":2842:2849   */\n      dup5\n        /* \"#utility.yul\":2833:2839   */\n      dup3\n        /* \"#utility.yul\":2822:2831   */\n      dup6\n        /* \"#utility.yul\":2818:2840   */\n      add\n        /* \"#utility.yul\":2797:2850   */\n      tag_81\n      jump\t// in\n    tag_116:\n        /* \"#utility.yul\":2787:2850   */\n      swap2\n      pop\n        /* \"#utility.yul\":2743:2860   */\n      pop\n        /* \"#utility.yul\":2538:2867   */\n      swap3\n      swap2\n      pop\n      pop\n      jump\t// out\n        /* \"#utility.yul\":2873:2991   */\n    tag_82:\n        /* \"#utility.yul\":2960:2984   */\n      tag_118\n        /* \"#utility.yul\":2978:2983   */\n      dup2\n        /* \"#utility.yul\":2960:2984   */\n      tag_72\n      jump\t// in\n    tag_118:\n        /* \"#utility.yul\":2955:2958   */\n      dup3\n        /* \"#utility.yul\":2948:2985   */\n      mstore\n        /* \"#utility.yul\":2873:2991   */\n      pop\n      pop\n      jump\t// out\n        /* \"#utility.yul\":2997:3219   */\n    tag_21:\n        /* \"#utility.yul\":3090:3094   */\n      0x00\n        /* \"#utility.yul\":3128:3130   */\n      0x20\n        /* \"#utility.yul\":3117:3126   */\n      dup3\n        /* \"#utility.yul\":3113:3131   */\n      add\n        /* \"#utility.yul\":3105:3131   */\n      swap1\n      pop\n        /* \"#utility.yul\":3141:3212   */\n      tag_120\n        /* \"#utility.yul\":3209:3210   */\n      0x00\n        /* \"#utility.yul\":3198:3207   */\n      dup4\n        /* \"#utility.yul\":3194:3211   */\n      add\n        /* \"#utility.yul\":3185:3191   */\n      dup5\n        /* \"#utility.yul\":3141:3212   */\n      tag_82\n      jump\t// in\n    tag_120:\n        /* \"#utility.yul\":2997:3219   */\n      swap3\n      swap2\n      pop\n      pop\n      jump\t// out\n        /* \"#utility.yul\":3225:3405   */\n    tag_48:\n        /* \"#utility.yul\":3273:3350   */\n      0x4e487b7100000000000000000000000000000000000000000000000000000000\n        /* \"#utility.yul\":3270:3271   */\n      0x00\n        /* \"#utility.yul\":3263:3351   */\n      mstore\n        /* \"#utility.yul\":3370:3374   */\n      0x32\n        /* \"#utility.yul\":3367:3368   */\n      0x04\n        /* \"#utility.yul\":3360:3375   */\n      mstore\n        /* \"#utility.yul\":3394:3398   */\n      0x24\n        /* \"#utility.yul\":3391:3392   */\n      0x00\n        /* \"#utility.yul\":3384:3399   */\n      revert\n        /* \"#utility.yul\":3411:3591   */\n    tag_83:\n        /* \"#utility.yul\":3459:3536   */\n      0x4e487b7100000000000000000000000000000000000000000000000000000000\n        /* \"#utility.yul\":3456:3457   */\n      0x00\n        /* \"#utility.yul\":3449:3537   */\n      mstore\n        /* \"#utility.yul\":3556:3560   */\n      0x11\n        /* \"#utility.yul\":3553:3554   */\n      0x04\n        /* \"#utility.yul\":3546:3561   */\n      mstore\n        /* \"#utility.yul\":3580:3584   */\n      0x24\n        /* \"#utility.yul\":3577:3578   */\n      0x00\n        /* \"#utility.yul\":3570:3585   */\n      revert\n        /* \"#utility.yul\":3597:3830   */\n    tag_51:\n        /* \"#utility.yul\":3636:3639   */\n      0x00\n        /* \"#utility.yul\":3659:3683   */\n      tag_124\n        /* \"#utility.yul\":3677:3682   */\n      dup3\n        /* \"#utility.yul\":3659:3683   */\n      tag_72\n      jump\t// in\n    tag_124:\n        /* \"#utility.yul\":3650:3683   */\n      swap2\n      pop\n        /* \"#utility.yul\":3705:3771   */\n      0xffffffffffffffffffffffffffffffffffffffffffffffffffffffffffffffff\n        /* \"#utility.yul\":3698:3703   */\n      dup3\n        /* \"#utility.yul\":3695:3772   */\n      sub\n        /* \"#utility.yul\":3692:3795   */\n      tag_125\n      jumpi\n        /* \"#utility.yul\":3775:3793   */\n      tag_126\n      tag_83\n      jump\t// in\n    tag_126:\n        /* \"#utility.yul\":3692:3795   */\n    tag_125:\n        /* \"#utility.yul\":3822:3823   */\n      0x01\n        /* \"#utility.yul\":3815:3820   */\n      dup3\n        /* \"#utility.yul\":3811:3824   */\n      add\n        /* \"#utility.yul\":3804:3824   */\n      swap1\n      pop\n        /* \"#utility.yul\":3597:3830   */\n      swap2\n      swap1\n      pop\n      jump\t// out\n\n    auxdata: 0xa2646970667358221220af84cc3711a7f6dfabde6be0fba77a6744ea601d5537ffe6a7f1c03bc64bcc9364736f6c63430008160033\n}\n",
				"bytecode": {
					"linkReferences": {},
					"object": "608060405234801561000f575f80fd5b5061053c8061001d5f395ff3fe608060405234801561000f575f80fd5b5060043610610060575f3560e01c806353ed51431461006457806360257b1e1461008257806362b44ce1146100a0578063c84c7205146100d0578063fd3d3f2d14610100578063fe4982711461010a575b5f80fd5b61006c610114565b60405161007991906103ca565b60405180910390f35b61008a61015e565b60405161009791906103ca565b60405180910390f35b6100ba60048036038101906100b59190610412565b6101a8565b6040516100c7919061044c565b60405180910390f35b6100ea60048036038101906100e59190610412565b6101c1565b6040516100f7919061044c565b60405180910390f35b6101086101d9565b005b610112610214565b005b61011c61029e565b5f600f806020026040519081016040528092919082600f8015610154576020028201915b815481526020019060010190808311610140575b5050505050905090565b61016661029e565b600f80806020026040519081016040528092919082600f801561019e576020028201915b81548152602001906001019080831161018a575b5050505050905090565b600f81600f81106101b7575f80fd5b015f915090505481565b5f81600f81106101cf575f80fd5b015f915090505481565b5f5b600f8110156102115780600f82600f81106101f9576101f8610465565b5b01819055508080610209906104bf565b9150506101db565b50565b5f80600f806020026040519081016040528092919082600f801561024d576020028201915b815481526020019060010190808311610239575b505050505090505f5b600f81101561028957808282600f811061027357610272610465565b5b6020020181815250508080600101915050610256565b50805f90600f61029a9291906102c1565b5050565b604051806101e00160405280600f90602082028036833780820191505090505090565b82600f81019282156102f0579160200282015b828111156102ef5782518255916020019190600101906102d4565b5b5090506102fd9190610301565b5090565b5b80821115610318575f815f905550600101610302565b5090565b5f600f9050919050565b5f81905092915050565b5f819050919050565b5f819050919050565b61034b81610339565b82525050565b5f61035c8383610342565b60208301905092915050565b5f602082019050919050565b61037d8161031c565b6103878184610326565b925061039282610330565b805f5b838110156103c25781516103a98782610351565b96506103b483610368565b925050600181019050610395565b505050505050565b5f6101e0820190506103de5f830184610374565b92915050565b5f80fd5b6103f181610339565b81146103fb575f80fd5b50565b5f8135905061040c816103e8565b92915050565b5f60208284031215610427576104266103e4565b5b5f610434848285016103fe565b91505092915050565b61044681610339565b82525050565b5f60208201905061045f5f83018461043d565b92915050565b7f4e487b71000000000000000000000000000000000000000000000000000000005f52603260045260245ffd5b7f4e487b71000000000000000000000000000000000000000000000000000000005f52601160045260245ffd5b5f6104c982610339565b91507fffffffffffffffffffffffffffffffffffffffffffffffffffffffffffffffff82036104fb576104fa610492565b5b60018201905091905056fea2646970667358221220af84cc3711a7f6dfabde6be0fba77a6744ea601d5537ffe6a7f1c03bc64bcc9364736f6c63430008160033",
					"opcodes": "PUSH1 0x80 PUSH1 0x40 MSTORE CALLVALUE DUP1 ISZERO PUSH2 0xF JUMPI PUSH0 DUP1 REVERT JUMPDEST POP PUSH2 0x53C DUP1 PUSH2 0x1D PUSH0 CODECOPY PUSH0 RETURN INVALID PUSH1 0x80 PUSH1 0x40 MSTORE CALLVALUE DUP1 ISZERO PUSH2 0xF JUMPI PUSH0 DUP1 REVERT JUMPDEST POP PUSH1 0x4 CALLDATASIZE LT PUSH2 0x60 JUMPI PUSH0 CALLDATALOAD PUSH1 0xE0 SHR DUP1 PUSH4 0x53ED5143 EQ PUSH2 0x64 JUMPI DUP1 PUSH4 0x60257B1E EQ PUSH2 0x82 JUMPI DUP1 PUSH4 0x62B44CE1 EQ PUSH2 0xA0 JUMPI DUP1 PUSH4 0xC84C7205 EQ PUSH2 0xD0 JUMPI DUP1 PUSH4 0xFD3D3F2D EQ PUSH2 0x100 JUMPI DUP1 PUSH4 0xFE498271 EQ PUSH2 0x10A JUMPI JUMPDEST PUSH0 DUP1 REVERT JUMPDEST PUSH2 0x6C PUSH2 0x114 JUMP JUMPDEST PUSH1 0x40 MLOAD PUSH2 0x79 SWAP2 SWAP1 PUSH2 0x3CA JUMP JUMPDEST PUSH1 0x40 MLOAD DUP1 SWAP2 SUB SWAP1 RETURN JUMPDEST PUSH2 0x8A PUSH2 0x15E JUMP JUMPDEST PUSH1 0x40 MLOAD PUSH2 0x97 SWAP2 SWAP1 PUSH2 0x3CA JUMP JUMPDEST PUSH1 0x40 MLOAD DUP1 SWAP2 SUB SWAP1 RETURN JUMPDEST PUSH2 0xBA PUSH1 0x4 DUP1 CALLDATASIZE SUB DUP2 ADD SWAP1 PUSH2 0xB5 SWAP2 SWAP1 PUSH2 0x412 JUMP JUMPDEST PUSH2 0x1A8 JUMP JUMPDEST PUSH1 0x40 MLOAD PUSH2 0xC7 SWAP2 SWAP1 PUSH2 0x44C JUMP JUMPDEST PUSH1 0x40 MLOAD DUP1 SWAP2 SUB SWAP1 RETURN JUMPDEST PUSH2 0xEA PUSH1 0x4 DUP1 CALLDATASIZE SUB DUP2 ADD SWAP1 PUSH2 0xE5 SWAP2 SWAP1 PUSH2 0x412 JUMP JUMPDEST PUSH2 0x1C1 JUMP JUMPDEST PUSH1 0x40 MLOAD PUSH2 0xF7 SWAP2 SWAP1 PUSH2 0x44C JUMP JUMPDEST PUSH1 0x40 MLOAD DUP1 SWAP2 SUB SWAP1 RETURN JUMPDEST PUSH2 0x108 PUSH2 0x1D9 JUMP JUMPDEST STOP JUMPDEST PUSH2 0x112 PUSH2 0x214 JUMP JUMPDEST STOP JUMPDEST PUSH2 0x11C PUSH2 0x29E JUMP JUMPDEST PUSH0 PUSH1 0xF DUP1 PUSH1 0x20 MUL PUSH1 0x40 MLOAD SWAP1 DUP2 ADD PUSH1 0x40 MSTORE DUP1 SWAP3 SWAP2 SWAP1 DUP3 PUSH1 0xF DUP1 ISZERO PUSH2 0x154 JUMPI PUSH1 0x20 MUL DUP3 ADD SWAP2 JUMPDEST DUP2 SLOAD DUP2 MSTORE PUSH1 0x20 ADD SWAP1 PUSH1 0x1 ADD SWAP1 DUP1 DUP4 GT PUSH2 0x140 JUMPI JUMPDEST POP POP POP POP POP SWAP1 POP SWAP1 JUMP JUMPDEST PUSH2 0x166 PUSH2 0x29E JUMP JUMPDEST PUSH1 0xF DUP1 DUP1 PUSH1 0x20 MUL PUSH1 0x40 MLOAD SWAP1 DUP2 ADD PUSH1 0x40 MSTORE DUP1 SWAP3 SWAP2 SWAP1 DUP3 PUSH1 0xF DUP1 ISZERO PUSH2 0x19E JUMPI PUSH1 0x20 MUL DUP3 ADD SWAP2 JUMPDEST DUP2 SLOAD DUP2 MSTORE PUSH1 0x20 ADD SWAP1 PUSH1 0x1 ADD SWAP1 DUP1 DUP4 GT PUSH2 0x18A JUMPI JUMPDEST POP POP POP POP POP SWAP1 POP SWAP1 JUMP JUMPDEST PUSH1 0xF DUP2 PUSH1 0xF DUP2 LT PUSH2 0x1B7 JUMPI PUSH0 DUP1 REVERT JUMPDEST ADD PUSH0 SWAP2 POP SWAP1 POP SLOAD DUP2 JUMP JUMPDEST PUSH0 DUP2 PUSH1 0xF DUP2 LT PUSH2 0x1CF JUMPI PUSH0 DUP1 REVERT JUMPDEST ADD PUSH0 SWAP2 POP SWAP1 POP SLOAD DUP2 JUMP JUMPDEST PUSH0 JUMPDEST PUSH1 0xF DUP2 LT ISZERO PUSH2 0x211 JUMPI DUP1 PUSH1 0xF DUP3 PUSH1 0xF DUP2 LT PUSH2 0x1F9 JUMPI PUSH2 0x1F8 PUSH2 0x465 JUMP JUMPDEST JUMPDEST ADD DUP2 SWAP1 SSTORE POP DUP1 DUP1 PUSH2 0x209 SWAP1 PUSH2 0x4BF JUMP JUMPDEST SWAP2 POP POP PUSH2 0x1DB JUMP JUMPDEST POP JUMP JUMPDEST PUSH0 DUP1 PUSH1 0xF DUP1 PUSH1 0x20 MUL PUSH1 0x40 MLOAD SWAP1 DUP2 ADD PUSH1 0x40 MSTORE DUP1 SWAP3 SWAP2 SWAP1 DUP3 PUSH1 0xF DUP1 ISZERO PUSH2 0x24D JUMPI PUSH1 0x20 MUL DUP3 ADD SWAP2 JUMPDEST DUP2 SLOAD DUP2 MSTORE PUSH1 0x20 ADD SWAP1 PUSH1 0x1 ADD SWAP1 DUP1 DUP4 GT PUSH2 0x239 JUMPI JUMPDEST POP POP POP POP POP SWAP1 POP PUSH0 JUMPDEST PUSH1 0xF DUP2 LT ISZERO PUSH2 0x289 JUMPI DUP1 DUP3 DUP3 PUSH1 0xF DUP2 LT PUSH2 0x273 JUMPI PUSH2 0x272 PUSH2 0x465 JUMP JUMPDEST JUMPDEST PUSH1 0x20 MUL ADD DUP2 DUP2 MSTORE POP POP DUP1 DUP1 PUSH1 0x1 ADD SWAP2 POP POP PUSH2 0x256 JUMP JUMPDEST POP DUP1 PUSH0 SWAP1 PUSH1 0xF PUSH2 0x29A SWAP3 SWAP2 SWAP1 PUSH2 0x2C1 JUMP JUMPDEST POP POP JUMP JUMPDEST PUSH1 0x40 MLOAD DUP1 PUSH2 0x1E0 ADD PUSH1 0x40 MSTORE DUP1 PUSH1 0xF SWAP1 PUSH1 0x20 DUP3 MUL DUP1 CALLDATASIZE DUP4 CALLDATACOPY DUP1 DUP3 ADD SWAP2 POP POP SWAP1 POP POP SWAP1 JUMP JUMPDEST DUP3 PUSH1 0xF DUP2 ADD SWAP3 DUP3 ISZERO PUSH2 0x2F0 JUMPI SWAP2 PUSH1 0x20 MUL DUP3 ADD JUMPDEST DUP3 DUP2 GT ISZERO PUSH2 0x2EF JUMPI DUP3 MLOAD DUP3 SSTORE SWAP2 PUSH1 0x20 ADD SWAP2 SWAP1 PUSH1 0x1 ADD SWAP1 PUSH2 0x2D4 JUMP JUMPDEST JUMPDEST POP SWAP1 POP PUSH2 0x2FD SWAP2 SWAP1 PUSH2 0x301 JUMP JUMPDEST POP SWAP1 JUMP JUMPDEST JUMPDEST DUP1 DUP3 GT ISZERO PUSH2 0x318 JUMPI PUSH0 DUP2 PUSH0 SWAP1 SSTORE POP PUSH1 0x1 ADD PUSH2 0x302 JUMP JUMPDEST POP SWAP1 JUMP JUMPDEST PUSH0 PUSH1 0xF SWAP1 POP SWAP2 SWAP1 POP JUMP JUMPDEST PUSH0 DUP2 SWAP1 POP SWAP3 SWAP2 POP POP JUMP JUMPDEST PUSH0 DUP2 SWAP1 POP SWAP2 SWAP1 POP JUMP JUMPDEST PUSH0 DUP2 SWAP1 POP SWAP2 SWAP1 POP JUMP JUMPDEST PUSH2 0x34B DUP2 PUSH2 0x339 JUMP JUMPDEST DUP3 MSTORE POP POP JUMP JUMPDEST PUSH0 PUSH2 0x35C DUP4 DUP4 PUSH2 0x342 JUMP JUMPDEST PUSH1 0x20 DUP4 ADD SWAP1 POP SWAP3 SWAP2 POP POP JUMP JUMPDEST PUSH0 PUSH1 0x20 DUP3 ADD SWAP1 POP SWAP2 SWAP1 POP JUMP JUMPDEST PUSH2 0x37D DUP2 PUSH2 0x31C JUMP JUMPDEST PUSH2 0x387 DUP2 DUP5 PUSH2 0x326 JUMP JUMPDEST SWAP3 POP PUSH2 0x392 DUP3 PUSH2 0x330 JUMP JUMPDEST DUP1 PUSH0 JUMPDEST DUP4 DUP2 LT ISZERO PUSH2 0x3C2 JUMPI DUP2 MLOAD PUSH2 0x3A9 DUP8 DUP3 PUSH2 0x351 JUMP JUMPDEST SWAP7 POP PUSH2 0x3B4 DUP4 PUSH2 0x368 JUMP JUMPDEST SWAP3 POP POP PUSH1 0x1 DUP2 ADD SWAP1 POP PUSH2 0x395 JUMP JUMPDEST POP POP POP POP POP POP JUMP JUMPDEST PUSH0 PUSH2 0x1E0 DUP3 ADD SWAP1 POP PUSH2 0x3DE PUSH0 DUP4 ADD DUP5 PUSH2 0x374 JUMP JUMPDEST SWAP3 SWAP2 POP POP JUMP JUMPDEST PUSH0 DUP1 REVERT JUMPDEST PUSH2 0x3F1 DUP2 PUSH2 0x339 JUMP JUMPDEST DUP2 EQ PUSH2 0x3FB JUMPI PUSH0 DUP1 REVERT JUMPDEST POP JUMP JUMPDEST PUSH0 DUP2 CALLDATALOAD SWAP1 POP PUSH2 0x40C DUP2 PUSH2 0x3E8 JUMP JUMPDEST SWAP3 SWAP2 POP POP JUMP JUMPDEST PUSH0 PUSH1 0x20 DUP3 DUP5 SUB SLT ISZERO PUSH2 0x427 JUMPI PUSH2 0x426 PUSH2 0x3E4 JUMP JUMPDEST JUMPDEST PUSH0 PUSH2 0x434 DUP5 DUP3 DUP6 ADD PUSH2 0x3FE JUMP JUMPDEST SWAP2 POP POP SWAP3 SWAP2 POP POP JUMP JUMPDEST PUSH2 0x446 DUP2 PUSH2 0x339 JUMP JUMPDEST DUP3 MSTORE POP POP JUMP JUMPDEST PUSH0 PUSH1 0x20 DUP3 ADD SWAP1 POP PUSH2 0x45F PUSH0 DUP4 ADD DUP5 PUSH2 0x43D JUMP JUMPDEST SWAP3 SWAP2 POP POP JUMP JUMPDEST PUSH32 0x4E487B7100000000000000000000000000000000000000000000000000000000 PUSH0 MSTORE PUSH1 0x32 PUSH1 0x4 MSTORE PUSH1 0x24 PUSH0 REVERT JUMPDEST PUSH32 0x4E487B7100000000000000000000000000000000000000000000000000000000 PUSH0 MSTORE PUSH1 0x11 PUSH1 0x4 MSTORE PUSH1 0x24 PUSH0 REVERT JUMPDEST PUSH0 PUSH2 0x4C9 DUP3 PUSH2 0x339 JUMP JUMPDEST SWAP2 POP PUSH32 0xFFFFFFFFFFFFFFFFFFFFFFFFFFFFFFFFFFFFFFFFFFFFFFFFFFFFFFFFFFFFFFFF DUP3 SUB PUSH2 0x4FB JUMPI PUSH2 0x4FA PUSH2 0x492 JUMP JUMPDEST JUMPDEST PUSH1 0x1 DUP3 ADD SWAP1 POP SWAP2 SWAP1 POP JUMP INVALID LOG2 PUSH5 0x6970667358 0x22 SLT KECCAK256 0xAF DUP5 0xCC CALLDATACOPY GT 0xA7 0xF6 0xDF 0xAB 0xDE PUSH12 0xE0FBA77A6744EA601D5537FF 0xE6 0xA7 CALL 0xC0 EXTCODESIZE 0xC6 0x4B 0xCC SWAP4 PUSH5 0x736F6C6343 STOP ADDMOD AND STOP CALLER "
				},
				"gasEstimates": {
					"creation": {
						"codeDepositCost": "268000",
						"executionCost": "304",
						"totalCost": "268304"
					},
					"external": {
						"getAll()": "infinite",
						"getall1()": "infinite",
						"listByfor()": "infinite",
						"numbers0(uint256)": "infinite",
						"numbers1(uint256)": "infinite",
						"whileDongusu()": "infinite"
					}
				},
				"methodIdentifiers": {
					"getAll()": "53ed5143",
					"getall1()": "60257b1e",
					"listByfor()": "fe498271",
					"numbers0(uint256)": "c84c7205",
					"numbers1(uint256)": "62b44ce1",
					"whileDongusu()": "fd3d3f2d"
				}
			},
			"storageLayout": {
				"storage": [
					{
						"astId": 5,
						"contract": "contracts/Loops.sol:Loops",
						"label": "numbers0",
						"offset": 0,
						"slot": "0",
						"type": "t_array(t_uint256)15_storage"
					},
					{
						"astId": 9,
						"contract": "contracts/Loops.sol:Loops",
						"label": "numbers1",
						"offset": 0,
						"slot": "15",
						"type": "t_array(t_uint256)15_storage"
					}
				],
				"types": {
					"t_array(t_uint256)15_storage": {
						"base": "t_uint256",
						"encoding": "inplace",
						"label": "uint256[15]",
						"numberOfBytes": "480"
					},
					"t_uint256": {
						"encoding": "inplace",
						"label": "uint256",
						"numberOfBytes": "32"
					}
				}
			},
			"userdoc": {
				"kind": "user",
				"methods": {},
				"version": 1
			}
		}
	}
}