{
	"contracts/StructEnum.sol": {
		"StructEnum": {
			"abi": [
				{
					"inputs": [],
					"stateMutability": "nonpayable",
					"type": "constructor"
				},
				{
					"anonymous": false,
					"inputs": [
						{
							"indexed": false,
							"internalType": "uint256",
							"name": "_orderId",
							"type": "uint256"
						},
						{
							"indexed": true,
							"internalType": "address",
							"name": "_cousumer",
							"type": "address"
						}
					],
					"name": "OrderCreated",
					"type": "event"
				},
				{
					"anonymous": false,
					"inputs": [
						{
							"indexed": false,
							"internalType": "uint256",
							"name": "_orderId",
							"type": "uint256"
						},
						{
							"indexed": false,
							"internalType": "string",
							"name": "_zipCode",
							"type": "string"
						}
					],
					"name": "zipChange",
					"type": "event"
				},
				{
					"inputs": [
						{
							"internalType": "uint256",
							"name": "_orderId",
							"type": "uint256"
						}
					],
					"name": "advencerOrder",
					"outputs": [],
					"stateMutability": "nonpayable",
					"type": "function"
				},
				{
					"inputs": [
						{
							"internalType": "string",
							"name": "_zipCode",
							"type": "string"
						},
						{
							"internalType": "uint256[]",
							"name": "_products",
							"type": "uint256[]"
						}
					],
					"name": "creatOrder",
					"outputs": [
						{
							"internalType": "uint256",
							"name": "",
							"type": "uint256"
						}
					],
					"stateMutability": "nonpayable",
					"type": "function"
				},
				{
					"inputs": [
						{
							"internalType": "uint256",
							"name": "_orderId",
							"type": "uint256"
						}
					],
					"name": "getOrder",
					"outputs": [
						{
							"components": [
								{
									"internalType": "address",
									"name": "customer",
									"type": "address"
								},
								{
									"internalType": "string",
									"name": "zipCode",
									"type": "string"
								},
								{
									"internalType": "uint256[]",
									"name": "product",
									"type": "uint256[]"
								},
								{
									"internalType": "enum StructEnum.Status",
									"name": "status",
									"type": "uint8"
								}
							],
							"internalType": "struct StructEnum.Order",
							"name": "",
							"type": "tuple"
						}
					],
					"stateMutability": "view",
					"type": "function"
				},
				{
					"inputs": [
						{
							"internalType": "uint256",
							"name": "",
							"type": "uint256"
						}
					],
					"name": "orders",
					"outputs": [
						{
							"internalType": "address",
							"name": "customer",
							"type": "address"
						},
						{
							"internalType": "string",
							"name": "zipCode",
							"type": "string"
						},
						{
							"internalType": "enum StructEnum.Status",
							"name": "status",
							"type": "uint8"
						}
					],
					"stateMutability": "view",
					"type": "function"
				},
				{
					"inputs": [],
					"name": "owner",
					"outputs": [
						{
							"internalType": "address",
							"name": "",
							"type": "address"
						}
					],
					"stateMutability": "view",
					"type": "function"
				},
				{
					"inputs": [],
					"name": "txCount",
					"outputs": [
						{
							"internalType": "uint256",
							"name": "",
							"type": "uint256"
						}
					],
					"stateMutability": "view",
					"type": "function"
				},
				{
					"inputs": [
						{
							"internalType": "uint256",
							"name": "_orderId",
							"type": "uint256"
						},
						{
							"internalType": "string",
							"name": "_zip",
							"type": "string"
						}
					],
					"name": "updateZip",
					"outputs": [],
					"stateMutability": "nonpayable",
					"type": "function"
				}
			],
			"devdoc": {
				"kind": "dev",
				"methods": {},
				"version": 1
			},
			"evm": {
				"assembly": "    /* \"contracts/StructEnum.sol\":60:2935  contract StructEnum{... */\n  mstore(0x40, 0x80)\n    /* \"contracts/StructEnum.sol\":541:591  constructor(){... */\n  callvalue\n  dup1\n  iszero\n  tag_1\n  jumpi\n  0x00\n  dup1\n  revert\ntag_1:\n  pop\n    /* \"contracts/StructEnum.sol\":573:583  msg.sender */\n  caller\n    /* \"contracts/StructEnum.sol\":565:570  owner */\n  0x01\n  0x00\n    /* \"contracts/StructEnum.sol\":565:583  owner = msg.sender */\n  0x0100\n  exp\n  dup2\n  sload\n  dup2\n  0xffffffffffffffffffffffffffffffffffffffff\n  mul\n  not\n  and\n  swap1\n  dup4\n  0xffffffffffffffffffffffffffffffffffffffff\n  and\n  mul\n  or\n  swap1\n  sstore\n  pop\n    /* \"contracts/StructEnum.sol\":60:2935  contract StructEnum{... */\n  dataSize(sub_0)\n  dup1\n  dataOffset(sub_0)\n  0x00\n  codecopy\n  0x00\n  return\nstop\n\nsub_0: assembly {\n        /* \"contracts/StructEnum.sol\":60:2935  contract StructEnum{... */\n      mstore(0x40, 0x80)\n      callvalue\n      dup1\n      iszero\n      tag_1\n      jumpi\n      0x00\n      dup1\n      revert\n    tag_1:\n      pop\n      jumpi(tag_2, lt(calldatasize, 0x04))\n      shr(0xe0, calldataload(0x00))\n      dup1\n      0xa85c38ef\n      gt\n      tag_10\n      jumpi\n      dup1\n      0xa85c38ef\n      eq\n      tag_6\n      jumpi\n      dup1\n      0xb147135d\n      eq\n      tag_7\n      jumpi\n      dup1\n      0xd09ef241\n      eq\n      tag_8\n      jumpi\n      dup1\n      0xf68d22d6\n      eq\n      tag_9\n      jumpi\n      jump(tag_2)\n    tag_10:\n      dup1\n      0x3c540687\n      eq\n      tag_3\n      jumpi\n      dup1\n      0x577dc0a0\n      eq\n      tag_4\n      jumpi\n      dup1\n      0x8da5cb5b\n      eq\n      tag_5\n      jumpi\n    tag_2:\n      0x00\n      dup1\n      revert\n        /* \"contracts/StructEnum.sol\":381:403  uint256 public txCount */\n    tag_3:\n      tag_11\n      tag_12\n      jump\t// in\n    tag_11:\n      mload(0x40)\n      tag_13\n      swap2\n      swap1\n      tag_14\n      jump\t// in\n    tag_13:\n      mload(0x40)\n      dup1\n      swap2\n      sub\n      swap1\n      return\n        /* \"contracts/StructEnum.sol\":2087:2345  function updateZip(uint256 _orderId, string memory _zip) checkOrderId(_orderId) onlyCustomer(_orderId) incTx external  {... */\n    tag_4:\n      tag_15\n      0x04\n      dup1\n      calldatasize\n      sub\n      dup2\n      add\n      swap1\n      tag_16\n      swap2\n      swap1\n      tag_17\n      jump\t// in\n    tag_16:\n      tag_18\n      jump\t// in\n    tag_15:\n      stop\n        /* \"contracts/StructEnum.sol\":354:374  address public owner */\n    tag_5:\n      tag_19\n      tag_20\n      jump\t// in\n    tag_19:\n      mload(0x40)\n      tag_21\n      swap2\n      swap1\n      tag_22\n      jump\t// in\n    tag_21:\n      mload(0x40)\n      dup1\n      swap2\n      sub\n      swap1\n      return\n        /* \"contracts/StructEnum.sol\":326:347  Order[] public orders */\n    tag_6:\n      tag_23\n      0x04\n      dup1\n      calldatasize\n      sub\n      dup2\n      add\n      swap1\n      tag_24\n      swap2\n      swap1\n      tag_25\n      jump\t// in\n    tag_24:\n      tag_26\n      jump\t// in\n    tag_23:\n      mload(0x40)\n      tag_27\n      swap4\n      swap3\n      swap2\n      swap1\n      tag_28\n      jump\t// in\n    tag_27:\n      mload(0x40)\n      dup1\n      swap2\n      sub\n      swap1\n      return\n        /* \"contracts/StructEnum.sol\":599:1387  function creatOrder(string memory _zipCode, uint256[] memory _products) checkProducts(_products) incTx external  returns (uint256){... */\n    tag_7:\n      tag_29\n      0x04\n      dup1\n      calldatasize\n      sub\n      dup2\n      add\n      swap1\n      tag_30\n      swap2\n      swap1\n      tag_31\n      jump\t// in\n    tag_30:\n      tag_32\n      jump\t// in\n    tag_29:\n      mload(0x40)\n      tag_33\n      swap2\n      swap1\n      tag_14\n      jump\t// in\n    tag_33:\n      mload(0x40)\n      dup1\n      swap2\n      sub\n      swap1\n      return\n        /* \"contracts/StructEnum.sol\":1929:2081  function getOrder(uint256 _orderId) checkOrderId(_orderId) external  view returns (Order memory){... */\n    tag_8:\n      tag_34\n      0x04\n      dup1\n      calldatasize\n      sub\n      dup2\n      add\n      swap1\n      tag_35\n      swap2\n      swap1\n      tag_25\n      jump\t// in\n    tag_35:\n      tag_36\n      jump\t// in\n    tag_34:\n      mload(0x40)\n      tag_37\n      swap2\n      swap1\n      tag_38\n      jump\t// in\n    tag_37:\n      mload(0x40)\n      dup1\n      swap2\n      sub\n      swap1\n      return\n        /* \"contracts/StructEnum.sol\":1394:1923  function advencerOrder(uint256 _orderId) checkOrderId(_orderId) onlyOwner external    {... */\n    tag_9:\n      tag_39\n      0x04\n      dup1\n      calldatasize\n      sub\n      dup2\n      add\n      swap1\n      tag_40\n      swap2\n      swap1\n      tag_25\n      jump\t// in\n    tag_40:\n      tag_41\n      jump\t// in\n    tag_39:\n      stop\n        /* \"contracts/StructEnum.sol\":381:403  uint256 public txCount */\n    tag_12:\n      sload(0x02)\n      dup2\n      jump\t// out\n        /* \"contracts/StructEnum.sol\":2087:2345  function updateZip(uint256 _orderId, string memory _zip) checkOrderId(_orderId) onlyCustomer(_orderId) incTx external  {... */\n    tag_18:\n        /* \"contracts/StructEnum.sol\":2157:2165  _orderId */\n      dup2\n        /* \"contracts/StructEnum.sol\":2552:2558  orders */\n      0x00\n        /* \"contracts/StructEnum.sol\":2552:2565  orders.length */\n      dup1\n      sload\n      swap1\n      pop\n        /* \"contracts/StructEnum.sol\":2541:2549  _orderId */\n      dup2\n        /* \"contracts/StructEnum.sol\":2541:2565  _orderId < orders.length */\n      lt\n        /* \"contracts/StructEnum.sol\":2533:2590  require(_orderId < orders.length, \"Not a valid order id\") */\n      tag_43\n      jumpi\n      mload(0x40)\n      0x08c379a000000000000000000000000000000000000000000000000000000000\n      dup2\n      mstore\n      0x04\n      add\n      tag_44\n      swap1\n      tag_45\n      jump\t// in\n    tag_44:\n      mload(0x40)\n      dup1\n      swap2\n      sub\n      swap1\n      revert\n    tag_43:\n        /* \"contracts/StructEnum.sol\":2180:2188  _orderId */\n      dup3\n        /* \"contracts/StructEnum.sol\":2873:2883  msg.sender */\n      caller\n        /* \"contracts/StructEnum.sol\":2844:2883  orders[_orderId].customer == msg.sender */\n      0xffffffffffffffffffffffffffffffffffffffff\n      and\n        /* \"contracts/StructEnum.sol\":2844:2850  orders */\n      0x00\n        /* \"contracts/StructEnum.sol\":2851:2859  _orderId */\n      dup3\n        /* \"contracts/StructEnum.sol\":2844:2860  orders[_orderId] */\n      dup2\n      sload\n      dup2\n      lt\n      tag_47\n      jumpi\n      tag_48\n      tag_49\n      jump\t// in\n    tag_48:\n    tag_47:\n      swap1\n      0x00\n      mstore\n      keccak256(0x00, 0x20)\n      swap1\n      0x04\n      mul\n      add\n        /* \"contracts/StructEnum.sol\":2844:2869  orders[_orderId].customer */\n      0x00\n      add\n      0x00\n      swap1\n      sload\n      swap1\n      0x0100\n      exp\n      swap1\n      div\n      0xffffffffffffffffffffffffffffffffffffffff\n      and\n        /* \"contracts/StructEnum.sol\":2844:2883  orders[_orderId].customer == msg.sender */\n      0xffffffffffffffffffffffffffffffffffffffff\n      and\n      eq\n        /* \"contracts/StructEnum.sol\":2836:2910  require(orders[_orderId].customer == msg.sender, \" you are not the owner\") */\n      tag_51\n      jumpi\n      mload(0x40)\n      0x08c379a000000000000000000000000000000000000000000000000000000000\n      dup2\n      mstore\n      0x04\n      add\n      tag_52\n      swap1\n      tag_53\n      jump\t// in\n    tag_52:\n      mload(0x40)\n      dup1\n      swap2\n      sub\n      swap1\n      revert\n    tag_51:\n        /* \"contracts/StructEnum.sol\":2227:2246  Order storage order */\n      0x00\n        /* \"contracts/StructEnum.sol\":2249:2255  orders */\n      dup1\n        /* \"contracts/StructEnum.sol\":2256:2264  _orderId */\n      dup6\n        /* \"contracts/StructEnum.sol\":2249:2265  orders[_orderId] */\n      dup2\n      sload\n      dup2\n      lt\n      tag_56\n      jumpi\n      tag_57\n      tag_49\n      jump\t// in\n    tag_57:\n    tag_56:\n      swap1\n      0x00\n      mstore\n      keccak256(0x00, 0x20)\n      swap1\n      0x04\n      mul\n      add\n        /* \"contracts/StructEnum.sol\":2227:2265  Order storage order = orders[_orderId] */\n      swap1\n      pop\n        /* \"contracts/StructEnum.sol\":2292:2296  _zip */\n      dup4\n        /* \"contracts/StructEnum.sol\":2276:2281  order */\n      dup2\n        /* \"contracts/StructEnum.sol\":2276:2289  order.zipCode */\n      0x01\n      add\n        /* \"contracts/StructEnum.sol\":2276:2296  order.zipCode = _zip */\n      swap1\n      dup2\n      tag_59\n      swap2\n      swap1\n      tag_60\n      jump\t// in\n    tag_59:\n      pop\n        /* \"contracts/StructEnum.sol\":2312:2337  zipChange(_orderId, _zip) */\n      0x8accfb13b7655f15dcb12b10c6eff1c1c229b5c36925b2905ede696863e43b4c\n        /* \"contracts/StructEnum.sol\":2322:2330  _orderId */\n      dup6\n        /* \"contracts/StructEnum.sol\":2332:2336  _zip */\n      dup6\n        /* \"contracts/StructEnum.sol\":2312:2337  zipChange(_orderId, _zip) */\n      mload(0x40)\n      tag_61\n      swap3\n      swap2\n      swap1\n      tag_62\n      jump\t// in\n    tag_61:\n      mload(0x40)\n      dup1\n      swap2\n      sub\n      swap1\n      log1\n        /* \"contracts/StructEnum.sol\":2206:2345  {... */\n      pop\n        /* \"contracts/StructEnum.sol\":2653:2660  txCount */\n      0x02\n      0x00\n        /* \"contracts/StructEnum.sol\":2653:2662  txCount++ */\n      dup2\n      sload\n      dup1\n      swap3\n      swap2\n      swap1\n      tag_63\n      swap1\n      tag_64\n      jump\t// in\n    tag_63:\n      swap2\n      swap1\n      pop\n      sstore\n      pop\n        /* \"contracts/StructEnum.sol\":2601:2602  _ */\n      pop\n        /* \"contracts/StructEnum.sol\":2087:2345  function updateZip(uint256 _orderId, string memory _zip) checkOrderId(_orderId) onlyCustomer(_orderId) incTx external  {... */\n      pop\n      pop\n      pop\n      jump\t// out\n        /* \"contracts/StructEnum.sol\":354:374  address public owner */\n    tag_20:\n      0x01\n      0x00\n      swap1\n      sload\n      swap1\n      0x0100\n      exp\n      swap1\n      div\n      0xffffffffffffffffffffffffffffffffffffffff\n      and\n      dup2\n      jump\t// out\n        /* \"contracts/StructEnum.sol\":326:347  Order[] public orders */\n    tag_26:\n      0x00\n      dup2\n      dup2\n      sload\n      dup2\n      lt\n      tag_65\n      jumpi\n      0x00\n      dup1\n      revert\n    tag_65:\n      swap1\n      0x00\n      mstore\n      keccak256(0x00, 0x20)\n      swap1\n      0x04\n      mul\n      add\n      0x00\n      swap2\n      pop\n      swap1\n      pop\n      dup1\n      0x00\n      add\n      0x00\n      swap1\n      sload\n      swap1\n      0x0100\n      exp\n      swap1\n      div\n      0xffffffffffffffffffffffffffffffffffffffff\n      and\n      swap1\n      dup1\n      0x01\n      add\n      dup1\n      sload\n      tag_67\n      swap1\n      tag_68\n      jump\t// in\n    tag_67:\n      dup1\n      0x1f\n      add\n      0x20\n      dup1\n      swap2\n      div\n      mul\n      0x20\n      add\n      mload(0x40)\n      swap1\n      dup2\n      add\n      0x40\n      mstore\n      dup1\n      swap3\n      swap2\n      swap1\n      dup2\n      dup2\n      mstore\n      0x20\n      add\n      dup3\n      dup1\n      sload\n      tag_69\n      swap1\n      tag_68\n      jump\t// in\n    tag_69:\n      dup1\n      iszero\n      tag_70\n      jumpi\n      dup1\n      0x1f\n      lt\n      tag_71\n      jumpi\n      0x0100\n      dup1\n      dup4\n      sload\n      div\n      mul\n      dup4\n      mstore\n      swap2\n      0x20\n      add\n      swap2\n      jump(tag_70)\n    tag_71:\n      dup3\n      add\n      swap2\n      swap1\n      0x00\n      mstore\n      keccak256(0x00, 0x20)\n      swap1\n    tag_72:\n      dup2\n      sload\n      dup2\n      mstore\n      swap1\n      0x01\n      add\n      swap1\n      0x20\n      add\n      dup1\n      dup4\n      gt\n      tag_72\n      jumpi\n      dup3\n      swap1\n      sub\n      0x1f\n      and\n      dup3\n      add\n      swap2\n    tag_70:\n      pop\n      pop\n      pop\n      pop\n      pop\n      swap1\n      dup1\n      0x03\n      add\n      0x00\n      swap1\n      sload\n      swap1\n      0x0100\n      exp\n      swap1\n      div\n      0xff\n      and\n      swap1\n      pop\n      dup4\n      jump\t// out\n        /* \"contracts/StructEnum.sol\":599:1387  function creatOrder(string memory _zipCode, uint256[] memory _products) checkProducts(_products) incTx external  returns (uint256){... */\n    tag_32:\n        /* \"contracts/StructEnum.sol\":721:728  uint256 */\n      0x00\n        /* \"contracts/StructEnum.sol\":685:694  _products */\n      dup2\n        /* \"contracts/StructEnum.sol\":2439:2440  0 */\n      0x00\n        /* \"contracts/StructEnum.sol\":2420:2429  _products */\n      dup2\n        /* \"contracts/StructEnum.sol\":2420:2436  _products.length */\n      mload\n        /* \"contracts/StructEnum.sol\":2420:2440  _products.length > 0 */\n      gt\n        /* \"contracts/StructEnum.sol\":2412:2457  require(_products.length > 0 , \"No products\") */\n      tag_74\n      jumpi\n      mload(0x40)\n      0x08c379a000000000000000000000000000000000000000000000000000000000\n      dup2\n      mstore\n      0x04\n      add\n      tag_75\n      swap1\n      tag_76\n      jump\t// in\n    tag_75:\n      mload(0x40)\n      dup1\n      swap2\n      sub\n      swap1\n      revert\n    tag_74:\n        /* \"contracts/StructEnum.sol\":752:770  Order memory order */\n      tag_79\n      tag_80\n      jump\t// in\n    tag_79:\n        /* \"contracts/StructEnum.sol\":798:808  msg.sender */\n      caller\n        /* \"contracts/StructEnum.sol\":781:786  order */\n      dup2\n        /* \"contracts/StructEnum.sol\":781:795  order.customer */\n      0x00\n      add\n        /* \"contracts/StructEnum.sol\":781:808  order.customer = msg.sender */\n      swap1\n      0xffffffffffffffffffffffffffffffffffffffff\n      and\n      swap1\n      dup2\n      0xffffffffffffffffffffffffffffffffffffffff\n      and\n      dup2\n      mstore\n      pop\n      pop\n        /* \"contracts/StructEnum.sol\":836:844  _zipCode */\n      dup5\n        /* \"contracts/StructEnum.sol\":819:824  order */\n      dup2\n        /* \"contracts/StructEnum.sol\":819:832  order.zipCode */\n      0x20\n      add\n        /* \"contracts/StructEnum.sol\":819:844  order.zipCode  = _zipCode */\n      dup2\n      swap1\n      mstore\n      pop\n        /* \"contracts/StructEnum.sol\":872:881  _products */\n      dup4\n        /* \"contracts/StructEnum.sol\":855:860  order */\n      dup2\n        /* \"contracts/StructEnum.sol\":855:868  order.product */\n      0x40\n      add\n        /* \"contracts/StructEnum.sol\":855:881  order.product  = _products */\n      dup2\n      swap1\n      mstore\n      pop\n        /* \"contracts/StructEnum.sol\":909:921  Status.Taken */\n      0x00\n        /* \"contracts/StructEnum.sol\":892:897  order */\n      dup2\n        /* \"contracts/StructEnum.sol\":892:904  order.status */\n      0x60\n      add\n        /* \"contracts/StructEnum.sol\":892:921  order.status   = Status.Taken */\n      swap1\n      0x03\n      dup2\n      gt\n      iszero\n      tag_81\n      jumpi\n      tag_82\n      tag_83\n      jump\t// in\n    tag_82:\n    tag_81:\n      swap1\n      dup2\n      0x03\n      dup2\n      gt\n      iszero\n      tag_84\n      jumpi\n      tag_85\n      tag_83\n      jump\t// in\n    tag_85:\n    tag_84:\n      dup2\n      mstore\n      pop\n      pop\n        /* \"contracts/StructEnum.sol\":932:938  orders */\n      0x00\n        /* \"contracts/StructEnum.sol\":944:949  order */\n      dup2\n        /* \"contracts/StructEnum.sol\":932:950  orders.push(order) */\n      swap1\n      dup1\n      0x01\n      dup2\n      sload\n      add\n      dup1\n      dup3\n      sstore\n      dup1\n      swap2\n      pop\n      pop\n      0x01\n      swap1\n      sub\n      swap1\n      0x00\n      mstore\n      keccak256(0x00, 0x20)\n      swap1\n      0x04\n      mul\n      add\n      0x00\n      swap1\n      swap2\n      swap1\n      swap2\n      swap1\n      swap2\n      pop\n      0x00\n      dup3\n      add\n      mload\n      dup2\n      0x00\n      add\n      exp(0x0100, 0x00)\n      dup2\n      sload\n      dup2\n      0xffffffffffffffffffffffffffffffffffffffff\n      mul\n      not\n      and\n      swap1\n      dup4\n      0xffffffffffffffffffffffffffffffffffffffff\n      and\n      mul\n      or\n      swap1\n      sstore\n      pop\n      0x20\n      dup3\n      add\n      mload\n      dup2\n      0x01\n      add\n      swap1\n      dup2\n      tag_87\n      swap2\n      swap1\n      tag_60\n      jump\t// in\n    tag_87:\n      pop\n      0x40\n      dup3\n      add\n      mload\n      dup2\n      0x02\n      add\n      swap1\n      dup1\n      mload\n      swap1\n      0x20\n      add\n      swap1\n      tag_88\n      swap3\n      swap2\n      swap1\n      tag_89\n      jump\t// in\n    tag_88:\n      pop\n      0x60\n      dup3\n      add\n      mload\n      dup2\n      0x03\n      add\n      exp(0x0100, 0x00)\n      dup2\n      sload\n      dup2\n      0xff\n      mul\n      not\n      and\n      swap1\n      dup4\n      0x03\n      dup2\n      gt\n      iszero\n      tag_90\n      jumpi\n      tag_91\n      tag_83\n      jump\t// in\n    tag_91:\n    tag_90:\n      mul\n      or\n      swap1\n      sstore\n      pop\n      pop\n      pop\n        /* \"contracts/StructEnum.sol\":1333:1343  msg.sender */\n      caller\n        /* \"contracts/StructEnum.sol\":1303:1344  OrderCreated(orders.length-1, msg.sender) */\n      0xffffffffffffffffffffffffffffffffffffffff\n      and\n      0x4ceaea0569072c9203c8c195ffccdbca9851b9d0410f577878a6792f12ec9b52\n        /* \"contracts/StructEnum.sol\":1330:1331  1 */\n      0x01\n        /* \"contracts/StructEnum.sol\":1316:1322  orders */\n      0x00\n        /* \"contracts/StructEnum.sol\":1316:1329  orders.length */\n      dup1\n      sload\n      swap1\n      pop\n        /* \"contracts/StructEnum.sol\":1316:1331  orders.length-1 */\n      tag_92\n      swap2\n      swap1\n      tag_93\n      jump\t// in\n    tag_92:\n        /* \"contracts/StructEnum.sol\":1303:1344  OrderCreated(orders.length-1, msg.sender) */\n      mload(0x40)\n      tag_94\n      swap2\n      swap1\n      tag_14\n      jump\t// in\n    tag_94:\n      mload(0x40)\n      dup1\n      swap2\n      sub\n      swap1\n      log2\n        /* \"contracts/StructEnum.sol\":1377:1378  1 */\n      0x01\n        /* \"contracts/StructEnum.sol\":1362:1368  orders */\n      0x00\n        /* \"contracts/StructEnum.sol\":1362:1375  orders.length */\n      dup1\n      sload\n      swap1\n      pop\n        /* \"contracts/StructEnum.sol\":1362:1378  orders.length -1 */\n      tag_95\n      swap2\n      swap1\n      tag_93\n      jump\t// in\n    tag_95:\n        /* \"contracts/StructEnum.sol\":1355:1378  return orders.length -1 */\n      swap3\n      pop\n      pop\n        /* \"contracts/StructEnum.sol\":2653:2660  txCount */\n      0x02\n      0x00\n        /* \"contracts/StructEnum.sol\":2653:2662  txCount++ */\n      dup2\n      sload\n      dup1\n      swap3\n      swap2\n      swap1\n      tag_96\n      swap1\n      tag_64\n      jump\t// in\n    tag_96:\n      swap2\n      swap1\n      pop\n      sstore\n      pop\n        /* \"contracts/StructEnum.sol\":599:1387  function creatOrder(string memory _zipCode, uint256[] memory _products) checkProducts(_products) incTx external  returns (uint256){... */\n      pop\n      swap3\n      swap2\n      pop\n      pop\n      jump\t// out\n        /* \"contracts/StructEnum.sol\":1929:2081  function getOrder(uint256 _orderId) checkOrderId(_orderId) external  view returns (Order memory){... */\n    tag_36:\n        /* \"contracts/StructEnum.sol\":2012:2024  Order memory */\n      tag_97\n      tag_80\n      jump\t// in\n    tag_97:\n        /* \"contracts/StructEnum.sol\":1978:1986  _orderId */\n      dup2\n        /* \"contracts/StructEnum.sol\":2552:2558  orders */\n      0x00\n        /* \"contracts/StructEnum.sol\":2552:2565  orders.length */\n      dup1\n      sload\n      swap1\n      pop\n        /* \"contracts/StructEnum.sol\":2541:2549  _orderId */\n      dup2\n        /* \"contracts/StructEnum.sol\":2541:2565  _orderId < orders.length */\n      lt\n        /* \"contracts/StructEnum.sol\":2533:2590  require(_orderId < orders.length, \"Not a valid order id\") */\n      tag_99\n      jumpi\n      mload(0x40)\n      0x08c379a000000000000000000000000000000000000000000000000000000000\n      dup2\n      mstore\n      0x04\n      add\n      tag_100\n      swap1\n      tag_45\n      jump\t// in\n    tag_100:\n      mload(0x40)\n      dup1\n      swap2\n      sub\n      swap1\n      revert\n    tag_99:\n        /* \"contracts/StructEnum.sol\":2055:2061  orders */\n      0x00\n        /* \"contracts/StructEnum.sol\":2062:2070  _orderId */\n      dup4\n        /* \"contracts/StructEnum.sol\":2055:2071  orders[_orderId] */\n      dup2\n      sload\n      dup2\n      lt\n      tag_102\n      jumpi\n      tag_103\n      tag_49\n      jump\t// in\n    tag_103:\n    tag_102:\n      swap1\n      0x00\n      mstore\n      keccak256(0x00, 0x20)\n      swap1\n      0x04\n      mul\n      add\n        /* \"contracts/StructEnum.sol\":2048:2071  return orders[_orderId] */\n      mload(0x40)\n      dup1\n      0x80\n      add\n      0x40\n      mstore\n      swap1\n      dup2\n      0x00\n      dup3\n      add\n      0x00\n      swap1\n      sload\n      swap1\n      0x0100\n      exp\n      swap1\n      div\n      0xffffffffffffffffffffffffffffffffffffffff\n      and\n      0xffffffffffffffffffffffffffffffffffffffff\n      and\n      0xffffffffffffffffffffffffffffffffffffffff\n      and\n      dup2\n      mstore\n      0x20\n      add\n      0x01\n      dup3\n      add\n      dup1\n      sload\n      tag_105\n      swap1\n      tag_68\n      jump\t// in\n    tag_105:\n      dup1\n      0x1f\n      add\n      0x20\n      dup1\n      swap2\n      div\n      mul\n      0x20\n      add\n      mload(0x40)\n      swap1\n      dup2\n      add\n      0x40\n      mstore\n      dup1\n      swap3\n      swap2\n      swap1\n      dup2\n      dup2\n      mstore\n      0x20\n      add\n      dup3\n      dup1\n      sload\n      tag_106\n      swap1\n      tag_68\n      jump\t// in\n    tag_106:\n      dup1\n      iszero\n      tag_107\n      jumpi\n      dup1\n      0x1f\n      lt\n      tag_108\n      jumpi\n      0x0100\n      dup1\n      dup4\n      sload\n      div\n      mul\n      dup4\n      mstore\n      swap2\n      0x20\n      add\n      swap2\n      jump(tag_107)\n    tag_108:\n      dup3\n      add\n      swap2\n      swap1\n      0x00\n      mstore\n      keccak256(0x00, 0x20)\n      swap1\n    tag_109:\n      dup2\n      sload\n      dup2\n      mstore\n      swap1\n      0x01\n      add\n      swap1\n      0x20\n      add\n      dup1\n      dup4\n      gt\n      tag_109\n      jumpi\n      dup3\n      swap1\n      sub\n      0x1f\n      and\n      dup3\n      add\n      swap2\n    tag_107:\n      pop\n      pop\n      pop\n      pop\n      pop\n      dup2\n      mstore\n      0x20\n      add\n      0x02\n      dup3\n      add\n      dup1\n      sload\n      dup1\n      0x20\n      mul\n      0x20\n      add\n      mload(0x40)\n      swap1\n      dup2\n      add\n      0x40\n      mstore\n      dup1\n      swap3\n      swap2\n      swap1\n      dup2\n      dup2\n      mstore\n      0x20\n      add\n      dup3\n      dup1\n      sload\n      dup1\n      iszero\n      tag_110\n      jumpi\n      0x20\n      mul\n      dup3\n      add\n      swap2\n      swap1\n      0x00\n      mstore\n      keccak256(0x00, 0x20)\n      swap1\n    tag_111:\n      dup2\n      sload\n      dup2\n      mstore\n      0x20\n      add\n      swap1\n      0x01\n      add\n      swap1\n      dup1\n      dup4\n      gt\n      tag_111\n      jumpi\n    tag_110:\n      pop\n      pop\n      pop\n      pop\n      pop\n      dup2\n      mstore\n      0x20\n      add\n      0x03\n      dup3\n      add\n      0x00\n      swap1\n      sload\n      swap1\n      0x0100\n      exp\n      swap1\n      div\n      0xff\n      and\n      0x03\n      dup2\n      gt\n      iszero\n      tag_112\n      jumpi\n      tag_113\n      tag_83\n      jump\t// in\n    tag_113:\n    tag_112:\n      0x03\n      dup2\n      gt\n      iszero\n      tag_114\n      jumpi\n      tag_115\n      tag_83\n      jump\t// in\n    tag_115:\n    tag_114:\n      dup2\n      mstore\n      pop\n      pop\n      swap2\n      pop\n        /* \"contracts/StructEnum.sol\":1929:2081  function getOrder(uint256 _orderId) checkOrderId(_orderId) external  view returns (Order memory){... */\n      pop\n      swap2\n      swap1\n      pop\n      jump\t// out\n        /* \"contracts/StructEnum.sol\":1394:1923  function advencerOrder(uint256 _orderId) checkOrderId(_orderId) onlyOwner external    {... */\n    tag_41:\n        /* \"contracts/StructEnum.sol\":1448:1456  _orderId */\n      dup1\n        /* \"contracts/StructEnum.sol\":2552:2558  orders */\n      0x00\n        /* \"contracts/StructEnum.sol\":2552:2565  orders.length */\n      dup1\n      sload\n      swap1\n      pop\n        /* \"contracts/StructEnum.sol\":2541:2549  _orderId */\n      dup2\n        /* \"contracts/StructEnum.sol\":2541:2565  _orderId < orders.length */\n      lt\n        /* \"contracts/StructEnum.sol\":2533:2590  require(_orderId < orders.length, \"Not a valid order id\") */\n      tag_117\n      jumpi\n      mload(0x40)\n      0x08c379a000000000000000000000000000000000000000000000000000000000\n      dup2\n      mstore\n      0x04\n      add\n      tag_118\n      swap1\n      tag_45\n      jump\t// in\n    tag_118:\n      mload(0x40)\n      dup1\n      swap2\n      sub\n      swap1\n      revert\n    tag_117:\n        /* \"contracts/StructEnum.sol\":2722:2732  msg.sender */\n      caller\n        /* \"contracts/StructEnum.sol\":2713:2732  owner == msg.sender */\n      0xffffffffffffffffffffffffffffffffffffffff\n      and\n        /* \"contracts/StructEnum.sol\":2713:2718  owner */\n      0x01\n      0x00\n      swap1\n      sload\n      swap1\n      0x0100\n      exp\n      swap1\n      div\n      0xffffffffffffffffffffffffffffffffffffffff\n      and\n        /* \"contracts/StructEnum.sol\":2713:2732  owner == msg.sender */\n      0xffffffffffffffffffffffffffffffffffffffff\n      and\n      eq\n        /* \"contracts/StructEnum.sol\":2705:2760  require(owner == msg.sender, \" you are not authorized\") */\n      tag_120\n      jumpi\n      mload(0x40)\n      0x08c379a000000000000000000000000000000000000000000000000000000000\n      dup2\n      mstore\n      0x04\n      add\n      tag_121\n      swap1\n      tag_122\n      jump\t// in\n    tag_121:\n      mload(0x40)\n      dup1\n      swap2\n      sub\n      swap1\n      revert\n    tag_120:\n        /* \"contracts/StructEnum.sol\":1505:1524  Order storage order */\n      0x00\n        /* \"contracts/StructEnum.sol\":1527:1533  orders */\n      dup1\n        /* \"contracts/StructEnum.sol\":1534:1542  _orderId */\n      dup4\n        /* \"contracts/StructEnum.sol\":1527:1543  orders[_orderId] */\n      dup2\n      sload\n      dup2\n      lt\n      tag_124\n      jumpi\n      tag_125\n      tag_49\n      jump\t// in\n    tag_125:\n    tag_124:\n      swap1\n      0x00\n      mstore\n      keccak256(0x00, 0x20)\n      swap1\n      0x04\n      mul\n      add\n        /* \"contracts/StructEnum.sol\":1505:1543  Order storage order = orders[_orderId] */\n      swap1\n      pop\n        /* \"contracts/StructEnum.sol\":1578:1592  Status.Shipped */\n      0x03\n        /* \"contracts/StructEnum.sol\":1562:1592  order.status != Status.Shipped */\n      dup1\n      dup2\n      gt\n      iszero\n      tag_127\n      jumpi\n      tag_128\n      tag_83\n      jump\t// in\n    tag_128:\n    tag_127:\n        /* \"contracts/StructEnum.sol\":1562:1567  order */\n      dup2\n        /* \"contracts/StructEnum.sol\":1562:1574  order.status */\n      0x03\n      add\n      0x00\n      swap1\n      sload\n      swap1\n      0x0100\n      exp\n      swap1\n      div\n      0xff\n      and\n        /* \"contracts/StructEnum.sol\":1562:1592  order.status != Status.Shipped */\n      0x03\n      dup2\n      gt\n      iszero\n      tag_129\n      jumpi\n      tag_130\n      tag_83\n      jump\t// in\n    tag_130:\n    tag_129:\n      sub\n        /* \"contracts/StructEnum.sol\":1554:1621  require(order.status != Status.Shipped, \"Order is already shipped\") */\n      tag_131\n      jumpi\n      mload(0x40)\n      0x08c379a000000000000000000000000000000000000000000000000000000000\n      dup2\n      mstore\n      0x04\n      add\n      tag_132\n      swap1\n      tag_133\n      jump\t// in\n    tag_132:\n      mload(0x40)\n      dup1\n      swap2\n      sub\n      swap1\n      revert\n    tag_131:\n        /* \"contracts/StructEnum.sol\":1653:1665  Status.Taken */\n      0x00\n        /* \"contracts/StructEnum.sol\":1637:1665  order.status == Status.Taken */\n      0x03\n      dup2\n      gt\n      iszero\n      tag_134\n      jumpi\n      tag_135\n      tag_83\n      jump\t// in\n    tag_135:\n    tag_134:\n        /* \"contracts/StructEnum.sol\":1637:1642  order */\n      dup2\n        /* \"contracts/StructEnum.sol\":1637:1649  order.status */\n      0x03\n      add\n      0x00\n      swap1\n      sload\n      swap1\n      0x0100\n      exp\n      swap1\n      div\n      0xff\n      and\n        /* \"contracts/StructEnum.sol\":1637:1665  order.status == Status.Taken */\n      0x03\n      dup2\n      gt\n      iszero\n      tag_136\n      jumpi\n      tag_137\n      tag_83\n      jump\t// in\n    tag_137:\n    tag_136:\n      sub\n        /* \"contracts/StructEnum.sol\":1634:1912  if(order.status == Status.Taken){... */\n      tag_138\n      jumpi\n        /* \"contracts/StructEnum.sol\":1696:1712  Status.Preparing */\n      0x01\n        /* \"contracts/StructEnum.sol\":1681:1686  order */\n      dup2\n        /* \"contracts/StructEnum.sol\":1681:1693  order.status */\n      0x03\n      add\n      0x00\n        /* \"contracts/StructEnum.sol\":1681:1712  order.status = Status.Preparing */\n      0x0100\n      exp\n      dup2\n      sload\n      dup2\n      0xff\n      mul\n      not\n      and\n      swap1\n      dup4\n      0x03\n      dup2\n      gt\n      iszero\n      tag_139\n      jumpi\n      tag_140\n      tag_83\n      jump\t// in\n    tag_140:\n    tag_139:\n      mul\n      or\n      swap1\n      sstore\n      pop\n        /* \"contracts/StructEnum.sol\":1634:1912  if(order.status == Status.Taken){... */\n      jump(tag_141)\n    tag_138:\n        /* \"contracts/StructEnum.sol\":1748:1764  Status.Preparing */\n      0x01\n        /* \"contracts/StructEnum.sol\":1732:1764  order.status == Status.Preparing */\n      0x03\n      dup2\n      gt\n      iszero\n      tag_142\n      jumpi\n      tag_143\n      tag_83\n      jump\t// in\n    tag_143:\n    tag_142:\n        /* \"contracts/StructEnum.sol\":1732:1737  order */\n      dup2\n        /* \"contracts/StructEnum.sol\":1732:1744  order.status */\n      0x03\n      add\n      0x00\n      swap1\n      sload\n      swap1\n      0x0100\n      exp\n      swap1\n      div\n      0xff\n      and\n        /* \"contracts/StructEnum.sol\":1732:1764  order.status == Status.Preparing */\n      0x03\n      dup2\n      gt\n      iszero\n      tag_144\n      jumpi\n      tag_145\n      tag_83\n      jump\t// in\n    tag_145:\n    tag_144:\n      sub\n        /* \"contracts/StructEnum.sol\":1729:1912  if(order.status == Status.Preparing){... */\n      tag_146\n      jumpi\n        /* \"contracts/StructEnum.sol\":1795:1807  Status.Boxed */\n      0x02\n        /* \"contracts/StructEnum.sol\":1780:1785  order */\n      dup2\n        /* \"contracts/StructEnum.sol\":1780:1792  order.status */\n      0x03\n      add\n      0x00\n        /* \"contracts/StructEnum.sol\":1780:1807  order.status = Status.Boxed */\n      0x0100\n      exp\n      dup2\n      sload\n      dup2\n      0xff\n      mul\n      not\n      and\n      swap1\n      dup4\n      0x03\n      dup2\n      gt\n      iszero\n      tag_147\n      jumpi\n      tag_148\n      tag_83\n      jump\t// in\n    tag_148:\n    tag_147:\n      mul\n      or\n      swap1\n      sstore\n      pop\n        /* \"contracts/StructEnum.sol\":1729:1912  if(order.status == Status.Preparing){... */\n      jump(tag_149)\n    tag_146:\n        /* \"contracts/StructEnum.sol\":1843:1855  Status.Boxed */\n      0x02\n        /* \"contracts/StructEnum.sol\":1827:1855  order.status == Status.Boxed */\n      0x03\n      dup2\n      gt\n      iszero\n      tag_150\n      jumpi\n      tag_151\n      tag_83\n      jump\t// in\n    tag_151:\n    tag_150:\n        /* \"contracts/StructEnum.sol\":1827:1832  order */\n      dup2\n        /* \"contracts/StructEnum.sol\":1827:1839  order.status */\n      0x03\n      add\n      0x00\n      swap1\n      sload\n      swap1\n      0x0100\n      exp\n      swap1\n      div\n      0xff\n      and\n        /* \"contracts/StructEnum.sol\":1827:1855  order.status == Status.Boxed */\n      0x03\n      dup2\n      gt\n      iszero\n      tag_152\n      jumpi\n      tag_153\n      tag_83\n      jump\t// in\n    tag_153:\n    tag_152:\n      sub\n        /* \"contracts/StructEnum.sol\":1824:1912  if(order.status == Status.Boxed){... */\n      tag_154\n      jumpi\n        /* \"contracts/StructEnum.sol\":1886:1900  Status.Shipped */\n      0x03\n        /* \"contracts/StructEnum.sol\":1871:1876  order */\n      dup2\n        /* \"contracts/StructEnum.sol\":1871:1883  order.status */\n      0x03\n      add\n      0x00\n        /* \"contracts/StructEnum.sol\":1871:1900  order.status = Status.Shipped */\n      0x0100\n      exp\n      dup2\n      sload\n      dup2\n      0xff\n      mul\n      not\n      and\n      swap1\n      dup4\n      0x03\n      dup2\n      gt\n      iszero\n      tag_155\n      jumpi\n      tag_156\n      tag_83\n      jump\t// in\n    tag_156:\n    tag_155:\n      mul\n      or\n      swap1\n      sstore\n      pop\n        /* \"contracts/StructEnum.sol\":1824:1912  if(order.status == Status.Boxed){... */\n    tag_154:\n        /* \"contracts/StructEnum.sol\":1729:1912  if(order.status == Status.Preparing){... */\n    tag_149:\n        /* \"contracts/StructEnum.sol\":1634:1912  if(order.status == Status.Taken){... */\n    tag_141:\n        /* \"contracts/StructEnum.sol\":1480:1923  {... */\n      pop\n        /* \"contracts/StructEnum.sol\":1394:1923  function advencerOrder(uint256 _orderId) checkOrderId(_orderId) onlyOwner external    {... */\n      pop\n      pop\n      jump\t// out\n    tag_80:\n      mload(0x40)\n      dup1\n      0x80\n      add\n      0x40\n      mstore\n      dup1\n      and(0xffffffffffffffffffffffffffffffffffffffff, 0x00)\n      dup2\n      mstore\n      0x20\n      add\n      0x60\n      dup2\n      mstore\n      0x20\n      add\n      0x60\n      dup2\n      mstore\n      0x20\n      add\n      0x00\n      0x03\n      dup2\n      gt\n      iszero\n      tag_157\n      jumpi\n      tag_158\n      tag_83\n      jump\t// in\n    tag_158:\n    tag_157:\n      dup2\n      mstore\n      pop\n      swap1\n      jump\t// out\n    tag_89:\n      dup3\n      dup1\n      sload\n      dup3\n      dup3\n      sstore\n      swap1\n      0x00\n      mstore\n      keccak256(0x00, 0x20)\n      swap1\n      dup2\n      add\n      swap3\n      dup3\n      iszero\n      tag_159\n      jumpi\n      swap2\n      0x20\n      mul\n      dup3\n      add\n    tag_160:\n      dup3\n      dup2\n      gt\n      iszero\n      tag_161\n      jumpi\n      dup3\n      mload\n      dup3\n      sstore\n      swap2\n      0x20\n      add\n      swap2\n      swap1\n      0x01\n      add\n      swap1\n      jump(tag_160)\n    tag_161:\n    tag_159:\n      pop\n      swap1\n      pop\n      tag_162\n      swap2\n      swap1\n      tag_163\n      jump\t// in\n    tag_162:\n      pop\n      swap1\n      jump\t// out\n    tag_163:\n    tag_164:\n      dup1\n      dup3\n      gt\n      iszero\n      tag_165\n      jumpi\n      0x00\n      dup2\n      0x00\n      swap1\n      sstore\n      pop\n      0x01\n      add\n      jump(tag_164)\n    tag_165:\n      pop\n      swap1\n      jump\t// out\n        /* \"#utility.yul\":7:84   */\n    tag_166:\n        /* \"#utility.yul\":44:51   */\n      0x00\n        /* \"#utility.yul\":73:78   */\n      dup2\n        /* \"#utility.yul\":62:78   */\n      swap1\n      pop\n        /* \"#utility.yul\":7:84   */\n      swap2\n      swap1\n      pop\n      jump\t// out\n        /* \"#utility.yul\":90:208   */\n    tag_167:\n        /* \"#utility.yul\":177:201   */\n      tag_240\n        /* \"#utility.yul\":195:200   */\n      dup2\n        /* \"#utility.yul\":177:201   */\n      tag_166\n      jump\t// in\n    tag_240:\n        /* \"#utility.yul\":172:175   */\n      dup3\n        /* \"#utility.yul\":165:202   */\n      mstore\n        /* \"#utility.yul\":90:208   */\n      pop\n      pop\n      jump\t// out\n        /* \"#utility.yul\":214:436   */\n    tag_14:\n        /* \"#utility.yul\":307:311   */\n      0x00\n        /* \"#utility.yul\":345:347   */\n      0x20\n        /* \"#utility.yul\":334:343   */\n      dup3\n        /* \"#utility.yul\":330:348   */\n      add\n        /* \"#utility.yul\":322:348   */\n      swap1\n      pop\n        /* \"#utility.yul\":358:429   */\n      tag_242\n        /* \"#utility.yul\":426:427   */\n      0x00\n        /* \"#utility.yul\":415:424   */\n      dup4\n        /* \"#utility.yul\":411:428   */\n      add\n        /* \"#utility.yul\":402:408   */\n      dup5\n        /* \"#utility.yul\":358:429   */\n      tag_167\n      jump\t// in\n    tag_242:\n        /* \"#utility.yul\":214:436   */\n      swap3\n      swap2\n      pop\n      pop\n      jump\t// out\n        /* \"#utility.yul\":442:517   */\n    tag_168:\n        /* \"#utility.yul\":475:481   */\n      0x00\n        /* \"#utility.yul\":508:510   */\n      0x40\n        /* \"#utility.yul\":502:511   */\n      mload\n        /* \"#utility.yul\":492:511   */\n      swap1\n      pop\n        /* \"#utility.yul\":442:517   */\n      swap1\n      jump\t// out\n        /* \"#utility.yul\":523:640   */\n    tag_169:\n        /* \"#utility.yul\":632:633   */\n      0x00\n        /* \"#utility.yul\":629:630   */\n      dup1\n        /* \"#utility.yul\":622:634   */\n      revert\n        /* \"#utility.yul\":646:763   */\n    tag_170:\n        /* \"#utility.yul\":755:756   */\n      0x00\n        /* \"#utility.yul\":752:753   */\n      dup1\n        /* \"#utility.yul\":745:757   */\n      revert\n        /* \"#utility.yul\":769:891   */\n    tag_171:\n        /* \"#utility.yul\":842:866   */\n      tag_247\n        /* \"#utility.yul\":860:865   */\n      dup2\n        /* \"#utility.yul\":842:866   */\n      tag_166\n      jump\t// in\n    tag_247:\n        /* \"#utility.yul\":835:840   */\n      dup2\n        /* \"#utility.yul\":832:867   */\n      eq\n        /* \"#utility.yul\":822:885   */\n      tag_248\n      jumpi\n        /* \"#utility.yul\":881:882   */\n      0x00\n        /* \"#utility.yul\":878:879   */\n      dup1\n        /* \"#utility.yul\":871:883   */\n      revert\n        /* \"#utility.yul\":822:885   */\n    tag_248:\n        /* \"#utility.yul\":769:891   */\n      pop\n      jump\t// out\n        /* \"#utility.yul\":897:1036   */\n    tag_172:\n        /* \"#utility.yul\":943:948   */\n      0x00\n        /* \"#utility.yul\":981:987   */\n      dup2\n        /* \"#utility.yul\":968:988   */\n      calldataload\n        /* \"#utility.yul\":959:988   */\n      swap1\n      pop\n        /* \"#utility.yul\":997:1030   */\n      tag_250\n        /* \"#utility.yul\":1024:1029   */\n      dup2\n        /* \"#utility.yul\":997:1030   */\n      tag_171\n      jump\t// in\n    tag_250:\n        /* \"#utility.yul\":897:1036   */\n      swap3\n      swap2\n      pop\n      pop\n      jump\t// out\n        /* \"#utility.yul\":1042:1159   */\n    tag_173:\n        /* \"#utility.yul\":1151:1152   */\n      0x00\n        /* \"#utility.yul\":1148:1149   */\n      dup1\n        /* \"#utility.yul\":1141:1153   */\n      revert\n        /* \"#utility.yul\":1165:1282   */\n    tag_174:\n        /* \"#utility.yul\":1274:1275   */\n      0x00\n        /* \"#utility.yul\":1271:1272   */\n      dup1\n        /* \"#utility.yul\":1264:1276   */\n      revert\n        /* \"#utility.yul\":1288:1390   */\n    tag_175:\n        /* \"#utility.yul\":1329:1335   */\n      0x00\n        /* \"#utility.yul\":1380:1382   */\n      0x1f\n        /* \"#utility.yul\":1376:1383   */\n      not\n        /* \"#utility.yul\":1371:1373   */\n      0x1f\n        /* \"#utility.yul\":1364:1369   */\n      dup4\n        /* \"#utility.yul\":1360:1374   */\n      add\n        /* \"#utility.yul\":1356:1384   */\n      and\n        /* \"#utility.yul\":1346:1384   */\n      swap1\n      pop\n        /* \"#utility.yul\":1288:1390   */\n      swap2\n      swap1\n      pop\n      jump\t// out\n        /* \"#utility.yul\":1396:1576   */\n    tag_176:\n        /* \"#utility.yul\":1444:1521   */\n      0x4e487b7100000000000000000000000000000000000000000000000000000000\n        /* \"#utility.yul\":1441:1442   */\n      0x00\n        /* \"#utility.yul\":1434:1522   */\n      mstore\n        /* \"#utility.yul\":1541:1545   */\n      0x41\n        /* \"#utility.yul\":1538:1539   */\n      0x04\n        /* \"#utility.yul\":1531:1546   */\n      mstore\n        /* \"#utility.yul\":1565:1569   */\n      0x24\n        /* \"#utility.yul\":1562:1563   */\n      0x00\n        /* \"#utility.yul\":1555:1570   */\n      revert\n        /* \"#utility.yul\":1582:1863   */\n    tag_177:\n        /* \"#utility.yul\":1665:1692   */\n      tag_256\n        /* \"#utility.yul\":1687:1691   */\n      dup3\n        /* \"#utility.yul\":1665:1692   */\n      tag_175\n      jump\t// in\n    tag_256:\n        /* \"#utility.yul\":1657:1663   */\n      dup2\n        /* \"#utility.yul\":1653:1693   */\n      add\n        /* \"#utility.yul\":1795:1801   */\n      dup2\n        /* \"#utility.yul\":1783:1793   */\n      dup2\n        /* \"#utility.yul\":1780:1802   */\n      lt\n        /* \"#utility.yul\":1759:1777   */\n      0xffffffffffffffff\n        /* \"#utility.yul\":1747:1757   */\n      dup3\n        /* \"#utility.yul\":1744:1778   */\n      gt\n        /* \"#utility.yul\":1741:1803   */\n      or\n        /* \"#utility.yul\":1738:1826   */\n      iszero\n      tag_257\n      jumpi\n        /* \"#utility.yul\":1806:1824   */\n      tag_258\n      tag_176\n      jump\t// in\n    tag_258:\n        /* \"#utility.yul\":1738:1826   */\n    tag_257:\n        /* \"#utility.yul\":1846:1856   */\n      dup1\n        /* \"#utility.yul\":1842:1844   */\n      0x40\n        /* \"#utility.yul\":1835:1857   */\n      mstore\n        /* \"#utility.yul\":1625:1863   */\n      pop\n        /* \"#utility.yul\":1582:1863   */\n      pop\n      pop\n      jump\t// out\n        /* \"#utility.yul\":1869:1998   */\n    tag_178:\n        /* \"#utility.yul\":1903:1909   */\n      0x00\n        /* \"#utility.yul\":1930:1950   */\n      tag_260\n      tag_168\n      jump\t// in\n    tag_260:\n        /* \"#utility.yul\":1920:1950   */\n      swap1\n      pop\n        /* \"#utility.yul\":1959:1992   */\n      tag_261\n        /* \"#utility.yul\":1987:1991   */\n      dup3\n        /* \"#utility.yul\":1979:1985   */\n      dup3\n        /* \"#utility.yul\":1959:1992   */\n      tag_177\n      jump\t// in\n    tag_261:\n        /* \"#utility.yul\":1869:1998   */\n      swap2\n      swap1\n      pop\n      jump\t// out\n        /* \"#utility.yul\":2004:2312   */\n    tag_179:\n        /* \"#utility.yul\":2066:2070   */\n      0x00\n        /* \"#utility.yul\":2156:2174   */\n      0xffffffffffffffff\n        /* \"#utility.yul\":2148:2154   */\n      dup3\n        /* \"#utility.yul\":2145:2175   */\n      gt\n        /* \"#utility.yul\":2142:2198   */\n      iszero\n      tag_263\n      jumpi\n        /* \"#utility.yul\":2178:2196   */\n      tag_264\n      tag_176\n      jump\t// in\n    tag_264:\n        /* \"#utility.yul\":2142:2198   */\n    tag_263:\n        /* \"#utility.yul\":2216:2245   */\n      tag_265\n        /* \"#utility.yul\":2238:2244   */\n      dup3\n        /* \"#utility.yul\":2216:2245   */\n      tag_175\n      jump\t// in\n    tag_265:\n        /* \"#utility.yul\":2208:2245   */\n      swap1\n      pop\n        /* \"#utility.yul\":2300:2304   */\n      0x20\n        /* \"#utility.yul\":2294:2298   */\n      dup2\n        /* \"#utility.yul\":2290:2305   */\n      add\n        /* \"#utility.yul\":2282:2305   */\n      swap1\n      pop\n        /* \"#utility.yul\":2004:2312   */\n      swap2\n      swap1\n      pop\n      jump\t// out\n        /* \"#utility.yul\":2318:2464   */\n    tag_180:\n        /* \"#utility.yul\":2415:2421   */\n      dup3\n        /* \"#utility.yul\":2410:2413   */\n      dup2\n        /* \"#utility.yul\":2405:2408   */\n      dup4\n        /* \"#utility.yul\":2392:2422   */\n      calldatacopy\n        /* \"#utility.yul\":2456:2457   */\n      0x00\n        /* \"#utility.yul\":2447:2453   */\n      dup4\n        /* \"#utility.yul\":2442:2445   */\n      dup4\n        /* \"#utility.yul\":2438:2454   */\n      add\n        /* \"#utility.yul\":2431:2458   */\n      mstore\n        /* \"#utility.yul\":2318:2464   */\n      pop\n      pop\n      pop\n      jump\t// out\n        /* \"#utility.yul\":2470:2895   */\n    tag_181:\n        /* \"#utility.yul\":2548:2553   */\n      0x00\n        /* \"#utility.yul\":2573:2639   */\n      tag_268\n        /* \"#utility.yul\":2589:2638   */\n      tag_269\n        /* \"#utility.yul\":2631:2637   */\n      dup5\n        /* \"#utility.yul\":2589:2638   */\n      tag_179\n      jump\t// in\n    tag_269:\n        /* \"#utility.yul\":2573:2639   */\n      tag_178\n      jump\t// in\n    tag_268:\n        /* \"#utility.yul\":2564:2639   */\n      swap1\n      pop\n        /* \"#utility.yul\":2662:2668   */\n      dup3\n        /* \"#utility.yul\":2655:2660   */\n      dup2\n        /* \"#utility.yul\":2648:2669   */\n      mstore\n        /* \"#utility.yul\":2700:2704   */\n      0x20\n        /* \"#utility.yul\":2693:2698   */\n      dup2\n        /* \"#utility.yul\":2689:2705   */\n      add\n        /* \"#utility.yul\":2738:2741   */\n      dup5\n        /* \"#utility.yul\":2729:2735   */\n      dup5\n        /* \"#utility.yul\":2724:2727   */\n      dup5\n        /* \"#utility.yul\":2720:2736   */\n      add\n        /* \"#utility.yul\":2717:2742   */\n      gt\n        /* \"#utility.yul\":2714:2826   */\n      iszero\n      tag_270\n      jumpi\n        /* \"#utility.yul\":2745:2824   */\n      tag_271\n      tag_174\n      jump\t// in\n    tag_271:\n        /* \"#utility.yul\":2714:2826   */\n    tag_270:\n        /* \"#utility.yul\":2835:2889   */\n      tag_272\n        /* \"#utility.yul\":2882:2888   */\n      dup5\n        /* \"#utility.yul\":2877:2880   */\n      dup3\n        /* \"#utility.yul\":2872:2875   */\n      dup6\n        /* \"#utility.yul\":2835:2889   */\n      tag_180\n      jump\t// in\n    tag_272:\n        /* \"#utility.yul\":2554:2895   */\n      pop\n        /* \"#utility.yul\":2470:2895   */\n      swap4\n      swap3\n      pop\n      pop\n      pop\n      jump\t// out\n        /* \"#utility.yul\":2915:3255   */\n    tag_182:\n        /* \"#utility.yul\":2971:2976   */\n      0x00\n        /* \"#utility.yul\":3020:3023   */\n      dup3\n        /* \"#utility.yul\":3013:3017   */\n      0x1f\n        /* \"#utility.yul\":3005:3011   */\n      dup4\n        /* \"#utility.yul\":3001:3018   */\n      add\n        /* \"#utility.yul\":2997:3024   */\n      slt\n        /* \"#utility.yul\":2987:3109   */\n      tag_274\n      jumpi\n        /* \"#utility.yul\":3028:3107   */\n      tag_275\n      tag_173\n      jump\t// in\n    tag_275:\n        /* \"#utility.yul\":2987:3109   */\n    tag_274:\n        /* \"#utility.yul\":3145:3151   */\n      dup2\n        /* \"#utility.yul\":3132:3152   */\n      calldataload\n        /* \"#utility.yul\":3170:3249   */\n      tag_276\n        /* \"#utility.yul\":3245:3248   */\n      dup5\n        /* \"#utility.yul\":3237:3243   */\n      dup3\n        /* \"#utility.yul\":3230:3234   */\n      0x20\n        /* \"#utility.yul\":3222:3228   */\n      dup7\n        /* \"#utility.yul\":3218:3235   */\n      add\n        /* \"#utility.yul\":3170:3249   */\n      tag_181\n      jump\t// in\n    tag_276:\n        /* \"#utility.yul\":3161:3249   */\n      swap2\n      pop\n        /* \"#utility.yul\":2977:3255   */\n      pop\n        /* \"#utility.yul\":2915:3255   */\n      swap3\n      swap2\n      pop\n      pop\n      jump\t// out\n        /* \"#utility.yul\":3261:3915   */\n    tag_17:\n        /* \"#utility.yul\":3339:3345   */\n      0x00\n        /* \"#utility.yul\":3347:3353   */\n      dup1\n        /* \"#utility.yul\":3396:3398   */\n      0x40\n        /* \"#utility.yul\":3384:3393   */\n      dup4\n        /* \"#utility.yul\":3375:3382   */\n      dup6\n        /* \"#utility.yul\":3371:3394   */\n      sub\n        /* \"#utility.yul\":3367:3399   */\n      slt\n        /* \"#utility.yul\":3364:3483   */\n      iszero\n      tag_278\n      jumpi\n        /* \"#utility.yul\":3402:3481   */\n      tag_279\n      tag_169\n      jump\t// in\n    tag_279:\n        /* \"#utility.yul\":3364:3483   */\n    tag_278:\n        /* \"#utility.yul\":3522:3523   */\n      0x00\n        /* \"#utility.yul\":3547:3600   */\n      tag_280\n        /* \"#utility.yul\":3592:3599   */\n      dup6\n        /* \"#utility.yul\":3583:3589   */\n      dup3\n        /* \"#utility.yul\":3572:3581   */\n      dup7\n        /* \"#utility.yul\":3568:3590   */\n      add\n        /* \"#utility.yul\":3547:3600   */\n      tag_172\n      jump\t// in\n    tag_280:\n        /* \"#utility.yul\":3537:3600   */\n      swap3\n      pop\n        /* \"#utility.yul\":3493:3610   */\n      pop\n        /* \"#utility.yul\":3677:3679   */\n      0x20\n        /* \"#utility.yul\":3666:3675   */\n      dup4\n        /* \"#utility.yul\":3662:3680   */\n      add\n        /* \"#utility.yul\":3649:3681   */\n      calldataload\n        /* \"#utility.yul\":3708:3726   */\n      0xffffffffffffffff\n        /* \"#utility.yul\":3700:3706   */\n      dup2\n        /* \"#utility.yul\":3697:3727   */\n      gt\n        /* \"#utility.yul\":3694:3811   */\n      iszero\n      tag_281\n      jumpi\n        /* \"#utility.yul\":3730:3809   */\n      tag_282\n      tag_170\n      jump\t// in\n    tag_282:\n        /* \"#utility.yul\":3694:3811   */\n    tag_281:\n        /* \"#utility.yul\":3835:3898   */\n      tag_283\n        /* \"#utility.yul\":3890:3897   */\n      dup6\n        /* \"#utility.yul\":3881:3887   */\n      dup3\n        /* \"#utility.yul\":3870:3879   */\n      dup7\n        /* \"#utility.yul\":3866:3888   */\n      add\n        /* \"#utility.yul\":3835:3898   */\n      tag_182\n      jump\t// in\n    tag_283:\n        /* \"#utility.yul\":3825:3898   */\n      swap2\n      pop\n        /* \"#utility.yul\":3620:3908   */\n      pop\n        /* \"#utility.yul\":3261:3915   */\n      swap3\n      pop\n      swap3\n      swap1\n      pop\n      jump\t// out\n        /* \"#utility.yul\":3921:4047   */\n    tag_183:\n        /* \"#utility.yul\":3958:3965   */\n      0x00\n        /* \"#utility.yul\":3998:4040   */\n      0xffffffffffffffffffffffffffffffffffffffff\n        /* \"#utility.yul\":3991:3996   */\n      dup3\n        /* \"#utility.yul\":3987:4041   */\n      and\n        /* \"#utility.yul\":3976:4041   */\n      swap1\n      pop\n        /* \"#utility.yul\":3921:4047   */\n      swap2\n      swap1\n      pop\n      jump\t// out\n        /* \"#utility.yul\":4053:4149   */\n    tag_184:\n        /* \"#utility.yul\":4090:4097   */\n      0x00\n        /* \"#utility.yul\":4119:4143   */\n      tag_286\n        /* \"#utility.yul\":4137:4142   */\n      dup3\n        /* \"#utility.yul\":4119:4143   */\n      tag_183\n      jump\t// in\n    tag_286:\n        /* \"#utility.yul\":4108:4143   */\n      swap1\n      pop\n        /* \"#utility.yul\":4053:4149   */\n      swap2\n      swap1\n      pop\n      jump\t// out\n        /* \"#utility.yul\":4155:4273   */\n    tag_185:\n        /* \"#utility.yul\":4242:4266   */\n      tag_288\n        /* \"#utility.yul\":4260:4265   */\n      dup2\n        /* \"#utility.yul\":4242:4266   */\n      tag_184\n      jump\t// in\n    tag_288:\n        /* \"#utility.yul\":4237:4240   */\n      dup3\n        /* \"#utility.yul\":4230:4267   */\n      mstore\n        /* \"#utility.yul\":4155:4273   */\n      pop\n      pop\n      jump\t// out\n        /* \"#utility.yul\":4279:4501   */\n    tag_22:\n        /* \"#utility.yul\":4372:4376   */\n      0x00\n        /* \"#utility.yul\":4410:4412   */\n      0x20\n        /* \"#utility.yul\":4399:4408   */\n      dup3\n        /* \"#utility.yul\":4395:4413   */\n      add\n        /* \"#utility.yul\":4387:4413   */\n      swap1\n      pop\n        /* \"#utility.yul\":4423:4494   */\n      tag_290\n        /* \"#utility.yul\":4491:4492   */\n      0x00\n        /* \"#utility.yul\":4480:4489   */\n      dup4\n        /* \"#utility.yul\":4476:4493   */\n      add\n        /* \"#utility.yul\":4467:4473   */\n      dup5\n        /* \"#utility.yul\":4423:4494   */\n      tag_185\n      jump\t// in\n    tag_290:\n        /* \"#utility.yul\":4279:4501   */\n      swap3\n      swap2\n      pop\n      pop\n      jump\t// out\n        /* \"#utility.yul\":4507:4836   */\n    tag_25:\n        /* \"#utility.yul\":4566:4572   */\n      0x00\n        /* \"#utility.yul\":4615:4617   */\n      0x20\n        /* \"#utility.yul\":4603:4612   */\n      dup3\n        /* \"#utility.yul\":4594:4601   */\n      dup5\n        /* \"#utility.yul\":4590:4613   */\n      sub\n        /* \"#utility.yul\":4586:4618   */\n      slt\n        /* \"#utility.yul\":4583:4702   */\n      iszero\n      tag_292\n      jumpi\n        /* \"#utility.yul\":4621:4700   */\n      tag_293\n      tag_169\n      jump\t// in\n    tag_293:\n        /* \"#utility.yul\":4583:4702   */\n    tag_292:\n        /* \"#utility.yul\":4741:4742   */\n      0x00\n        /* \"#utility.yul\":4766:4819   */\n      tag_294\n        /* \"#utility.yul\":4811:4818   */\n      dup5\n        /* \"#utility.yul\":4802:4808   */\n      dup3\n        /* \"#utility.yul\":4791:4800   */\n      dup6\n        /* \"#utility.yul\":4787:4809   */\n      add\n        /* \"#utility.yul\":4766:4819   */\n      tag_172\n      jump\t// in\n    tag_294:\n        /* \"#utility.yul\":4756:4819   */\n      swap2\n      pop\n        /* \"#utility.yul\":4712:4829   */\n      pop\n        /* \"#utility.yul\":4507:4836   */\n      swap3\n      swap2\n      pop\n      pop\n      jump\t// out\n        /* \"#utility.yul\":4842:4941   */\n    tag_186:\n        /* \"#utility.yul\":4894:4900   */\n      0x00\n        /* \"#utility.yul\":4928:4933   */\n      dup2\n        /* \"#utility.yul\":4922:4934   */\n      mload\n        /* \"#utility.yul\":4912:4934   */\n      swap1\n      pop\n        /* \"#utility.yul\":4842:4941   */\n      swap2\n      swap1\n      pop\n      jump\t// out\n        /* \"#utility.yul\":4947:5116   */\n    tag_187:\n        /* \"#utility.yul\":5031:5042   */\n      0x00\n        /* \"#utility.yul\":5065:5071   */\n      dup3\n        /* \"#utility.yul\":5060:5063   */\n      dup3\n        /* \"#utility.yul\":5053:5072   */\n      mstore\n        /* \"#utility.yul\":5105:5109   */\n      0x20\n        /* \"#utility.yul\":5100:5103   */\n      dup3\n        /* \"#utility.yul\":5096:5110   */\n      add\n        /* \"#utility.yul\":5081:5110   */\n      swap1\n      pop\n        /* \"#utility.yul\":4947:5116   */\n      swap3\n      swap2\n      pop\n      pop\n      jump\t// out\n        /* \"#utility.yul\":5122:5368   */\n    tag_188:\n        /* \"#utility.yul\":5203:5204   */\n      0x00\n        /* \"#utility.yul\":5213:5326   */\n    tag_298:\n        /* \"#utility.yul\":5227:5233   */\n      dup4\n        /* \"#utility.yul\":5224:5225   */\n      dup2\n        /* \"#utility.yul\":5221:5234   */\n      lt\n        /* \"#utility.yul\":5213:5326   */\n      iszero\n      tag_300\n      jumpi\n        /* \"#utility.yul\":5312:5313   */\n      dup1\n        /* \"#utility.yul\":5307:5310   */\n      dup3\n        /* \"#utility.yul\":5303:5314   */\n      add\n        /* \"#utility.yul\":5297:5315   */\n      mload\n        /* \"#utility.yul\":5293:5294   */\n      dup2\n        /* \"#utility.yul\":5288:5291   */\n      dup5\n        /* \"#utility.yul\":5284:5295   */\n      add\n        /* \"#utility.yul\":5277:5316   */\n      mstore\n        /* \"#utility.yul\":5249:5251   */\n      0x20\n        /* \"#utility.yul\":5246:5247   */\n      dup2\n        /* \"#utility.yul\":5242:5252   */\n      add\n        /* \"#utility.yul\":5237:5252   */\n      swap1\n      pop\n        /* \"#utility.yul\":5213:5326   */\n      jump(tag_298)\n    tag_300:\n        /* \"#utility.yul\":5360:5361   */\n      0x00\n        /* \"#utility.yul\":5351:5357   */\n      dup5\n        /* \"#utility.yul\":5346:5349   */\n      dup5\n        /* \"#utility.yul\":5342:5358   */\n      add\n        /* \"#utility.yul\":5335:5362   */\n      mstore\n        /* \"#utility.yul\":5184:5368   */\n      pop\n        /* \"#utility.yul\":5122:5368   */\n      pop\n      pop\n      pop\n      jump\t// out\n        /* \"#utility.yul\":5374:5751   */\n    tag_189:\n        /* \"#utility.yul\":5462:5465   */\n      0x00\n        /* \"#utility.yul\":5490:5529   */\n      tag_302\n        /* \"#utility.yul\":5523:5528   */\n      dup3\n        /* \"#utility.yul\":5490:5529   */\n      tag_186\n      jump\t// in\n    tag_302:\n        /* \"#utility.yul\":5545:5616   */\n      tag_303\n        /* \"#utility.yul\":5609:5615   */\n      dup2\n        /* \"#utility.yul\":5604:5607   */\n      dup6\n        /* \"#utility.yul\":5545:5616   */\n      tag_187\n      jump\t// in\n    tag_303:\n        /* \"#utility.yul\":5538:5616   */\n      swap4\n      pop\n        /* \"#utility.yul\":5625:5690   */\n      tag_304\n        /* \"#utility.yul\":5683:5689   */\n      dup2\n        /* \"#utility.yul\":5678:5681   */\n      dup6\n        /* \"#utility.yul\":5671:5675   */\n      0x20\n        /* \"#utility.yul\":5664:5669   */\n      dup7\n        /* \"#utility.yul\":5660:5676   */\n      add\n        /* \"#utility.yul\":5625:5690   */\n      tag_188\n      jump\t// in\n    tag_304:\n        /* \"#utility.yul\":5715:5744   */\n      tag_305\n        /* \"#utility.yul\":5737:5743   */\n      dup2\n        /* \"#utility.yul\":5715:5744   */\n      tag_175\n      jump\t// in\n    tag_305:\n        /* \"#utility.yul\":5710:5713   */\n      dup5\n        /* \"#utility.yul\":5706:5745   */\n      add\n        /* \"#utility.yul\":5699:5745   */\n      swap2\n      pop\n        /* \"#utility.yul\":5466:5751   */\n      pop\n        /* \"#utility.yul\":5374:5751   */\n      swap3\n      swap2\n      pop\n      pop\n      jump\t// out\n        /* \"#utility.yul\":5757:5937   */\n    tag_83:\n        /* \"#utility.yul\":5805:5882   */\n      0x4e487b7100000000000000000000000000000000000000000000000000000000\n        /* \"#utility.yul\":5802:5803   */\n      0x00\n        /* \"#utility.yul\":5795:5883   */\n      mstore\n        /* \"#utility.yul\":5902:5906   */\n      0x21\n        /* \"#utility.yul\":5899:5900   */\n      0x04\n        /* \"#utility.yul\":5892:5907   */\n      mstore\n        /* \"#utility.yul\":5926:5930   */\n      0x24\n        /* \"#utility.yul\":5923:5924   */\n      0x00\n        /* \"#utility.yul\":5916:5931   */\n      revert\n        /* \"#utility.yul\":5943:6056   */\n    tag_190:\n        /* \"#utility.yul\":6024:6025   */\n      0x04\n        /* \"#utility.yul\":6017:6022   */\n      dup2\n        /* \"#utility.yul\":6014:6026   */\n      lt\n        /* \"#utility.yul\":6004:6050   */\n      tag_308\n      jumpi\n        /* \"#utility.yul\":6030:6048   */\n      tag_309\n      tag_83\n      jump\t// in\n    tag_309:\n        /* \"#utility.yul\":6004:6050   */\n    tag_308:\n        /* \"#utility.yul\":5943:6056   */\n      pop\n      jump\t// out\n        /* \"#utility.yul\":6062:6189   */\n    tag_191:\n        /* \"#utility.yul\":6107:6114   */\n      0x00\n        /* \"#utility.yul\":6136:6141   */\n      dup2\n        /* \"#utility.yul\":6125:6141   */\n      swap1\n      pop\n        /* \"#utility.yul\":6142:6183   */\n      tag_311\n        /* \"#utility.yul\":6177:6182   */\n      dup3\n        /* \"#utility.yul\":6142:6183   */\n      tag_190\n      jump\t// in\n    tag_311:\n        /* \"#utility.yul\":6062:6189   */\n      swap2\n      swap1\n      pop\n      jump\t// out\n        /* \"#utility.yul\":6195:6322   */\n    tag_192:\n        /* \"#utility.yul\":6251:6260   */\n      0x00\n        /* \"#utility.yul\":6284:6316   */\n      tag_313\n        /* \"#utility.yul\":6310:6315   */\n      dup3\n        /* \"#utility.yul\":6284:6316   */\n      tag_191\n      jump\t// in\n    tag_313:\n        /* \"#utility.yul\":6271:6316   */\n      swap1\n      pop\n        /* \"#utility.yul\":6195:6322   */\n      swap2\n      swap1\n      pop\n      jump\t// out\n        /* \"#utility.yul\":6328:6471   */\n    tag_193:\n        /* \"#utility.yul\":6421:6464   */\n      tag_315\n        /* \"#utility.yul\":6458:6463   */\n      dup2\n        /* \"#utility.yul\":6421:6464   */\n      tag_192\n      jump\t// in\n    tag_315:\n        /* \"#utility.yul\":6416:6419   */\n      dup3\n        /* \"#utility.yul\":6409:6465   */\n      mstore\n        /* \"#utility.yul\":6328:6471   */\n      pop\n      pop\n      jump\t// out\n        /* \"#utility.yul\":6477:7022   */\n    tag_28:\n        /* \"#utility.yul\":6652:6656   */\n      0x00\n        /* \"#utility.yul\":6690:6692   */\n      0x60\n        /* \"#utility.yul\":6679:6688   */\n      dup3\n        /* \"#utility.yul\":6675:6693   */\n      add\n        /* \"#utility.yul\":6667:6693   */\n      swap1\n      pop\n        /* \"#utility.yul\":6703:6774   */\n      tag_317\n        /* \"#utility.yul\":6771:6772   */\n      0x00\n        /* \"#utility.yul\":6760:6769   */\n      dup4\n        /* \"#utility.yul\":6756:6773   */\n      add\n        /* \"#utility.yul\":6747:6753   */\n      dup7\n        /* \"#utility.yul\":6703:6774   */\n      tag_185\n      jump\t// in\n    tag_317:\n        /* \"#utility.yul\":6821:6830   */\n      dup2\n        /* \"#utility.yul\":6815:6819   */\n      dup2\n        /* \"#utility.yul\":6811:6831   */\n      sub\n        /* \"#utility.yul\":6806:6808   */\n      0x20\n        /* \"#utility.yul\":6795:6804   */\n      dup4\n        /* \"#utility.yul\":6791:6809   */\n      add\n        /* \"#utility.yul\":6784:6832   */\n      mstore\n        /* \"#utility.yul\":6849:6927   */\n      tag_318\n        /* \"#utility.yul\":6922:6926   */\n      dup2\n        /* \"#utility.yul\":6913:6919   */\n      dup6\n        /* \"#utility.yul\":6849:6927   */\n      tag_189\n      jump\t// in\n    tag_318:\n        /* \"#utility.yul\":6841:6927   */\n      swap1\n      pop\n        /* \"#utility.yul\":6937:7015   */\n      tag_319\n        /* \"#utility.yul\":7011:7013   */\n      0x40\n        /* \"#utility.yul\":7000:7009   */\n      dup4\n        /* \"#utility.yul\":6996:7014   */\n      add\n        /* \"#utility.yul\":6987:6993   */\n      dup5\n        /* \"#utility.yul\":6937:7015   */\n      tag_193\n      jump\t// in\n    tag_319:\n        /* \"#utility.yul\":6477:7022   */\n      swap5\n      swap4\n      pop\n      pop\n      pop\n      pop\n      jump\t// out\n        /* \"#utility.yul\":7028:7339   */\n    tag_194:\n        /* \"#utility.yul\":7105:7109   */\n      0x00\n        /* \"#utility.yul\":7195:7213   */\n      0xffffffffffffffff\n        /* \"#utility.yul\":7187:7193   */\n      dup3\n        /* \"#utility.yul\":7184:7214   */\n      gt\n        /* \"#utility.yul\":7181:7237   */\n      iszero\n      tag_321\n      jumpi\n        /* \"#utility.yul\":7217:7235   */\n      tag_322\n      tag_176\n      jump\t// in\n    tag_322:\n        /* \"#utility.yul\":7181:7237   */\n    tag_321:\n        /* \"#utility.yul\":7267:7271   */\n      0x20\n        /* \"#utility.yul\":7259:7265   */\n      dup3\n        /* \"#utility.yul\":7255:7272   */\n      mul\n        /* \"#utility.yul\":7247:7272   */\n      swap1\n      pop\n        /* \"#utility.yul\":7327:7331   */\n      0x20\n        /* \"#utility.yul\":7321:7325   */\n      dup2\n        /* \"#utility.yul\":7317:7332   */\n      add\n        /* \"#utility.yul\":7309:7332   */\n      swap1\n      pop\n        /* \"#utility.yul\":7028:7339   */\n      swap2\n      swap1\n      pop\n      jump\t// out\n        /* \"#utility.yul\":7345:7462   */\n    tag_195:\n        /* \"#utility.yul\":7454:7455   */\n      0x00\n        /* \"#utility.yul\":7451:7452   */\n      dup1\n        /* \"#utility.yul\":7444:7456   */\n      revert\n        /* \"#utility.yul\":7485:8195   */\n    tag_196:\n        /* \"#utility.yul\":7581:7586   */\n      0x00\n        /* \"#utility.yul\":7606:7687   */\n      tag_325\n        /* \"#utility.yul\":7622:7686   */\n      tag_326\n        /* \"#utility.yul\":7679:7685   */\n      dup5\n        /* \"#utility.yul\":7622:7686   */\n      tag_194\n      jump\t// in\n    tag_326:\n        /* \"#utility.yul\":7606:7687   */\n      tag_178\n      jump\t// in\n    tag_325:\n        /* \"#utility.yul\":7597:7687   */\n      swap1\n      pop\n        /* \"#utility.yul\":7707:7712   */\n      dup1\n        /* \"#utility.yul\":7736:7742   */\n      dup4\n        /* \"#utility.yul\":7729:7734   */\n      dup3\n        /* \"#utility.yul\":7722:7743   */\n      mstore\n        /* \"#utility.yul\":7770:7774   */\n      0x20\n        /* \"#utility.yul\":7763:7768   */\n      dup3\n        /* \"#utility.yul\":7759:7775   */\n      add\n        /* \"#utility.yul\":7752:7775   */\n      swap1\n      pop\n        /* \"#utility.yul\":7823:7827   */\n      0x20\n        /* \"#utility.yul\":7815:7821   */\n      dup5\n        /* \"#utility.yul\":7811:7828   */\n      mul\n        /* \"#utility.yul\":7803:7809   */\n      dup4\n        /* \"#utility.yul\":7799:7829   */\n      add\n        /* \"#utility.yul\":7852:7855   */\n      dup6\n        /* \"#utility.yul\":7844:7850   */\n      dup2\n        /* \"#utility.yul\":7841:7856   */\n      gt\n        /* \"#utility.yul\":7838:7960   */\n      iszero\n      tag_327\n      jumpi\n        /* \"#utility.yul\":7871:7950   */\n      tag_328\n      tag_195\n      jump\t// in\n    tag_328:\n        /* \"#utility.yul\":7838:7960   */\n    tag_327:\n        /* \"#utility.yul\":7986:7992   */\n      dup4\n        /* \"#utility.yul\":7969:8189   */\n    tag_329:\n        /* \"#utility.yul\":8003:8009   */\n      dup2\n        /* \"#utility.yul\":7998:8001   */\n      dup2\n        /* \"#utility.yul\":7995:8010   */\n      lt\n        /* \"#utility.yul\":7969:8189   */\n      iszero\n      tag_331\n      jumpi\n        /* \"#utility.yul\":8078:8081   */\n      dup1\n        /* \"#utility.yul\":8107:8144   */\n      tag_332\n        /* \"#utility.yul\":8140:8143   */\n      dup9\n        /* \"#utility.yul\":8128:8138   */\n      dup3\n        /* \"#utility.yul\":8107:8144   */\n      tag_172\n      jump\t// in\n    tag_332:\n        /* \"#utility.yul\":8102:8105   */\n      dup5\n        /* \"#utility.yul\":8095:8145   */\n      mstore\n        /* \"#utility.yul\":8174:8178   */\n      0x20\n        /* \"#utility.yul\":8169:8172   */\n      dup5\n        /* \"#utility.yul\":8165:8179   */\n      add\n        /* \"#utility.yul\":8158:8179   */\n      swap4\n      pop\n        /* \"#utility.yul\":8045:8189   */\n      pop\n        /* \"#utility.yul\":8029:8033   */\n      0x20\n        /* \"#utility.yul\":8024:8027   */\n      dup2\n        /* \"#utility.yul\":8020:8034   */\n      add\n        /* \"#utility.yul\":8013:8034   */\n      swap1\n      pop\n        /* \"#utility.yul\":7969:8189   */\n      jump(tag_329)\n    tag_331:\n        /* \"#utility.yul\":7973:7994   */\n      pop\n        /* \"#utility.yul\":7587:8195   */\n      pop\n      pop\n        /* \"#utility.yul\":7485:8195   */\n      swap4\n      swap3\n      pop\n      pop\n      pop\n      jump\t// out\n        /* \"#utility.yul\":8218:8588   */\n    tag_197:\n        /* \"#utility.yul\":8289:8294   */\n      0x00\n        /* \"#utility.yul\":8338:8341   */\n      dup3\n        /* \"#utility.yul\":8331:8335   */\n      0x1f\n        /* \"#utility.yul\":8323:8329   */\n      dup4\n        /* \"#utility.yul\":8319:8336   */\n      add\n        /* \"#utility.yul\":8315:8342   */\n      slt\n        /* \"#utility.yul\":8305:8427   */\n      tag_334\n      jumpi\n        /* \"#utility.yul\":8346:8425   */\n      tag_335\n      tag_173\n      jump\t// in\n    tag_335:\n        /* \"#utility.yul\":8305:8427   */\n    tag_334:\n        /* \"#utility.yul\":8463:8469   */\n      dup2\n        /* \"#utility.yul\":8450:8470   */\n      calldataload\n        /* \"#utility.yul\":8488:8582   */\n      tag_336\n        /* \"#utility.yul\":8578:8581   */\n      dup5\n        /* \"#utility.yul\":8570:8576   */\n      dup3\n        /* \"#utility.yul\":8563:8567   */\n      0x20\n        /* \"#utility.yul\":8555:8561   */\n      dup7\n        /* \"#utility.yul\":8551:8568   */\n      add\n        /* \"#utility.yul\":8488:8582   */\n      tag_196\n      jump\t// in\n    tag_336:\n        /* \"#utility.yul\":8479:8582   */\n      swap2\n      pop\n        /* \"#utility.yul\":8295:8588   */\n      pop\n        /* \"#utility.yul\":8218:8588   */\n      swap3\n      swap2\n      pop\n      pop\n      jump\t// out\n        /* \"#utility.yul\":8594:9458   */\n    tag_31:\n        /* \"#utility.yul\":8697:8703   */\n      0x00\n        /* \"#utility.yul\":8705:8711   */\n      dup1\n        /* \"#utility.yul\":8754:8756   */\n      0x40\n        /* \"#utility.yul\":8742:8751   */\n      dup4\n        /* \"#utility.yul\":8733:8740   */\n      dup6\n        /* \"#utility.yul\":8729:8752   */\n      sub\n        /* \"#utility.yul\":8725:8757   */\n      slt\n        /* \"#utility.yul\":8722:8841   */\n      iszero\n      tag_338\n      jumpi\n        /* \"#utility.yul\":8760:8839   */\n      tag_339\n      tag_169\n      jump\t// in\n    tag_339:\n        /* \"#utility.yul\":8722:8841   */\n    tag_338:\n        /* \"#utility.yul\":8908:8909   */\n      0x00\n        /* \"#utility.yul\":8897:8906   */\n      dup4\n        /* \"#utility.yul\":8893:8910   */\n      add\n        /* \"#utility.yul\":8880:8911   */\n      calldataload\n        /* \"#utility.yul\":8938:8956   */\n      0xffffffffffffffff\n        /* \"#utility.yul\":8930:8936   */\n      dup2\n        /* \"#utility.yul\":8927:8957   */\n      gt\n        /* \"#utility.yul\":8924:9041   */\n      iszero\n      tag_340\n      jumpi\n        /* \"#utility.yul\":8960:9039   */\n      tag_341\n      tag_170\n      jump\t// in\n    tag_341:\n        /* \"#utility.yul\":8924:9041   */\n    tag_340:\n        /* \"#utility.yul\":9065:9128   */\n      tag_342\n        /* \"#utility.yul\":9120:9127   */\n      dup6\n        /* \"#utility.yul\":9111:9117   */\n      dup3\n        /* \"#utility.yul\":9100:9109   */\n      dup7\n        /* \"#utility.yul\":9096:9118   */\n      add\n        /* \"#utility.yul\":9065:9128   */\n      tag_182\n      jump\t// in\n    tag_342:\n        /* \"#utility.yul\":9055:9128   */\n      swap3\n      pop\n        /* \"#utility.yul\":8851:9138   */\n      pop\n        /* \"#utility.yul\":9205:9207   */\n      0x20\n        /* \"#utility.yul\":9194:9203   */\n      dup4\n        /* \"#utility.yul\":9190:9208   */\n      add\n        /* \"#utility.yul\":9177:9209   */\n      calldataload\n        /* \"#utility.yul\":9236:9254   */\n      0xffffffffffffffff\n        /* \"#utility.yul\":9228:9234   */\n      dup2\n        /* \"#utility.yul\":9225:9255   */\n      gt\n        /* \"#utility.yul\":9222:9339   */\n      iszero\n      tag_343\n      jumpi\n        /* \"#utility.yul\":9258:9337   */\n      tag_344\n      tag_170\n      jump\t// in\n    tag_344:\n        /* \"#utility.yul\":9222:9339   */\n    tag_343:\n        /* \"#utility.yul\":9363:9441   */\n      tag_345\n        /* \"#utility.yul\":9433:9440   */\n      dup6\n        /* \"#utility.yul\":9424:9430   */\n      dup3\n        /* \"#utility.yul\":9413:9422   */\n      dup7\n        /* \"#utility.yul\":9409:9431   */\n      add\n        /* \"#utility.yul\":9363:9441   */\n      tag_197\n      jump\t// in\n    tag_345:\n        /* \"#utility.yul\":9353:9441   */\n      swap2\n      pop\n        /* \"#utility.yul\":9148:9451   */\n      pop\n        /* \"#utility.yul\":8594:9458   */\n      swap3\n      pop\n      swap3\n      swap1\n      pop\n      jump\t// out\n        /* \"#utility.yul\":9464:9572   */\n    tag_198:\n        /* \"#utility.yul\":9541:9565   */\n      tag_347\n        /* \"#utility.yul\":9559:9564   */\n      dup2\n        /* \"#utility.yul\":9541:9565   */\n      tag_184\n      jump\t// in\n    tag_347:\n        /* \"#utility.yul\":9536:9539   */\n      dup3\n        /* \"#utility.yul\":9529:9566   */\n      mstore\n        /* \"#utility.yul\":9464:9572   */\n      pop\n      pop\n      jump\t// out\n        /* \"#utility.yul\":9578:9737   */\n    tag_199:\n        /* \"#utility.yul\":9652:9663   */\n      0x00\n        /* \"#utility.yul\":9686:9692   */\n      dup3\n        /* \"#utility.yul\":9681:9684   */\n      dup3\n        /* \"#utility.yul\":9674:9693   */\n      mstore\n        /* \"#utility.yul\":9726:9730   */\n      0x20\n        /* \"#utility.yul\":9721:9724   */\n      dup3\n        /* \"#utility.yul\":9717:9731   */\n      add\n        /* \"#utility.yul\":9702:9731   */\n      swap1\n      pop\n        /* \"#utility.yul\":9578:9737   */\n      swap3\n      swap2\n      pop\n      pop\n      jump\t// out\n        /* \"#utility.yul\":9743:10100   */\n    tag_200:\n        /* \"#utility.yul\":9821:9824   */\n      0x00\n        /* \"#utility.yul\":9849:9888   */\n      tag_350\n        /* \"#utility.yul\":9882:9887   */\n      dup3\n        /* \"#utility.yul\":9849:9888   */\n      tag_186\n      jump\t// in\n    tag_350:\n        /* \"#utility.yul\":9904:9965   */\n      tag_351\n        /* \"#utility.yul\":9958:9964   */\n      dup2\n        /* \"#utility.yul\":9953:9956   */\n      dup6\n        /* \"#utility.yul\":9904:9965   */\n      tag_199\n      jump\t// in\n    tag_351:\n        /* \"#utility.yul\":9897:9965   */\n      swap4\n      pop\n        /* \"#utility.yul\":9974:10039   */\n      tag_352\n        /* \"#utility.yul\":10032:10038   */\n      dup2\n        /* \"#utility.yul\":10027:10030   */\n      dup6\n        /* \"#utility.yul\":10020:10024   */\n      0x20\n        /* \"#utility.yul\":10013:10018   */\n      dup7\n        /* \"#utility.yul\":10009:10025   */\n      add\n        /* \"#utility.yul\":9974:10039   */\n      tag_188\n      jump\t// in\n    tag_352:\n        /* \"#utility.yul\":10064:10093   */\n      tag_353\n        /* \"#utility.yul\":10086:10092   */\n      dup2\n        /* \"#utility.yul\":10064:10093   */\n      tag_175\n      jump\t// in\n    tag_353:\n        /* \"#utility.yul\":10059:10062   */\n      dup5\n        /* \"#utility.yul\":10055:10094   */\n      add\n        /* \"#utility.yul\":10048:10094   */\n      swap2\n      pop\n        /* \"#utility.yul\":9825:10100   */\n      pop\n        /* \"#utility.yul\":9743:10100   */\n      swap3\n      swap2\n      pop\n      pop\n      jump\t// out\n        /* \"#utility.yul\":10106:10220   */\n    tag_201:\n        /* \"#utility.yul\":10173:10179   */\n      0x00\n        /* \"#utility.yul\":10207:10212   */\n      dup2\n        /* \"#utility.yul\":10201:10213   */\n      mload\n        /* \"#utility.yul\":10191:10213   */\n      swap1\n      pop\n        /* \"#utility.yul\":10106:10220   */\n      swap2\n      swap1\n      pop\n      jump\t// out\n        /* \"#utility.yul\":10226:10400   */\n    tag_202:\n        /* \"#utility.yul\":10315:10326   */\n      0x00\n        /* \"#utility.yul\":10349:10355   */\n      dup3\n        /* \"#utility.yul\":10344:10347   */\n      dup3\n        /* \"#utility.yul\":10337:10356   */\n      mstore\n        /* \"#utility.yul\":10389:10393   */\n      0x20\n        /* \"#utility.yul\":10384:10387   */\n      dup3\n        /* \"#utility.yul\":10380:10394   */\n      add\n        /* \"#utility.yul\":10365:10394   */\n      swap1\n      pop\n        /* \"#utility.yul\":10226:10400   */\n      swap3\n      swap2\n      pop\n      pop\n      jump\t// out\n        /* \"#utility.yul\":10406:10538   */\n    tag_203:\n        /* \"#utility.yul\":10473:10477   */\n      0x00\n        /* \"#utility.yul\":10496:10499   */\n      dup2\n        /* \"#utility.yul\":10488:10499   */\n      swap1\n      pop\n        /* \"#utility.yul\":10526:10530   */\n      0x20\n        /* \"#utility.yul\":10521:10524   */\n      dup3\n        /* \"#utility.yul\":10517:10531   */\n      add\n        /* \"#utility.yul\":10509:10531   */\n      swap1\n      pop\n        /* \"#utility.yul\":10406:10538   */\n      swap2\n      swap1\n      pop\n      jump\t// out\n        /* \"#utility.yul\":10544:10652   */\n    tag_204:\n        /* \"#utility.yul\":10621:10645   */\n      tag_358\n        /* \"#utility.yul\":10639:10644   */\n      dup2\n        /* \"#utility.yul\":10621:10645   */\n      tag_166\n      jump\t// in\n    tag_358:\n        /* \"#utility.yul\":10616:10619   */\n      dup3\n        /* \"#utility.yul\":10609:10646   */\n      mstore\n        /* \"#utility.yul\":10544:10652   */\n      pop\n      pop\n      jump\t// out\n        /* \"#utility.yul\":10658:10837   */\n    tag_205:\n        /* \"#utility.yul\":10727:10737   */\n      0x00\n        /* \"#utility.yul\":10748:10794   */\n      tag_360\n        /* \"#utility.yul\":10790:10793   */\n      dup4\n        /* \"#utility.yul\":10782:10788   */\n      dup4\n        /* \"#utility.yul\":10748:10794   */\n      tag_204\n      jump\t// in\n    tag_360:\n        /* \"#utility.yul\":10826:10830   */\n      0x20\n        /* \"#utility.yul\":10821:10824   */\n      dup4\n        /* \"#utility.yul\":10817:10831   */\n      add\n        /* \"#utility.yul\":10803:10831   */\n      swap1\n      pop\n        /* \"#utility.yul\":10658:10837   */\n      swap3\n      swap2\n      pop\n      pop\n      jump\t// out\n        /* \"#utility.yul\":10843:10956   */\n    tag_206:\n        /* \"#utility.yul\":10913:10917   */\n      0x00\n        /* \"#utility.yul\":10945:10949   */\n      0x20\n        /* \"#utility.yul\":10940:10943   */\n      dup3\n        /* \"#utility.yul\":10936:10950   */\n      add\n        /* \"#utility.yul\":10928:10950   */\n      swap1\n      pop\n        /* \"#utility.yul\":10843:10956   */\n      swap2\n      swap1\n      pop\n      jump\t// out\n        /* \"#utility.yul\":10992:11704   */\n    tag_207:\n        /* \"#utility.yul\":11101:11104   */\n      0x00\n        /* \"#utility.yul\":11130:11184   */\n      tag_363\n        /* \"#utility.yul\":11178:11183   */\n      dup3\n        /* \"#utility.yul\":11130:11184   */\n      tag_201\n      jump\t// in\n    tag_363:\n        /* \"#utility.yul\":11200:11276   */\n      tag_364\n        /* \"#utility.yul\":11269:11275   */\n      dup2\n        /* \"#utility.yul\":11264:11267   */\n      dup6\n        /* \"#utility.yul\":11200:11276   */\n      tag_202\n      jump\t// in\n    tag_364:\n        /* \"#utility.yul\":11193:11276   */\n      swap4\n      pop\n        /* \"#utility.yul\":11300:11356   */\n      tag_365\n        /* \"#utility.yul\":11350:11355   */\n      dup4\n        /* \"#utility.yul\":11300:11356   */\n      tag_203\n      jump\t// in\n    tag_365:\n        /* \"#utility.yul\":11379:11386   */\n      dup1\n        /* \"#utility.yul\":11410:11411   */\n      0x00\n        /* \"#utility.yul\":11395:11679   */\n    tag_366:\n        /* \"#utility.yul\":11420:11426   */\n      dup4\n        /* \"#utility.yul\":11417:11418   */\n      dup2\n        /* \"#utility.yul\":11414:11427   */\n      lt\n        /* \"#utility.yul\":11395:11679   */\n      iszero\n      tag_368\n      jumpi\n        /* \"#utility.yul\":11496:11502   */\n      dup2\n        /* \"#utility.yul\":11490:11503   */\n      mload\n        /* \"#utility.yul\":11523:11586   */\n      tag_369\n        /* \"#utility.yul\":11582:11585   */\n      dup9\n        /* \"#utility.yul\":11567:11580   */\n      dup3\n        /* \"#utility.yul\":11523:11586   */\n      tag_205\n      jump\t// in\n    tag_369:\n        /* \"#utility.yul\":11516:11586   */\n      swap8\n      pop\n        /* \"#utility.yul\":11609:11669   */\n      tag_370\n        /* \"#utility.yul\":11662:11668   */\n      dup4\n        /* \"#utility.yul\":11609:11669   */\n      tag_206\n      jump\t// in\n    tag_370:\n        /* \"#utility.yul\":11599:11669   */\n      swap3\n      pop\n        /* \"#utility.yul\":11455:11679   */\n      pop\n        /* \"#utility.yul\":11442:11443   */\n      0x01\n        /* \"#utility.yul\":11439:11440   */\n      dup2\n        /* \"#utility.yul\":11435:11444   */\n      add\n        /* \"#utility.yul\":11430:11444   */\n      swap1\n      pop\n        /* \"#utility.yul\":11395:11679   */\n      jump(tag_366)\n    tag_368:\n        /* \"#utility.yul\":11399:11413   */\n      pop\n        /* \"#utility.yul\":11695:11698   */\n      dup6\n        /* \"#utility.yul\":11688:11698   */\n      swap4\n      pop\n        /* \"#utility.yul\":11106:11704   */\n      pop\n      pop\n      pop\n        /* \"#utility.yul\":10992:11704   */\n      swap3\n      swap2\n      pop\n      pop\n      jump\t// out\n        /* \"#utility.yul\":11710:11843   */\n    tag_208:\n        /* \"#utility.yul\":11793:11836   */\n      tag_372\n        /* \"#utility.yul\":11830:11835   */\n      dup2\n        /* \"#utility.yul\":11793:11836   */\n      tag_192\n      jump\t// in\n    tag_372:\n        /* \"#utility.yul\":11788:11791   */\n      dup3\n        /* \"#utility.yul\":11781:11837   */\n      mstore\n        /* \"#utility.yul\":11710:11843   */\n      pop\n      pop\n      jump\t// out\n        /* \"#utility.yul\":11907:12972   */\n    tag_209:\n        /* \"#utility.yul\":12018:12021   */\n      0x00\n        /* \"#utility.yul\":12054:12058   */\n      0x80\n        /* \"#utility.yul\":12049:12052   */\n      dup4\n        /* \"#utility.yul\":12045:12059   */\n      add\n        /* \"#utility.yul\":12145:12149   */\n      0x00\n        /* \"#utility.yul\":12138:12143   */\n      dup4\n        /* \"#utility.yul\":12134:12150   */\n      add\n        /* \"#utility.yul\":12128:12151   */\n      mload\n        /* \"#utility.yul\":12164:12227   */\n      tag_374\n        /* \"#utility.yul\":12221:12225   */\n      0x00\n        /* \"#utility.yul\":12216:12219   */\n      dup7\n        /* \"#utility.yul\":12212:12226   */\n      add\n        /* \"#utility.yul\":12198:12210   */\n      dup3\n        /* \"#utility.yul\":12164:12227   */\n      tag_198\n      jump\t// in\n    tag_374:\n        /* \"#utility.yul\":12069:12237   */\n      pop\n        /* \"#utility.yul\":12322:12326   */\n      0x20\n        /* \"#utility.yul\":12315:12320   */\n      dup4\n        /* \"#utility.yul\":12311:12327   */\n      add\n        /* \"#utility.yul\":12305:12328   */\n      mload\n        /* \"#utility.yul\":12375:12378   */\n      dup5\n        /* \"#utility.yul\":12369:12373   */\n      dup3\n        /* \"#utility.yul\":12365:12379   */\n      sub\n        /* \"#utility.yul\":12358:12362   */\n      0x20\n        /* \"#utility.yul\":12353:12356   */\n      dup7\n        /* \"#utility.yul\":12349:12363   */\n      add\n        /* \"#utility.yul\":12342:12380   */\n      mstore\n        /* \"#utility.yul\":12401:12474   */\n      tag_375\n        /* \"#utility.yul\":12469:12473   */\n      dup3\n        /* \"#utility.yul\":12455:12467   */\n      dup3\n        /* \"#utility.yul\":12401:12474   */\n      tag_200\n      jump\t// in\n    tag_375:\n        /* \"#utility.yul\":12393:12474   */\n      swap2\n      pop\n        /* \"#utility.yul\":12247:12485   */\n      pop\n        /* \"#utility.yul\":12570:12574   */\n      0x40\n        /* \"#utility.yul\":12563:12568   */\n      dup4\n        /* \"#utility.yul\":12559:12575   */\n      add\n        /* \"#utility.yul\":12553:12576   */\n      mload\n        /* \"#utility.yul\":12623:12626   */\n      dup5\n        /* \"#utility.yul\":12617:12621   */\n      dup3\n        /* \"#utility.yul\":12613:12627   */\n      sub\n        /* \"#utility.yul\":12606:12610   */\n      0x40\n        /* \"#utility.yul\":12601:12604   */\n      dup7\n        /* \"#utility.yul\":12597:12611   */\n      add\n        /* \"#utility.yul\":12590:12628   */\n      mstore\n        /* \"#utility.yul\":12649:12752   */\n      tag_376\n        /* \"#utility.yul\":12747:12751   */\n      dup3\n        /* \"#utility.yul\":12733:12745   */\n      dup3\n        /* \"#utility.yul\":12649:12752   */\n      tag_207\n      jump\t// in\n    tag_376:\n        /* \"#utility.yul\":12641:12752   */\n      swap2\n      pop\n        /* \"#utility.yul\":12495:12763   */\n      pop\n        /* \"#utility.yul\":12847:12851   */\n      0x60\n        /* \"#utility.yul\":12840:12845   */\n      dup4\n        /* \"#utility.yul\":12836:12852   */\n      add\n        /* \"#utility.yul\":12830:12853   */\n      mload\n        /* \"#utility.yul\":12866:12935   */\n      tag_377\n        /* \"#utility.yul\":12929:12933   */\n      0x60\n        /* \"#utility.yul\":12924:12927   */\n      dup7\n        /* \"#utility.yul\":12920:12934   */\n      add\n        /* \"#utility.yul\":12906:12918   */\n      dup3\n        /* \"#utility.yul\":12866:12935   */\n      tag_208\n      jump\t// in\n    tag_377:\n        /* \"#utility.yul\":12773:12945   */\n      pop\n        /* \"#utility.yul\":12962:12966   */\n      dup1\n        /* \"#utility.yul\":12955:12966   */\n      swap2\n      pop\n        /* \"#utility.yul\":12023:12972   */\n      pop\n        /* \"#utility.yul\":11907:12972   */\n      swap3\n      swap2\n      pop\n      pop\n      jump\t// out\n        /* \"#utility.yul\":12978:13335   */\n    tag_38:\n        /* \"#utility.yul\":13113:13117   */\n      0x00\n        /* \"#utility.yul\":13151:13153   */\n      0x20\n        /* \"#utility.yul\":13140:13149   */\n      dup3\n        /* \"#utility.yul\":13136:13154   */\n      add\n        /* \"#utility.yul\":13128:13154   */\n      swap1\n      pop\n        /* \"#utility.yul\":13200:13209   */\n      dup2\n        /* \"#utility.yul\":13194:13198   */\n      dup2\n        /* \"#utility.yul\":13190:13210   */\n      sub\n        /* \"#utility.yul\":13186:13187   */\n      0x00\n        /* \"#utility.yul\":13175:13184   */\n      dup4\n        /* \"#utility.yul\":13171:13188   */\n      add\n        /* \"#utility.yul\":13164:13211   */\n      mstore\n        /* \"#utility.yul\":13228:13328   */\n      tag_379\n        /* \"#utility.yul\":13323:13327   */\n      dup2\n        /* \"#utility.yul\":13314:13320   */\n      dup5\n        /* \"#utility.yul\":13228:13328   */\n      tag_209\n      jump\t// in\n    tag_379:\n        /* \"#utility.yul\":13220:13328   */\n      swap1\n      pop\n        /* \"#utility.yul\":12978:13335   */\n      swap3\n      swap2\n      pop\n      pop\n      jump\t// out\n        /* \"#utility.yul\":13341:13511   */\n    tag_210:\n        /* \"#utility.yul\":13481:13503   */\n      0x4e6f7420612076616c6964206f72646572206964000000000000000000000000\n        /* \"#utility.yul\":13477:13478   */\n      0x00\n        /* \"#utility.yul\":13469:13475   */\n      dup3\n        /* \"#utility.yul\":13465:13479   */\n      add\n        /* \"#utility.yul\":13458:13504   */\n      mstore\n        /* \"#utility.yul\":13341:13511   */\n      pop\n      jump\t// out\n        /* \"#utility.yul\":13517:13883   */\n    tag_211:\n        /* \"#utility.yul\":13659:13662   */\n      0x00\n        /* \"#utility.yul\":13680:13747   */\n      tag_382\n        /* \"#utility.yul\":13744:13746   */\n      0x14\n        /* \"#utility.yul\":13739:13742   */\n      dup4\n        /* \"#utility.yul\":13680:13747   */\n      tag_187\n      jump\t// in\n    tag_382:\n        /* \"#utility.yul\":13673:13747   */\n      swap2\n      pop\n        /* \"#utility.yul\":13756:13849   */\n      tag_383\n        /* \"#utility.yul\":13845:13848   */\n      dup3\n        /* \"#utility.yul\":13756:13849   */\n      tag_210\n      jump\t// in\n    tag_383:\n        /* \"#utility.yul\":13874:13876   */\n      0x20\n        /* \"#utility.yul\":13869:13872   */\n      dup3\n        /* \"#utility.yul\":13865:13877   */\n      add\n        /* \"#utility.yul\":13858:13877   */\n      swap1\n      pop\n        /* \"#utility.yul\":13517:13883   */\n      swap2\n      swap1\n      pop\n      jump\t// out\n        /* \"#utility.yul\":13889:14308   */\n    tag_45:\n        /* \"#utility.yul\":14055:14059   */\n      0x00\n        /* \"#utility.yul\":14093:14095   */\n      0x20\n        /* \"#utility.yul\":14082:14091   */\n      dup3\n        /* \"#utility.yul\":14078:14096   */\n      add\n        /* \"#utility.yul\":14070:14096   */\n      swap1\n      pop\n        /* \"#utility.yul\":14142:14151   */\n      dup2\n        /* \"#utility.yul\":14136:14140   */\n      dup2\n        /* \"#utility.yul\":14132:14152   */\n      sub\n        /* \"#utility.yul\":14128:14129   */\n      0x00\n        /* \"#utility.yul\":14117:14126   */\n      dup4\n        /* \"#utility.yul\":14113:14130   */\n      add\n        /* \"#utility.yul\":14106:14153   */\n      mstore\n        /* \"#utility.yul\":14170:14301   */\n      tag_385\n        /* \"#utility.yul\":14296:14300   */\n      dup2\n        /* \"#utility.yul\":14170:14301   */\n      tag_211\n      jump\t// in\n    tag_385:\n        /* \"#utility.yul\":14162:14301   */\n      swap1\n      pop\n        /* \"#utility.yul\":13889:14308   */\n      swap2\n      swap1\n      pop\n      jump\t// out\n        /* \"#utility.yul\":14314:14494   */\n    tag_49:\n        /* \"#utility.yul\":14362:14439   */\n      0x4e487b7100000000000000000000000000000000000000000000000000000000\n        /* \"#utility.yul\":14359:14360   */\n      0x00\n        /* \"#utility.yul\":14352:14440   */\n      mstore\n        /* \"#utility.yul\":14459:14463   */\n      0x32\n        /* \"#utility.yul\":14456:14457   */\n      0x04\n        /* \"#utility.yul\":14449:14464   */\n      mstore\n        /* \"#utility.yul\":14483:14487   */\n      0x24\n        /* \"#utility.yul\":14480:14481   */\n      0x00\n        /* \"#utility.yul\":14473:14488   */\n      revert\n        /* \"#utility.yul\":14500:14672   */\n    tag_212:\n        /* \"#utility.yul\":14640:14664   */\n      0x20796f7520617265206e6f7420746865206f776e657200000000000000000000\n        /* \"#utility.yul\":14636:14637   */\n      0x00\n        /* \"#utility.yul\":14628:14634   */\n      dup3\n        /* \"#utility.yul\":14624:14638   */\n      add\n        /* \"#utility.yul\":14617:14665   */\n      mstore\n        /* \"#utility.yul\":14500:14672   */\n      pop\n      jump\t// out\n        /* \"#utility.yul\":14678:15044   */\n    tag_213:\n        /* \"#utility.yul\":14820:14823   */\n      0x00\n        /* \"#utility.yul\":14841:14908   */\n      tag_389\n        /* \"#utility.yul\":14905:14907   */\n      0x16\n        /* \"#utility.yul\":14900:14903   */\n      dup4\n        /* \"#utility.yul\":14841:14908   */\n      tag_187\n      jump\t// in\n    tag_389:\n        /* \"#utility.yul\":14834:14908   */\n      swap2\n      pop\n        /* \"#utility.yul\":14917:15010   */\n      tag_390\n        /* \"#utility.yul\":15006:15009   */\n      dup3\n        /* \"#utility.yul\":14917:15010   */\n      tag_212\n      jump\t// in\n    tag_390:\n        /* \"#utility.yul\":15035:15037   */\n      0x20\n        /* \"#utility.yul\":15030:15033   */\n      dup3\n        /* \"#utility.yul\":15026:15038   */\n      add\n        /* \"#utility.yul\":15019:15038   */\n      swap1\n      pop\n        /* \"#utility.yul\":14678:15044   */\n      swap2\n      swap1\n      pop\n      jump\t// out\n        /* \"#utility.yul\":15050:15469   */\n    tag_53:\n        /* \"#utility.yul\":15216:15220   */\n      0x00\n        /* \"#utility.yul\":15254:15256   */\n      0x20\n        /* \"#utility.yul\":15243:15252   */\n      dup3\n        /* \"#utility.yul\":15239:15257   */\n      add\n        /* \"#utility.yul\":15231:15257   */\n      swap1\n      pop\n        /* \"#utility.yul\":15303:15312   */\n      dup2\n        /* \"#utility.yul\":15297:15301   */\n      dup2\n        /* \"#utility.yul\":15293:15313   */\n      sub\n        /* \"#utility.yul\":15289:15290   */\n      0x00\n        /* \"#utility.yul\":15278:15287   */\n      dup4\n        /* \"#utility.yul\":15274:15291   */\n      add\n        /* \"#utility.yul\":15267:15314   */\n      mstore\n        /* \"#utility.yul\":15331:15462   */\n      tag_392\n        /* \"#utility.yul\":15457:15461   */\n      dup2\n        /* \"#utility.yul\":15331:15462   */\n      tag_213\n      jump\t// in\n    tag_392:\n        /* \"#utility.yul\":15323:15462   */\n      swap1\n      pop\n        /* \"#utility.yul\":15050:15469   */\n      swap2\n      swap1\n      pop\n      jump\t// out\n        /* \"#utility.yul\":15475:15655   */\n    tag_214:\n        /* \"#utility.yul\":15523:15600   */\n      0x4e487b7100000000000000000000000000000000000000000000000000000000\n        /* \"#utility.yul\":15520:15521   */\n      0x00\n        /* \"#utility.yul\":15513:15601   */\n      mstore\n        /* \"#utility.yul\":15620:15624   */\n      0x22\n        /* \"#utility.yul\":15617:15618   */\n      0x04\n        /* \"#utility.yul\":15610:15625   */\n      mstore\n        /* \"#utility.yul\":15644:15648   */\n      0x24\n        /* \"#utility.yul\":15641:15642   */\n      0x00\n        /* \"#utility.yul\":15634:15649   */\n      revert\n        /* \"#utility.yul\":15661:15981   */\n    tag_68:\n        /* \"#utility.yul\":15705:15711   */\n      0x00\n        /* \"#utility.yul\":15742:15743   */\n      0x02\n        /* \"#utility.yul\":15736:15740   */\n      dup3\n        /* \"#utility.yul\":15732:15744   */\n      div\n        /* \"#utility.yul\":15722:15744   */\n      swap1\n      pop\n        /* \"#utility.yul\":15789:15790   */\n      0x01\n        /* \"#utility.yul\":15783:15787   */\n      dup3\n        /* \"#utility.yul\":15779:15791   */\n      and\n        /* \"#utility.yul\":15810:15828   */\n      dup1\n        /* \"#utility.yul\":15800:15881   */\n      tag_395\n      jumpi\n        /* \"#utility.yul\":15866:15870   */\n      0x7f\n        /* \"#utility.yul\":15858:15864   */\n      dup3\n        /* \"#utility.yul\":15854:15871   */\n      and\n        /* \"#utility.yul\":15844:15871   */\n      swap2\n      pop\n        /* \"#utility.yul\":15800:15881   */\n    tag_395:\n        /* \"#utility.yul\":15928:15930   */\n      0x20\n        /* \"#utility.yul\":15920:15926   */\n      dup3\n        /* \"#utility.yul\":15917:15931   */\n      lt\n        /* \"#utility.yul\":15897:15915   */\n      dup2\n        /* \"#utility.yul\":15894:15932   */\n      sub\n        /* \"#utility.yul\":15891:15975   */\n      tag_396\n      jumpi\n        /* \"#utility.yul\":15947:15965   */\n      tag_397\n      tag_214\n      jump\t// in\n    tag_397:\n        /* \"#utility.yul\":15891:15975   */\n    tag_396:\n        /* \"#utility.yul\":15712:15981   */\n      pop\n        /* \"#utility.yul\":15661:15981   */\n      swap2\n      swap1\n      pop\n      jump\t// out\n        /* \"#utility.yul\":15987:16128   */\n    tag_215:\n        /* \"#utility.yul\":16036:16040   */\n      0x00\n        /* \"#utility.yul\":16059:16062   */\n      dup2\n        /* \"#utility.yul\":16051:16062   */\n      swap1\n      pop\n        /* \"#utility.yul\":16082:16085   */\n      dup2\n        /* \"#utility.yul\":16079:16080   */\n      0x00\n        /* \"#utility.yul\":16072:16086   */\n      mstore\n        /* \"#utility.yul\":16116:16120   */\n      0x20\n        /* \"#utility.yul\":16113:16114   */\n      0x00\n        /* \"#utility.yul\":16103:16121   */\n      keccak256\n        /* \"#utility.yul\":16095:16121   */\n      swap1\n      pop\n        /* \"#utility.yul\":15987:16128   */\n      swap2\n      swap1\n      pop\n      jump\t// out\n        /* \"#utility.yul\":16134:16227   */\n    tag_216:\n        /* \"#utility.yul\":16171:16177   */\n      0x00\n        /* \"#utility.yul\":16218:16220   */\n      0x20\n        /* \"#utility.yul\":16213:16215   */\n      0x1f\n        /* \"#utility.yul\":16206:16211   */\n      dup4\n        /* \"#utility.yul\":16202:16216   */\n      add\n        /* \"#utility.yul\":16198:16221   */\n      div\n        /* \"#utility.yul\":16188:16221   */\n      swap1\n      pop\n        /* \"#utility.yul\":16134:16227   */\n      swap2\n      swap1\n      pop\n      jump\t// out\n        /* \"#utility.yul\":16233:16340   */\n    tag_217:\n        /* \"#utility.yul\":16277:16285   */\n      0x00\n        /* \"#utility.yul\":16327:16332   */\n      dup3\n        /* \"#utility.yul\":16321:16325   */\n      dup3\n        /* \"#utility.yul\":16317:16333   */\n      shl\n        /* \"#utility.yul\":16296:16333   */\n      swap1\n      pop\n        /* \"#utility.yul\":16233:16340   */\n      swap3\n      swap2\n      pop\n      pop\n      jump\t// out\n        /* \"#utility.yul\":16346:16739   */\n    tag_218:\n        /* \"#utility.yul\":16415:16421   */\n      0x00\n        /* \"#utility.yul\":16465:16466   */\n      0x08\n        /* \"#utility.yul\":16453:16463   */\n      dup4\n        /* \"#utility.yul\":16449:16467   */\n      mul\n        /* \"#utility.yul\":16488:16585   */\n      tag_402\n        /* \"#utility.yul\":16518:16584   */\n      0xffffffffffffffffffffffffffffffffffffffffffffffffffffffffffffffff\n        /* \"#utility.yul\":16507:16516   */\n      dup3\n        /* \"#utility.yul\":16488:16585   */\n      tag_217\n      jump\t// in\n    tag_402:\n        /* \"#utility.yul\":16606:16645   */\n      tag_403\n        /* \"#utility.yul\":16636:16644   */\n      dup7\n        /* \"#utility.yul\":16625:16634   */\n      dup4\n        /* \"#utility.yul\":16606:16645   */\n      tag_217\n      jump\t// in\n    tag_403:\n        /* \"#utility.yul\":16594:16645   */\n      swap6\n      pop\n        /* \"#utility.yul\":16678:16682   */\n      dup1\n        /* \"#utility.yul\":16674:16683   */\n      not\n        /* \"#utility.yul\":16667:16672   */\n      dup5\n        /* \"#utility.yul\":16663:16684   */\n      and\n        /* \"#utility.yul\":16654:16684   */\n      swap4\n      pop\n        /* \"#utility.yul\":16727:16731   */\n      dup1\n        /* \"#utility.yul\":16717:16725   */\n      dup7\n        /* \"#utility.yul\":16713:16732   */\n      and\n        /* \"#utility.yul\":16706:16711   */\n      dup5\n        /* \"#utility.yul\":16703:16733   */\n      or\n        /* \"#utility.yul\":16693:16733   */\n      swap3\n      pop\n        /* \"#utility.yul\":16422:16739   */\n      pop\n      pop\n        /* \"#utility.yul\":16346:16739   */\n      swap4\n      swap3\n      pop\n      pop\n      pop\n      jump\t// out\n        /* \"#utility.yul\":16745:16805   */\n    tag_219:\n        /* \"#utility.yul\":16773:16776   */\n      0x00\n        /* \"#utility.yul\":16794:16799   */\n      dup2\n        /* \"#utility.yul\":16787:16799   */\n      swap1\n      pop\n        /* \"#utility.yul\":16745:16805   */\n      swap2\n      swap1\n      pop\n      jump\t// out\n        /* \"#utility.yul\":16811:16953   */\n    tag_220:\n        /* \"#utility.yul\":16861:16870   */\n      0x00\n        /* \"#utility.yul\":16894:16947   */\n      tag_406\n        /* \"#utility.yul\":16912:16946   */\n      tag_407\n        /* \"#utility.yul\":16921:16945   */\n      tag_408\n        /* \"#utility.yul\":16939:16944   */\n      dup5\n        /* \"#utility.yul\":16921:16945   */\n      tag_166\n      jump\t// in\n    tag_408:\n        /* \"#utility.yul\":16912:16946   */\n      tag_219\n      jump\t// in\n    tag_407:\n        /* \"#utility.yul\":16894:16947   */\n      tag_166\n      jump\t// in\n    tag_406:\n        /* \"#utility.yul\":16881:16947   */\n      swap1\n      pop\n        /* \"#utility.yul\":16811:16953   */\n      swap2\n      swap1\n      pop\n      jump\t// out\n        /* \"#utility.yul\":16959:17034   */\n    tag_221:\n        /* \"#utility.yul\":17002:17005   */\n      0x00\n        /* \"#utility.yul\":17023:17028   */\n      dup2\n        /* \"#utility.yul\":17016:17028   */\n      swap1\n      pop\n        /* \"#utility.yul\":16959:17034   */\n      swap2\n      swap1\n      pop\n      jump\t// out\n        /* \"#utility.yul\":17040:17309   */\n    tag_222:\n        /* \"#utility.yul\":17150:17189   */\n      tag_411\n        /* \"#utility.yul\":17181:17188   */\n      dup4\n        /* \"#utility.yul\":17150:17189   */\n      tag_220\n      jump\t// in\n    tag_411:\n        /* \"#utility.yul\":17211:17302   */\n      tag_412\n        /* \"#utility.yul\":17260:17301   */\n      tag_413\n        /* \"#utility.yul\":17284:17300   */\n      dup3\n        /* \"#utility.yul\":17260:17301   */\n      tag_221\n      jump\t// in\n    tag_413:\n        /* \"#utility.yul\":17252:17258   */\n      dup5\n        /* \"#utility.yul\":17245:17249   */\n      dup5\n        /* \"#utility.yul\":17239:17250   */\n      sload\n        /* \"#utility.yul\":17211:17302   */\n      tag_218\n      jump\t// in\n    tag_412:\n        /* \"#utility.yul\":17205:17209   */\n      dup3\n        /* \"#utility.yul\":17198:17303   */\n      sstore\n        /* \"#utility.yul\":17116:17309   */\n      pop\n        /* \"#utility.yul\":17040:17309   */\n      pop\n      pop\n      pop\n      jump\t// out\n        /* \"#utility.yul\":17315:17388   */\n    tag_223:\n        /* \"#utility.yul\":17360:17363   */\n      0x00\n        /* \"#utility.yul\":17315:17388   */\n      swap1\n      jump\t// out\n        /* \"#utility.yul\":17394:17583   */\n    tag_224:\n        /* \"#utility.yul\":17471:17503   */\n      tag_416\n      tag_223\n      jump\t// in\n    tag_416:\n        /* \"#utility.yul\":17512:17577   */\n      tag_417\n        /* \"#utility.yul\":17570:17576   */\n      dup2\n        /* \"#utility.yul\":17562:17568   */\n      dup5\n        /* \"#utility.yul\":17556:17560   */\n      dup5\n        /* \"#utility.yul\":17512:17577   */\n      tag_222\n      jump\t// in\n    tag_417:\n        /* \"#utility.yul\":17447:17583   */\n      pop\n        /* \"#utility.yul\":17394:17583   */\n      pop\n      pop\n      jump\t// out\n        /* \"#utility.yul\":17589:17775   */\n    tag_225:\n        /* \"#utility.yul\":17649:17769   */\n    tag_419:\n        /* \"#utility.yul\":17666:17669   */\n      dup2\n        /* \"#utility.yul\":17659:17664   */\n      dup2\n        /* \"#utility.yul\":17656:17670   */\n      lt\n        /* \"#utility.yul\":17649:17769   */\n      iszero\n      tag_421\n      jumpi\n        /* \"#utility.yul\":17720:17759   */\n      tag_422\n        /* \"#utility.yul\":17757:17758   */\n      0x00\n        /* \"#utility.yul\":17750:17755   */\n      dup3\n        /* \"#utility.yul\":17720:17759   */\n      tag_224\n      jump\t// in\n    tag_422:\n        /* \"#utility.yul\":17693:17694   */\n      0x01\n        /* \"#utility.yul\":17686:17691   */\n      dup2\n        /* \"#utility.yul\":17682:17695   */\n      add\n        /* \"#utility.yul\":17673:17695   */\n      swap1\n      pop\n        /* \"#utility.yul\":17649:17769   */\n      jump(tag_419)\n    tag_421:\n        /* \"#utility.yul\":17589:17775   */\n      pop\n      pop\n      jump\t// out\n        /* \"#utility.yul\":17781:18324   */\n    tag_226:\n        /* \"#utility.yul\":17882:17884   */\n      0x1f\n        /* \"#utility.yul\":17877:17880   */\n      dup3\n        /* \"#utility.yul\":17874:17885   */\n      gt\n        /* \"#utility.yul\":17871:18317   */\n      iszero\n      tag_424\n      jumpi\n        /* \"#utility.yul\":17916:17954   */\n      tag_425\n        /* \"#utility.yul\":17948:17953   */\n      dup2\n        /* \"#utility.yul\":17916:17954   */\n      tag_215\n      jump\t// in\n    tag_425:\n        /* \"#utility.yul\":18000:18029   */\n      tag_426\n        /* \"#utility.yul\":18018:18028   */\n      dup5\n        /* \"#utility.yul\":18000:18029   */\n      tag_216\n      jump\t// in\n    tag_426:\n        /* \"#utility.yul\":17990:17998   */\n      dup2\n        /* \"#utility.yul\":17986:18030   */\n      add\n        /* \"#utility.yul\":18183:18185   */\n      0x20\n        /* \"#utility.yul\":18171:18181   */\n      dup6\n        /* \"#utility.yul\":18168:18186   */\n      lt\n        /* \"#utility.yul\":18165:18214   */\n      iszero\n      tag_427\n      jumpi\n        /* \"#utility.yul\":18204:18212   */\n      dup2\n        /* \"#utility.yul\":18189:18212   */\n      swap1\n      pop\n        /* \"#utility.yul\":18165:18214   */\n    tag_427:\n        /* \"#utility.yul\":18227:18307   */\n      tag_428\n        /* \"#utility.yul\":18283:18305   */\n      tag_429\n        /* \"#utility.yul\":18301:18304   */\n      dup6\n        /* \"#utility.yul\":18283:18305   */\n      tag_216\n      jump\t// in\n    tag_429:\n        /* \"#utility.yul\":18273:18281   */\n      dup4\n        /* \"#utility.yul\":18269:18306   */\n      add\n        /* \"#utility.yul\":18256:18267   */\n      dup3\n        /* \"#utility.yul\":18227:18307   */\n      tag_225\n      jump\t// in\n    tag_428:\n        /* \"#utility.yul\":17886:18317   */\n      pop\n      pop\n        /* \"#utility.yul\":17871:18317   */\n    tag_424:\n        /* \"#utility.yul\":17781:18324   */\n      pop\n      pop\n      pop\n      jump\t// out\n        /* \"#utility.yul\":18330:18447   */\n    tag_227:\n        /* \"#utility.yul\":18384:18392   */\n      0x00\n        /* \"#utility.yul\":18434:18439   */\n      dup3\n        /* \"#utility.yul\":18428:18432   */\n      dup3\n        /* \"#utility.yul\":18424:18440   */\n      shr\n        /* \"#utility.yul\":18403:18440   */\n      swap1\n      pop\n        /* \"#utility.yul\":18330:18447   */\n      swap3\n      swap2\n      pop\n      pop\n      jump\t// out\n        /* \"#utility.yul\":18453:18622   */\n    tag_228:\n        /* \"#utility.yul\":18497:18503   */\n      0x00\n        /* \"#utility.yul\":18530:18581   */\n      tag_432\n        /* \"#utility.yul\":18578:18579   */\n      0x00\n        /* \"#utility.yul\":18574:18580   */\n      not\n        /* \"#utility.yul\":18566:18571   */\n      dup5\n        /* \"#utility.yul\":18563:18564   */\n      0x08\n        /* \"#utility.yul\":18559:18572   */\n      mul\n        /* \"#utility.yul\":18530:18581   */\n      tag_227\n      jump\t// in\n    tag_432:\n        /* \"#utility.yul\":18526:18582   */\n      not\n        /* \"#utility.yul\":18611:18615   */\n      dup1\n        /* \"#utility.yul\":18605:18609   */\n      dup4\n        /* \"#utility.yul\":18601:18616   */\n      and\n        /* \"#utility.yul\":18591:18616   */\n      swap2\n      pop\n        /* \"#utility.yul\":18504:18622   */\n      pop\n        /* \"#utility.yul\":18453:18622   */\n      swap3\n      swap2\n      pop\n      pop\n      jump\t// out\n        /* \"#utility.yul\":18627:18922   */\n    tag_229:\n        /* \"#utility.yul\":18703:18707   */\n      0x00\n        /* \"#utility.yul\":18849:18878   */\n      tag_434\n        /* \"#utility.yul\":18874:18877   */\n      dup4\n        /* \"#utility.yul\":18868:18872   */\n      dup4\n        /* \"#utility.yul\":18849:18878   */\n      tag_228\n      jump\t// in\n    tag_434:\n        /* \"#utility.yul\":18841:18878   */\n      swap2\n      pop\n        /* \"#utility.yul\":18911:18914   */\n      dup3\n        /* \"#utility.yul\":18908:18909   */\n      0x02\n        /* \"#utility.yul\":18904:18915   */\n      mul\n        /* \"#utility.yul\":18898:18902   */\n      dup3\n        /* \"#utility.yul\":18895:18916   */\n      or\n        /* \"#utility.yul\":18887:18916   */\n      swap1\n      pop\n        /* \"#utility.yul\":18627:18922   */\n      swap3\n      swap2\n      pop\n      pop\n      jump\t// out\n        /* \"#utility.yul\":18927:20322   */\n    tag_60:\n        /* \"#utility.yul\":19044:19081   */\n      tag_436\n        /* \"#utility.yul\":19077:19080   */\n      dup3\n        /* \"#utility.yul\":19044:19081   */\n      tag_186\n      jump\t// in\n    tag_436:\n        /* \"#utility.yul\":19146:19164   */\n      0xffffffffffffffff\n        /* \"#utility.yul\":19138:19144   */\n      dup2\n        /* \"#utility.yul\":19135:19165   */\n      gt\n        /* \"#utility.yul\":19132:19188   */\n      iszero\n      tag_437\n      jumpi\n        /* \"#utility.yul\":19168:19186   */\n      tag_438\n      tag_176\n      jump\t// in\n    tag_438:\n        /* \"#utility.yul\":19132:19188   */\n    tag_437:\n        /* \"#utility.yul\":19212:19250   */\n      tag_439\n        /* \"#utility.yul\":19244:19248   */\n      dup3\n        /* \"#utility.yul\":19238:19249   */\n      sload\n        /* \"#utility.yul\":19212:19250   */\n      tag_68\n      jump\t// in\n    tag_439:\n        /* \"#utility.yul\":19297:19364   */\n      tag_440\n        /* \"#utility.yul\":19357:19363   */\n      dup3\n        /* \"#utility.yul\":19349:19355   */\n      dup3\n        /* \"#utility.yul\":19343:19347   */\n      dup6\n        /* \"#utility.yul\":19297:19364   */\n      tag_226\n      jump\t// in\n    tag_440:\n        /* \"#utility.yul\":19391:19392   */\n      0x00\n        /* \"#utility.yul\":19415:19419   */\n      0x20\n        /* \"#utility.yul\":19402:19419   */\n      swap1\n      pop\n        /* \"#utility.yul\":19447:19449   */\n      0x1f\n        /* \"#utility.yul\":19439:19445   */\n      dup4\n        /* \"#utility.yul\":19436:19450   */\n      gt\n        /* \"#utility.yul\":19464:19465   */\n      0x01\n        /* \"#utility.yul\":19459:20077   */\n      dup2\n      eq\n      tag_442\n      jumpi\n        /* \"#utility.yul\":20121:20122   */\n      0x00\n        /* \"#utility.yul\":20138:20144   */\n      dup5\n        /* \"#utility.yul\":20135:20212   */\n      iszero\n      tag_443\n      jumpi\n        /* \"#utility.yul\":20187:20196   */\n      dup3\n        /* \"#utility.yul\":20182:20185   */\n      dup8\n        /* \"#utility.yul\":20178:20197   */\n      add\n        /* \"#utility.yul\":20172:20198   */\n      mload\n        /* \"#utility.yul\":20163:20198   */\n      swap1\n      pop\n        /* \"#utility.yul\":20135:20212   */\n    tag_443:\n        /* \"#utility.yul\":20238:20305   */\n      tag_444\n        /* \"#utility.yul\":20298:20304   */\n      dup6\n        /* \"#utility.yul\":20291:20296   */\n      dup3\n        /* \"#utility.yul\":20238:20305   */\n      tag_229\n      jump\t// in\n    tag_444:\n        /* \"#utility.yul\":20232:20236   */\n      dup7\n        /* \"#utility.yul\":20225:20306   */\n      sstore\n        /* \"#utility.yul\":20094:20316   */\n      pop\n        /* \"#utility.yul\":19429:20316   */\n      jump(tag_441)\n        /* \"#utility.yul\":19459:20077   */\n    tag_442:\n        /* \"#utility.yul\":19511:19515   */\n      0x1f\n        /* \"#utility.yul\":19507:19516   */\n      not\n        /* \"#utility.yul\":19499:19505   */\n      dup5\n        /* \"#utility.yul\":19495:19517   */\n      and\n        /* \"#utility.yul\":19545:19582   */\n      tag_445\n        /* \"#utility.yul\":19577:19581   */\n      dup7\n        /* \"#utility.yul\":19545:19582   */\n      tag_215\n      jump\t// in\n    tag_445:\n        /* \"#utility.yul\":19604:19605   */\n      0x00\n        /* \"#utility.yul\":19618:19826   */\n    tag_446:\n        /* \"#utility.yul\":19632:19639   */\n      dup3\n        /* \"#utility.yul\":19629:19630   */\n      dup2\n        /* \"#utility.yul\":19626:19640   */\n      lt\n        /* \"#utility.yul\":19618:19826   */\n      iszero\n      tag_448\n      jumpi\n        /* \"#utility.yul\":19711:19720   */\n      dup5\n        /* \"#utility.yul\":19706:19709   */\n      dup10\n        /* \"#utility.yul\":19702:19721   */\n      add\n        /* \"#utility.yul\":19696:19722   */\n      mload\n        /* \"#utility.yul\":19688:19694   */\n      dup3\n        /* \"#utility.yul\":19681:19723   */\n      sstore\n        /* \"#utility.yul\":19762:19763   */\n      0x01\n        /* \"#utility.yul\":19754:19760   */\n      dup3\n        /* \"#utility.yul\":19750:19764   */\n      add\n        /* \"#utility.yul\":19740:19764   */\n      swap2\n      pop\n        /* \"#utility.yul\":19809:19811   */\n      0x20\n        /* \"#utility.yul\":19798:19807   */\n      dup6\n        /* \"#utility.yul\":19794:19812   */\n      add\n        /* \"#utility.yul\":19781:19812   */\n      swap5\n      pop\n        /* \"#utility.yul\":19655:19659   */\n      0x20\n        /* \"#utility.yul\":19652:19653   */\n      dup2\n        /* \"#utility.yul\":19648:19660   */\n      add\n        /* \"#utility.yul\":19643:19660   */\n      swap1\n      pop\n        /* \"#utility.yul\":19618:19826   */\n      jump(tag_446)\n    tag_448:\n        /* \"#utility.yul\":19854:19860   */\n      dup7\n        /* \"#utility.yul\":19845:19852   */\n      dup4\n        /* \"#utility.yul\":19842:19861   */\n      lt\n        /* \"#utility.yul\":19839:20018   */\n      iszero\n      tag_449\n      jumpi\n        /* \"#utility.yul\":19912:19921   */\n      dup5\n        /* \"#utility.yul\":19907:19910   */\n      dup10\n        /* \"#utility.yul\":19903:19922   */\n      add\n        /* \"#utility.yul\":19897:19923   */\n      mload\n        /* \"#utility.yul\":19955:20003   */\n      tag_450\n        /* \"#utility.yul\":19997:20001   */\n      0x1f\n        /* \"#utility.yul\":19989:19995   */\n      dup10\n        /* \"#utility.yul\":19985:20002   */\n      and\n        /* \"#utility.yul\":19974:19983   */\n      dup3\n        /* \"#utility.yul\":19955:20003   */\n      tag_228\n      jump\t// in\n    tag_450:\n        /* \"#utility.yul\":19947:19953   */\n      dup4\n        /* \"#utility.yul\":19940:20004   */\n      sstore\n        /* \"#utility.yul\":19862:20018   */\n      pop\n        /* \"#utility.yul\":19839:20018   */\n    tag_449:\n        /* \"#utility.yul\":20064:20065   */\n      0x01\n        /* \"#utility.yul\":20060:20061   */\n      0x02\n        /* \"#utility.yul\":20052:20058   */\n      dup9\n        /* \"#utility.yul\":20048:20062   */\n      mul\n        /* \"#utility.yul\":20044:20066   */\n      add\n        /* \"#utility.yul\":20038:20042   */\n      dup9\n        /* \"#utility.yul\":20031:20067   */\n      sstore\n        /* \"#utility.yul\":19466:20077   */\n      pop\n      pop\n      pop\n        /* \"#utility.yul\":19429:20316   */\n    tag_441:\n      pop\n        /* \"#utility.yul\":19019:20322   */\n      pop\n      pop\n      pop\n        /* \"#utility.yul\":18927:20322   */\n      pop\n      pop\n      jump\t// out\n        /* \"#utility.yul\":20328:20751   */\n    tag_62:\n        /* \"#utility.yul\":20469:20473   */\n      0x00\n        /* \"#utility.yul\":20507:20509   */\n      0x40\n        /* \"#utility.yul\":20496:20505   */\n      dup3\n        /* \"#utility.yul\":20492:20510   */\n      add\n        /* \"#utility.yul\":20484:20510   */\n      swap1\n      pop\n        /* \"#utility.yul\":20520:20591   */\n      tag_452\n        /* \"#utility.yul\":20588:20589   */\n      0x00\n        /* \"#utility.yul\":20577:20586   */\n      dup4\n        /* \"#utility.yul\":20573:20590   */\n      add\n        /* \"#utility.yul\":20564:20570   */\n      dup6\n        /* \"#utility.yul\":20520:20591   */\n      tag_167\n      jump\t// in\n    tag_452:\n        /* \"#utility.yul\":20638:20647   */\n      dup2\n        /* \"#utility.yul\":20632:20636   */\n      dup2\n        /* \"#utility.yul\":20628:20648   */\n      sub\n        /* \"#utility.yul\":20623:20625   */\n      0x20\n        /* \"#utility.yul\":20612:20621   */\n      dup4\n        /* \"#utility.yul\":20608:20626   */\n      add\n        /* \"#utility.yul\":20601:20649   */\n      mstore\n        /* \"#utility.yul\":20666:20744   */\n      tag_453\n        /* \"#utility.yul\":20739:20743   */\n      dup2\n        /* \"#utility.yul\":20730:20736   */\n      dup5\n        /* \"#utility.yul\":20666:20744   */\n      tag_189\n      jump\t// in\n    tag_453:\n        /* \"#utility.yul\":20658:20744   */\n      swap1\n      pop\n        /* \"#utility.yul\":20328:20751   */\n      swap4\n      swap3\n      pop\n      pop\n      pop\n      jump\t// out\n        /* \"#utility.yul\":20757:20937   */\n    tag_230:\n        /* \"#utility.yul\":20805:20882   */\n      0x4e487b7100000000000000000000000000000000000000000000000000000000\n        /* \"#utility.yul\":20802:20803   */\n      0x00\n        /* \"#utility.yul\":20795:20883   */\n      mstore\n        /* \"#utility.yul\":20902:20906   */\n      0x11\n        /* \"#utility.yul\":20899:20900   */\n      0x04\n        /* \"#utility.yul\":20892:20907   */\n      mstore\n        /* \"#utility.yul\":20926:20930   */\n      0x24\n        /* \"#utility.yul\":20923:20924   */\n      0x00\n        /* \"#utility.yul\":20916:20931   */\n      revert\n        /* \"#utility.yul\":20943:21176   */\n    tag_64:\n        /* \"#utility.yul\":20982:20985   */\n      0x00\n        /* \"#utility.yul\":21005:21029   */\n      tag_456\n        /* \"#utility.yul\":21023:21028   */\n      dup3\n        /* \"#utility.yul\":21005:21029   */\n      tag_166\n      jump\t// in\n    tag_456:\n        /* \"#utility.yul\":20996:21029   */\n      swap2\n      pop\n        /* \"#utility.yul\":21051:21117   */\n      0xffffffffffffffffffffffffffffffffffffffffffffffffffffffffffffffff\n        /* \"#utility.yul\":21044:21049   */\n      dup3\n        /* \"#utility.yul\":21041:21118   */\n      sub\n        /* \"#utility.yul\":21038:21141   */\n      tag_457\n      jumpi\n        /* \"#utility.yul\":21121:21139   */\n      tag_458\n      tag_230\n      jump\t// in\n    tag_458:\n        /* \"#utility.yul\":21038:21141   */\n    tag_457:\n        /* \"#utility.yul\":21168:21169   */\n      0x01\n        /* \"#utility.yul\":21161:21166   */\n      dup3\n        /* \"#utility.yul\":21157:21170   */\n      add\n        /* \"#utility.yul\":21150:21170   */\n      swap1\n      pop\n        /* \"#utility.yul\":20943:21176   */\n      swap2\n      swap1\n      pop\n      jump\t// out\n        /* \"#utility.yul\":21182:21343   */\n    tag_231:\n        /* \"#utility.yul\":21322:21335   */\n      0x4e6f2070726f6475637473000000000000000000000000000000000000000000\n        /* \"#utility.yul\":21318:21319   */\n      0x00\n        /* \"#utility.yul\":21310:21316   */\n      dup3\n        /* \"#utility.yul\":21306:21320   */\n      add\n        /* \"#utility.yul\":21299:21336   */\n      mstore\n        /* \"#utility.yul\":21182:21343   */\n      pop\n      jump\t// out\n        /* \"#utility.yul\":21349:21715   */\n    tag_232:\n        /* \"#utility.yul\":21491:21494   */\n      0x00\n        /* \"#utility.yul\":21512:21579   */\n      tag_461\n        /* \"#utility.yul\":21576:21578   */\n      0x0b\n        /* \"#utility.yul\":21571:21574   */\n      dup4\n        /* \"#utility.yul\":21512:21579   */\n      tag_187\n      jump\t// in\n    tag_461:\n        /* \"#utility.yul\":21505:21579   */\n      swap2\n      pop\n        /* \"#utility.yul\":21588:21681   */\n      tag_462\n        /* \"#utility.yul\":21677:21680   */\n      dup3\n        /* \"#utility.yul\":21588:21681   */\n      tag_231\n      jump\t// in\n    tag_462:\n        /* \"#utility.yul\":21706:21708   */\n      0x20\n        /* \"#utility.yul\":21701:21704   */\n      dup3\n        /* \"#utility.yul\":21697:21709   */\n      add\n        /* \"#utility.yul\":21690:21709   */\n      swap1\n      pop\n        /* \"#utility.yul\":21349:21715   */\n      swap2\n      swap1\n      pop\n      jump\t// out\n        /* \"#utility.yul\":21721:22140   */\n    tag_76:\n        /* \"#utility.yul\":21887:21891   */\n      0x00\n        /* \"#utility.yul\":21925:21927   */\n      0x20\n        /* \"#utility.yul\":21914:21923   */\n      dup3\n        /* \"#utility.yul\":21910:21928   */\n      add\n        /* \"#utility.yul\":21902:21928   */\n      swap1\n      pop\n        /* \"#utility.yul\":21974:21983   */\n      dup2\n        /* \"#utility.yul\":21968:21972   */\n      dup2\n        /* \"#utility.yul\":21964:21984   */\n      sub\n        /* \"#utility.yul\":21960:21961   */\n      0x00\n        /* \"#utility.yul\":21949:21958   */\n      dup4\n        /* \"#utility.yul\":21945:21962   */\n      add\n        /* \"#utility.yul\":21938:21985   */\n      mstore\n        /* \"#utility.yul\":22002:22133   */\n      tag_464\n        /* \"#utility.yul\":22128:22132   */\n      dup2\n        /* \"#utility.yul\":22002:22133   */\n      tag_232\n      jump\t// in\n    tag_464:\n        /* \"#utility.yul\":21994:22133   */\n      swap1\n      pop\n        /* \"#utility.yul\":21721:22140   */\n      swap2\n      swap1\n      pop\n      jump\t// out\n        /* \"#utility.yul\":22146:22340   */\n    tag_93:\n        /* \"#utility.yul\":22186:22190   */\n      0x00\n        /* \"#utility.yul\":22206:22226   */\n      tag_466\n        /* \"#utility.yul\":22224:22225   */\n      dup3\n        /* \"#utility.yul\":22206:22226   */\n      tag_166\n      jump\t// in\n    tag_466:\n        /* \"#utility.yul\":22201:22226   */\n      swap2\n      pop\n        /* \"#utility.yul\":22240:22260   */\n      tag_467\n        /* \"#utility.yul\":22258:22259   */\n      dup4\n        /* \"#utility.yul\":22240:22260   */\n      tag_166\n      jump\t// in\n    tag_467:\n        /* \"#utility.yul\":22235:22260   */\n      swap3\n      pop\n        /* \"#utility.yul\":22284:22285   */\n      dup3\n        /* \"#utility.yul\":22281:22282   */\n      dup3\n        /* \"#utility.yul\":22277:22286   */\n      sub\n        /* \"#utility.yul\":22269:22286   */\n      swap1\n      pop\n        /* \"#utility.yul\":22308:22309   */\n      dup2\n        /* \"#utility.yul\":22302:22306   */\n      dup2\n        /* \"#utility.yul\":22299:22310   */\n      gt\n        /* \"#utility.yul\":22296:22333   */\n      iszero\n      tag_468\n      jumpi\n        /* \"#utility.yul\":22313:22331   */\n      tag_469\n      tag_230\n      jump\t// in\n    tag_469:\n        /* \"#utility.yul\":22296:22333   */\n    tag_468:\n        /* \"#utility.yul\":22146:22340   */\n      swap3\n      swap2\n      pop\n      pop\n      jump\t// out\n        /* \"#utility.yul\":22346:22519   */\n    tag_233:\n        /* \"#utility.yul\":22486:22511   */\n      0x20796f7520617265206e6f7420617574686f72697a6564000000000000000000\n        /* \"#utility.yul\":22482:22483   */\n      0x00\n        /* \"#utility.yul\":22474:22480   */\n      dup3\n        /* \"#utility.yul\":22470:22484   */\n      add\n        /* \"#utility.yul\":22463:22512   */\n      mstore\n        /* \"#utility.yul\":22346:22519   */\n      pop\n      jump\t// out\n        /* \"#utility.yul\":22525:22891   */\n    tag_234:\n        /* \"#utility.yul\":22667:22670   */\n      0x00\n        /* \"#utility.yul\":22688:22755   */\n      tag_472\n        /* \"#utility.yul\":22752:22754   */\n      0x17\n        /* \"#utility.yul\":22747:22750   */\n      dup4\n        /* \"#utility.yul\":22688:22755   */\n      tag_187\n      jump\t// in\n    tag_472:\n        /* \"#utility.yul\":22681:22755   */\n      swap2\n      pop\n        /* \"#utility.yul\":22764:22857   */\n      tag_473\n        /* \"#utility.yul\":22853:22856   */\n      dup3\n        /* \"#utility.yul\":22764:22857   */\n      tag_233\n      jump\t// in\n    tag_473:\n        /* \"#utility.yul\":22882:22884   */\n      0x20\n        /* \"#utility.yul\":22877:22880   */\n      dup3\n        /* \"#utility.yul\":22873:22885   */\n      add\n        /* \"#utility.yul\":22866:22885   */\n      swap1\n      pop\n        /* \"#utility.yul\":22525:22891   */\n      swap2\n      swap1\n      pop\n      jump\t// out\n        /* \"#utility.yul\":22897:23316   */\n    tag_122:\n        /* \"#utility.yul\":23063:23067   */\n      0x00\n        /* \"#utility.yul\":23101:23103   */\n      0x20\n        /* \"#utility.yul\":23090:23099   */\n      dup3\n        /* \"#utility.yul\":23086:23104   */\n      add\n        /* \"#utility.yul\":23078:23104   */\n      swap1\n      pop\n        /* \"#utility.yul\":23150:23159   */\n      dup2\n        /* \"#utility.yul\":23144:23148   */\n      dup2\n        /* \"#utility.yul\":23140:23160   */\n      sub\n        /* \"#utility.yul\":23136:23137   */\n      0x00\n        /* \"#utility.yul\":23125:23134   */\n      dup4\n        /* \"#utility.yul\":23121:23138   */\n      add\n        /* \"#utility.yul\":23114:23161   */\n      mstore\n        /* \"#utility.yul\":23178:23309   */\n      tag_475\n        /* \"#utility.yul\":23304:23308   */\n      dup2\n        /* \"#utility.yul\":23178:23309   */\n      tag_234\n      jump\t// in\n    tag_475:\n        /* \"#utility.yul\":23170:23309   */\n      swap1\n      pop\n        /* \"#utility.yul\":22897:23316   */\n      swap2\n      swap1\n      pop\n      jump\t// out\n        /* \"#utility.yul\":23322:23496   */\n    tag_235:\n        /* \"#utility.yul\":23462:23488   */\n      0x4f7264657220697320616c726561647920736869707065640000000000000000\n        /* \"#utility.yul\":23458:23459   */\n      0x00\n        /* \"#utility.yul\":23450:23456   */\n      dup3\n        /* \"#utility.yul\":23446:23460   */\n      add\n        /* \"#utility.yul\":23439:23489   */\n      mstore\n        /* \"#utility.yul\":23322:23496   */\n      pop\n      jump\t// out\n        /* \"#utility.yul\":23502:23868   */\n    tag_236:\n        /* \"#utility.yul\":23644:23647   */\n      0x00\n        /* \"#utility.yul\":23665:23732   */\n      tag_478\n        /* \"#utility.yul\":23729:23731   */\n      0x18\n        /* \"#utility.yul\":23724:23727   */\n      dup4\n        /* \"#utility.yul\":23665:23732   */\n      tag_187\n      jump\t// in\n    tag_478:\n        /* \"#utility.yul\":23658:23732   */\n      swap2\n      pop\n        /* \"#utility.yul\":23741:23834   */\n      tag_479\n        /* \"#utility.yul\":23830:23833   */\n      dup3\n        /* \"#utility.yul\":23741:23834   */\n      tag_235\n      jump\t// in\n    tag_479:\n        /* \"#utility.yul\":23859:23861   */\n      0x20\n        /* \"#utility.yul\":23854:23857   */\n      dup3\n        /* \"#utility.yul\":23850:23862   */\n      add\n        /* \"#utility.yul\":23843:23862   */\n      swap1\n      pop\n        /* \"#utility.yul\":23502:23868   */\n      swap2\n      swap1\n      pop\n      jump\t// out\n        /* \"#utility.yul\":23874:24293   */\n    tag_133:\n        /* \"#utility.yul\":24040:24044   */\n      0x00\n        /* \"#utility.yul\":24078:24080   */\n      0x20\n        /* \"#utility.yul\":24067:24076   */\n      dup3\n        /* \"#utility.yul\":24063:24081   */\n      add\n        /* \"#utility.yul\":24055:24081   */\n      swap1\n      pop\n        /* \"#utility.yul\":24127:24136   */\n      dup2\n        /* \"#utility.yul\":24121:24125   */\n      dup2\n        /* \"#utility.yul\":24117:24137   */\n      sub\n        /* \"#utility.yul\":24113:24114   */\n      0x00\n        /* \"#utility.yul\":24102:24111   */\n      dup4\n        /* \"#utility.yul\":24098:24115   */\n      add\n        /* \"#utility.yul\":24091:24138   */\n      mstore\n        /* \"#utility.yul\":24155:24286   */\n      tag_481\n        /* \"#utility.yul\":24281:24285   */\n      dup2\n        /* \"#utility.yul\":24155:24286   */\n      tag_236\n      jump\t// in\n    tag_481:\n        /* \"#utility.yul\":24147:24286   */\n      swap1\n      pop\n        /* \"#utility.yul\":23874:24293   */\n      swap2\n      swap1\n      pop\n      jump\t// out\n\n    auxdata: 0xa2646970667358221220519ccccc62402ba0bfac85f8c53e630f46b85d3f346b407b7b7ecbfe0a222ef264736f6c63430008160033\n}\n",
				"bytecode": {
					"linkReferences": {},
					"object": "608060405234801561000f575f80fd5b503360015f6101000a81548173ffffffffffffffffffffffffffffffffffffffff021916908373ffffffffffffffffffffffffffffffffffffffff1602179055506118318061005d5f395ff3fe608060405234801561000f575f80fd5b506004361061007b575f3560e01c8063a85c38ef11610059578063a85c38ef146100d7578063b147135d14610109578063d09ef24114610139578063f68d22d6146101695761007b565b80633c5406871461007f578063577dc0a01461009d5780638da5cb5b146100b9575b5f80fd5b610087610185565b6040516100949190610bb4565b60405180910390f35b6100b760048036038101906100b29190610d44565b61018b565b005b6100c161030c565b6040516100ce9190610ddd565b60405180910390f35b6100f160048036038101906100ec9190610df6565b610331565b60405161010093929190610f0e565b60405180910390f35b610123600480360381019061011e919061100e565b610416565b6040516101309190610bb4565b60405180910390f35b610153600480360381019061014e9190610df6565b61063c565b6040516101609190611208565b60405180910390f35b610183600480360381019061017e9190610df6565b610831565b005b60025481565b815f8054905081106101d2576040517f08c379a00000000000000000000000000000000000000000000000000000000081526004016101c990611272565b60405180910390fd5b823373ffffffffffffffffffffffffffffffffffffffff165f82815481106101fd576101fc611290565b5b905f5260205f2090600402015f015f9054906101000a900473ffffffffffffffffffffffffffffffffffffffff1673ffffffffffffffffffffffffffffffffffffffff1614610281576040517f08c379a000000000000000000000000000000000000000000000000000000000815260040161027890611307565b60405180910390fd5b5f80858154811061029557610294611290565b5b905f5260205f2090600402019050838160010190816102b4919061151f565b507f8accfb13b7655f15dcb12b10c6eff1c1c229b5c36925b2905ede696863e43b4c85856040516102e69291906115ee565b60405180910390a15060025f81548092919061030190611649565b919050555050505050565b60015f9054906101000a900473ffffffffffffffffffffffffffffffffffffffff1681565b5f818154811061033f575f80fd5b905f5260205f2090600402015f91509050805f015f9054906101000a900473ffffffffffffffffffffffffffffffffffffffff169080600101805461038390611352565b80601f01602080910402602001604051908101604052809291908181526020018280546103af90611352565b80156103fa5780601f106103d1576101008083540402835291602001916103fa565b820191905f5260205f20905b8154815290600101906020018083116103dd57829003601f168201915b505050505090806003015f9054906101000a900460ff16905083565b5f815f81511161045b576040517f08c379a0000000000000000000000000000000000000000000000000000000008152600401610452906116da565b60405180910390fd5b610463610ae8565b33815f019073ffffffffffffffffffffffffffffffffffffffff16908173ffffffffffffffffffffffffffffffffffffffff16815250508481602001819052508381604001819052505f816060019060038111156104c4576104c3610e9b565b5b908160038111156104d8576104d7610e9b565b5b815250505f81908060018154018082558091505060019003905f5260205f2090600402015f909190919091505f820151815f015f6101000a81548173ffffffffffffffffffffffffffffffffffffffff021916908373ffffffffffffffffffffffffffffffffffffffff160217905550602082015181600101908161055d919061151f565b50604082015181600201908051906020019061057a929190610b36565b506060820151816003015f6101000a81548160ff021916908360038111156105a5576105a4610e9b565b5b021790555050503373ffffffffffffffffffffffffffffffffffffffff167f4ceaea0569072c9203c8c195ffccdbca9851b9d0410f577878a6792f12ec9b5260015f805490506105f591906116f8565b6040516106029190610bb4565b60405180910390a260015f8054905061061b91906116f8565b92505060025f81548092919061063090611649565b91905055505092915050565b610644610ae8565b815f80549050811061068b576040517f08c379a000000000000000000000000000000000000000000000000000000000815260040161068290611272565b60405180910390fd5b5f838154811061069e5761069d611290565b5b905f5260205f2090600402016040518060800160405290815f82015f9054906101000a900473ffffffffffffffffffffffffffffffffffffffff1673ffffffffffffffffffffffffffffffffffffffff1673ffffffffffffffffffffffffffffffffffffffff16815260200160018201805461071990611352565b80601f016020809104026020016040519081016040528092919081815260200182805461074590611352565b80156107905780601f1061076757610100808354040283529160200191610790565b820191905f5260205f20905b81548152906001019060200180831161077357829003601f168201915b50505050508152602001600282018054806020026020016040519081016040528092919081815260200182805480156107e657602002820191905f5260205f20905b8154815260200190600101908083116107d2575b50505050508152602001600382015f9054906101000a900460ff16600381111561081357610812610e9b565b5b600381111561082557610824610e9b565b5b81525050915050919050565b805f805490508110610878576040517f08c379a000000000000000000000000000000000000000000000000000000000815260040161086f90611272565b60405180910390fd5b3373ffffffffffffffffffffffffffffffffffffffff1660015f9054906101000a900473ffffffffffffffffffffffffffffffffffffffff1673ffffffffffffffffffffffffffffffffffffffff1614610907576040517f08c379a00000000000000000000000000000000000000000000000000000000081526004016108fe90611775565b60405180910390fd5b5f80838154811061091b5761091a611290565b5b905f5260205f209060040201905060038081111561093c5761093b610e9b565b5b816003015f9054906101000a900460ff16600381111561095f5761095e610e9b565b5b0361099f576040517f08c379a0000000000000000000000000000000000000000000000000000000008152600401610996906117dd565b60405180910390fd5b5f60038111156109b2576109b1610e9b565b5b816003015f9054906101000a900460ff1660038111156109d5576109d4610e9b565b5b03610a0b576001816003015f6101000a81548160ff02191690836003811115610a0157610a00610e9b565b5b0217905550610ae3565b60016003811115610a1f57610a1e610e9b565b5b816003015f9054906101000a900460ff166003811115610a4257610a41610e9b565b5b03610a78576002816003015f6101000a81548160ff02191690836003811115610a6e57610a6d610e9b565b5b0217905550610ae2565b60026003811115610a8c57610a8b610e9b565b5b816003015f9054906101000a900460ff166003811115610aaf57610aae610e9b565b5b03610ae1576003816003015f6101000a81548160ff02191690836003811115610adb57610ada610e9b565b5b02179055505b5b5b505050565b60405180608001604052805f73ffffffffffffffffffffffffffffffffffffffff16815260200160608152602001606081526020015f6003811115610b3057610b2f610e9b565b5b81525090565b828054828255905f5260205f20908101928215610b70579160200282015b82811115610b6f578251825591602001919060010190610b54565b5b509050610b7d9190610b81565b5090565b5b80821115610b98575f815f905550600101610b82565b5090565b5f819050919050565b610bae81610b9c565b82525050565b5f602082019050610bc75f830184610ba5565b92915050565b5f604051905090565b5f80fd5b5f80fd5b610be781610b9c565b8114610bf1575f80fd5b50565b5f81359050610c0281610bde565b92915050565b5f80fd5b5f80fd5b5f601f19601f8301169050919050565b7f4e487b71000000000000000000000000000000000000000000000000000000005f52604160045260245ffd5b610c5682610c10565b810181811067ffffffffffffffff82111715610c7557610c74610c20565b5b80604052505050565b5f610c87610bcd565b9050610c938282610c4d565b919050565b5f67ffffffffffffffff821115610cb257610cb1610c20565b5b610cbb82610c10565b9050602081019050919050565b828183375f83830152505050565b5f610ce8610ce384610c98565b610c7e565b905082815260208101848484011115610d0457610d03610c0c565b5b610d0f848285610cc8565b509392505050565b5f82601f830112610d2b57610d2a610c08565b5b8135610d3b848260208601610cd6565b91505092915050565b5f8060408385031215610d5a57610d59610bd6565b5b5f610d6785828601610bf4565b925050602083013567ffffffffffffffff811115610d8857610d87610bda565b5b610d9485828601610d17565b9150509250929050565b5f73ffffffffffffffffffffffffffffffffffffffff82169050919050565b5f610dc782610d9e565b9050919050565b610dd781610dbd565b82525050565b5f602082019050610df05f830184610dce565b92915050565b5f60208284031215610e0b57610e0a610bd6565b5b5f610e1884828501610bf4565b91505092915050565b5f81519050919050565b5f82825260208201905092915050565b5f5b83811015610e58578082015181840152602081019050610e3d565b5f8484015250505050565b5f610e6d82610e21565b610e778185610e2b565b9350610e87818560208601610e3b565b610e9081610c10565b840191505092915050565b7f4e487b71000000000000000000000000000000000000000000000000000000005f52602160045260245ffd5b60048110610ed957610ed8610e9b565b5b50565b5f819050610ee982610ec8565b919050565b5f610ef882610edc565b9050919050565b610f0881610eee565b82525050565b5f606082019050610f215f830186610dce565b8181036020830152610f338185610e63565b9050610f426040830184610eff565b949350505050565b5f67ffffffffffffffff821115610f6457610f63610c20565b5b602082029050602081019050919050565b5f80fd5b5f610f8b610f8684610f4a565b610c7e565b90508083825260208201905060208402830185811115610fae57610fad610f75565b5b835b81811015610fd75780610fc38882610bf4565b845260208401935050602081019050610fb0565b5050509392505050565b5f82601f830112610ff557610ff4610c08565b5b8135611005848260208601610f79565b91505092915050565b5f806040838503121561102457611023610bd6565b5b5f83013567ffffffffffffffff81111561104157611040610bda565b5b61104d85828601610d17565b925050602083013567ffffffffffffffff81111561106e5761106d610bda565b5b61107a85828601610fe1565b9150509250929050565b61108d81610dbd565b82525050565b5f82825260208201905092915050565b5f6110ad82610e21565b6110b78185611093565b93506110c7818560208601610e3b565b6110d081610c10565b840191505092915050565b5f81519050919050565b5f82825260208201905092915050565b5f819050602082019050919050565b61110d81610b9c565b82525050565b5f61111e8383611104565b60208301905092915050565b5f602082019050919050565b5f611140826110db565b61114a81856110e5565b9350611155836110f5565b805f5b8381101561118557815161116c8882611113565b97506111778361112a565b925050600181019050611158565b5085935050505092915050565b61119b81610eee565b82525050565b5f608083015f8301516111b65f860182611084565b50602083015184820360208601526111ce82826110a3565b915050604083015184820360408601526111e88282611136565b91505060608301516111fd6060860182611192565b508091505092915050565b5f6020820190508181035f83015261122081846111a1565b905092915050565b7f4e6f7420612076616c6964206f726465722069640000000000000000000000005f82015250565b5f61125c601483610e2b565b915061126782611228565b602082019050919050565b5f6020820190508181035f83015261128981611250565b9050919050565b7f4e487b71000000000000000000000000000000000000000000000000000000005f52603260045260245ffd5b7f20796f7520617265206e6f7420746865206f776e6572000000000000000000005f82015250565b5f6112f1601683610e2b565b91506112fc826112bd565b602082019050919050565b5f6020820190508181035f83015261131e816112e5565b9050919050565b7f4e487b71000000000000000000000000000000000000000000000000000000005f52602260045260245ffd5b5f600282049050600182168061136957607f821691505b60208210810361137c5761137b611325565b5b50919050565b5f819050815f5260205f209050919050565b5f6020601f8301049050919050565b5f82821b905092915050565b5f600883026113de7fffffffffffffffffffffffffffffffffffffffffffffffffffffffffffffffff826113a3565b6113e886836113a3565b95508019841693508086168417925050509392505050565b5f819050919050565b5f61142361141e61141984610b9c565b611400565b610b9c565b9050919050565b5f819050919050565b61143c83611409565b6114506114488261142a565b8484546113af565b825550505050565b5f90565b611464611458565b61146f818484611433565b505050565b5b81811015611492576114875f8261145c565b600181019050611475565b5050565b601f8211156114d7576114a881611382565b6114b184611394565b810160208510156114c0578190505b6114d46114cc85611394565b830182611474565b50505b505050565b5f82821c905092915050565b5f6114f75f19846008026114dc565b1980831691505092915050565b5f61150f83836114e8565b9150826002028217905092915050565b61152882610e21565b67ffffffffffffffff81111561154157611540610c20565b5b61154b8254611352565b611556828285611496565b5f60209050601f831160018114611587575f8415611575578287015190505b61157f8582611504565b8655506115e6565b601f19841661159586611382565b5f5b828110156115bc57848901518255600182019150602085019450602081019050611597565b868310156115d957848901516115d5601f8916826114e8565b8355505b6001600288020188555050505b505050505050565b5f6040820190506116015f830185610ba5565b81810360208301526116138184610e63565b90509392505050565b7f4e487b71000000000000000000000000000000000000000000000000000000005f52601160045260245ffd5b5f61165382610b9c565b91507fffffffffffffffffffffffffffffffffffffffffffffffffffffffffffffffff82036116855761168461161c565b5b600182019050919050565b7f4e6f2070726f64756374730000000000000000000000000000000000000000005f82015250565b5f6116c4600b83610e2b565b91506116cf82611690565b602082019050919050565b5f6020820190508181035f8301526116f1816116b8565b9050919050565b5f61170282610b9c565b915061170d83610b9c565b92508282039050818111156117255761172461161c565b5b92915050565b7f20796f7520617265206e6f7420617574686f72697a65640000000000000000005f82015250565b5f61175f601783610e2b565b915061176a8261172b565b602082019050919050565b5f6020820190508181035f83015261178c81611753565b9050919050565b7f4f7264657220697320616c7265616479207368697070656400000000000000005f82015250565b5f6117c7601883610e2b565b91506117d282611793565b602082019050919050565b5f6020820190508181035f8301526117f4816117bb565b905091905056fea2646970667358221220519ccccc62402ba0bfac85f8c53e630f46b85d3f346b407b7b7ecbfe0a222ef264736f6c63430008160033",
					"opcodes": "PUSH1 0x80 PUSH1 0x40 MSTORE CALLVALUE DUP1 ISZERO PUSH2 0xF JUMPI PUSH0 DUP1 REVERT JUMPDEST POP CALLER PUSH1 0x1 PUSH0 PUSH2 0x100 EXP DUP2 SLOAD DUP2 PUSH20 0xFFFFFFFFFFFFFFFFFFFFFFFFFFFFFFFFFFFFFFFF MUL NOT AND SWAP1 DUP4 PUSH20 0xFFFFFFFFFFFFFFFFFFFFFFFFFFFFFFFFFFFFFFFF AND MUL OR SWAP1 SSTORE POP PUSH2 0x1831 DUP1 PUSH2 0x5D PUSH0 CODECOPY PUSH0 RETURN INVALID PUSH1 0x80 PUSH1 0x40 MSTORE CALLVALUE DUP1 ISZERO PUSH2 0xF JUMPI PUSH0 DUP1 REVERT JUMPDEST POP PUSH1 0x4 CALLDATASIZE LT PUSH2 0x7B JUMPI PUSH0 CALLDATALOAD PUSH1 0xE0 SHR DUP1 PUSH4 0xA85C38EF GT PUSH2 0x59 JUMPI DUP1 PUSH4 0xA85C38EF EQ PUSH2 0xD7 JUMPI DUP1 PUSH4 0xB147135D EQ PUSH2 0x109 JUMPI DUP1 PUSH4 0xD09EF241 EQ PUSH2 0x139 JUMPI DUP1 PUSH4 0xF68D22D6 EQ PUSH2 0x169 JUMPI PUSH2 0x7B JUMP JUMPDEST DUP1 PUSH4 0x3C540687 EQ PUSH2 0x7F JUMPI DUP1 PUSH4 0x577DC0A0 EQ PUSH2 0x9D JUMPI DUP1 PUSH4 0x8DA5CB5B EQ PUSH2 0xB9 JUMPI JUMPDEST PUSH0 DUP1 REVERT JUMPDEST PUSH2 0x87 PUSH2 0x185 JUMP JUMPDEST PUSH1 0x40 MLOAD PUSH2 0x94 SWAP2 SWAP1 PUSH2 0xBB4 JUMP JUMPDEST PUSH1 0x40 MLOAD DUP1 SWAP2 SUB SWAP1 RETURN JUMPDEST PUSH2 0xB7 PUSH1 0x4 DUP1 CALLDATASIZE SUB DUP2 ADD SWAP1 PUSH2 0xB2 SWAP2 SWAP1 PUSH2 0xD44 JUMP JUMPDEST PUSH2 0x18B JUMP JUMPDEST STOP JUMPDEST PUSH2 0xC1 PUSH2 0x30C JUMP JUMPDEST PUSH1 0x40 MLOAD PUSH2 0xCE SWAP2 SWAP1 PUSH2 0xDDD JUMP JUMPDEST PUSH1 0x40 MLOAD DUP1 SWAP2 SUB SWAP1 RETURN JUMPDEST PUSH2 0xF1 PUSH1 0x4 DUP1 CALLDATASIZE SUB DUP2 ADD SWAP1 PUSH2 0xEC SWAP2 SWAP1 PUSH2 0xDF6 JUMP JUMPDEST PUSH2 0x331 JUMP JUMPDEST PUSH1 0x40 MLOAD PUSH2 0x100 SWAP4 SWAP3 SWAP2 SWAP1 PUSH2 0xF0E JUMP JUMPDEST PUSH1 0x40 MLOAD DUP1 SWAP2 SUB SWAP1 RETURN JUMPDEST PUSH2 0x123 PUSH1 0x4 DUP1 CALLDATASIZE SUB DUP2 ADD SWAP1 PUSH2 0x11E SWAP2 SWAP1 PUSH2 0x100E JUMP JUMPDEST PUSH2 0x416 JUMP JUMPDEST PUSH1 0x40 MLOAD PUSH2 0x130 SWAP2 SWAP1 PUSH2 0xBB4 JUMP JUMPDEST PUSH1 0x40 MLOAD DUP1 SWAP2 SUB SWAP1 RETURN JUMPDEST PUSH2 0x153 PUSH1 0x4 DUP1 CALLDATASIZE SUB DUP2 ADD SWAP1 PUSH2 0x14E SWAP2 SWAP1 PUSH2 0xDF6 JUMP JUMPDEST PUSH2 0x63C JUMP JUMPDEST PUSH1 0x40 MLOAD PUSH2 0x160 SWAP2 SWAP1 PUSH2 0x1208 JUMP JUMPDEST PUSH1 0x40 MLOAD DUP1 SWAP2 SUB SWAP1 RETURN JUMPDEST PUSH2 0x183 PUSH1 0x4 DUP1 CALLDATASIZE SUB DUP2 ADD SWAP1 PUSH2 0x17E SWAP2 SWAP1 PUSH2 0xDF6 JUMP JUMPDEST PUSH2 0x831 JUMP JUMPDEST STOP JUMPDEST PUSH1 0x2 SLOAD DUP2 JUMP JUMPDEST DUP2 PUSH0 DUP1 SLOAD SWAP1 POP DUP2 LT PUSH2 0x1D2 JUMPI PUSH1 0x40 MLOAD PUSH32 0x8C379A000000000000000000000000000000000000000000000000000000000 DUP2 MSTORE PUSH1 0x4 ADD PUSH2 0x1C9 SWAP1 PUSH2 0x1272 JUMP JUMPDEST PUSH1 0x40 MLOAD DUP1 SWAP2 SUB SWAP1 REVERT JUMPDEST DUP3 CALLER PUSH20 0xFFFFFFFFFFFFFFFFFFFFFFFFFFFFFFFFFFFFFFFF AND PUSH0 DUP3 DUP2 SLOAD DUP2 LT PUSH2 0x1FD JUMPI PUSH2 0x1FC PUSH2 0x1290 JUMP JUMPDEST JUMPDEST SWAP1 PUSH0 MSTORE PUSH1 0x20 PUSH0 KECCAK256 SWAP1 PUSH1 0x4 MUL ADD PUSH0 ADD PUSH0 SWAP1 SLOAD SWAP1 PUSH2 0x100 EXP SWAP1 DIV PUSH20 0xFFFFFFFFFFFFFFFFFFFFFFFFFFFFFFFFFFFFFFFF AND PUSH20 0xFFFFFFFFFFFFFFFFFFFFFFFFFFFFFFFFFFFFFFFF AND EQ PUSH2 0x281 JUMPI PUSH1 0x40 MLOAD PUSH32 0x8C379A000000000000000000000000000000000000000000000000000000000 DUP2 MSTORE PUSH1 0x4 ADD PUSH2 0x278 SWAP1 PUSH2 0x1307 JUMP JUMPDEST PUSH1 0x40 MLOAD DUP1 SWAP2 SUB SWAP1 REVERT JUMPDEST PUSH0 DUP1 DUP6 DUP2 SLOAD DUP2 LT PUSH2 0x295 JUMPI PUSH2 0x294 PUSH2 0x1290 JUMP JUMPDEST JUMPDEST SWAP1 PUSH0 MSTORE PUSH1 0x20 PUSH0 KECCAK256 SWAP1 PUSH1 0x4 MUL ADD SWAP1 POP DUP4 DUP2 PUSH1 0x1 ADD SWAP1 DUP2 PUSH2 0x2B4 SWAP2 SWAP1 PUSH2 0x151F JUMP JUMPDEST POP PUSH32 0x8ACCFB13B7655F15DCB12B10C6EFF1C1C229B5C36925B2905EDE696863E43B4C DUP6 DUP6 PUSH1 0x40 MLOAD PUSH2 0x2E6 SWAP3 SWAP2 SWAP1 PUSH2 0x15EE JUMP JUMPDEST PUSH1 0x40 MLOAD DUP1 SWAP2 SUB SWAP1 LOG1 POP PUSH1 0x2 PUSH0 DUP2 SLOAD DUP1 SWAP3 SWAP2 SWAP1 PUSH2 0x301 SWAP1 PUSH2 0x1649 JUMP JUMPDEST SWAP2 SWAP1 POP SSTORE POP POP POP POP POP JUMP JUMPDEST PUSH1 0x1 PUSH0 SWAP1 SLOAD SWAP1 PUSH2 0x100 EXP SWAP1 DIV PUSH20 0xFFFFFFFFFFFFFFFFFFFFFFFFFFFFFFFFFFFFFFFF AND DUP2 JUMP JUMPDEST PUSH0 DUP2 DUP2 SLOAD DUP2 LT PUSH2 0x33F JUMPI PUSH0 DUP1 REVERT JUMPDEST SWAP1 PUSH0 MSTORE PUSH1 0x20 PUSH0 KECCAK256 SWAP1 PUSH1 0x4 MUL ADD PUSH0 SWAP2 POP SWAP1 POP DUP1 PUSH0 ADD PUSH0 SWAP1 SLOAD SWAP1 PUSH2 0x100 EXP SWAP1 DIV PUSH20 0xFFFFFFFFFFFFFFFFFFFFFFFFFFFFFFFFFFFFFFFF AND SWAP1 DUP1 PUSH1 0x1 ADD DUP1 SLOAD PUSH2 0x383 SWAP1 PUSH2 0x1352 JUMP JUMPDEST DUP1 PUSH1 0x1F ADD PUSH1 0x20 DUP1 SWAP2 DIV MUL PUSH1 0x20 ADD PUSH1 0x40 MLOAD SWAP1 DUP2 ADD PUSH1 0x40 MSTORE DUP1 SWAP3 SWAP2 SWAP1 DUP2 DUP2 MSTORE PUSH1 0x20 ADD DUP3 DUP1 SLOAD PUSH2 0x3AF SWAP1 PUSH2 0x1352 JUMP JUMPDEST DUP1 ISZERO PUSH2 0x3FA JUMPI DUP1 PUSH1 0x1F LT PUSH2 0x3D1 JUMPI PUSH2 0x100 DUP1 DUP4 SLOAD DIV MUL DUP4 MSTORE SWAP2 PUSH1 0x20 ADD SWAP2 PUSH2 0x3FA JUMP JUMPDEST DUP3 ADD SWAP2 SWAP1 PUSH0 MSTORE PUSH1 0x20 PUSH0 KECCAK256 SWAP1 JUMPDEST DUP2 SLOAD DUP2 MSTORE SWAP1 PUSH1 0x1 ADD SWAP1 PUSH1 0x20 ADD DUP1 DUP4 GT PUSH2 0x3DD JUMPI DUP3 SWAP1 SUB PUSH1 0x1F AND DUP3 ADD SWAP2 JUMPDEST POP POP POP POP POP SWAP1 DUP1 PUSH1 0x3 ADD PUSH0 SWAP1 SLOAD SWAP1 PUSH2 0x100 EXP SWAP1 DIV PUSH1 0xFF AND SWAP1 POP DUP4 JUMP JUMPDEST PUSH0 DUP2 PUSH0 DUP2 MLOAD GT PUSH2 0x45B JUMPI PUSH1 0x40 MLOAD PUSH32 0x8C379A000000000000000000000000000000000000000000000000000000000 DUP2 MSTORE PUSH1 0x4 ADD PUSH2 0x452 SWAP1 PUSH2 0x16DA JUMP JUMPDEST PUSH1 0x40 MLOAD DUP1 SWAP2 SUB SWAP1 REVERT JUMPDEST PUSH2 0x463 PUSH2 0xAE8 JUMP JUMPDEST CALLER DUP2 PUSH0 ADD SWAP1 PUSH20 0xFFFFFFFFFFFFFFFFFFFFFFFFFFFFFFFFFFFFFFFF AND SWAP1 DUP2 PUSH20 0xFFFFFFFFFFFFFFFFFFFFFFFFFFFFFFFFFFFFFFFF AND DUP2 MSTORE POP POP DUP5 DUP2 PUSH1 0x20 ADD DUP2 SWAP1 MSTORE POP DUP4 DUP2 PUSH1 0x40 ADD DUP2 SWAP1 MSTORE POP PUSH0 DUP2 PUSH1 0x60 ADD SWAP1 PUSH1 0x3 DUP2 GT ISZERO PUSH2 0x4C4 JUMPI PUSH2 0x4C3 PUSH2 0xE9B JUMP JUMPDEST JUMPDEST SWAP1 DUP2 PUSH1 0x3 DUP2 GT ISZERO PUSH2 0x4D8 JUMPI PUSH2 0x4D7 PUSH2 0xE9B JUMP JUMPDEST JUMPDEST DUP2 MSTORE POP POP PUSH0 DUP2 SWAP1 DUP1 PUSH1 0x1 DUP2 SLOAD ADD DUP1 DUP3 SSTORE DUP1 SWAP2 POP POP PUSH1 0x1 SWAP1 SUB SWAP1 PUSH0 MSTORE PUSH1 0x20 PUSH0 KECCAK256 SWAP1 PUSH1 0x4 MUL ADD PUSH0 SWAP1 SWAP2 SWAP1 SWAP2 SWAP1 SWAP2 POP PUSH0 DUP3 ADD MLOAD DUP2 PUSH0 ADD PUSH0 PUSH2 0x100 EXP DUP2 SLOAD DUP2 PUSH20 0xFFFFFFFFFFFFFFFFFFFFFFFFFFFFFFFFFFFFFFFF MUL NOT AND SWAP1 DUP4 PUSH20 0xFFFFFFFFFFFFFFFFFFFFFFFFFFFFFFFFFFFFFFFF AND MUL OR SWAP1 SSTORE POP PUSH1 0x20 DUP3 ADD MLOAD DUP2 PUSH1 0x1 ADD SWAP1 DUP2 PUSH2 0x55D SWAP2 SWAP1 PUSH2 0x151F JUMP JUMPDEST POP PUSH1 0x40 DUP3 ADD MLOAD DUP2 PUSH1 0x2 ADD SWAP1 DUP1 MLOAD SWAP1 PUSH1 0x20 ADD SWAP1 PUSH2 0x57A SWAP3 SWAP2 SWAP1 PUSH2 0xB36 JUMP JUMPDEST POP PUSH1 0x60 DUP3 ADD MLOAD DUP2 PUSH1 0x3 ADD PUSH0 PUSH2 0x100 EXP DUP2 SLOAD DUP2 PUSH1 0xFF MUL NOT AND SWAP1 DUP4 PUSH1 0x3 DUP2 GT ISZERO PUSH2 0x5A5 JUMPI PUSH2 0x5A4 PUSH2 0xE9B JUMP JUMPDEST JUMPDEST MUL OR SWAP1 SSTORE POP POP POP CALLER PUSH20 0xFFFFFFFFFFFFFFFFFFFFFFFFFFFFFFFFFFFFFFFF AND PUSH32 0x4CEAEA0569072C9203C8C195FFCCDBCA9851B9D0410F577878A6792F12EC9B52 PUSH1 0x1 PUSH0 DUP1 SLOAD SWAP1 POP PUSH2 0x5F5 SWAP2 SWAP1 PUSH2 0x16F8 JUMP JUMPDEST PUSH1 0x40 MLOAD PUSH2 0x602 SWAP2 SWAP1 PUSH2 0xBB4 JUMP JUMPDEST PUSH1 0x40 MLOAD DUP1 SWAP2 SUB SWAP1 LOG2 PUSH1 0x1 PUSH0 DUP1 SLOAD SWAP1 POP PUSH2 0x61B SWAP2 SWAP1 PUSH2 0x16F8 JUMP JUMPDEST SWAP3 POP POP PUSH1 0x2 PUSH0 DUP2 SLOAD DUP1 SWAP3 SWAP2 SWAP1 PUSH2 0x630 SWAP1 PUSH2 0x1649 JUMP JUMPDEST SWAP2 SWAP1 POP SSTORE POP POP SWAP3 SWAP2 POP POP JUMP JUMPDEST PUSH2 0x644 PUSH2 0xAE8 JUMP JUMPDEST DUP2 PUSH0 DUP1 SLOAD SWAP1 POP DUP2 LT PUSH2 0x68B JUMPI PUSH1 0x40 MLOAD PUSH32 0x8C379A000000000000000000000000000000000000000000000000000000000 DUP2 MSTORE PUSH1 0x4 ADD PUSH2 0x682 SWAP1 PUSH2 0x1272 JUMP JUMPDEST PUSH1 0x40 MLOAD DUP1 SWAP2 SUB SWAP1 REVERT JUMPDEST PUSH0 DUP4 DUP2 SLOAD DUP2 LT PUSH2 0x69E JUMPI PUSH2 0x69D PUSH2 0x1290 JUMP JUMPDEST JUMPDEST SWAP1 PUSH0 MSTORE PUSH1 0x20 PUSH0 KECCAK256 SWAP1 PUSH1 0x4 MUL ADD PUSH1 0x40 MLOAD DUP1 PUSH1 0x80 ADD PUSH1 0x40 MSTORE SWAP1 DUP2 PUSH0 DUP3 ADD PUSH0 SWAP1 SLOAD SWAP1 PUSH2 0x100 EXP SWAP1 DIV PUSH20 0xFFFFFFFFFFFFFFFFFFFFFFFFFFFFFFFFFFFFFFFF AND PUSH20 0xFFFFFFFFFFFFFFFFFFFFFFFFFFFFFFFFFFFFFFFF AND PUSH20 0xFFFFFFFFFFFFFFFFFFFFFFFFFFFFFFFFFFFFFFFF AND DUP2 MSTORE PUSH1 0x20 ADD PUSH1 0x1 DUP3 ADD DUP1 SLOAD PUSH2 0x719 SWAP1 PUSH2 0x1352 JUMP JUMPDEST DUP1 PUSH1 0x1F ADD PUSH1 0x20 DUP1 SWAP2 DIV MUL PUSH1 0x20 ADD PUSH1 0x40 MLOAD SWAP1 DUP2 ADD PUSH1 0x40 MSTORE DUP1 SWAP3 SWAP2 SWAP1 DUP2 DUP2 MSTORE PUSH1 0x20 ADD DUP3 DUP1 SLOAD PUSH2 0x745 SWAP1 PUSH2 0x1352 JUMP JUMPDEST DUP1 ISZERO PUSH2 0x790 JUMPI DUP1 PUSH1 0x1F LT PUSH2 0x767 JUMPI PUSH2 0x100 DUP1 DUP4 SLOAD DIV MUL DUP4 MSTORE SWAP2 PUSH1 0x20 ADD SWAP2 PUSH2 0x790 JUMP JUMPDEST DUP3 ADD SWAP2 SWAP1 PUSH0 MSTORE PUSH1 0x20 PUSH0 KECCAK256 SWAP1 JUMPDEST DUP2 SLOAD DUP2 MSTORE SWAP1 PUSH1 0x1 ADD SWAP1 PUSH1 0x20 ADD DUP1 DUP4 GT PUSH2 0x773 JUMPI DUP3 SWAP1 SUB PUSH1 0x1F AND DUP3 ADD SWAP2 JUMPDEST POP POP POP POP POP DUP2 MSTORE PUSH1 0x20 ADD PUSH1 0x2 DUP3 ADD DUP1 SLOAD DUP1 PUSH1 0x20 MUL PUSH1 0x20 ADD PUSH1 0x40 MLOAD SWAP1 DUP2 ADD PUSH1 0x40 MSTORE DUP1 SWAP3 SWAP2 SWAP1 DUP2 DUP2 MSTORE PUSH1 0x20 ADD DUP3 DUP1 SLOAD DUP1 ISZERO PUSH2 0x7E6 JUMPI PUSH1 0x20 MUL DUP3 ADD SWAP2 SWAP1 PUSH0 MSTORE PUSH1 0x20 PUSH0 KECCAK256 SWAP1 JUMPDEST DUP2 SLOAD DUP2 MSTORE PUSH1 0x20 ADD SWAP1 PUSH1 0x1 ADD SWAP1 DUP1 DUP4 GT PUSH2 0x7D2 JUMPI JUMPDEST POP POP POP POP POP DUP2 MSTORE PUSH1 0x20 ADD PUSH1 0x3 DUP3 ADD PUSH0 SWAP1 SLOAD SWAP1 PUSH2 0x100 EXP SWAP1 DIV PUSH1 0xFF AND PUSH1 0x3 DUP2 GT ISZERO PUSH2 0x813 JUMPI PUSH2 0x812 PUSH2 0xE9B JUMP JUMPDEST JUMPDEST PUSH1 0x3 DUP2 GT ISZERO PUSH2 0x825 JUMPI PUSH2 0x824 PUSH2 0xE9B JUMP JUMPDEST JUMPDEST DUP2 MSTORE POP POP SWAP2 POP POP SWAP2 SWAP1 POP JUMP JUMPDEST DUP1 PUSH0 DUP1 SLOAD SWAP1 POP DUP2 LT PUSH2 0x878 JUMPI PUSH1 0x40 MLOAD PUSH32 0x8C379A000000000000000000000000000000000000000000000000000000000 DUP2 MSTORE PUSH1 0x4 ADD PUSH2 0x86F SWAP1 PUSH2 0x1272 JUMP JUMPDEST PUSH1 0x40 MLOAD DUP1 SWAP2 SUB SWAP1 REVERT JUMPDEST CALLER PUSH20 0xFFFFFFFFFFFFFFFFFFFFFFFFFFFFFFFFFFFFFFFF AND PUSH1 0x1 PUSH0 SWAP1 SLOAD SWAP1 PUSH2 0x100 EXP SWAP1 DIV PUSH20 0xFFFFFFFFFFFFFFFFFFFFFFFFFFFFFFFFFFFFFFFF AND PUSH20 0xFFFFFFFFFFFFFFFFFFFFFFFFFFFFFFFFFFFFFFFF AND EQ PUSH2 0x907 JUMPI PUSH1 0x40 MLOAD PUSH32 0x8C379A000000000000000000000000000000000000000000000000000000000 DUP2 MSTORE PUSH1 0x4 ADD PUSH2 0x8FE SWAP1 PUSH2 0x1775 JUMP JUMPDEST PUSH1 0x40 MLOAD DUP1 SWAP2 SUB SWAP1 REVERT JUMPDEST PUSH0 DUP1 DUP4 DUP2 SLOAD DUP2 LT PUSH2 0x91B JUMPI PUSH2 0x91A PUSH2 0x1290 JUMP JUMPDEST JUMPDEST SWAP1 PUSH0 MSTORE PUSH1 0x20 PUSH0 KECCAK256 SWAP1 PUSH1 0x4 MUL ADD SWAP1 POP PUSH1 0x3 DUP1 DUP2 GT ISZERO PUSH2 0x93C JUMPI PUSH2 0x93B PUSH2 0xE9B JUMP JUMPDEST JUMPDEST DUP2 PUSH1 0x3 ADD PUSH0 SWAP1 SLOAD SWAP1 PUSH2 0x100 EXP SWAP1 DIV PUSH1 0xFF AND PUSH1 0x3 DUP2 GT ISZERO PUSH2 0x95F JUMPI PUSH2 0x95E PUSH2 0xE9B JUMP JUMPDEST JUMPDEST SUB PUSH2 0x99F JUMPI PUSH1 0x40 MLOAD PUSH32 0x8C379A000000000000000000000000000000000000000000000000000000000 DUP2 MSTORE PUSH1 0x4 ADD PUSH2 0x996 SWAP1 PUSH2 0x17DD JUMP JUMPDEST PUSH1 0x40 MLOAD DUP1 SWAP2 SUB SWAP1 REVERT JUMPDEST PUSH0 PUSH1 0x3 DUP2 GT ISZERO PUSH2 0x9B2 JUMPI PUSH2 0x9B1 PUSH2 0xE9B JUMP JUMPDEST JUMPDEST DUP2 PUSH1 0x3 ADD PUSH0 SWAP1 SLOAD SWAP1 PUSH2 0x100 EXP SWAP1 DIV PUSH1 0xFF AND PUSH1 0x3 DUP2 GT ISZERO PUSH2 0x9D5 JUMPI PUSH2 0x9D4 PUSH2 0xE9B JUMP JUMPDEST JUMPDEST SUB PUSH2 0xA0B JUMPI PUSH1 0x1 DUP2 PUSH1 0x3 ADD PUSH0 PUSH2 0x100 EXP DUP2 SLOAD DUP2 PUSH1 0xFF MUL NOT AND SWAP1 DUP4 PUSH1 0x3 DUP2 GT ISZERO PUSH2 0xA01 JUMPI PUSH2 0xA00 PUSH2 0xE9B JUMP JUMPDEST JUMPDEST MUL OR SWAP1 SSTORE POP PUSH2 0xAE3 JUMP JUMPDEST PUSH1 0x1 PUSH1 0x3 DUP2 GT ISZERO PUSH2 0xA1F JUMPI PUSH2 0xA1E PUSH2 0xE9B JUMP JUMPDEST JUMPDEST DUP2 PUSH1 0x3 ADD PUSH0 SWAP1 SLOAD SWAP1 PUSH2 0x100 EXP SWAP1 DIV PUSH1 0xFF AND PUSH1 0x3 DUP2 GT ISZERO PUSH2 0xA42 JUMPI PUSH2 0xA41 PUSH2 0xE9B JUMP JUMPDEST JUMPDEST SUB PUSH2 0xA78 JUMPI PUSH1 0x2 DUP2 PUSH1 0x3 ADD PUSH0 PUSH2 0x100 EXP DUP2 SLOAD DUP2 PUSH1 0xFF MUL NOT AND SWAP1 DUP4 PUSH1 0x3 DUP2 GT ISZERO PUSH2 0xA6E JUMPI PUSH2 0xA6D PUSH2 0xE9B JUMP JUMPDEST JUMPDEST MUL OR SWAP1 SSTORE POP PUSH2 0xAE2 JUMP JUMPDEST PUSH1 0x2 PUSH1 0x3 DUP2 GT ISZERO PUSH2 0xA8C JUMPI PUSH2 0xA8B PUSH2 0xE9B JUMP JUMPDEST JUMPDEST DUP2 PUSH1 0x3 ADD PUSH0 SWAP1 SLOAD SWAP1 PUSH2 0x100 EXP SWAP1 DIV PUSH1 0xFF AND PUSH1 0x3 DUP2 GT ISZERO PUSH2 0xAAF JUMPI PUSH2 0xAAE PUSH2 0xE9B JUMP JUMPDEST JUMPDEST SUB PUSH2 0xAE1 JUMPI PUSH1 0x3 DUP2 PUSH1 0x3 ADD PUSH0 PUSH2 0x100 EXP DUP2 SLOAD DUP2 PUSH1 0xFF MUL NOT AND SWAP1 DUP4 PUSH1 0x3 DUP2 GT ISZERO PUSH2 0xADB JUMPI PUSH2 0xADA PUSH2 0xE9B JUMP JUMPDEST JUMPDEST MUL OR SWAP1 SSTORE POP JUMPDEST JUMPDEST JUMPDEST POP POP POP JUMP JUMPDEST PUSH1 0x40 MLOAD DUP1 PUSH1 0x80 ADD PUSH1 0x40 MSTORE DUP1 PUSH0 PUSH20 0xFFFFFFFFFFFFFFFFFFFFFFFFFFFFFFFFFFFFFFFF AND DUP2 MSTORE PUSH1 0x20 ADD PUSH1 0x60 DUP2 MSTORE PUSH1 0x20 ADD PUSH1 0x60 DUP2 MSTORE PUSH1 0x20 ADD PUSH0 PUSH1 0x3 DUP2 GT ISZERO PUSH2 0xB30 JUMPI PUSH2 0xB2F PUSH2 0xE9B JUMP JUMPDEST JUMPDEST DUP2 MSTORE POP SWAP1 JUMP JUMPDEST DUP3 DUP1 SLOAD DUP3 DUP3 SSTORE SWAP1 PUSH0 MSTORE PUSH1 0x20 PUSH0 KECCAK256 SWAP1 DUP2 ADD SWAP3 DUP3 ISZERO PUSH2 0xB70 JUMPI SWAP2 PUSH1 0x20 MUL DUP3 ADD JUMPDEST DUP3 DUP2 GT ISZERO PUSH2 0xB6F JUMPI DUP3 MLOAD DUP3 SSTORE SWAP2 PUSH1 0x20 ADD SWAP2 SWAP1 PUSH1 0x1 ADD SWAP1 PUSH2 0xB54 JUMP JUMPDEST JUMPDEST POP SWAP1 POP PUSH2 0xB7D SWAP2 SWAP1 PUSH2 0xB81 JUMP JUMPDEST POP SWAP1 JUMP JUMPDEST JUMPDEST DUP1 DUP3 GT ISZERO PUSH2 0xB98 JUMPI PUSH0 DUP2 PUSH0 SWAP1 SSTORE POP PUSH1 0x1 ADD PUSH2 0xB82 JUMP JUMPDEST POP SWAP1 JUMP JUMPDEST PUSH0 DUP2 SWAP1 POP SWAP2 SWAP1 POP JUMP JUMPDEST PUSH2 0xBAE DUP2 PUSH2 0xB9C JUMP JUMPDEST DUP3 MSTORE POP POP JUMP JUMPDEST PUSH0 PUSH1 0x20 DUP3 ADD SWAP1 POP PUSH2 0xBC7 PUSH0 DUP4 ADD DUP5 PUSH2 0xBA5 JUMP JUMPDEST SWAP3 SWAP2 POP POP JUMP JUMPDEST PUSH0 PUSH1 0x40 MLOAD SWAP1 POP SWAP1 JUMP JUMPDEST PUSH0 DUP1 REVERT JUMPDEST PUSH0 DUP1 REVERT JUMPDEST PUSH2 0xBE7 DUP2 PUSH2 0xB9C JUMP JUMPDEST DUP2 EQ PUSH2 0xBF1 JUMPI PUSH0 DUP1 REVERT JUMPDEST POP JUMP JUMPDEST PUSH0 DUP2 CALLDATALOAD SWAP1 POP PUSH2 0xC02 DUP2 PUSH2 0xBDE JUMP JUMPDEST SWAP3 SWAP2 POP POP JUMP JUMPDEST PUSH0 DUP1 REVERT JUMPDEST PUSH0 DUP1 REVERT JUMPDEST PUSH0 PUSH1 0x1F NOT PUSH1 0x1F DUP4 ADD AND SWAP1 POP SWAP2 SWAP1 POP JUMP JUMPDEST PUSH32 0x4E487B7100000000000000000000000000000000000000000000000000000000 PUSH0 MSTORE PUSH1 0x41 PUSH1 0x4 MSTORE PUSH1 0x24 PUSH0 REVERT JUMPDEST PUSH2 0xC56 DUP3 PUSH2 0xC10 JUMP JUMPDEST DUP2 ADD DUP2 DUP2 LT PUSH8 0xFFFFFFFFFFFFFFFF DUP3 GT OR ISZERO PUSH2 0xC75 JUMPI PUSH2 0xC74 PUSH2 0xC20 JUMP JUMPDEST JUMPDEST DUP1 PUSH1 0x40 MSTORE POP POP POP JUMP JUMPDEST PUSH0 PUSH2 0xC87 PUSH2 0xBCD JUMP JUMPDEST SWAP1 POP PUSH2 0xC93 DUP3 DUP3 PUSH2 0xC4D JUMP JUMPDEST SWAP2 SWAP1 POP JUMP JUMPDEST PUSH0 PUSH8 0xFFFFFFFFFFFFFFFF DUP3 GT ISZERO PUSH2 0xCB2 JUMPI PUSH2 0xCB1 PUSH2 0xC20 JUMP JUMPDEST JUMPDEST PUSH2 0xCBB DUP3 PUSH2 0xC10 JUMP JUMPDEST SWAP1 POP PUSH1 0x20 DUP2 ADD SWAP1 POP SWAP2 SWAP1 POP JUMP JUMPDEST DUP3 DUP2 DUP4 CALLDATACOPY PUSH0 DUP4 DUP4 ADD MSTORE POP POP POP JUMP JUMPDEST PUSH0 PUSH2 0xCE8 PUSH2 0xCE3 DUP5 PUSH2 0xC98 JUMP JUMPDEST PUSH2 0xC7E JUMP JUMPDEST SWAP1 POP DUP3 DUP2 MSTORE PUSH1 0x20 DUP2 ADD DUP5 DUP5 DUP5 ADD GT ISZERO PUSH2 0xD04 JUMPI PUSH2 0xD03 PUSH2 0xC0C JUMP JUMPDEST JUMPDEST PUSH2 0xD0F DUP5 DUP3 DUP6 PUSH2 0xCC8 JUMP JUMPDEST POP SWAP4 SWAP3 POP POP POP JUMP JUMPDEST PUSH0 DUP3 PUSH1 0x1F DUP4 ADD SLT PUSH2 0xD2B JUMPI PUSH2 0xD2A PUSH2 0xC08 JUMP JUMPDEST JUMPDEST DUP2 CALLDATALOAD PUSH2 0xD3B DUP5 DUP3 PUSH1 0x20 DUP7 ADD PUSH2 0xCD6 JUMP JUMPDEST SWAP2 POP POP SWAP3 SWAP2 POP POP JUMP JUMPDEST PUSH0 DUP1 PUSH1 0x40 DUP4 DUP6 SUB SLT ISZERO PUSH2 0xD5A JUMPI PUSH2 0xD59 PUSH2 0xBD6 JUMP JUMPDEST JUMPDEST PUSH0 PUSH2 0xD67 DUP6 DUP3 DUP7 ADD PUSH2 0xBF4 JUMP JUMPDEST SWAP3 POP POP PUSH1 0x20 DUP4 ADD CALLDATALOAD PUSH8 0xFFFFFFFFFFFFFFFF DUP2 GT ISZERO PUSH2 0xD88 JUMPI PUSH2 0xD87 PUSH2 0xBDA JUMP JUMPDEST JUMPDEST PUSH2 0xD94 DUP6 DUP3 DUP7 ADD PUSH2 0xD17 JUMP JUMPDEST SWAP2 POP POP SWAP3 POP SWAP3 SWAP1 POP JUMP JUMPDEST PUSH0 PUSH20 0xFFFFFFFFFFFFFFFFFFFFFFFFFFFFFFFFFFFFFFFF DUP3 AND SWAP1 POP SWAP2 SWAP1 POP JUMP JUMPDEST PUSH0 PUSH2 0xDC7 DUP3 PUSH2 0xD9E JUMP JUMPDEST SWAP1 POP SWAP2 SWAP1 POP JUMP JUMPDEST PUSH2 0xDD7 DUP2 PUSH2 0xDBD JUMP JUMPDEST DUP3 MSTORE POP POP JUMP JUMPDEST PUSH0 PUSH1 0x20 DUP3 ADD SWAP1 POP PUSH2 0xDF0 PUSH0 DUP4 ADD DUP5 PUSH2 0xDCE JUMP JUMPDEST SWAP3 SWAP2 POP POP JUMP JUMPDEST PUSH0 PUSH1 0x20 DUP3 DUP5 SUB SLT ISZERO PUSH2 0xE0B JUMPI PUSH2 0xE0A PUSH2 0xBD6 JUMP JUMPDEST JUMPDEST PUSH0 PUSH2 0xE18 DUP5 DUP3 DUP6 ADD PUSH2 0xBF4 JUMP JUMPDEST SWAP2 POP POP SWAP3 SWAP2 POP POP JUMP JUMPDEST PUSH0 DUP2 MLOAD SWAP1 POP SWAP2 SWAP1 POP JUMP JUMPDEST PUSH0 DUP3 DUP3 MSTORE PUSH1 0x20 DUP3 ADD SWAP1 POP SWAP3 SWAP2 POP POP JUMP JUMPDEST PUSH0 JUMPDEST DUP4 DUP2 LT ISZERO PUSH2 0xE58 JUMPI DUP1 DUP3 ADD MLOAD DUP2 DUP5 ADD MSTORE PUSH1 0x20 DUP2 ADD SWAP1 POP PUSH2 0xE3D JUMP JUMPDEST PUSH0 DUP5 DUP5 ADD MSTORE POP POP POP POP JUMP JUMPDEST PUSH0 PUSH2 0xE6D DUP3 PUSH2 0xE21 JUMP JUMPDEST PUSH2 0xE77 DUP2 DUP6 PUSH2 0xE2B JUMP JUMPDEST SWAP4 POP PUSH2 0xE87 DUP2 DUP6 PUSH1 0x20 DUP7 ADD PUSH2 0xE3B JUMP JUMPDEST PUSH2 0xE90 DUP2 PUSH2 0xC10 JUMP JUMPDEST DUP5 ADD SWAP2 POP POP SWAP3 SWAP2 POP POP JUMP JUMPDEST PUSH32 0x4E487B7100000000000000000000000000000000000000000000000000000000 PUSH0 MSTORE PUSH1 0x21 PUSH1 0x4 MSTORE PUSH1 0x24 PUSH0 REVERT JUMPDEST PUSH1 0x4 DUP2 LT PUSH2 0xED9 JUMPI PUSH2 0xED8 PUSH2 0xE9B JUMP JUMPDEST JUMPDEST POP JUMP JUMPDEST PUSH0 DUP2 SWAP1 POP PUSH2 0xEE9 DUP3 PUSH2 0xEC8 JUMP JUMPDEST SWAP2 SWAP1 POP JUMP JUMPDEST PUSH0 PUSH2 0xEF8 DUP3 PUSH2 0xEDC JUMP JUMPDEST SWAP1 POP SWAP2 SWAP1 POP JUMP JUMPDEST PUSH2 0xF08 DUP2 PUSH2 0xEEE JUMP JUMPDEST DUP3 MSTORE POP POP JUMP JUMPDEST PUSH0 PUSH1 0x60 DUP3 ADD SWAP1 POP PUSH2 0xF21 PUSH0 DUP4 ADD DUP7 PUSH2 0xDCE JUMP JUMPDEST DUP2 DUP2 SUB PUSH1 0x20 DUP4 ADD MSTORE PUSH2 0xF33 DUP2 DUP6 PUSH2 0xE63 JUMP JUMPDEST SWAP1 POP PUSH2 0xF42 PUSH1 0x40 DUP4 ADD DUP5 PUSH2 0xEFF JUMP JUMPDEST SWAP5 SWAP4 POP POP POP POP JUMP JUMPDEST PUSH0 PUSH8 0xFFFFFFFFFFFFFFFF DUP3 GT ISZERO PUSH2 0xF64 JUMPI PUSH2 0xF63 PUSH2 0xC20 JUMP JUMPDEST JUMPDEST PUSH1 0x20 DUP3 MUL SWAP1 POP PUSH1 0x20 DUP2 ADD SWAP1 POP SWAP2 SWAP1 POP JUMP JUMPDEST PUSH0 DUP1 REVERT JUMPDEST PUSH0 PUSH2 0xF8B PUSH2 0xF86 DUP5 PUSH2 0xF4A JUMP JUMPDEST PUSH2 0xC7E JUMP JUMPDEST SWAP1 POP DUP1 DUP4 DUP3 MSTORE PUSH1 0x20 DUP3 ADD SWAP1 POP PUSH1 0x20 DUP5 MUL DUP4 ADD DUP6 DUP2 GT ISZERO PUSH2 0xFAE JUMPI PUSH2 0xFAD PUSH2 0xF75 JUMP JUMPDEST JUMPDEST DUP4 JUMPDEST DUP2 DUP2 LT ISZERO PUSH2 0xFD7 JUMPI DUP1 PUSH2 0xFC3 DUP9 DUP3 PUSH2 0xBF4 JUMP JUMPDEST DUP5 MSTORE PUSH1 0x20 DUP5 ADD SWAP4 POP POP PUSH1 0x20 DUP2 ADD SWAP1 POP PUSH2 0xFB0 JUMP JUMPDEST POP POP POP SWAP4 SWAP3 POP POP POP JUMP JUMPDEST PUSH0 DUP3 PUSH1 0x1F DUP4 ADD SLT PUSH2 0xFF5 JUMPI PUSH2 0xFF4 PUSH2 0xC08 JUMP JUMPDEST JUMPDEST DUP2 CALLDATALOAD PUSH2 0x1005 DUP5 DUP3 PUSH1 0x20 DUP7 ADD PUSH2 0xF79 JUMP JUMPDEST SWAP2 POP POP SWAP3 SWAP2 POP POP JUMP JUMPDEST PUSH0 DUP1 PUSH1 0x40 DUP4 DUP6 SUB SLT ISZERO PUSH2 0x1024 JUMPI PUSH2 0x1023 PUSH2 0xBD6 JUMP JUMPDEST JUMPDEST PUSH0 DUP4 ADD CALLDATALOAD PUSH8 0xFFFFFFFFFFFFFFFF DUP2 GT ISZERO PUSH2 0x1041 JUMPI PUSH2 0x1040 PUSH2 0xBDA JUMP JUMPDEST JUMPDEST PUSH2 0x104D DUP6 DUP3 DUP7 ADD PUSH2 0xD17 JUMP JUMPDEST SWAP3 POP POP PUSH1 0x20 DUP4 ADD CALLDATALOAD PUSH8 0xFFFFFFFFFFFFFFFF DUP2 GT ISZERO PUSH2 0x106E JUMPI PUSH2 0x106D PUSH2 0xBDA JUMP JUMPDEST JUMPDEST PUSH2 0x107A DUP6 DUP3 DUP7 ADD PUSH2 0xFE1 JUMP JUMPDEST SWAP2 POP POP SWAP3 POP SWAP3 SWAP1 POP JUMP JUMPDEST PUSH2 0x108D DUP2 PUSH2 0xDBD JUMP JUMPDEST DUP3 MSTORE POP POP JUMP JUMPDEST PUSH0 DUP3 DUP3 MSTORE PUSH1 0x20 DUP3 ADD SWAP1 POP SWAP3 SWAP2 POP POP JUMP JUMPDEST PUSH0 PUSH2 0x10AD DUP3 PUSH2 0xE21 JUMP JUMPDEST PUSH2 0x10B7 DUP2 DUP6 PUSH2 0x1093 JUMP JUMPDEST SWAP4 POP PUSH2 0x10C7 DUP2 DUP6 PUSH1 0x20 DUP7 ADD PUSH2 0xE3B JUMP JUMPDEST PUSH2 0x10D0 DUP2 PUSH2 0xC10 JUMP JUMPDEST DUP5 ADD SWAP2 POP POP SWAP3 SWAP2 POP POP JUMP JUMPDEST PUSH0 DUP2 MLOAD SWAP1 POP SWAP2 SWAP1 POP JUMP JUMPDEST PUSH0 DUP3 DUP3 MSTORE PUSH1 0x20 DUP3 ADD SWAP1 POP SWAP3 SWAP2 POP POP JUMP JUMPDEST PUSH0 DUP2 SWAP1 POP PUSH1 0x20 DUP3 ADD SWAP1 POP SWAP2 SWAP1 POP JUMP JUMPDEST PUSH2 0x110D DUP2 PUSH2 0xB9C JUMP JUMPDEST DUP3 MSTORE POP POP JUMP JUMPDEST PUSH0 PUSH2 0x111E DUP4 DUP4 PUSH2 0x1104 JUMP JUMPDEST PUSH1 0x20 DUP4 ADD SWAP1 POP SWAP3 SWAP2 POP POP JUMP JUMPDEST PUSH0 PUSH1 0x20 DUP3 ADD SWAP1 POP SWAP2 SWAP1 POP JUMP JUMPDEST PUSH0 PUSH2 0x1140 DUP3 PUSH2 0x10DB JUMP JUMPDEST PUSH2 0x114A DUP2 DUP6 PUSH2 0x10E5 JUMP JUMPDEST SWAP4 POP PUSH2 0x1155 DUP4 PUSH2 0x10F5 JUMP JUMPDEST DUP1 PUSH0 JUMPDEST DUP4 DUP2 LT ISZERO PUSH2 0x1185 JUMPI DUP2 MLOAD PUSH2 0x116C DUP9 DUP3 PUSH2 0x1113 JUMP JUMPDEST SWAP8 POP PUSH2 0x1177 DUP4 PUSH2 0x112A JUMP JUMPDEST SWAP3 POP POP PUSH1 0x1 DUP2 ADD SWAP1 POP PUSH2 0x1158 JUMP JUMPDEST POP DUP6 SWAP4 POP POP POP POP SWAP3 SWAP2 POP POP JUMP JUMPDEST PUSH2 0x119B DUP2 PUSH2 0xEEE JUMP JUMPDEST DUP3 MSTORE POP POP JUMP JUMPDEST PUSH0 PUSH1 0x80 DUP4 ADD PUSH0 DUP4 ADD MLOAD PUSH2 0x11B6 PUSH0 DUP7 ADD DUP3 PUSH2 0x1084 JUMP JUMPDEST POP PUSH1 0x20 DUP4 ADD MLOAD DUP5 DUP3 SUB PUSH1 0x20 DUP7 ADD MSTORE PUSH2 0x11CE DUP3 DUP3 PUSH2 0x10A3 JUMP JUMPDEST SWAP2 POP POP PUSH1 0x40 DUP4 ADD MLOAD DUP5 DUP3 SUB PUSH1 0x40 DUP7 ADD MSTORE PUSH2 0x11E8 DUP3 DUP3 PUSH2 0x1136 JUMP JUMPDEST SWAP2 POP POP PUSH1 0x60 DUP4 ADD MLOAD PUSH2 0x11FD PUSH1 0x60 DUP7 ADD DUP3 PUSH2 0x1192 JUMP JUMPDEST POP DUP1 SWAP2 POP POP SWAP3 SWAP2 POP POP JUMP JUMPDEST PUSH0 PUSH1 0x20 DUP3 ADD SWAP1 POP DUP2 DUP2 SUB PUSH0 DUP4 ADD MSTORE PUSH2 0x1220 DUP2 DUP5 PUSH2 0x11A1 JUMP JUMPDEST SWAP1 POP SWAP3 SWAP2 POP POP JUMP JUMPDEST PUSH32 0x4E6F7420612076616C6964206F72646572206964000000000000000000000000 PUSH0 DUP3 ADD MSTORE POP JUMP JUMPDEST PUSH0 PUSH2 0x125C PUSH1 0x14 DUP4 PUSH2 0xE2B JUMP JUMPDEST SWAP2 POP PUSH2 0x1267 DUP3 PUSH2 0x1228 JUMP JUMPDEST PUSH1 0x20 DUP3 ADD SWAP1 POP SWAP2 SWAP1 POP JUMP JUMPDEST PUSH0 PUSH1 0x20 DUP3 ADD SWAP1 POP DUP2 DUP2 SUB PUSH0 DUP4 ADD MSTORE PUSH2 0x1289 DUP2 PUSH2 0x1250 JUMP JUMPDEST SWAP1 POP SWAP2 SWAP1 POP JUMP JUMPDEST PUSH32 0x4E487B7100000000000000000000000000000000000000000000000000000000 PUSH0 MSTORE PUSH1 0x32 PUSH1 0x4 MSTORE PUSH1 0x24 PUSH0 REVERT JUMPDEST PUSH32 0x20796F7520617265206E6F7420746865206F776E657200000000000000000000 PUSH0 DUP3 ADD MSTORE POP JUMP JUMPDEST PUSH0 PUSH2 0x12F1 PUSH1 0x16 DUP4 PUSH2 0xE2B JUMP JUMPDEST SWAP2 POP PUSH2 0x12FC DUP3 PUSH2 0x12BD JUMP JUMPDEST PUSH1 0x20 DUP3 ADD SWAP1 POP SWAP2 SWAP1 POP JUMP JUMPDEST PUSH0 PUSH1 0x20 DUP3 ADD SWAP1 POP DUP2 DUP2 SUB PUSH0 DUP4 ADD MSTORE PUSH2 0x131E DUP2 PUSH2 0x12E5 JUMP JUMPDEST SWAP1 POP SWAP2 SWAP1 POP JUMP JUMPDEST PUSH32 0x4E487B7100000000000000000000000000000000000000000000000000000000 PUSH0 MSTORE PUSH1 0x22 PUSH1 0x4 MSTORE PUSH1 0x24 PUSH0 REVERT JUMPDEST PUSH0 PUSH1 0x2 DUP3 DIV SWAP1 POP PUSH1 0x1 DUP3 AND DUP1 PUSH2 0x1369 JUMPI PUSH1 0x7F DUP3 AND SWAP2 POP JUMPDEST PUSH1 0x20 DUP3 LT DUP2 SUB PUSH2 0x137C JUMPI PUSH2 0x137B PUSH2 0x1325 JUMP JUMPDEST JUMPDEST POP SWAP2 SWAP1 POP JUMP JUMPDEST PUSH0 DUP2 SWAP1 POP DUP2 PUSH0 MSTORE PUSH1 0x20 PUSH0 KECCAK256 SWAP1 POP SWAP2 SWAP1 POP JUMP JUMPDEST PUSH0 PUSH1 0x20 PUSH1 0x1F DUP4 ADD DIV SWAP1 POP SWAP2 SWAP1 POP JUMP JUMPDEST PUSH0 DUP3 DUP3 SHL SWAP1 POP SWAP3 SWAP2 POP POP JUMP JUMPDEST PUSH0 PUSH1 0x8 DUP4 MUL PUSH2 0x13DE PUSH32 0xFFFFFFFFFFFFFFFFFFFFFFFFFFFFFFFFFFFFFFFFFFFFFFFFFFFFFFFFFFFFFFFF DUP3 PUSH2 0x13A3 JUMP JUMPDEST PUSH2 0x13E8 DUP7 DUP4 PUSH2 0x13A3 JUMP JUMPDEST SWAP6 POP DUP1 NOT DUP5 AND SWAP4 POP DUP1 DUP7 AND DUP5 OR SWAP3 POP POP POP SWAP4 SWAP3 POP POP POP JUMP JUMPDEST PUSH0 DUP2 SWAP1 POP SWAP2 SWAP1 POP JUMP JUMPDEST PUSH0 PUSH2 0x1423 PUSH2 0x141E PUSH2 0x1419 DUP5 PUSH2 0xB9C JUMP JUMPDEST PUSH2 0x1400 JUMP JUMPDEST PUSH2 0xB9C JUMP JUMPDEST SWAP1 POP SWAP2 SWAP1 POP JUMP JUMPDEST PUSH0 DUP2 SWAP1 POP SWAP2 SWAP1 POP JUMP JUMPDEST PUSH2 0x143C DUP4 PUSH2 0x1409 JUMP JUMPDEST PUSH2 0x1450 PUSH2 0x1448 DUP3 PUSH2 0x142A JUMP JUMPDEST DUP5 DUP5 SLOAD PUSH2 0x13AF JUMP JUMPDEST DUP3 SSTORE POP POP POP POP JUMP JUMPDEST PUSH0 SWAP1 JUMP JUMPDEST PUSH2 0x1464 PUSH2 0x1458 JUMP JUMPDEST PUSH2 0x146F DUP2 DUP5 DUP5 PUSH2 0x1433 JUMP JUMPDEST POP POP POP JUMP JUMPDEST JUMPDEST DUP2 DUP2 LT ISZERO PUSH2 0x1492 JUMPI PUSH2 0x1487 PUSH0 DUP3 PUSH2 0x145C JUMP JUMPDEST PUSH1 0x1 DUP2 ADD SWAP1 POP PUSH2 0x1475 JUMP JUMPDEST POP POP JUMP JUMPDEST PUSH1 0x1F DUP3 GT ISZERO PUSH2 0x14D7 JUMPI PUSH2 0x14A8 DUP2 PUSH2 0x1382 JUMP JUMPDEST PUSH2 0x14B1 DUP5 PUSH2 0x1394 JUMP JUMPDEST DUP2 ADD PUSH1 0x20 DUP6 LT ISZERO PUSH2 0x14C0 JUMPI DUP2 SWAP1 POP JUMPDEST PUSH2 0x14D4 PUSH2 0x14CC DUP6 PUSH2 0x1394 JUMP JUMPDEST DUP4 ADD DUP3 PUSH2 0x1474 JUMP JUMPDEST POP POP JUMPDEST POP POP POP JUMP JUMPDEST PUSH0 DUP3 DUP3 SHR SWAP1 POP SWAP3 SWAP2 POP POP JUMP JUMPDEST PUSH0 PUSH2 0x14F7 PUSH0 NOT DUP5 PUSH1 0x8 MUL PUSH2 0x14DC JUMP JUMPDEST NOT DUP1 DUP4 AND SWAP2 POP POP SWAP3 SWAP2 POP POP JUMP JUMPDEST PUSH0 PUSH2 0x150F DUP4 DUP4 PUSH2 0x14E8 JUMP JUMPDEST SWAP2 POP DUP3 PUSH1 0x2 MUL DUP3 OR SWAP1 POP SWAP3 SWAP2 POP POP JUMP JUMPDEST PUSH2 0x1528 DUP3 PUSH2 0xE21 JUMP JUMPDEST PUSH8 0xFFFFFFFFFFFFFFFF DUP2 GT ISZERO PUSH2 0x1541 JUMPI PUSH2 0x1540 PUSH2 0xC20 JUMP JUMPDEST JUMPDEST PUSH2 0x154B DUP3 SLOAD PUSH2 0x1352 JUMP JUMPDEST PUSH2 0x1556 DUP3 DUP3 DUP6 PUSH2 0x1496 JUMP JUMPDEST PUSH0 PUSH1 0x20 SWAP1 POP PUSH1 0x1F DUP4 GT PUSH1 0x1 DUP2 EQ PUSH2 0x1587 JUMPI PUSH0 DUP5 ISZERO PUSH2 0x1575 JUMPI DUP3 DUP8 ADD MLOAD SWAP1 POP JUMPDEST PUSH2 0x157F DUP6 DUP3 PUSH2 0x1504 JUMP JUMPDEST DUP7 SSTORE POP PUSH2 0x15E6 JUMP JUMPDEST PUSH1 0x1F NOT DUP5 AND PUSH2 0x1595 DUP7 PUSH2 0x1382 JUMP JUMPDEST PUSH0 JUMPDEST DUP3 DUP2 LT ISZERO PUSH2 0x15BC JUMPI DUP5 DUP10 ADD MLOAD DUP3 SSTORE PUSH1 0x1 DUP3 ADD SWAP2 POP PUSH1 0x20 DUP6 ADD SWAP5 POP PUSH1 0x20 DUP2 ADD SWAP1 POP PUSH2 0x1597 JUMP JUMPDEST DUP7 DUP4 LT ISZERO PUSH2 0x15D9 JUMPI DUP5 DUP10 ADD MLOAD PUSH2 0x15D5 PUSH1 0x1F DUP10 AND DUP3 PUSH2 0x14E8 JUMP JUMPDEST DUP4 SSTORE POP JUMPDEST PUSH1 0x1 PUSH1 0x2 DUP9 MUL ADD DUP9 SSTORE POP POP POP JUMPDEST POP POP POP POP POP POP JUMP JUMPDEST PUSH0 PUSH1 0x40 DUP3 ADD SWAP1 POP PUSH2 0x1601 PUSH0 DUP4 ADD DUP6 PUSH2 0xBA5 JUMP JUMPDEST DUP2 DUP2 SUB PUSH1 0x20 DUP4 ADD MSTORE PUSH2 0x1613 DUP2 DUP5 PUSH2 0xE63 JUMP JUMPDEST SWAP1 POP SWAP4 SWAP3 POP POP POP JUMP JUMPDEST PUSH32 0x4E487B7100000000000000000000000000000000000000000000000000000000 PUSH0 MSTORE PUSH1 0x11 PUSH1 0x4 MSTORE PUSH1 0x24 PUSH0 REVERT JUMPDEST PUSH0 PUSH2 0x1653 DUP3 PUSH2 0xB9C JUMP JUMPDEST SWAP2 POP PUSH32 0xFFFFFFFFFFFFFFFFFFFFFFFFFFFFFFFFFFFFFFFFFFFFFFFFFFFFFFFFFFFFFFFF DUP3 SUB PUSH2 0x1685 JUMPI PUSH2 0x1684 PUSH2 0x161C JUMP JUMPDEST JUMPDEST PUSH1 0x1 DUP3 ADD SWAP1 POP SWAP2 SWAP1 POP JUMP JUMPDEST PUSH32 0x4E6F2070726F6475637473000000000000000000000000000000000000000000 PUSH0 DUP3 ADD MSTORE POP JUMP JUMPDEST PUSH0 PUSH2 0x16C4 PUSH1 0xB DUP4 PUSH2 0xE2B JUMP JUMPDEST SWAP2 POP PUSH2 0x16CF DUP3 PUSH2 0x1690 JUMP JUMPDEST PUSH1 0x20 DUP3 ADD SWAP1 POP SWAP2 SWAP1 POP JUMP JUMPDEST PUSH0 PUSH1 0x20 DUP3 ADD SWAP1 POP DUP2 DUP2 SUB PUSH0 DUP4 ADD MSTORE PUSH2 0x16F1 DUP2 PUSH2 0x16B8 JUMP JUMPDEST SWAP1 POP SWAP2 SWAP1 POP JUMP JUMPDEST PUSH0 PUSH2 0x1702 DUP3 PUSH2 0xB9C JUMP JUMPDEST SWAP2 POP PUSH2 0x170D DUP4 PUSH2 0xB9C JUMP JUMPDEST SWAP3 POP DUP3 DUP3 SUB SWAP1 POP DUP2 DUP2 GT ISZERO PUSH2 0x1725 JUMPI PUSH2 0x1724 PUSH2 0x161C JUMP JUMPDEST JUMPDEST SWAP3 SWAP2 POP POP JUMP JUMPDEST PUSH32 0x20796F7520617265206E6F7420617574686F72697A6564000000000000000000 PUSH0 DUP3 ADD MSTORE POP JUMP JUMPDEST PUSH0 PUSH2 0x175F PUSH1 0x17 DUP4 PUSH2 0xE2B JUMP JUMPDEST SWAP2 POP PUSH2 0x176A DUP3 PUSH2 0x172B JUMP JUMPDEST PUSH1 0x20 DUP3 ADD SWAP1 POP SWAP2 SWAP1 POP JUMP JUMPDEST PUSH0 PUSH1 0x20 DUP3 ADD SWAP1 POP DUP2 DUP2 SUB PUSH0 DUP4 ADD MSTORE PUSH2 0x178C DUP2 PUSH2 0x1753 JUMP JUMPDEST SWAP1 POP SWAP2 SWAP1 POP JUMP JUMPDEST PUSH32 0x4F7264657220697320616C726561647920736869707065640000000000000000 PUSH0 DUP3 ADD MSTORE POP JUMP JUMPDEST PUSH0 PUSH2 0x17C7 PUSH1 0x18 DUP4 PUSH2 0xE2B JUMP JUMPDEST SWAP2 POP PUSH2 0x17D2 DUP3 PUSH2 0x1793 JUMP JUMPDEST PUSH1 0x20 DUP3 ADD SWAP1 POP SWAP2 SWAP1 POP JUMP JUMPDEST PUSH0 PUSH1 0x20 DUP3 ADD SWAP1 POP DUP2 DUP2 SUB PUSH0 DUP4 ADD MSTORE PUSH2 0x17F4 DUP2 PUSH2 0x17BB JUMP JUMPDEST SWAP1 POP SWAP2 SWAP1 POP JUMP INVALID LOG2 PUSH5 0x6970667358 0x22 SLT KECCAK256 MLOAD SWAP13 0xCC 0xCC PUSH3 0x402BA0 0xBF 0xAC DUP6 0xF8 0xC5 RETURNDATACOPY PUSH4 0xF46B85D EXTCODEHASH CALLVALUE PUSH12 0x407B7B7ECBFE0A222EF26473 PUSH16 0x6C634300081600330000000000000000 "
				},
				"gasEstimates": {
					"creation": {
						"codeDepositCost": "1238600",
						"executionCost": "25551",
						"totalCost": "1264151"
					},
					"external": {
						"advencerOrder(uint256)": "40129",
						"creatOrder(string,uint256[])": "infinite",
						"getOrder(uint256)": "infinite",
						"orders(uint256)": "infinite",
						"owner()": "2553",
						"txCount()": "2426",
						"updateZip(uint256,string)": "infinite"
					}
				},
				"methodIdentifiers": {
					"advencerOrder(uint256)": "f68d22d6",
					"creatOrder(string,uint256[])": "b147135d",
					"getOrder(uint256)": "d09ef241",
					"orders(uint256)": "a85c38ef",
					"owner()": "8da5cb5b",
					"txCount()": "3c540687",
					"updateZip(uint256,string)": "577dc0a0"
				}
			},
			"storageLayout": {
				"storage": [
					{
						"astId": 21,
						"contract": "contracts/StructEnum.sol:StructEnum",
						"label": "orders",
						"offset": 0,
						"slot": "0",
						"type": "t_array(t_struct(Order)17_storage)dyn_storage"
					},
					{
						"astId": 23,
						"contract": "contracts/StructEnum.sol:StructEnum",
						"label": "owner",
						"offset": 0,
						"slot": "1",
						"type": "t_address"
					},
					{
						"astId": 25,
						"contract": "contracts/StructEnum.sol:StructEnum",
						"label": "txCount",
						"offset": 0,
						"slot": "2",
						"type": "t_uint256"
					}
				],
				"types": {
					"t_address": {
						"encoding": "inplace",
						"label": "address",
						"numberOfBytes": "20"
					},
					"t_array(t_struct(Order)17_storage)dyn_storage": {
						"base": "t_struct(Order)17_storage",
						"encoding": "dynamic_array",
						"label": "struct StructEnum.Order[]",
						"numberOfBytes": "32"
					},
					"t_array(t_uint256)dyn_storage": {
						"base": "t_uint256",
						"encoding": "dynamic_array",
						"label": "uint256[]",
						"numberOfBytes": "32"
					},
					"t_enum(Status)6": {
						"encoding": "inplace",
						"label": "enum StructEnum.Status",
						"numberOfBytes": "1"
					},
					"t_string_storage": {
						"encoding": "bytes",
						"label": "string",
						"numberOfBytes": "32"
					},
					"t_struct(Order)17_storage": {
						"encoding": "inplace",
						"label": "struct StructEnum.Order",
						"members": [
							{
								"astId": 8,
								"contract": "contracts/StructEnum.sol:StructEnum",
								"label": "customer",
								"offset": 0,
								"slot": "0",
								"type": "t_address"
							},
							{
								"astId": 10,
								"contract": "contracts/StructEnum.sol:StructEnum",
								"label": "zipCode",
								"offset": 0,
								"slot": "1",
								"type": "t_string_storage"
							},
							{
								"astId": 13,
								"contract": "contracts/StructEnum.sol:StructEnum",
								"label": "product",
								"offset": 0,
								"slot": "2",
								"type": "t_array(t_uint256)dyn_storage"
							},
							{
								"astId": 16,
								"contract": "contracts/StructEnum.sol:StructEnum",
								"label": "status",
								"offset": 0,
								"slot": "3",
								"type": "t_enum(Status)6"
							}
						],
						"numberOfBytes": "128"
					},
					"t_uint256": {
						"encoding": "inplace",
						"label": "uint256",
						"numberOfBytes": "32"
					}
				}
			},
			"userdoc": {
				"kind": "user",
				"methods": {},
				"version": 1
			}
		}
	}
}