{
	"data": {
		"bytecode": {
			"linkReferences": {},
			"object": "608060405234801561000f575f80fd5b506040516200076338038062000763833981810160405281019061003391906101cc565b806040516020016100449190610265565b604051602081830303815290604052805190602001205f8190555050610285565b5f604051905090565b5f80fd5b5f80fd5b5f80fd5b5f80fd5b5f601f19601f8301169050919050565b7f4e487b71000000000000000000000000000000000000000000000000000000005f52604160045260245ffd5b6100c48261007e565b810181811067ffffffffffffffff821117156100e3576100e261008e565b5b80604052505050565b5f6100f5610065565b905061010182826100bb565b919050565b5f67ffffffffffffffff8211156101205761011f61008e565b5b6101298261007e565b9050602081019050919050565b5f5b83811015610153578082015181840152602081019050610138565b5f8484015250505050565b5f61017061016b84610106565b6100ec565b90508281526020810184848401111561018c5761018b61007a565b5b610197848285610136565b509392505050565b5f82601f8301126101b3576101b2610076565b5b81516101c384826020860161015e565b91505092915050565b5f602082840312156101e1576101e061006e565b5b5f82015167ffffffffffffffff8111156101fe576101fd610072565b5b61020a8482850161019f565b91505092915050565b5f81519050919050565b5f82825260208201905092915050565b5f61023782610213565b610241818561021d565b9350610251818560208601610136565b61025a8161007e565b840191505092915050565b5f6020820190508181035f83015261027d818461022d565b905092915050565b6104d080620002935f395ff3fe608060405234801561000f575f80fd5b506004361061003f575f3560e01c80632f41fc65146100435780633a7d280c146100615780636ad30cd814610091575b5f80fd5b61004b6100c1565b60405161005891906101c0565b60405180910390f35b61007b60048036038101906100769190610326565b61010e565b6040516100889190610387565b60405180910390f35b6100ab60048036038101906100a69190610326565b610167565b6040516100b891906101c0565b60405180910390f35b5f80600154036100d3575f905061010b565b5f6001541180156100e657506001805414155b156100f4576001905061010b565b6001805403610106576002905061010b565b600390505b90565b5f81604051602001610120919061041a565b604051602081830303815290604052805190602001205f540361015e576001805f82825461014e9190610467565b9250508190555060019050610162565b5f90505b919050565b5f81604051602001610179919061041a565b604051602081830303815290604052805190602001205f540361019f57600190506101a3565b5f90505b919050565b5f819050919050565b6101ba816101a8565b82525050565b5f6020820190506101d35f8301846101b1565b92915050565b5f604051905090565b5f80fd5b5f80fd5b5f80fd5b5f80fd5b5f601f19601f8301169050919050565b7f4e487b71000000000000000000000000000000000000000000000000000000005f52604160045260245ffd5b610238826101f2565b810181811067ffffffffffffffff8211171561025757610256610202565b5b80604052505050565b5f6102696101d9565b9050610275828261022f565b919050565b5f67ffffffffffffffff82111561029457610293610202565b5b61029d826101f2565b9050602081019050919050565b828183375f83830152505050565b5f6102ca6102c58461027a565b610260565b9050828152602081018484840111156102e6576102e56101ee565b5b6102f18482856102aa565b509392505050565b5f82601f83011261030d5761030c6101ea565b5b813561031d8482602086016102b8565b91505092915050565b5f6020828403121561033b5761033a6101e2565b5b5f82013567ffffffffffffffff811115610358576103576101e6565b5b610364848285016102f9565b91505092915050565b5f8115159050919050565b6103818161036d565b82525050565b5f60208201905061039a5f830184610378565b92915050565b5f81519050919050565b5f82825260208201905092915050565b5f5b838110156103d75780820151818401526020810190506103bc565b5f8484015250505050565b5f6103ec826103a0565b6103f681856103aa565b93506104068185602086016103ba565b61040f816101f2565b840191505092915050565b5f6020820190508181035f83015261043281846103e2565b905092915050565b7f4e487b71000000000000000000000000000000000000000000000000000000005f52601160045260245ffd5b5f610471826101a8565b915061047c836101a8565b92508282019050808211156104945761049361043a565b5b9291505056fea264697066735822122079060e07ec7cd3222b16360665f86f8dbc943e50f21b2e37a63434ef22d15fee64736f6c63430008160033",
			"opcodes": "PUSH1 0x80 PUSH1 0x40 MSTORE CALLVALUE DUP1 ISZERO PUSH2 0xF JUMPI PUSH0 DUP1 REVERT JUMPDEST POP PUSH1 0x40 MLOAD PUSH3 0x763 CODESIZE SUB DUP1 PUSH3 0x763 DUP4 CODECOPY DUP2 DUP2 ADD PUSH1 0x40 MSTORE DUP2 ADD SWAP1 PUSH2 0x33 SWAP2 SWAP1 PUSH2 0x1CC JUMP JUMPDEST DUP1 PUSH1 0x40 MLOAD PUSH1 0x20 ADD PUSH2 0x44 SWAP2 SWAP1 PUSH2 0x265 JUMP JUMPDEST PUSH1 0x40 MLOAD PUSH1 0x20 DUP2 DUP4 SUB SUB DUP2 MSTORE SWAP1 PUSH1 0x40 MSTORE DUP1 MLOAD SWAP1 PUSH1 0x20 ADD KECCAK256 PUSH0 DUP2 SWAP1 SSTORE POP POP PUSH2 0x285 JUMP JUMPDEST PUSH0 PUSH1 0x40 MLOAD SWAP1 POP SWAP1 JUMP JUMPDEST PUSH0 DUP1 REVERT JUMPDEST PUSH0 DUP1 REVERT JUMPDEST PUSH0 DUP1 REVERT JUMPDEST PUSH0 DUP1 REVERT JUMPDEST PUSH0 PUSH1 0x1F NOT PUSH1 0x1F DUP4 ADD AND SWAP1 POP SWAP2 SWAP1 POP JUMP JUMPDEST PUSH32 0x4E487B7100000000000000000000000000000000000000000000000000000000 PUSH0 MSTORE PUSH1 0x41 PUSH1 0x4 MSTORE PUSH1 0x24 PUSH0 REVERT JUMPDEST PUSH2 0xC4 DUP3 PUSH2 0x7E JUMP JUMPDEST DUP2 ADD DUP2 DUP2 LT PUSH8 0xFFFFFFFFFFFFFFFF DUP3 GT OR ISZERO PUSH2 0xE3 JUMPI PUSH2 0xE2 PUSH2 0x8E JUMP JUMPDEST JUMPDEST DUP1 PUSH1 0x40 MSTORE POP POP POP JUMP JUMPDEST PUSH0 PUSH2 0xF5 PUSH2 0x65 JUMP JUMPDEST SWAP1 POP PUSH2 0x101 DUP3 DUP3 PUSH2 0xBB JUMP JUMPDEST SWAP2 SWAP1 POP JUMP JUMPDEST PUSH0 PUSH8 0xFFFFFFFFFFFFFFFF DUP3 GT ISZERO PUSH2 0x120 JUMPI PUSH2 0x11F PUSH2 0x8E JUMP JUMPDEST JUMPDEST PUSH2 0x129 DUP3 PUSH2 0x7E JUMP JUMPDEST SWAP1 POP PUSH1 0x20 DUP2 ADD SWAP1 POP SWAP2 SWAP1 POP JUMP JUMPDEST PUSH0 JUMPDEST DUP4 DUP2 LT ISZERO PUSH2 0x153 JUMPI DUP1 DUP3 ADD MLOAD DUP2 DUP5 ADD MSTORE PUSH1 0x20 DUP2 ADD SWAP1 POP PUSH2 0x138 JUMP JUMPDEST PUSH0 DUP5 DUP5 ADD MSTORE POP POP POP POP JUMP JUMPDEST PUSH0 PUSH2 0x170 PUSH2 0x16B DUP5 PUSH2 0x106 JUMP JUMPDEST PUSH2 0xEC JUMP JUMPDEST SWAP1 POP DUP3 DUP2 MSTORE PUSH1 0x20 DUP2 ADD DUP5 DUP5 DUP5 ADD GT ISZERO PUSH2 0x18C JUMPI PUSH2 0x18B PUSH2 0x7A JUMP JUMPDEST JUMPDEST PUSH2 0x197 DUP5 DUP3 DUP6 PUSH2 0x136 JUMP JUMPDEST POP SWAP4 SWAP3 POP POP POP JUMP JUMPDEST PUSH0 DUP3 PUSH1 0x1F DUP4 ADD SLT PUSH2 0x1B3 JUMPI PUSH2 0x1B2 PUSH2 0x76 JUMP JUMPDEST JUMPDEST DUP2 MLOAD PUSH2 0x1C3 DUP5 DUP3 PUSH1 0x20 DUP7 ADD PUSH2 0x15E JUMP JUMPDEST SWAP2 POP POP SWAP3 SWAP2 POP POP JUMP JUMPDEST PUSH0 PUSH1 0x20 DUP3 DUP5 SUB SLT ISZERO PUSH2 0x1E1 JUMPI PUSH2 0x1E0 PUSH2 0x6E JUMP JUMPDEST JUMPDEST PUSH0 DUP3 ADD MLOAD PUSH8 0xFFFFFFFFFFFFFFFF DUP2 GT ISZERO PUSH2 0x1FE JUMPI PUSH2 0x1FD PUSH2 0x72 JUMP JUMPDEST JUMPDEST PUSH2 0x20A DUP5 DUP3 DUP6 ADD PUSH2 0x19F JUMP JUMPDEST SWAP2 POP POP SWAP3 SWAP2 POP POP JUMP JUMPDEST PUSH0 DUP2 MLOAD SWAP1 POP SWAP2 SWAP1 POP JUMP JUMPDEST PUSH0 DUP3 DUP3 MSTORE PUSH1 0x20 DUP3 ADD SWAP1 POP SWAP3 SWAP2 POP POP JUMP JUMPDEST PUSH0 PUSH2 0x237 DUP3 PUSH2 0x213 JUMP JUMPDEST PUSH2 0x241 DUP2 DUP6 PUSH2 0x21D JUMP JUMPDEST SWAP4 POP PUSH2 0x251 DUP2 DUP6 PUSH1 0x20 DUP7 ADD PUSH2 0x136 JUMP JUMPDEST PUSH2 0x25A DUP2 PUSH2 0x7E JUMP JUMPDEST DUP5 ADD SWAP2 POP POP SWAP3 SWAP2 POP POP JUMP JUMPDEST PUSH0 PUSH1 0x20 DUP3 ADD SWAP1 POP DUP2 DUP2 SUB PUSH0 DUP4 ADD MSTORE PUSH2 0x27D DUP2 DUP5 PUSH2 0x22D JUMP JUMPDEST SWAP1 POP SWAP3 SWAP2 POP POP JUMP JUMPDEST PUSH2 0x4D0 DUP1 PUSH3 0x293 PUSH0 CODECOPY PUSH0 RETURN INVALID PUSH1 0x80 PUSH1 0x40 MSTORE CALLVALUE DUP1 ISZERO PUSH2 0xF JUMPI PUSH0 DUP1 REVERT JUMPDEST POP PUSH1 0x4 CALLDATASIZE LT PUSH2 0x3F JUMPI PUSH0 CALLDATALOAD PUSH1 0xE0 SHR DUP1 PUSH4 0x2F41FC65 EQ PUSH2 0x43 JUMPI DUP1 PUSH4 0x3A7D280C EQ PUSH2 0x61 JUMPI DUP1 PUSH4 0x6AD30CD8 EQ PUSH2 0x91 JUMPI JUMPDEST PUSH0 DUP1 REVERT JUMPDEST PUSH2 0x4B PUSH2 0xC1 JUMP JUMPDEST PUSH1 0x40 MLOAD PUSH2 0x58 SWAP2 SWAP1 PUSH2 0x1C0 JUMP JUMPDEST PUSH1 0x40 MLOAD DUP1 SWAP2 SUB SWAP1 RETURN JUMPDEST PUSH2 0x7B PUSH1 0x4 DUP1 CALLDATASIZE SUB DUP2 ADD SWAP1 PUSH2 0x76 SWAP2 SWAP1 PUSH2 0x326 JUMP JUMPDEST PUSH2 0x10E JUMP JUMPDEST PUSH1 0x40 MLOAD PUSH2 0x88 SWAP2 SWAP1 PUSH2 0x387 JUMP JUMPDEST PUSH1 0x40 MLOAD DUP1 SWAP2 SUB SWAP1 RETURN JUMPDEST PUSH2 0xAB PUSH1 0x4 DUP1 CALLDATASIZE SUB DUP2 ADD SWAP1 PUSH2 0xA6 SWAP2 SWAP1 PUSH2 0x326 JUMP JUMPDEST PUSH2 0x167 JUMP JUMPDEST PUSH1 0x40 MLOAD PUSH2 0xB8 SWAP2 SWAP1 PUSH2 0x1C0 JUMP JUMPDEST PUSH1 0x40 MLOAD DUP1 SWAP2 SUB SWAP1 RETURN JUMPDEST PUSH0 DUP1 PUSH1 0x1 SLOAD SUB PUSH2 0xD3 JUMPI PUSH0 SWAP1 POP PUSH2 0x10B JUMP JUMPDEST PUSH0 PUSH1 0x1 SLOAD GT DUP1 ISZERO PUSH2 0xE6 JUMPI POP PUSH1 0x1 DUP1 SLOAD EQ ISZERO JUMPDEST ISZERO PUSH2 0xF4 JUMPI PUSH1 0x1 SWAP1 POP PUSH2 0x10B JUMP JUMPDEST PUSH1 0x1 DUP1 SLOAD SUB PUSH2 0x106 JUMPI PUSH1 0x2 SWAP1 POP PUSH2 0x10B JUMP JUMPDEST PUSH1 0x3 SWAP1 POP JUMPDEST SWAP1 JUMP JUMPDEST PUSH0 DUP2 PUSH1 0x40 MLOAD PUSH1 0x20 ADD PUSH2 0x120 SWAP2 SWAP1 PUSH2 0x41A JUMP JUMPDEST PUSH1 0x40 MLOAD PUSH1 0x20 DUP2 DUP4 SUB SUB DUP2 MSTORE SWAP1 PUSH1 0x40 MSTORE DUP1 MLOAD SWAP1 PUSH1 0x20 ADD KECCAK256 PUSH0 SLOAD SUB PUSH2 0x15E JUMPI PUSH1 0x1 DUP1 PUSH0 DUP3 DUP3 SLOAD PUSH2 0x14E SWAP2 SWAP1 PUSH2 0x467 JUMP JUMPDEST SWAP3 POP POP DUP2 SWAP1 SSTORE POP PUSH1 0x1 SWAP1 POP PUSH2 0x162 JUMP JUMPDEST PUSH0 SWAP1 POP JUMPDEST SWAP2 SWAP1 POP JUMP JUMPDEST PUSH0 DUP2 PUSH1 0x40 MLOAD PUSH1 0x20 ADD PUSH2 0x179 SWAP2 SWAP1 PUSH2 0x41A JUMP JUMPDEST PUSH1 0x40 MLOAD PUSH1 0x20 DUP2 DUP4 SUB SUB DUP2 MSTORE SWAP1 PUSH1 0x40 MSTORE DUP1 MLOAD SWAP1 PUSH1 0x20 ADD KECCAK256 PUSH0 SLOAD SUB PUSH2 0x19F JUMPI PUSH1 0x1 SWAP1 POP PUSH2 0x1A3 JUMP JUMPDEST PUSH0 SWAP1 POP JUMPDEST SWAP2 SWAP1 POP JUMP JUMPDEST PUSH0 DUP2 SWAP1 POP SWAP2 SWAP1 POP JUMP JUMPDEST PUSH2 0x1BA DUP2 PUSH2 0x1A8 JUMP JUMPDEST DUP3 MSTORE POP POP JUMP JUMPDEST PUSH0 PUSH1 0x20 DUP3 ADD SWAP1 POP PUSH2 0x1D3 PUSH0 DUP4 ADD DUP5 PUSH2 0x1B1 JUMP JUMPDEST SWAP3 SWAP2 POP POP JUMP JUMPDEST PUSH0 PUSH1 0x40 MLOAD SWAP1 POP SWAP1 JUMP JUMPDEST PUSH0 DUP1 REVERT JUMPDEST PUSH0 DUP1 REVERT JUMPDEST PUSH0 DUP1 REVERT JUMPDEST PUSH0 DUP1 REVERT JUMPDEST PUSH0 PUSH1 0x1F NOT PUSH1 0x1F DUP4 ADD AND SWAP1 POP SWAP2 SWAP1 POP JUMP JUMPDEST PUSH32 0x4E487B7100000000000000000000000000000000000000000000000000000000 PUSH0 MSTORE PUSH1 0x41 PUSH1 0x4 MSTORE PUSH1 0x24 PUSH0 REVERT JUMPDEST PUSH2 0x238 DUP3 PUSH2 0x1F2 JUMP JUMPDEST DUP2 ADD DUP2 DUP2 LT PUSH8 0xFFFFFFFFFFFFFFFF DUP3 GT OR ISZERO PUSH2 0x257 JUMPI PUSH2 0x256 PUSH2 0x202 JUMP JUMPDEST JUMPDEST DUP1 PUSH1 0x40 MSTORE POP POP POP JUMP JUMPDEST PUSH0 PUSH2 0x269 PUSH2 0x1D9 JUMP JUMPDEST SWAP1 POP PUSH2 0x275 DUP3 DUP3 PUSH2 0x22F JUMP JUMPDEST SWAP2 SWAP1 POP JUMP JUMPDEST PUSH0 PUSH8 0xFFFFFFFFFFFFFFFF DUP3 GT ISZERO PUSH2 0x294 JUMPI PUSH2 0x293 PUSH2 0x202 JUMP JUMPDEST JUMPDEST PUSH2 0x29D DUP3 PUSH2 0x1F2 JUMP JUMPDEST SWAP1 POP PUSH1 0x20 DUP2 ADD SWAP1 POP SWAP2 SWAP1 POP JUMP JUMPDEST DUP3 DUP2 DUP4 CALLDATACOPY PUSH0 DUP4 DUP4 ADD MSTORE POP POP POP JUMP JUMPDEST PUSH0 PUSH2 0x2CA PUSH2 0x2C5 DUP5 PUSH2 0x27A JUMP JUMPDEST PUSH2 0x260 JUMP JUMPDEST SWAP1 POP DUP3 DUP2 MSTORE PUSH1 0x20 DUP2 ADD DUP5 DUP5 DUP5 ADD GT ISZERO PUSH2 0x2E6 JUMPI PUSH2 0x2E5 PUSH2 0x1EE JUMP JUMPDEST JUMPDEST PUSH2 0x2F1 DUP5 DUP3 DUP6 PUSH2 0x2AA JUMP JUMPDEST POP SWAP4 SWAP3 POP POP POP JUMP JUMPDEST PUSH0 DUP3 PUSH1 0x1F DUP4 ADD SLT PUSH2 0x30D JUMPI PUSH2 0x30C PUSH2 0x1EA JUMP JUMPDEST JUMPDEST DUP2 CALLDATALOAD PUSH2 0x31D DUP5 DUP3 PUSH1 0x20 DUP7 ADD PUSH2 0x2B8 JUMP JUMPDEST SWAP2 POP POP SWAP3 SWAP2 POP POP JUMP JUMPDEST PUSH0 PUSH1 0x20 DUP3 DUP5 SUB SLT ISZERO PUSH2 0x33B JUMPI PUSH2 0x33A PUSH2 0x1E2 JUMP JUMPDEST JUMPDEST PUSH0 DUP3 ADD CALLDATALOAD PUSH8 0xFFFFFFFFFFFFFFFF DUP2 GT ISZERO PUSH2 0x358 JUMPI PUSH2 0x357 PUSH2 0x1E6 JUMP JUMPDEST JUMPDEST PUSH2 0x364 DUP5 DUP3 DUP6 ADD PUSH2 0x2F9 JUMP JUMPDEST SWAP2 POP POP SWAP3 SWAP2 POP POP JUMP JUMPDEST PUSH0 DUP2 ISZERO ISZERO SWAP1 POP SWAP2 SWAP1 POP JUMP JUMPDEST PUSH2 0x381 DUP2 PUSH2 0x36D JUMP JUMPDEST DUP3 MSTORE POP POP JUMP JUMPDEST PUSH0 PUSH1 0x20 DUP3 ADD SWAP1 POP PUSH2 0x39A PUSH0 DUP4 ADD DUP5 PUSH2 0x378 JUMP JUMPDEST SWAP3 SWAP2 POP POP JUMP JUMPDEST PUSH0 DUP2 MLOAD SWAP1 POP SWAP2 SWAP1 POP JUMP JUMPDEST PUSH0 DUP3 DUP3 MSTORE PUSH1 0x20 DUP3 ADD SWAP1 POP SWAP3 SWAP2 POP POP JUMP JUMPDEST PUSH0 JUMPDEST DUP4 DUP2 LT ISZERO PUSH2 0x3D7 JUMPI DUP1 DUP3 ADD MLOAD DUP2 DUP5 ADD MSTORE PUSH1 0x20 DUP2 ADD SWAP1 POP PUSH2 0x3BC JUMP JUMPDEST PUSH0 DUP5 DUP5 ADD MSTORE POP POP POP POP JUMP JUMPDEST PUSH0 PUSH2 0x3EC DUP3 PUSH2 0x3A0 JUMP JUMPDEST PUSH2 0x3F6 DUP2 DUP6 PUSH2 0x3AA JUMP JUMPDEST SWAP4 POP PUSH2 0x406 DUP2 DUP6 PUSH1 0x20 DUP7 ADD PUSH2 0x3BA JUMP JUMPDEST PUSH2 0x40F DUP2 PUSH2 0x1F2 JUMP JUMPDEST DUP5 ADD SWAP2 POP POP SWAP3 SWAP2 POP POP JUMP JUMPDEST PUSH0 PUSH1 0x20 DUP3 ADD SWAP1 POP DUP2 DUP2 SUB PUSH0 DUP4 ADD MSTORE PUSH2 0x432 DUP2 DUP5 PUSH2 0x3E2 JUMP JUMPDEST SWAP1 POP SWAP3 SWAP2 POP POP JUMP JUMPDEST PUSH32 0x4E487B7100000000000000000000000000000000000000000000000000000000 PUSH0 MSTORE PUSH1 0x11 PUSH1 0x4 MSTORE PUSH1 0x24 PUSH0 REVERT JUMPDEST PUSH0 PUSH2 0x471 DUP3 PUSH2 0x1A8 JUMP JUMPDEST SWAP2 POP PUSH2 0x47C DUP4 PUSH2 0x1A8 JUMP JUMPDEST SWAP3 POP DUP3 DUP3 ADD SWAP1 POP DUP1 DUP3 GT ISZERO PUSH2 0x494 JUMPI PUSH2 0x493 PUSH2 0x43A JUMP JUMPDEST JUMPDEST SWAP3 SWAP2 POP POP JUMP INVALID LOG2 PUSH5 0x6970667358 0x22 SLT KECCAK256 PUSH26 0x60E07EC7CD3222B16360665F86F8DBC943E50F21B2E37A63434 0xEF 0x22 0xD1 PUSH0 0xEE PUSH5 0x736F6C6343 STOP ADDMOD AND STOP CALLER "
		},
		"gasEstimates": {
			"creation": {
				"codeDepositCost": "246400",
				"executionCost": "infinite",
				"totalCost": "infinite"
			},
			"external": {
				"login(string)": "infinite",
				"login2(string)": "infinite",
				"loginStatus()": "8826"
			}
		},
		"methodIdentifiers": {
			"login(string)": "3a7d280c",
			"login2(string)": "6ad30cd8",
			"loginStatus()": "2f41fc65"
		}
	},
	"abi": [
		{
			"inputs": [
				{
					"internalType": "string",
					"name": "_password",
					"type": "string"
				}
			],
			"stateMutability": "nonpayable",
			"type": "constructor"
		},
		{
			"inputs": [
				{
					"internalType": "string",
					"name": "_password",
					"type": "string"
				}
			],
			"name": "login",
			"outputs": [
				{
					"internalType": "bool",
					"name": "",
					"type": "bool"
				}
			],
			"stateMutability": "nonpayable",
			"type": "function"
		},
		{
			"inputs": [
				{
					"internalType": "string",
					"name": "_password",
					"type": "string"
				}
			],
			"name": "login2",
			"outputs": [
				{
					"internalType": "uint256",
					"name": "",
					"type": "uint256"
				}
			],
			"stateMutability": "view",
			"type": "function"
		},
		{
			"inputs": [],
			"name": "loginStatus",
			"outputs": [
				{
					"internalType": "uint256",
					"name": "",
					"type": "uint256"
				}
			],
			"stateMutability": "view",
			"type": "function"
		}
	]
}