{
	"contracts/interface.sol": {
		"AddresStrategy1": {
			"abi": [
				{
					"inputs": [],
					"name": "getAddressAndAmount",
					"outputs": [
						{
							"internalType": "address payable",
							"name": "",
							"type": "address"
						},
						{
							"internalType": "uint256",
							"name": "",
							"type": "uint256"
						}
					],
					"stateMutability": "pure",
					"type": "function"
				}
			],
			"devdoc": {
				"kind": "dev",
				"methods": {},
				"version": 1
			},
			"evm": {
				"assembly": "    /* \"contracts/interface.sol\":674:927  contract AddresStrategy1{... */\n  mstore(0x40, 0x80)\n  callvalue\n  dup1\n  iszero\n  tag_1\n  jumpi\n  0x00\n  dup1\n  revert\ntag_1:\n  pop\n  dataSize(sub_0)\n  dup1\n  dataOffset(sub_0)\n  0x00\n  codecopy\n  0x00\n  return\nstop\n\nsub_0: assembly {\n        /* \"contracts/interface.sol\":674:927  contract AddresStrategy1{... */\n      mstore(0x40, 0x80)\n      callvalue\n      dup1\n      iszero\n      tag_1\n      jumpi\n      0x00\n      dup1\n      revert\n    tag_1:\n      pop\n      jumpi(tag_2, lt(calldatasize, 0x04))\n      shr(0xe0, calldataload(0x00))\n      dup1\n      0xd24903d9\n      eq\n      tag_3\n      jumpi\n    tag_2:\n      0x00\n      dup1\n      revert\n        /* \"contracts/interface.sol\":753:924  function getAddressAndAmount() external pure returns(address payable , uint256){... */\n    tag_3:\n      tag_4\n      tag_5\n      jump\t// in\n    tag_4:\n      mload(0x40)\n      tag_6\n      swap3\n      swap2\n      swap1\n      tag_7\n      jump\t// in\n    tag_6:\n      mload(0x40)\n      dup1\n      swap2\n      sub\n      swap1\n      return\n    tag_5:\n        /* \"contracts/interface.sol\":806:821  address payable */\n      0x00\n        /* \"contracts/interface.sol\":824:831  uint256 */\n      dup1\n        /* \"contracts/interface.sol\":859:901  0xAb8483F64d9C6d1EcF9b849Ae677dD3315835cb2 */\n      0xab8483f64d9c6d1ecf9b849ae677dd3315835cb2\n        /* \"contracts/interface.sol\":737:746  0.1 ether */\n      0x016345785d8a0000\n        /* \"contracts/interface.sol\":843:916  return(payable (0xAb8483F64d9C6d1EcF9b849Ae677dD3315835cb2),ETHER_AMOUNT) */\n      swap2\n      pop\n      swap2\n      pop\n        /* \"contracts/interface.sol\":753:924  function getAddressAndAmount() external pure returns(address payable , uint256){... */\n      swap1\n      swap2\n      jump\t// out\n        /* \"#utility.yul\":7:133   */\n    tag_9:\n        /* \"#utility.yul\":44:51   */\n      0x00\n        /* \"#utility.yul\":84:126   */\n      0xffffffffffffffffffffffffffffffffffffffff\n        /* \"#utility.yul\":77:82   */\n      dup3\n        /* \"#utility.yul\":73:127   */\n      and\n        /* \"#utility.yul\":62:127   */\n      swap1\n      pop\n        /* \"#utility.yul\":7:133   */\n      swap2\n      swap1\n      pop\n      jump\t// out\n        /* \"#utility.yul\":139:243   */\n    tag_10:\n        /* \"#utility.yul\":184:191   */\n      0x00\n        /* \"#utility.yul\":213:237   */\n      tag_17\n        /* \"#utility.yul\":231:236   */\n      dup3\n        /* \"#utility.yul\":213:237   */\n      tag_9\n      jump\t// in\n    tag_17:\n        /* \"#utility.yul\":202:237   */\n      swap1\n      pop\n        /* \"#utility.yul\":139:243   */\n      swap2\n      swap1\n      pop\n      jump\t// out\n        /* \"#utility.yul\":249:391   */\n    tag_11:\n        /* \"#utility.yul\":352:384   */\n      tag_19\n        /* \"#utility.yul\":378:383   */\n      dup2\n        /* \"#utility.yul\":352:384   */\n      tag_10\n      jump\t// in\n    tag_19:\n        /* \"#utility.yul\":347:350   */\n      dup3\n        /* \"#utility.yul\":340:385   */\n      mstore\n        /* \"#utility.yul\":249:391   */\n      pop\n      pop\n      jump\t// out\n        /* \"#utility.yul\":397:474   */\n    tag_12:\n        /* \"#utility.yul\":434:441   */\n      0x00\n        /* \"#utility.yul\":463:468   */\n      dup2\n        /* \"#utility.yul\":452:468   */\n      swap1\n      pop\n        /* \"#utility.yul\":397:474   */\n      swap2\n      swap1\n      pop\n      jump\t// out\n        /* \"#utility.yul\":480:598   */\n    tag_13:\n        /* \"#utility.yul\":567:591   */\n      tag_22\n        /* \"#utility.yul\":585:590   */\n      dup2\n        /* \"#utility.yul\":567:591   */\n      tag_12\n      jump\t// in\n    tag_22:\n        /* \"#utility.yul\":562:565   */\n      dup3\n        /* \"#utility.yul\":555:592   */\n      mstore\n        /* \"#utility.yul\":480:598   */\n      pop\n      pop\n      jump\t// out\n        /* \"#utility.yul\":604:968   */\n    tag_7:\n        /* \"#utility.yul\":741:745   */\n      0x00\n        /* \"#utility.yul\":779:781   */\n      0x40\n        /* \"#utility.yul\":768:777   */\n      dup3\n        /* \"#utility.yul\":764:782   */\n      add\n        /* \"#utility.yul\":756:782   */\n      swap1\n      pop\n        /* \"#utility.yul\":792:879   */\n      tag_24\n        /* \"#utility.yul\":876:877   */\n      0x00\n        /* \"#utility.yul\":865:874   */\n      dup4\n        /* \"#utility.yul\":861:878   */\n      add\n        /* \"#utility.yul\":852:858   */\n      dup6\n        /* \"#utility.yul\":792:879   */\n      tag_11\n      jump\t// in\n    tag_24:\n        /* \"#utility.yul\":889:961   */\n      tag_25\n        /* \"#utility.yul\":957:959   */\n      0x20\n        /* \"#utility.yul\":946:955   */\n      dup4\n        /* \"#utility.yul\":942:960   */\n      add\n        /* \"#utility.yul\":933:939   */\n      dup5\n        /* \"#utility.yul\":889:961   */\n      tag_13\n      jump\t// in\n    tag_25:\n        /* \"#utility.yul\":604:968   */\n      swap4\n      swap3\n      pop\n      pop\n      pop\n      jump\t// out\n\n    auxdata: 0xa264697066735822122028bda2e12c080775fea4bf7b47d480b1bb3b9f03a6881f7084ad540857ca7f1564736f6c63430008160033\n}\n",
				"bytecode": {
					"linkReferences": {},
					"object": "608060405234801561000f575f80fd5b506101178061001d5f395ff3fe6080604052348015600e575f80fd5b50600436106026575f3560e01c8063d24903d914602a575b5f80fd5b60306045565b604051603c92919060be565b60405180910390f35b5f8073ab8483f64d9c6d1ecf9b849ae677dd3315835cb267016345785d8a0000915091509091565b5f73ffffffffffffffffffffffffffffffffffffffff82169050919050565b5f609482606d565b9050919050565b60a281608c565b82525050565b5f819050919050565b60b88160a8565b82525050565b5f60408201905060cf5f830185609b565b60da602083018460b1565b939250505056fea264697066735822122028bda2e12c080775fea4bf7b47d480b1bb3b9f03a6881f7084ad540857ca7f1564736f6c63430008160033",
					"opcodes": "PUSH1 0x80 PUSH1 0x40 MSTORE CALLVALUE DUP1 ISZERO PUSH2 0xF JUMPI PUSH0 DUP1 REVERT JUMPDEST POP PUSH2 0x117 DUP1 PUSH2 0x1D PUSH0 CODECOPY PUSH0 RETURN INVALID PUSH1 0x80 PUSH1 0x40 MSTORE CALLVALUE DUP1 ISZERO PUSH1 0xE JUMPI PUSH0 DUP1 REVERT JUMPDEST POP PUSH1 0x4 CALLDATASIZE LT PUSH1 0x26 JUMPI PUSH0 CALLDATALOAD PUSH1 0xE0 SHR DUP1 PUSH4 0xD24903D9 EQ PUSH1 0x2A JUMPI JUMPDEST PUSH0 DUP1 REVERT JUMPDEST PUSH1 0x30 PUSH1 0x45 JUMP JUMPDEST PUSH1 0x40 MLOAD PUSH1 0x3C SWAP3 SWAP2 SWAP1 PUSH1 0xBE JUMP JUMPDEST PUSH1 0x40 MLOAD DUP1 SWAP2 SUB SWAP1 RETURN JUMPDEST PUSH0 DUP1 PUSH20 0xAB8483F64D9C6D1ECF9B849AE677DD3315835CB2 PUSH8 0x16345785D8A0000 SWAP2 POP SWAP2 POP SWAP1 SWAP2 JUMP JUMPDEST PUSH0 PUSH20 0xFFFFFFFFFFFFFFFFFFFFFFFFFFFFFFFFFFFFFFFF DUP3 AND SWAP1 POP SWAP2 SWAP1 POP JUMP JUMPDEST PUSH0 PUSH1 0x94 DUP3 PUSH1 0x6D JUMP JUMPDEST SWAP1 POP SWAP2 SWAP1 POP JUMP JUMPDEST PUSH1 0xA2 DUP2 PUSH1 0x8C JUMP JUMPDEST DUP3 MSTORE POP POP JUMP JUMPDEST PUSH0 DUP2 SWAP1 POP SWAP2 SWAP1 POP JUMP JUMPDEST PUSH1 0xB8 DUP2 PUSH1 0xA8 JUMP JUMPDEST DUP3 MSTORE POP POP JUMP JUMPDEST PUSH0 PUSH1 0x40 DUP3 ADD SWAP1 POP PUSH1 0xCF PUSH0 DUP4 ADD DUP6 PUSH1 0x9B JUMP JUMPDEST PUSH1 0xDA PUSH1 0x20 DUP4 ADD DUP5 PUSH1 0xB1 JUMP JUMPDEST SWAP4 SWAP3 POP POP POP JUMP INVALID LOG2 PUSH5 0x6970667358 0x22 SLT KECCAK256 0x28 0xBD LOG2 0xE1 0x2C ADDMOD SMOD PUSH22 0xFEA4BF7B47D480B1BB3B9F03A6881F7084AD540857CA PUSH32 0x1564736F6C634300081600330000000000000000000000000000000000000000 "
				},
				"gasEstimates": {
					"creation": {
						"codeDepositCost": "55800",
						"executionCost": "103",
						"totalCost": "55903"
					},
					"external": {
						"getAddressAndAmount()": "471"
					}
				},
				"methodIdentifiers": {
					"getAddressAndAmount()": "d24903d9"
				}
			},
			"storageLayout": {
				"storage": [],
				"types": null
			},
			"userdoc": {
				"kind": "user",
				"methods": {},
				"version": 1
			}
		}
	}
}