{
	"contracts/interface.sol": {
		"AddresStrategy2": {
			"abi": [
				{
					"inputs": [],
					"name": "getAddressAndAmount",
					"outputs": [
						{
							"internalType": "address payable",
							"name": "",
							"type": "address"
						},
						{
							"internalType": "uint256",
							"name": "",
							"type": "uint256"
						}
					],
					"stateMutability": "pure",
					"type": "function"
				}
			],
			"devdoc": {
				"kind": "dev",
				"methods": {},
				"version": 1
			},
			"evm": {
				"assembly": "    /* \"contracts/interface.sol\":929:1220  contract AddresStrategy2{... */\n  mstore(0x40, 0x80)\n  callvalue\n  dup1\n  iszero\n  tag_1\n  jumpi\n  0x00\n  dup1\n  revert\ntag_1:\n  pop\n  dataSize(sub_0)\n  dup1\n  dataOffset(sub_0)\n  0x00\n  codecopy\n  0x00\n  return\nstop\n\nsub_0: assembly {\n        /* \"contracts/interface.sol\":929:1220  contract AddresStrategy2{... */\n      mstore(0x40, 0x80)\n      callvalue\n      dup1\n      iszero\n      tag_1\n      jumpi\n      0x00\n      dup1\n      revert\n    tag_1:\n      pop\n      jumpi(tag_2, lt(calldatasize, 0x04))\n      shr(0xe0, calldataload(0x00))\n      dup1\n      0xd24903d9\n      eq\n      tag_3\n      jumpi\n    tag_2:\n      0x00\n      dup1\n      revert\n        /* \"contracts/interface.sol\":1010:1217  function getAddressAndAmount() external pure returns(address payable , uint256){... */\n    tag_3:\n      tag_4\n      tag_5\n      jump\t// in\n    tag_4:\n      mload(0x40)\n      tag_6\n      swap3\n      swap2\n      swap1\n      tag_7\n      jump\t// in\n    tag_6:\n      mload(0x40)\n      dup1\n      swap2\n      sub\n      swap1\n      return\n    tag_5:\n        /* \"contracts/interface.sol\":1063:1078  address payable */\n      0x00\n        /* \"contracts/interface.sol\":1081:1088  uint256 */\n      dup1\n        /* \"contracts/interface.sol\":1100:1114  uint256 amount */\n      0x00\n        /* \"contracts/interface.sol\":1130:1131  5 */\n      0x05\n        /* \"contracts/interface.sol\":992:1001  0.1 ether */\n      0x016345785d8a0000\n        /* \"contracts/interface.sol\":1117:1131  ETHER_AMOUNT*5 */\n      tag_9\n      swap2\n      swap1\n      tag_10\n      jump\t// in\n    tag_9:\n        /* \"contracts/interface.sol\":1100:1131  uint256 amount = ETHER_AMOUNT*5 */\n      swap1\n      pop\n        /* \"contracts/interface.sol\":1158:1200  0xAb8483F64d9C6d1EcF9b849Ae677dD3315835cb2 */\n      0xab8483f64d9c6d1ecf9b849ae677dd3315835cb2\n        /* \"contracts/interface.sol\":1202:1208  amount */\n      dup2\n        /* \"contracts/interface.sol\":1142:1209  return(payable (0xAb8483F64d9C6d1EcF9b849Ae677dD3315835cb2),amount) */\n      swap3\n      pop\n      swap3\n      pop\n      pop\n        /* \"contracts/interface.sol\":1010:1217  function getAddressAndAmount() external pure returns(address payable , uint256){... */\n      swap1\n      swap2\n      jump\t// out\n        /* \"#utility.yul\":7:133   */\n    tag_11:\n        /* \"#utility.yul\":44:51   */\n      0x00\n        /* \"#utility.yul\":84:126   */\n      0xffffffffffffffffffffffffffffffffffffffff\n        /* \"#utility.yul\":77:82   */\n      dup3\n        /* \"#utility.yul\":73:127   */\n      and\n        /* \"#utility.yul\":62:127   */\n      swap1\n      pop\n        /* \"#utility.yul\":7:133   */\n      swap2\n      swap1\n      pop\n      jump\t// out\n        /* \"#utility.yul\":139:243   */\n    tag_12:\n        /* \"#utility.yul\":184:191   */\n      0x00\n        /* \"#utility.yul\":213:237   */\n      tag_20\n        /* \"#utility.yul\":231:236   */\n      dup3\n        /* \"#utility.yul\":213:237   */\n      tag_11\n      jump\t// in\n    tag_20:\n        /* \"#utility.yul\":202:237   */\n      swap1\n      pop\n        /* \"#utility.yul\":139:243   */\n      swap2\n      swap1\n      pop\n      jump\t// out\n        /* \"#utility.yul\":249:391   */\n    tag_13:\n        /* \"#utility.yul\":352:384   */\n      tag_22\n        /* \"#utility.yul\":378:383   */\n      dup2\n        /* \"#utility.yul\":352:384   */\n      tag_12\n      jump\t// in\n    tag_22:\n        /* \"#utility.yul\":347:350   */\n      dup3\n        /* \"#utility.yul\":340:385   */\n      mstore\n        /* \"#utility.yul\":249:391   */\n      pop\n      pop\n      jump\t// out\n        /* \"#utility.yul\":397:474   */\n    tag_14:\n        /* \"#utility.yul\":434:441   */\n      0x00\n        /* \"#utility.yul\":463:468   */\n      dup2\n        /* \"#utility.yul\":452:468   */\n      swap1\n      pop\n        /* \"#utility.yul\":397:474   */\n      swap2\n      swap1\n      pop\n      jump\t// out\n        /* \"#utility.yul\":480:598   */\n    tag_15:\n        /* \"#utility.yul\":567:591   */\n      tag_25\n        /* \"#utility.yul\":585:590   */\n      dup2\n        /* \"#utility.yul\":567:591   */\n      tag_14\n      jump\t// in\n    tag_25:\n        /* \"#utility.yul\":562:565   */\n      dup3\n        /* \"#utility.yul\":555:592   */\n      mstore\n        /* \"#utility.yul\":480:598   */\n      pop\n      pop\n      jump\t// out\n        /* \"#utility.yul\":604:968   */\n    tag_7:\n        /* \"#utility.yul\":741:745   */\n      0x00\n        /* \"#utility.yul\":779:781   */\n      0x40\n        /* \"#utility.yul\":768:777   */\n      dup3\n        /* \"#utility.yul\":764:782   */\n      add\n        /* \"#utility.yul\":756:782   */\n      swap1\n      pop\n        /* \"#utility.yul\":792:879   */\n      tag_27\n        /* \"#utility.yul\":876:877   */\n      0x00\n        /* \"#utility.yul\":865:874   */\n      dup4\n        /* \"#utility.yul\":861:878   */\n      add\n        /* \"#utility.yul\":852:858   */\n      dup6\n        /* \"#utility.yul\":792:879   */\n      tag_13\n      jump\t// in\n    tag_27:\n        /* \"#utility.yul\":889:961   */\n      tag_28\n        /* \"#utility.yul\":957:959   */\n      0x20\n        /* \"#utility.yul\":946:955   */\n      dup4\n        /* \"#utility.yul\":942:960   */\n      add\n        /* \"#utility.yul\":933:939   */\n      dup5\n        /* \"#utility.yul\":889:961   */\n      tag_15\n      jump\t// in\n    tag_28:\n        /* \"#utility.yul\":604:968   */\n      swap4\n      swap3\n      pop\n      pop\n      pop\n      jump\t// out\n        /* \"#utility.yul\":974:1154   */\n    tag_16:\n        /* \"#utility.yul\":1022:1099   */\n      0x4e487b7100000000000000000000000000000000000000000000000000000000\n        /* \"#utility.yul\":1019:1020   */\n      0x00\n        /* \"#utility.yul\":1012:1100   */\n      mstore\n        /* \"#utility.yul\":1119:1123   */\n      0x11\n        /* \"#utility.yul\":1116:1117   */\n      0x04\n        /* \"#utility.yul\":1109:1124   */\n      mstore\n        /* \"#utility.yul\":1143:1147   */\n      0x24\n        /* \"#utility.yul\":1140:1141   */\n      0x00\n        /* \"#utility.yul\":1133:1148   */\n      revert\n        /* \"#utility.yul\":1160:1570   */\n    tag_10:\n        /* \"#utility.yul\":1200:1207   */\n      0x00\n        /* \"#utility.yul\":1223:1243   */\n      tag_31\n        /* \"#utility.yul\":1241:1242   */\n      dup3\n        /* \"#utility.yul\":1223:1243   */\n      tag_14\n      jump\t// in\n    tag_31:\n        /* \"#utility.yul\":1218:1243   */\n      swap2\n      pop\n        /* \"#utility.yul\":1257:1277   */\n      tag_32\n        /* \"#utility.yul\":1275:1276   */\n      dup4\n        /* \"#utility.yul\":1257:1277   */\n      tag_14\n      jump\t// in\n    tag_32:\n        /* \"#utility.yul\":1252:1277   */\n      swap3\n      pop\n        /* \"#utility.yul\":1312:1313   */\n      dup3\n        /* \"#utility.yul\":1309:1310   */\n      dup3\n        /* \"#utility.yul\":1305:1314   */\n      mul\n        /* \"#utility.yul\":1334:1364   */\n      tag_33\n        /* \"#utility.yul\":1352:1363   */\n      dup2\n        /* \"#utility.yul\":1334:1364   */\n      tag_14\n      jump\t// in\n    tag_33:\n        /* \"#utility.yul\":1323:1364   */\n      swap2\n      pop\n        /* \"#utility.yul\":1513:1514   */\n      dup3\n        /* \"#utility.yul\":1504:1511   */\n      dup3\n        /* \"#utility.yul\":1500:1515   */\n      div\n        /* \"#utility.yul\":1497:1498   */\n      dup5\n        /* \"#utility.yul\":1494:1516   */\n      eq\n        /* \"#utility.yul\":1474:1475   */\n      dup4\n        /* \"#utility.yul\":1467:1476   */\n      iszero\n        /* \"#utility.yul\":1447:1530   */\n      or\n        /* \"#utility.yul\":1424:1563   */\n      tag_34\n      jumpi\n        /* \"#utility.yul\":1543:1561   */\n      tag_35\n      tag_16\n      jump\t// in\n    tag_35:\n        /* \"#utility.yul\":1424:1563   */\n    tag_34:\n        /* \"#utility.yul\":1208:1570   */\n      pop\n        /* \"#utility.yul\":1160:1570   */\n      swap3\n      swap2\n      pop\n      pop\n      jump\t// out\n\n    auxdata: 0xa264697066735822122098a4248d82fc1e06dc69acc66ababf96189c553abb0058f3abc669f585c2381564736f6c63430008160033\n}\n",
				"bytecode": {
					"linkReferences": {},
					"object": "608060405234801561000f575f80fd5b506101a78061001d5f395ff3fe608060405234801561000f575f80fd5b5060043610610029575f3560e01c8063d24903d91461002d575b5f80fd5b61003561004c565b6040516100439291906100dc565b60405180910390f35b5f805f600567016345785d8a00006100649190610130565b905073ab8483f64d9c6d1ecf9b849ae677dd3315835cb28192509250509091565b5f73ffffffffffffffffffffffffffffffffffffffff82169050919050565b5f6100ae82610085565b9050919050565b6100be816100a4565b82525050565b5f819050919050565b6100d6816100c4565b82525050565b5f6040820190506100ef5f8301856100b5565b6100fc60208301846100cd565b9392505050565b7f4e487b71000000000000000000000000000000000000000000000000000000005f52601160045260245ffd5b5f61013a826100c4565b9150610145836100c4565b9250828202610153816100c4565b9150828204841483151761016a57610169610103565b5b509291505056fea264697066735822122098a4248d82fc1e06dc69acc66ababf96189c553abb0058f3abc669f585c2381564736f6c63430008160033",
					"opcodes": "PUSH1 0x80 PUSH1 0x40 MSTORE CALLVALUE DUP1 ISZERO PUSH2 0xF JUMPI PUSH0 DUP1 REVERT JUMPDEST POP PUSH2 0x1A7 DUP1 PUSH2 0x1D PUSH0 CODECOPY PUSH0 RETURN INVALID PUSH1 0x80 PUSH1 0x40 MSTORE CALLVALUE DUP1 ISZERO PUSH2 0xF JUMPI PUSH0 DUP1 REVERT JUMPDEST POP PUSH1 0x4 CALLDATASIZE LT PUSH2 0x29 JUMPI PUSH0 CALLDATALOAD PUSH1 0xE0 SHR DUP1 PUSH4 0xD24903D9 EQ PUSH2 0x2D JUMPI JUMPDEST PUSH0 DUP1 REVERT JUMPDEST PUSH2 0x35 PUSH2 0x4C JUMP JUMPDEST PUSH1 0x40 MLOAD PUSH2 0x43 SWAP3 SWAP2 SWAP1 PUSH2 0xDC JUMP JUMPDEST PUSH1 0x40 MLOAD DUP1 SWAP2 SUB SWAP1 RETURN JUMPDEST PUSH0 DUP1 PUSH0 PUSH1 0x5 PUSH8 0x16345785D8A0000 PUSH2 0x64 SWAP2 SWAP1 PUSH2 0x130 JUMP JUMPDEST SWAP1 POP PUSH20 0xAB8483F64D9C6D1ECF9B849AE677DD3315835CB2 DUP2 SWAP3 POP SWAP3 POP POP SWAP1 SWAP2 JUMP JUMPDEST PUSH0 PUSH20 0xFFFFFFFFFFFFFFFFFFFFFFFFFFFFFFFFFFFFFFFF DUP3 AND SWAP1 POP SWAP2 SWAP1 POP JUMP JUMPDEST PUSH0 PUSH2 0xAE DUP3 PUSH2 0x85 JUMP JUMPDEST SWAP1 POP SWAP2 SWAP1 POP JUMP JUMPDEST PUSH2 0xBE DUP2 PUSH2 0xA4 JUMP JUMPDEST DUP3 MSTORE POP POP JUMP JUMPDEST PUSH0 DUP2 SWAP1 POP SWAP2 SWAP1 POP JUMP JUMPDEST PUSH2 0xD6 DUP2 PUSH2 0xC4 JUMP JUMPDEST DUP3 MSTORE POP POP JUMP JUMPDEST PUSH0 PUSH1 0x40 DUP3 ADD SWAP1 POP PUSH2 0xEF PUSH0 DUP4 ADD DUP6 PUSH2 0xB5 JUMP JUMPDEST PUSH2 0xFC PUSH1 0x20 DUP4 ADD DUP5 PUSH2 0xCD JUMP JUMPDEST SWAP4 SWAP3 POP POP POP JUMP JUMPDEST PUSH32 0x4E487B7100000000000000000000000000000000000000000000000000000000 PUSH0 MSTORE PUSH1 0x11 PUSH1 0x4 MSTORE PUSH1 0x24 PUSH0 REVERT JUMPDEST PUSH0 PUSH2 0x13A DUP3 PUSH2 0xC4 JUMP JUMPDEST SWAP2 POP PUSH2 0x145 DUP4 PUSH2 0xC4 JUMP JUMPDEST SWAP3 POP DUP3 DUP3 MUL PUSH2 0x153 DUP2 PUSH2 0xC4 JUMP JUMPDEST SWAP2 POP DUP3 DUP3 DIV DUP5 EQ DUP4 ISZERO OR PUSH2 0x16A JUMPI PUSH2 0x169 PUSH2 0x103 JUMP JUMPDEST JUMPDEST POP SWAP3 SWAP2 POP POP JUMP INVALID LOG2 PUSH5 0x6970667358 0x22 SLT KECCAK256 SWAP9 LOG4 0x24 DUP14 DUP3 0xFC 0x1E MOD 0xDC PUSH10 0xACC66ABABF96189C553A 0xBB STOP PC RETURN 0xAB 0xC6 PUSH10 0xF585C2381564736F6C63 NUMBER STOP ADDMOD AND STOP CALLER "
				},
				"gasEstimates": {
					"creation": {
						"codeDepositCost": "84600",
						"executionCost": "133",
						"totalCost": "84733"
					},
					"external": {
						"getAddressAndAmount()": "infinite"
					}
				},
				"methodIdentifiers": {
					"getAddressAndAmount()": "d24903d9"
				}
			},
			"storageLayout": {
				"storage": [],
				"types": null
			},
			"userdoc": {
				"kind": "user",
				"methods": {},
				"version": 1
			}
		}
	}
}