{
	"contracts/library.sol": {
		"HumanContract": {
			"abi": [
				{
					"inputs": [],
					"name": "newYear",
					"outputs": [],
					"stateMutability": "nonpayable",
					"type": "function"
				},
				{
					"inputs": [],
					"name": "showYear",
					"outputs": [
						{
							"internalType": "uint256",
							"name": "",
							"type": "uint256"
						}
					],
					"stateMutability": "view",
					"type": "function"
				}
			],
			"devdoc": {
				"kind": "dev",
				"methods": {},
				"version": 1
			},
			"evm": {
				"assembly": "    /* \"contracts/library.sol\":2111:2357  contract HumanContract{... */\n  mstore(0x40, 0x80)\n  callvalue\n  dup1\n  iszero\n  tag_1\n  jumpi\n  0x00\n  dup1\n  revert\ntag_1:\n  pop\n  dataSize(sub_0)\n  dup1\n  dataOffset(sub_0)\n  0x00\n  codecopy\n  0x00\n  return\nstop\n\nsub_0: assembly {\n        /* \"contracts/library.sol\":2111:2357  contract HumanContract{... */\n      mstore(0x40, 0x80)\n      callvalue\n      dup1\n      iszero\n      tag_1\n      jumpi\n      0x00\n      dup1\n      revert\n    tag_1:\n      pop\n      jumpi(tag_2, lt(calldatasize, 0x04))\n      shr(0xe0, calldataload(0x00))\n      dup1\n      0x6477f498\n      eq\n      tag_3\n      jumpi\n      dup1\n      0xfb0b22f7\n      eq\n      tag_4\n      jumpi\n    tag_2:\n      0x00\n      dup1\n      revert\n        /* \"contracts/library.sol\":2262:2354  function showYear() public view returns(uint){... */\n    tag_3:\n      tag_5\n      tag_6\n      jump\t// in\n    tag_5:\n      mload(0x40)\n      tag_7\n      swap2\n      swap1\n      tag_8\n      jump\t// in\n    tag_7:\n      mload(0x40)\n      dup1\n      swap2\n      sub\n      swap1\n      return\n        /* \"contracts/library.sol\":2186:2256  function newYear() public {... */\n    tag_4:\n      tag_9\n      tag_10\n      jump\t// in\n    tag_9:\n      stop\n        /* \"contracts/library.sol\":2262:2354  function showYear() public view returns(uint){... */\n    tag_6:\n        /* \"contracts/library.sol\":2302:2306  uint */\n      0x00\n        /* \"contracts/library.sol\":2325:2330  Human */\n      linkerSymbol(\"8fb4b653a2014c132146087a49829984a57b0d1dbc6c8b8875cd3cfe34258bc1\")\n        /* \"contracts/library.sol\":2325:2335  Human.show */\n      0x9b187a5d\n        /* \"contracts/library.sol\":2336:2342  people */\n      0x00\n        /* \"contracts/library.sol\":2336:2345  people[0] */\n      dup1\n        /* \"contracts/library.sol\":2343:2344  0 */\n      dup1\n        /* \"contracts/library.sol\":2336:2345  people[0] */\n      dup2\n      mstore\n      0x20\n      add\n      swap1\n      dup2\n      mstore\n      0x20\n      add\n      0x00\n      keccak256\n        /* \"contracts/library.sol\":2325:2346  Human.show(people[0]) */\n      mload(0x40)\n      dup3\n      0xffffffff\n      and\n      0xe0\n      shl\n      dup2\n      mstore\n      0x04\n      add\n      tag_12\n      swap2\n      swap1\n      tag_13\n      jump\t// in\n    tag_12:\n      0x20\n      mload(0x40)\n      dup1\n      dup4\n      sub\n      dup2\n      dup7\n      gas\n      delegatecall\n      iszero\n      dup1\n      iszero\n      tag_15\n      jumpi\n      returndatasize\n      0x00\n      dup1\n      returndatacopy\n      revert(0x00, returndatasize)\n    tag_15:\n      pop\n      pop\n      pop\n      pop\n      mload(0x40)\n      returndatasize\n      not(0x1f)\n      0x1f\n      dup3\n      add\n      and\n      dup3\n      add\n      dup1\n      0x40\n      mstore\n      pop\n      dup2\n      add\n      swap1\n      tag_16\n      swap2\n      swap1\n      tag_17\n      jump\t// in\n    tag_16:\n        /* \"contracts/library.sol\":2318:2346  return Human.show(people[0]) */\n      swap1\n      pop\n        /* \"contracts/library.sol\":2262:2354  function showYear() public view returns(uint){... */\n      swap1\n      jump\t// out\n        /* \"contracts/library.sol\":2186:2256  function newYear() public {... */\n    tag_10:\n        /* \"contracts/library.sol\":2223:2228  Human */\n      linkerSymbol(\"8fb4b653a2014c132146087a49829984a57b0d1dbc6c8b8875cd3cfe34258bc1\")\n        /* \"contracts/library.sol\":2223:2237  Human.birthday */\n      0x16d76d21\n        /* \"contracts/library.sol\":2238:2244  people */\n      0x00\n        /* \"contracts/library.sol\":2238:2247  people[0] */\n      dup1\n        /* \"contracts/library.sol\":2245:2246  0 */\n      dup1\n        /* \"contracts/library.sol\":2238:2247  people[0] */\n      dup2\n      mstore\n      0x20\n      add\n      swap1\n      dup2\n      mstore\n      0x20\n      add\n      0x00\n      keccak256\n        /* \"contracts/library.sol\":2223:2248  Human.birthday(people[0]) */\n      mload(0x40)\n      dup3\n      0xffffffff\n      and\n      0xe0\n      shl\n      dup2\n      mstore\n      0x04\n      add\n      tag_19\n      swap2\n      swap1\n      tag_13\n      jump\t// in\n    tag_19:\n      0x00\n      mload(0x40)\n      dup1\n      dup4\n      sub\n      dup2\n      dup7\n      dup1\n      extcodesize\n      iszero\n      dup1\n      iszero\n      tag_20\n      jumpi\n      0x00\n      dup1\n      revert\n    tag_20:\n      pop\n      gas\n      delegatecall\n      iszero\n      dup1\n      iszero\n      tag_22\n      jumpi\n      returndatasize\n      0x00\n      dup1\n      returndatacopy\n      revert(0x00, returndatasize)\n    tag_22:\n      pop\n      pop\n      pop\n      pop\n        /* \"contracts/library.sol\":2186:2256  function newYear() public {... */\n      jump\t// out\n        /* \"#utility.yul\":7:84   */\n    tag_23:\n        /* \"#utility.yul\":44:51   */\n      0x00\n        /* \"#utility.yul\":73:78   */\n      dup2\n        /* \"#utility.yul\":62:78   */\n      swap1\n      pop\n        /* \"#utility.yul\":7:84   */\n      swap2\n      swap1\n      pop\n      jump\t// out\n        /* \"#utility.yul\":90:208   */\n    tag_24:\n        /* \"#utility.yul\":177:201   */\n      tag_34\n        /* \"#utility.yul\":195:200   */\n      dup2\n        /* \"#utility.yul\":177:201   */\n      tag_23\n      jump\t// in\n    tag_34:\n        /* \"#utility.yul\":172:175   */\n      dup3\n        /* \"#utility.yul\":165:202   */\n      mstore\n        /* \"#utility.yul\":90:208   */\n      pop\n      pop\n      jump\t// out\n        /* \"#utility.yul\":214:436   */\n    tag_8:\n        /* \"#utility.yul\":307:311   */\n      0x00\n        /* \"#utility.yul\":345:347   */\n      0x20\n        /* \"#utility.yul\":334:343   */\n      dup3\n        /* \"#utility.yul\":330:348   */\n      add\n        /* \"#utility.yul\":322:348   */\n      swap1\n      pop\n        /* \"#utility.yul\":358:429   */\n      tag_36\n        /* \"#utility.yul\":426:427   */\n      0x00\n        /* \"#utility.yul\":415:424   */\n      dup4\n        /* \"#utility.yul\":411:428   */\n      add\n        /* \"#utility.yul\":402:408   */\n      dup5\n        /* \"#utility.yul\":358:429   */\n      tag_24\n      jump\t// in\n    tag_36:\n        /* \"#utility.yul\":214:436   */\n      swap3\n      swap2\n      pop\n      pop\n      jump\t// out\n        /* \"#utility.yul\":442:569   */\n    tag_25:\n        /* \"#utility.yul\":557:562   */\n      dup1\n        /* \"#utility.yul\":552:555   */\n      dup3\n        /* \"#utility.yul\":545:563   */\n      mstore\n        /* \"#utility.yul\":442:569   */\n      pop\n      pop\n      jump\t// out\n        /* \"#utility.yul\":575:853   */\n    tag_13:\n        /* \"#utility.yul\":696:700   */\n      0x00\n        /* \"#utility.yul\":734:736   */\n      0x20\n        /* \"#utility.yul\":723:732   */\n      dup3\n        /* \"#utility.yul\":719:737   */\n      add\n        /* \"#utility.yul\":711:737   */\n      swap1\n      pop\n        /* \"#utility.yul\":747:846   */\n      tag_39\n        /* \"#utility.yul\":843:844   */\n      0x00\n        /* \"#utility.yul\":832:841   */\n      dup4\n        /* \"#utility.yul\":828:845   */\n      add\n        /* \"#utility.yul\":819:825   */\n      dup5\n        /* \"#utility.yul\":747:846   */\n      tag_25\n      jump\t// in\n    tag_39:\n        /* \"#utility.yul\":575:853   */\n      swap3\n      swap2\n      pop\n      pop\n      jump\t// out\n        /* \"#utility.yul\":940:1057   */\n    tag_27:\n        /* \"#utility.yul\":1049:1050   */\n      0x00\n        /* \"#utility.yul\":1046:1047   */\n      dup1\n        /* \"#utility.yul\":1039:1051   */\n      revert\n        /* \"#utility.yul\":1186:1308   */\n    tag_29:\n        /* \"#utility.yul\":1259:1283   */\n      tag_44\n        /* \"#utility.yul\":1277:1282   */\n      dup2\n        /* \"#utility.yul\":1259:1283   */\n      tag_23\n      jump\t// in\n    tag_44:\n        /* \"#utility.yul\":1252:1257   */\n      dup2\n        /* \"#utility.yul\":1249:1284   */\n      eq\n        /* \"#utility.yul\":1239:1302   */\n      tag_45\n      jumpi\n        /* \"#utility.yul\":1298:1299   */\n      0x00\n        /* \"#utility.yul\":1295:1296   */\n      dup1\n        /* \"#utility.yul\":1288:1300   */\n      revert\n        /* \"#utility.yul\":1239:1302   */\n    tag_45:\n        /* \"#utility.yul\":1186:1308   */\n      pop\n      jump\t// out\n        /* \"#utility.yul\":1314:1457   */\n    tag_30:\n        /* \"#utility.yul\":1371:1376   */\n      0x00\n        /* \"#utility.yul\":1402:1408   */\n      dup2\n        /* \"#utility.yul\":1396:1409   */\n      mload\n        /* \"#utility.yul\":1387:1409   */\n      swap1\n      pop\n        /* \"#utility.yul\":1418:1451   */\n      tag_47\n        /* \"#utility.yul\":1445:1450   */\n      dup2\n        /* \"#utility.yul\":1418:1451   */\n      tag_29\n      jump\t// in\n    tag_47:\n        /* \"#utility.yul\":1314:1457   */\n      swap3\n      swap2\n      pop\n      pop\n      jump\t// out\n        /* \"#utility.yul\":1463:1814   */\n    tag_17:\n        /* \"#utility.yul\":1533:1539   */\n      0x00\n        /* \"#utility.yul\":1582:1584   */\n      0x20\n        /* \"#utility.yul\":1570:1579   */\n      dup3\n        /* \"#utility.yul\":1561:1568   */\n      dup5\n        /* \"#utility.yul\":1557:1580   */\n      sub\n        /* \"#utility.yul\":1553:1585   */\n      slt\n        /* \"#utility.yul\":1550:1669   */\n      iszero\n      tag_49\n      jumpi\n        /* \"#utility.yul\":1588:1667   */\n      tag_50\n      tag_27\n      jump\t// in\n    tag_50:\n        /* \"#utility.yul\":1550:1669   */\n    tag_49:\n        /* \"#utility.yul\":1708:1709   */\n      0x00\n        /* \"#utility.yul\":1733:1797   */\n      tag_51\n        /* \"#utility.yul\":1789:1796   */\n      dup5\n        /* \"#utility.yul\":1780:1786   */\n      dup3\n        /* \"#utility.yul\":1769:1778   */\n      dup6\n        /* \"#utility.yul\":1765:1787   */\n      add\n        /* \"#utility.yul\":1733:1797   */\n      tag_30\n      jump\t// in\n    tag_51:\n        /* \"#utility.yul\":1723:1797   */\n      swap2\n      pop\n        /* \"#utility.yul\":1679:1807   */\n      pop\n        /* \"#utility.yul\":1463:1814   */\n      swap3\n      swap2\n      pop\n      pop\n      jump\t// out\n\n    auxdata: 0xa26469706673582212206b4f18db722eb41add040aeb60bd59d0ab21a52488e2e2c800b02ea82b24883464736f6c63430008160033\n}\n",
				"bytecode": {
					"linkReferences": {
						"contracts/library.sol": {
							"Human": [
								{
									"length": 20,
									"start": 128
								},
								{
									"length": 20,
									"start": 266
								}
							]
						}
					},
					"object": "608060405234801561000f575f80fd5b5061023f8061001d5f395ff3fe608060405234801561000f575f80fd5b5060043610610034575f3560e01c80636477f49814610038578063fb0b22f714610056575b5f80fd5b610040610060565b60405161004d9190610177565b60405180910390f35b61005e6100eb565b005b5f73__$8fb4b653a2014c132146087a49829984a5$__639b187a5d5f808081526020019081526020015f206040518263ffffffff1660e01b81526004016100a79190610197565b602060405180830381865af41580156100c2573d5f803e3d5ffd5b505050506040513d601f19601f820116820180604052508101906100e691906101de565b905090565b73__$8fb4b653a2014c132146087a49829984a5$__6316d76d215f808081526020019081526020015f206040518263ffffffff1660e01b81526004016101319190610197565b5f6040518083038186803b158015610147575f80fd5b505af4158015610159573d5f803e3d5ffd5b50505050565b5f819050919050565b6101718161015f565b82525050565b5f60208201905061018a5f830184610168565b92915050565b8082525050565b5f6020820190506101aa5f830184610190565b92915050565b5f80fd5b6101bd8161015f565b81146101c7575f80fd5b50565b5f815190506101d8816101b4565b92915050565b5f602082840312156101f3576101f26101b0565b5b5f610200848285016101ca565b9150509291505056fea26469706673582212206b4f18db722eb41add040aeb60bd59d0ab21a52488e2e2c800b02ea82b24883464736f6c63430008160033",
					"opcodes": "PUSH1 0x80 PUSH1 0x40 MSTORE CALLVALUE DUP1 ISZERO PUSH2 0xF JUMPI PUSH0 DUP1 REVERT JUMPDEST POP PUSH2 0x23F DUP1 PUSH2 0x1D PUSH0 CODECOPY PUSH0 RETURN INVALID PUSH1 0x80 PUSH1 0x40 MSTORE CALLVALUE DUP1 ISZERO PUSH2 0xF JUMPI PUSH0 DUP1 REVERT JUMPDEST POP PUSH1 0x4 CALLDATASIZE LT PUSH2 0x34 JUMPI PUSH0 CALLDATALOAD PUSH1 0xE0 SHR DUP1 PUSH4 0x6477F498 EQ PUSH2 0x38 JUMPI DUP1 PUSH4 0xFB0B22F7 EQ PUSH2 0x56 JUMPI JUMPDEST PUSH0 DUP1 REVERT JUMPDEST PUSH2 0x40 PUSH2 0x60 JUMP JUMPDEST PUSH1 0x40 MLOAD PUSH2 0x4D SWAP2 SWAP1 PUSH2 0x177 JUMP JUMPDEST PUSH1 0x40 MLOAD DUP1 SWAP2 SUB SWAP1 RETURN JUMPDEST PUSH2 0x5E PUSH2 0xEB JUMP JUMPDEST STOP JUMPDEST PUSH0 PUSH20 0x0 PUSH4 0x9B187A5D PUSH0 DUP1 DUP1 DUP2 MSTORE PUSH1 0x20 ADD SWAP1 DUP2 MSTORE PUSH1 0x20 ADD PUSH0 KECCAK256 PUSH1 0x40 MLOAD DUP3 PUSH4 0xFFFFFFFF AND PUSH1 0xE0 SHL DUP2 MSTORE PUSH1 0x4 ADD PUSH2 0xA7 SWAP2 SWAP1 PUSH2 0x197 JUMP JUMPDEST PUSH1 0x20 PUSH1 0x40 MLOAD DUP1 DUP4 SUB DUP2 DUP7 GAS DELEGATECALL ISZERO DUP1 ISZERO PUSH2 0xC2 JUMPI RETURNDATASIZE PUSH0 DUP1 RETURNDATACOPY RETURNDATASIZE PUSH0 REVERT JUMPDEST POP POP POP POP PUSH1 0x40 MLOAD RETURNDATASIZE PUSH1 0x1F NOT PUSH1 0x1F DUP3 ADD AND DUP3 ADD DUP1 PUSH1 0x40 MSTORE POP DUP2 ADD SWAP1 PUSH2 0xE6 SWAP2 SWAP1 PUSH2 0x1DE JUMP JUMPDEST SWAP1 POP SWAP1 JUMP JUMPDEST PUSH20 0x0 PUSH4 0x16D76D21 PUSH0 DUP1 DUP1 DUP2 MSTORE PUSH1 0x20 ADD SWAP1 DUP2 MSTORE PUSH1 0x20 ADD PUSH0 KECCAK256 PUSH1 0x40 MLOAD DUP3 PUSH4 0xFFFFFFFF AND PUSH1 0xE0 SHL DUP2 MSTORE PUSH1 0x4 ADD PUSH2 0x131 SWAP2 SWAP1 PUSH2 0x197 JUMP JUMPDEST PUSH0 PUSH1 0x40 MLOAD DUP1 DUP4 SUB DUP2 DUP7 DUP1 EXTCODESIZE ISZERO DUP1 ISZERO PUSH2 0x147 JUMPI PUSH0 DUP1 REVERT JUMPDEST POP GAS DELEGATECALL ISZERO DUP1 ISZERO PUSH2 0x159 JUMPI RETURNDATASIZE PUSH0 DUP1 RETURNDATACOPY RETURNDATASIZE PUSH0 REVERT JUMPDEST POP POP POP POP JUMP JUMPDEST PUSH0 DUP2 SWAP1 POP SWAP2 SWAP1 POP JUMP JUMPDEST PUSH2 0x171 DUP2 PUSH2 0x15F JUMP JUMPDEST DUP3 MSTORE POP POP JUMP JUMPDEST PUSH0 PUSH1 0x20 DUP3 ADD SWAP1 POP PUSH2 0x18A PUSH0 DUP4 ADD DUP5 PUSH2 0x168 JUMP JUMPDEST SWAP3 SWAP2 POP POP JUMP JUMPDEST DUP1 DUP3 MSTORE POP POP JUMP JUMPDEST PUSH0 PUSH1 0x20 DUP3 ADD SWAP1 POP PUSH2 0x1AA PUSH0 DUP4 ADD DUP5 PUSH2 0x190 JUMP JUMPDEST SWAP3 SWAP2 POP POP JUMP JUMPDEST PUSH0 DUP1 REVERT JUMPDEST PUSH2 0x1BD DUP2 PUSH2 0x15F JUMP JUMPDEST DUP2 EQ PUSH2 0x1C7 JUMPI PUSH0 DUP1 REVERT JUMPDEST POP JUMP JUMPDEST PUSH0 DUP2 MLOAD SWAP1 POP PUSH2 0x1D8 DUP2 PUSH2 0x1B4 JUMP JUMPDEST SWAP3 SWAP2 POP POP JUMP JUMPDEST PUSH0 PUSH1 0x20 DUP3 DUP5 SUB SLT ISZERO PUSH2 0x1F3 JUMPI PUSH2 0x1F2 PUSH2 0x1B0 JUMP JUMPDEST JUMPDEST PUSH0 PUSH2 0x200 DUP5 DUP3 DUP6 ADD PUSH2 0x1CA JUMP JUMPDEST SWAP2 POP POP SWAP3 SWAP2 POP POP JUMP INVALID LOG2 PUSH5 0x6970667358 0x22 SLT KECCAK256 PUSH12 0x4F18DB722EB41ADD040AEB60 0xBD MSIZE 0xD0 0xAB 0x21 0xA5 0x24 DUP9 0xE2 0xE2 0xC8 STOP 0xB0 0x2E 0xA8 0x2B 0x24 DUP9 CALLVALUE PUSH5 0x736F6C6343 STOP ADDMOD AND STOP CALLER "
				},
				"gasEstimates": {
					"creation": {
						"codeDepositCost": "115000",
						"executionCost": "157",
						"totalCost": "115157"
					},
					"external": {
						"newYear()": "infinite",
						"showYear()": "infinite"
					}
				},
				"methodIdentifiers": {
					"newYear()": "fb0b22f7",
					"showYear()": "6477f498"
				}
			},
			"storageLayout": {
				"storage": [
					{
						"astId": 274,
						"contract": "contracts/library.sol:HumanContract",
						"label": "people",
						"offset": 0,
						"slot": "0",
						"type": "t_mapping(t_uint256,t_struct(Person)145_storage)"
					}
				],
				"types": {
					"t_mapping(t_uint256,t_struct(Person)145_storage)": {
						"encoding": "mapping",
						"key": "t_uint256",
						"label": "mapping(uint256 => struct Human.Person)",
						"numberOfBytes": "32",
						"value": "t_struct(Person)145_storage"
					},
					"t_struct(Person)145_storage": {
						"encoding": "inplace",
						"label": "struct Human.Person",
						"members": [
							{
								"astId": 144,
								"contract": "contracts/library.sol:HumanContract",
								"label": "age",
								"offset": 0,
								"slot": "0",
								"type": "t_uint256"
							}
						],
						"numberOfBytes": "32"
					},
					"t_uint256": {
						"encoding": "inplace",
						"label": "uint256",
						"numberOfBytes": "32"
					}
				}
			},
			"userdoc": {
				"kind": "user",
				"methods": {},
				"version": 1
			}
		}
	}
}