{
	"contracts/inheritabce.sol": {
		"superHuman": {
			"abi": [
				{
					"inputs": [],
					"name": "sayHello",
					"outputs": [
						{
							"internalType": "string",
							"name": "",
							"type": "string"
						}
					],
					"stateMutability": "pure",
					"type": "function"
				},
				{
					"inputs": [
						{
							"internalType": "bool",
							"name": "isMember",
							"type": "bool"
						}
					],
					"name": "welcomeMsg",
					"outputs": [
						{
							"internalType": "string",
							"name": "",
							"type": "string"
						}
					],
					"stateMutability": "pure",
					"type": "function"
				}
			],
			"devdoc": {
				"kind": "dev",
				"methods": {},
				"version": 1
			},
			"evm": {
				"assembly": "    /* \"contracts/inheritabce.sol\":634:933  contract superHuman is Human{... */\n  mstore(0x40, 0x80)\n  callvalue\n  dup1\n  iszero\n  tag_1\n  jumpi\n  0x00\n  dup1\n  revert\ntag_1:\n  pop\n  dataSize(sub_0)\n  dup1\n  dataOffset(sub_0)\n  0x00\n  codecopy\n  0x00\n  return\nstop\n\nsub_0: assembly {\n        /* \"contracts/inheritabce.sol\":634:933  contract superHuman is Human{... */\n      mstore(0x40, 0x80)\n      callvalue\n      dup1\n      iszero\n      tag_1\n      jumpi\n      0x00\n      dup1\n      revert\n    tag_1:\n      pop\n      jumpi(tag_2, lt(calldatasize, 0x04))\n      shr(0xe0, calldataload(0x00))\n      dup1\n      0x8163604a\n      eq\n      tag_3\n      jumpi\n      dup1\n      0xef5fb05b\n      eq\n      tag_4\n      jumpi\n    tag_2:\n      0x00\n      dup1\n      revert\n        /* \"contracts/inheritabce.sol\":795:930  function welcomeMsg(bool isMember) public pure returns(string memory){... */\n    tag_3:\n      tag_5\n      0x04\n      dup1\n      calldatasize\n      sub\n      dup2\n      add\n      swap1\n      tag_6\n      swap2\n      swap1\n      tag_7\n      jump\t// in\n    tag_6:\n      tag_8\n      jump\t// in\n    tag_5:\n      mload(0x40)\n      tag_9\n      swap2\n      swap1\n      tag_10\n      jump\t// in\n    tag_9:\n      mload(0x40)\n      dup1\n      swap2\n      sub\n      swap1\n      return\n        /* \"contracts/inheritabce.sol\":669:789  function sayHello() public pure override returns(string memory){... */\n    tag_4:\n      tag_11\n      tag_12\n      jump\t// in\n    tag_11:\n      mload(0x40)\n      tag_13\n      swap2\n      swap1\n      tag_10\n      jump\t// in\n    tag_13:\n      mload(0x40)\n      dup1\n      swap2\n      sub\n      swap1\n      return\n        /* \"contracts/inheritabce.sol\":795:930  function welcomeMsg(bool isMember) public pure returns(string memory){... */\n    tag_8:\n        /* \"contracts/inheritabce.sol\":850:863  string memory */\n      0x60\n        /* \"contracts/inheritabce.sol\":882:890  isMember */\n      dup2\n        /* \"contracts/inheritabce.sol\":882:922  isMember ? sayHello() : Human.sayHello() */\n      tag_15\n      jumpi\n        /* \"contracts/inheritabce.sol\":906:922  Human.sayHello() */\n      tag_16\n        /* \"contracts/inheritabce.sol\":906:920  Human.sayHello */\n      tag_17\n        /* \"contracts/inheritabce.sol\":906:922  Human.sayHello() */\n      jump\t// in\n    tag_16:\n        /* \"contracts/inheritabce.sol\":882:922  isMember ? sayHello() : Human.sayHello() */\n      jump(tag_18)\n    tag_15:\n        /* \"contracts/inheritabce.sol\":893:903  sayHello() */\n      tag_19\n        /* \"contracts/inheritabce.sol\":893:901  sayHello */\n      tag_12\n        /* \"contracts/inheritabce.sol\":893:903  sayHello() */\n      jump\t// in\n    tag_19:\n        /* \"contracts/inheritabce.sol\":882:922  isMember ? sayHello() : Human.sayHello() */\n    tag_18:\n        /* \"contracts/inheritabce.sol\":875:922  return isMember ? sayHello() : Human.sayHello() */\n      swap1\n      pop\n        /* \"contracts/inheritabce.sol\":795:930  function welcomeMsg(bool isMember) public pure returns(string memory){... */\n      swap2\n      swap1\n      pop\n      jump\t// out\n        /* \"contracts/inheritabce.sol\":669:789  function sayHello() public pure override returns(string memory){... */\n    tag_12:\n        /* \"contracts/inheritabce.sol\":718:731  string memory */\n      0x60\n        /* \"contracts/inheritabce.sol\":743:781  return \"selamlar hitit uyesi nasilsin\" */\n      mload(0x40)\n      dup1\n      0x40\n      add\n      0x40\n      mstore\n      dup1\n      0x1d\n      dup2\n      mstore\n      0x20\n      add\n      0x73656c616d6c6172206869746974207579657369206e6173696c73696e000000\n      dup2\n      mstore\n      pop\n      swap1\n      pop\n        /* \"contracts/inheritabce.sol\":669:789  function sayHello() public pure override returns(string memory){... */\n      swap1\n      jump\t// out\n        /* \"contracts/inheritabce.sol\":478:629  function sayHello() public pure virtual returns(string memory){... */\n    tag_17:\n        /* \"contracts/inheritabce.sol\":526:539  string memory */\n      0x60\n        /* \"contracts/inheritabce.sol\":551:621  return \"hititBlockchain.com adresi uzerinden klube uye olabilirsiniz \" */\n      mload(0x40)\n      dup1\n      0x60\n      add\n      0x40\n      mstore\n      dup1\n      0x3d\n      dup2\n      mstore\n      0x20\n      add\n      data_ad7f482760b51642084cd4d362f39a21f006fca11e481513f4b22c9435e0260f\n      0x3d\n      swap2\n      codecopy\n      swap1\n      pop\n        /* \"contracts/inheritabce.sol\":478:629  function sayHello() public pure virtual returns(string memory){... */\n      swap1\n      jump\t// out\n        /* \"#utility.yul\":88:205   */\n    tag_23:\n        /* \"#utility.yul\":197:198   */\n      0x00\n        /* \"#utility.yul\":194:195   */\n      dup1\n        /* \"#utility.yul\":187:199   */\n      revert\n        /* \"#utility.yul\":334:424   */\n    tag_25:\n        /* \"#utility.yul\":368:375   */\n      0x00\n        /* \"#utility.yul\":411:416   */\n      dup2\n        /* \"#utility.yul\":404:417   */\n      iszero\n        /* \"#utility.yul\":397:418   */\n      iszero\n        /* \"#utility.yul\":386:418   */\n      swap1\n      pop\n        /* \"#utility.yul\":334:424   */\n      swap2\n      swap1\n      pop\n      jump\t// out\n        /* \"#utility.yul\":430:546   */\n    tag_26:\n        /* \"#utility.yul\":500:521   */\n      tag_39\n        /* \"#utility.yul\":515:520   */\n      dup2\n        /* \"#utility.yul\":500:521   */\n      tag_25\n      jump\t// in\n    tag_39:\n        /* \"#utility.yul\":493:498   */\n      dup2\n        /* \"#utility.yul\":490:522   */\n      eq\n        /* \"#utility.yul\":480:540   */\n      tag_40\n      jumpi\n        /* \"#utility.yul\":536:537   */\n      0x00\n        /* \"#utility.yul\":533:534   */\n      dup1\n        /* \"#utility.yul\":526:538   */\n      revert\n        /* \"#utility.yul\":480:540   */\n    tag_40:\n        /* \"#utility.yul\":430:546   */\n      pop\n      jump\t// out\n        /* \"#utility.yul\":552:685   */\n    tag_27:\n        /* \"#utility.yul\":595:600   */\n      0x00\n        /* \"#utility.yul\":633:639   */\n      dup2\n        /* \"#utility.yul\":620:640   */\n      calldataload\n        /* \"#utility.yul\":611:640   */\n      swap1\n      pop\n        /* \"#utility.yul\":649:679   */\n      tag_42\n        /* \"#utility.yul\":673:678   */\n      dup2\n        /* \"#utility.yul\":649:679   */\n      tag_26\n      jump\t// in\n    tag_42:\n        /* \"#utility.yul\":552:685   */\n      swap3\n      swap2\n      pop\n      pop\n      jump\t// out\n        /* \"#utility.yul\":691:1014   */\n    tag_7:\n        /* \"#utility.yul\":747:753   */\n      0x00\n        /* \"#utility.yul\":796:798   */\n      0x20\n        /* \"#utility.yul\":784:793   */\n      dup3\n        /* \"#utility.yul\":775:782   */\n      dup5\n        /* \"#utility.yul\":771:794   */\n      sub\n        /* \"#utility.yul\":767:799   */\n      slt\n        /* \"#utility.yul\":764:883   */\n      iszero\n      tag_44\n      jumpi\n        /* \"#utility.yul\":802:881   */\n      tag_45\n      tag_23\n      jump\t// in\n    tag_45:\n        /* \"#utility.yul\":764:883   */\n    tag_44:\n        /* \"#utility.yul\":922:923   */\n      0x00\n        /* \"#utility.yul\":947:997   */\n      tag_46\n        /* \"#utility.yul\":989:996   */\n      dup5\n        /* \"#utility.yul\":980:986   */\n      dup3\n        /* \"#utility.yul\":969:978   */\n      dup6\n        /* \"#utility.yul\":965:987   */\n      add\n        /* \"#utility.yul\":947:997   */\n      tag_27\n      jump\t// in\n    tag_46:\n        /* \"#utility.yul\":937:997   */\n      swap2\n      pop\n        /* \"#utility.yul\":893:1007   */\n      pop\n        /* \"#utility.yul\":691:1014   */\n      swap3\n      swap2\n      pop\n      pop\n      jump\t// out\n        /* \"#utility.yul\":1020:1119   */\n    tag_28:\n        /* \"#utility.yul\":1072:1078   */\n      0x00\n        /* \"#utility.yul\":1106:1111   */\n      dup2\n        /* \"#utility.yul\":1100:1112   */\n      mload\n        /* \"#utility.yul\":1090:1112   */\n      swap1\n      pop\n        /* \"#utility.yul\":1020:1119   */\n      swap2\n      swap1\n      pop\n      jump\t// out\n        /* \"#utility.yul\":1125:1294   */\n    tag_29:\n        /* \"#utility.yul\":1209:1220   */\n      0x00\n        /* \"#utility.yul\":1243:1249   */\n      dup3\n        /* \"#utility.yul\":1238:1241   */\n      dup3\n        /* \"#utility.yul\":1231:1250   */\n      mstore\n        /* \"#utility.yul\":1283:1287   */\n      0x20\n        /* \"#utility.yul\":1278:1281   */\n      dup3\n        /* \"#utility.yul\":1274:1288   */\n      add\n        /* \"#utility.yul\":1259:1288   */\n      swap1\n      pop\n        /* \"#utility.yul\":1125:1294   */\n      swap3\n      swap2\n      pop\n      pop\n      jump\t// out\n        /* \"#utility.yul\":1300:1546   */\n    tag_30:\n        /* \"#utility.yul\":1381:1382   */\n      0x00\n        /* \"#utility.yul\":1391:1504   */\n    tag_50:\n        /* \"#utility.yul\":1405:1411   */\n      dup4\n        /* \"#utility.yul\":1402:1403   */\n      dup2\n        /* \"#utility.yul\":1399:1412   */\n      lt\n        /* \"#utility.yul\":1391:1504   */\n      iszero\n      tag_52\n      jumpi\n        /* \"#utility.yul\":1490:1491   */\n      dup1\n        /* \"#utility.yul\":1485:1488   */\n      dup3\n        /* \"#utility.yul\":1481:1492   */\n      add\n        /* \"#utility.yul\":1475:1493   */\n      mload\n        /* \"#utility.yul\":1471:1472   */\n      dup2\n        /* \"#utility.yul\":1466:1469   */\n      dup5\n        /* \"#utility.yul\":1462:1473   */\n      add\n        /* \"#utility.yul\":1455:1494   */\n      mstore\n        /* \"#utility.yul\":1427:1429   */\n      0x20\n        /* \"#utility.yul\":1424:1425   */\n      dup2\n        /* \"#utility.yul\":1420:1430   */\n      add\n        /* \"#utility.yul\":1415:1430   */\n      swap1\n      pop\n        /* \"#utility.yul\":1391:1504   */\n      jump(tag_50)\n    tag_52:\n        /* \"#utility.yul\":1538:1539   */\n      0x00\n        /* \"#utility.yul\":1529:1535   */\n      dup5\n        /* \"#utility.yul\":1524:1527   */\n      dup5\n        /* \"#utility.yul\":1520:1536   */\n      add\n        /* \"#utility.yul\":1513:1540   */\n      mstore\n        /* \"#utility.yul\":1362:1546   */\n      pop\n        /* \"#utility.yul\":1300:1546   */\n      pop\n      pop\n      pop\n      jump\t// out\n        /* \"#utility.yul\":1552:1654   */\n    tag_31:\n        /* \"#utility.yul\":1593:1599   */\n      0x00\n        /* \"#utility.yul\":1644:1646   */\n      0x1f\n        /* \"#utility.yul\":1640:1647   */\n      not\n        /* \"#utility.yul\":1635:1637   */\n      0x1f\n        /* \"#utility.yul\":1628:1633   */\n      dup4\n        /* \"#utility.yul\":1624:1638   */\n      add\n        /* \"#utility.yul\":1620:1648   */\n      and\n        /* \"#utility.yul\":1610:1648   */\n      swap1\n      pop\n        /* \"#utility.yul\":1552:1654   */\n      swap2\n      swap1\n      pop\n      jump\t// out\n        /* \"#utility.yul\":1660:2037   */\n    tag_32:\n        /* \"#utility.yul\":1748:1751   */\n      0x00\n        /* \"#utility.yul\":1776:1815   */\n      tag_55\n        /* \"#utility.yul\":1809:1814   */\n      dup3\n        /* \"#utility.yul\":1776:1815   */\n      tag_28\n      jump\t// in\n    tag_55:\n        /* \"#utility.yul\":1831:1902   */\n      tag_56\n        /* \"#utility.yul\":1895:1901   */\n      dup2\n        /* \"#utility.yul\":1890:1893   */\n      dup6\n        /* \"#utility.yul\":1831:1902   */\n      tag_29\n      jump\t// in\n    tag_56:\n        /* \"#utility.yul\":1824:1902   */\n      swap4\n      pop\n        /* \"#utility.yul\":1911:1976   */\n      tag_57\n        /* \"#utility.yul\":1969:1975   */\n      dup2\n        /* \"#utility.yul\":1964:1967   */\n      dup6\n        /* \"#utility.yul\":1957:1961   */\n      0x20\n        /* \"#utility.yul\":1950:1955   */\n      dup7\n        /* \"#utility.yul\":1946:1962   */\n      add\n        /* \"#utility.yul\":1911:1976   */\n      tag_30\n      jump\t// in\n    tag_57:\n        /* \"#utility.yul\":2001:2030   */\n      tag_58\n        /* \"#utility.yul\":2023:2029   */\n      dup2\n        /* \"#utility.yul\":2001:2030   */\n      tag_31\n      jump\t// in\n    tag_58:\n        /* \"#utility.yul\":1996:1999   */\n      dup5\n        /* \"#utility.yul\":1992:2031   */\n      add\n        /* \"#utility.yul\":1985:2031   */\n      swap2\n      pop\n        /* \"#utility.yul\":1752:2037   */\n      pop\n        /* \"#utility.yul\":1660:2037   */\n      swap3\n      swap2\n      pop\n      pop\n      jump\t// out\n        /* \"#utility.yul\":2043:2356   */\n    tag_10:\n        /* \"#utility.yul\":2156:2160   */\n      0x00\n        /* \"#utility.yul\":2194:2196   */\n      0x20\n        /* \"#utility.yul\":2183:2192   */\n      dup3\n        /* \"#utility.yul\":2179:2197   */\n      add\n        /* \"#utility.yul\":2171:2197   */\n      swap1\n      pop\n        /* \"#utility.yul\":2243:2252   */\n      dup2\n        /* \"#utility.yul\":2237:2241   */\n      dup2\n        /* \"#utility.yul\":2233:2253   */\n      sub\n        /* \"#utility.yul\":2229:2230   */\n      0x00\n        /* \"#utility.yul\":2218:2227   */\n      dup4\n        /* \"#utility.yul\":2214:2231   */\n      add\n        /* \"#utility.yul\":2207:2254   */\n      mstore\n        /* \"#utility.yul\":2271:2349   */\n      tag_60\n        /* \"#utility.yul\":2344:2348   */\n      dup2\n        /* \"#utility.yul\":2335:2341   */\n      dup5\n        /* \"#utility.yul\":2271:2349   */\n      tag_32\n      jump\t// in\n    tag_60:\n        /* \"#utility.yul\":2263:2349   */\n      swap1\n      pop\n        /* \"#utility.yul\":2043:2356   */\n      swap3\n      swap2\n      pop\n      pop\n      jump\t// out\n    stop\n    data_ad7f482760b51642084cd4d362f39a21f006fca11e481513f4b22c9435e0260f 6869746974426c6f636b636861696e2e636f6d2061647265736920757a6572696e64656e206b6c75626520757965206f6c6162696c697273696e697a20\n\n    auxdata: 0xa26469706673582212208f9746608c3c16547f11027fc1fa720f7aa559e7947b4dea2943fd5af831975964736f6c63430008160033\n}\n",
				"bytecode": {
					"linkReferences": {},
					"object": "608060405234801561000f575f80fd5b506102888061001d5f395ff3fe608060405234801561000f575f80fd5b5060043610610034575f3560e01c80638163604a14610038578063ef5fb05b14610068575b5f80fd5b610052600480360381019061004d9190610140565b610086565b60405161005f91906101f5565b60405180910390f35b6100706100aa565b60405161007d91906101f5565b60405180910390f35b60608161009a576100956100e7565b6100a3565b6100a26100aa565b5b9050919050565b60606040518060400160405280601d81526020017f73656c616d6c6172206869746974207579657369206e6173696c73696e000000815250905090565b60606040518060600160405280603d8152602001610216603d9139905090565b5f80fd5b5f8115159050919050565b61011f8161010b565b8114610129575f80fd5b50565b5f8135905061013a81610116565b92915050565b5f6020828403121561015557610154610107565b5b5f6101628482850161012c565b91505092915050565b5f81519050919050565b5f82825260208201905092915050565b5f5b838110156101a2578082015181840152602081019050610187565b5f8484015250505050565b5f601f19601f8301169050919050565b5f6101c78261016b565b6101d18185610175565b93506101e1818560208601610185565b6101ea816101ad565b840191505092915050565b5f6020820190508181035f83015261020d81846101bd565b90509291505056fe6869746974426c6f636b636861696e2e636f6d2061647265736920757a6572696e64656e206b6c75626520757965206f6c6162696c697273696e697a20a26469706673582212208f9746608c3c16547f11027fc1fa720f7aa559e7947b4dea2943fd5af831975964736f6c63430008160033",
					"opcodes": "PUSH1 0x80 PUSH1 0x40 MSTORE CALLVALUE DUP1 ISZERO PUSH2 0xF JUMPI PUSH0 DUP1 REVERT JUMPDEST POP PUSH2 0x288 DUP1 PUSH2 0x1D PUSH0 CODECOPY PUSH0 RETURN INVALID PUSH1 0x80 PUSH1 0x40 MSTORE CALLVALUE DUP1 ISZERO PUSH2 0xF JUMPI PUSH0 DUP1 REVERT JUMPDEST POP PUSH1 0x4 CALLDATASIZE LT PUSH2 0x34 JUMPI PUSH0 CALLDATALOAD PUSH1 0xE0 SHR DUP1 PUSH4 0x8163604A EQ PUSH2 0x38 JUMPI DUP1 PUSH4 0xEF5FB05B EQ PUSH2 0x68 JUMPI JUMPDEST PUSH0 DUP1 REVERT JUMPDEST PUSH2 0x52 PUSH1 0x4 DUP1 CALLDATASIZE SUB DUP2 ADD SWAP1 PUSH2 0x4D SWAP2 SWAP1 PUSH2 0x140 JUMP JUMPDEST PUSH2 0x86 JUMP JUMPDEST PUSH1 0x40 MLOAD PUSH2 0x5F SWAP2 SWAP1 PUSH2 0x1F5 JUMP JUMPDEST PUSH1 0x40 MLOAD DUP1 SWAP2 SUB SWAP1 RETURN JUMPDEST PUSH2 0x70 PUSH2 0xAA JUMP JUMPDEST PUSH1 0x40 MLOAD PUSH2 0x7D SWAP2 SWAP1 PUSH2 0x1F5 JUMP JUMPDEST PUSH1 0x40 MLOAD DUP1 SWAP2 SUB SWAP1 RETURN JUMPDEST PUSH1 0x60 DUP2 PUSH2 0x9A JUMPI PUSH2 0x95 PUSH2 0xE7 JUMP JUMPDEST PUSH2 0xA3 JUMP JUMPDEST PUSH2 0xA2 PUSH2 0xAA JUMP JUMPDEST JUMPDEST SWAP1 POP SWAP2 SWAP1 POP JUMP JUMPDEST PUSH1 0x60 PUSH1 0x40 MLOAD DUP1 PUSH1 0x40 ADD PUSH1 0x40 MSTORE DUP1 PUSH1 0x1D DUP2 MSTORE PUSH1 0x20 ADD PUSH32 0x73656C616D6C6172206869746974207579657369206E6173696C73696E000000 DUP2 MSTORE POP SWAP1 POP SWAP1 JUMP JUMPDEST PUSH1 0x60 PUSH1 0x40 MLOAD DUP1 PUSH1 0x60 ADD PUSH1 0x40 MSTORE DUP1 PUSH1 0x3D DUP2 MSTORE PUSH1 0x20 ADD PUSH2 0x216 PUSH1 0x3D SWAP2 CODECOPY SWAP1 POP SWAP1 JUMP JUMPDEST PUSH0 DUP1 REVERT JUMPDEST PUSH0 DUP2 ISZERO ISZERO SWAP1 POP SWAP2 SWAP1 POP JUMP JUMPDEST PUSH2 0x11F DUP2 PUSH2 0x10B JUMP JUMPDEST DUP2 EQ PUSH2 0x129 JUMPI PUSH0 DUP1 REVERT JUMPDEST POP JUMP JUMPDEST PUSH0 DUP2 CALLDATALOAD SWAP1 POP PUSH2 0x13A DUP2 PUSH2 0x116 JUMP JUMPDEST SWAP3 SWAP2 POP POP JUMP JUMPDEST PUSH0 PUSH1 0x20 DUP3 DUP5 SUB SLT ISZERO PUSH2 0x155 JUMPI PUSH2 0x154 PUSH2 0x107 JUMP JUMPDEST JUMPDEST PUSH0 PUSH2 0x162 DUP5 DUP3 DUP6 ADD PUSH2 0x12C JUMP JUMPDEST SWAP2 POP POP SWAP3 SWAP2 POP POP JUMP JUMPDEST PUSH0 DUP2 MLOAD SWAP1 POP SWAP2 SWAP1 POP JUMP JUMPDEST PUSH0 DUP3 DUP3 MSTORE PUSH1 0x20 DUP3 ADD SWAP1 POP SWAP3 SWAP2 POP POP JUMP JUMPDEST PUSH0 JUMPDEST DUP4 DUP2 LT ISZERO PUSH2 0x1A2 JUMPI DUP1 DUP3 ADD MLOAD DUP2 DUP5 ADD MSTORE PUSH1 0x20 DUP2 ADD SWAP1 POP PUSH2 0x187 JUMP JUMPDEST PUSH0 DUP5 DUP5 ADD MSTORE POP POP POP POP JUMP JUMPDEST PUSH0 PUSH1 0x1F NOT PUSH1 0x1F DUP4 ADD AND SWAP1 POP SWAP2 SWAP1 POP JUMP JUMPDEST PUSH0 PUSH2 0x1C7 DUP3 PUSH2 0x16B JUMP JUMPDEST PUSH2 0x1D1 DUP2 DUP6 PUSH2 0x175 JUMP JUMPDEST SWAP4 POP PUSH2 0x1E1 DUP2 DUP6 PUSH1 0x20 DUP7 ADD PUSH2 0x185 JUMP JUMPDEST PUSH2 0x1EA DUP2 PUSH2 0x1AD JUMP JUMPDEST DUP5 ADD SWAP2 POP POP SWAP3 SWAP2 POP POP JUMP JUMPDEST PUSH0 PUSH1 0x20 DUP3 ADD SWAP1 POP DUP2 DUP2 SUB PUSH0 DUP4 ADD MSTORE PUSH2 0x20D DUP2 DUP5 PUSH2 0x1BD JUMP JUMPDEST SWAP1 POP SWAP3 SWAP2 POP POP JUMP INVALID PUSH9 0x69746974426C6F636B PUSH4 0x6861696E 0x2E PUSH4 0x6F6D2061 PUSH5 0x7265736920 PUSH22 0x7A6572696E64656E206B6C75626520757965206F6C61 PUSH3 0x696C69 PUSH19 0x73696E697A20A26469706673582212208F9746 PUSH1 0x8C EXTCODECOPY AND SLOAD PUSH32 0x11027FC1FA720F7AA559E7947B4DEA2943FD5AF831975964736F6C6343000816 STOP CALLER "
				},
				"gasEstimates": {
					"creation": {
						"codeDepositCost": "129600",
						"executionCost": "175",
						"totalCost": "129775"
					},
					"external": {
						"sayHello()": "infinite",
						"welcomeMsg(bool)": "infinite"
					}
				},
				"methodIdentifiers": {
					"sayHello()": "ef5fb05b",
					"welcomeMsg(bool)": "8163604a"
				}
			},
			"storageLayout": {
				"storage": [],
				"types": null
			},
			"userdoc": {
				"kind": "user",
				"methods": {},
				"version": 1
			}
		}
	}
}