{
	"data": {
		"bytecode": {
			"linkReferences": {},
			"object": "60a060405234801562000010575f80fd5b506040516200091a3803806200091a833981810160405281019062000036919062000213565b815f9081620000469190620004a5565b5080600181905550505062000589565b5f604051905090565b5f80fd5b5f80fd5b5f80fd5b5f80fd5b5f601f19601f8301169050919050565b7f4e487b71000000000000000000000000000000000000000000000000000000005f52604160045260245ffd5b620000b7826200006f565b810181811067ffffffffffffffff82111715620000d957620000d86200007f565b5b80604052505050565b5f620000ed62000056565b9050620000fb8282620000ac565b919050565b5f67ffffffffffffffff8211156200011d576200011c6200007f565b5b62000128826200006f565b9050602081019050919050565b5f5b838110156200015457808201518184015260208101905062000137565b5f8484015250505050565b5f620001756200016f8462000100565b620000e2565b9050828152602081018484840111156200019457620001936200006b565b5b620001a184828562000135565b509392505050565b5f82601f830112620001c057620001bf62000067565b5b8151620001d28482602086016200015f565b91505092915050565b5f819050919050565b620001ef81620001db565b8114620001fa575f80fd5b50565b5f815190506200020d81620001e4565b92915050565b5f80604083850312156200022c576200022b6200005f565b5b5f83015167ffffffffffffffff8111156200024c576200024b62000063565b5b6200025a85828601620001a9565b92505060206200026d85828601620001fd565b9150509250929050565b5f81519050919050565b7f4e487b71000000000000000000000000000000000000000000000000000000005f52602260045260245ffd5b5f6002820490506001821680620002c657607f821691505b602082108103620002dc57620002db62000281565b5b50919050565b5f819050815f5260205f209050919050565b5f6020601f8301049050919050565b5f82821b905092915050565b5f60088302620003407fffffffffffffffffffffffffffffffffffffffffffffffffffffffffffffffff8262000303565b6200034c868362000303565b95508019841693508086168417925050509392505050565b5f819050919050565b5f6200038d620003876200038184620001db565b62000364565b620001db565b9050919050565b5f819050919050565b620003a8836200036d565b620003c0620003b78262000394565b8484546200030f565b825550505050565b5f90565b620003d6620003c8565b620003e38184846200039d565b505050565b5b818110156200040a57620003fe5f82620003cc565b600181019050620003e9565b5050565b601f82111562000459576200042381620002e2565b6200042e84620002f4565b810160208510156200043e578190505b620004566200044d85620002f4565b830182620003e8565b50505b505050565b5f82821c905092915050565b5f6200047b5f19846008026200045e565b1980831691505092915050565b5f6200049583836200046a565b9150826002028217905092915050565b620004b08262000277565b67ffffffffffffffff811115620004cc57620004cb6200007f565b5b620004d88254620002ae565b620004e58282856200040e565b5f60209050601f8311600181146200051b575f841562000506578287015190505b62000512858262000488565b86555062000581565b601f1984166200052b86620002e2565b5f5b8281101562000554578489015182556001820191506020850194506020810190506200052d565b8683101562000574578489015162000570601f8916826200046a565b8355505b6001600288020188555050505b505050505050565b608051610378620005a25f395f61018f01526103785ff3fe608060405234801561000f575f80fd5b5060043610610055575f3560e01c806318160ddd1461005957806360fe47b1146100775780636c02a9311461009357806390c52443146100b1578063eb6a867d146100cf575b5f80fd5b6100616100ed565b60405161006e91906101c9565b60405180910390f35b610091600480360381019061008c9190610210565b6100f3565b005b61009b6100fd565b6040516100a891906102c5565b60405180910390f35b6100b9610188565b6040516100c691906101c9565b60405180910390f35b6100d761018d565b6040516100e491906101c9565b60405180910390f35b60015481565b8060018190555050565b5f805461010990610312565b80601f016020809104026020016040519081016040528092919081815260200182805461013590610312565b80156101805780601f1061015757610100808354040283529160200191610180565b820191905f5260205f20905b81548152906001019060200180831161016357829003601f168201915b505050505081565b600a81565b7f000000000000000000000000000000000000000000000000000000000000000081565b5f819050919050565b6101c3816101b1565b82525050565b5f6020820190506101dc5f8301846101ba565b92915050565b5f80fd5b6101ef816101b1565b81146101f9575f80fd5b50565b5f8135905061020a816101e6565b92915050565b5f60208284031215610225576102246101e2565b5b5f610232848285016101fc565b91505092915050565b5f81519050919050565b5f82825260208201905092915050565b5f5b83811015610272578082015181840152602081019050610257565b5f8484015250505050565b5f601f19601f8301169050919050565b5f6102978261023b565b6102a18185610245565b93506102b1818560208601610255565b6102ba8161027d565b840191505092915050565b5f6020820190508181035f8301526102dd818461028d565b905092915050565b7f4e487b71000000000000000000000000000000000000000000000000000000005f52602260045260245ffd5b5f600282049050600182168061032957607f821691505b60208210810361033c5761033b6102e5565b5b5091905056fea2646970667358221220a13ae977da08e33fbfbf8a4c4b6871bd5d8383f983ff6a3de291809803c033d964736f6c63430008170033",
			"opcodes": "PUSH1 0xA0 PUSH1 0x40 MSTORE CALLVALUE DUP1 ISZERO PUSH3 0x10 JUMPI PUSH0 DUP1 REVERT JUMPDEST POP PUSH1 0x40 MLOAD PUSH3 0x91A CODESIZE SUB DUP1 PUSH3 0x91A DUP4 CODECOPY DUP2 DUP2 ADD PUSH1 0x40 MSTORE DUP2 ADD SWAP1 PUSH3 0x36 SWAP2 SWAP1 PUSH3 0x213 JUMP JUMPDEST DUP2 PUSH0 SWAP1 DUP2 PUSH3 0x46 SWAP2 SWAP1 PUSH3 0x4A5 JUMP JUMPDEST POP DUP1 PUSH1 0x1 DUP2 SWAP1 SSTORE POP POP POP PUSH3 0x589 JUMP JUMPDEST PUSH0 PUSH1 0x40 MLOAD SWAP1 POP SWAP1 JUMP JUMPDEST PUSH0 DUP1 REVERT JUMPDEST PUSH0 DUP1 REVERT JUMPDEST PUSH0 DUP1 REVERT JUMPDEST PUSH0 DUP1 REVERT JUMPDEST PUSH0 PUSH1 0x1F NOT PUSH1 0x1F DUP4 ADD AND SWAP1 POP SWAP2 SWAP1 POP JUMP JUMPDEST PUSH32 0x4E487B7100000000000000000000000000000000000000000000000000000000 PUSH0 MSTORE PUSH1 0x41 PUSH1 0x4 MSTORE PUSH1 0x24 PUSH0 REVERT JUMPDEST PUSH3 0xB7 DUP3 PUSH3 0x6F JUMP JUMPDEST DUP2 ADD DUP2 DUP2 LT PUSH8 0xFFFFFFFFFFFFFFFF DUP3 GT OR ISZERO PUSH3 0xD9 JUMPI PUSH3 0xD8 PUSH3 0x7F JUMP JUMPDEST JUMPDEST DUP1 PUSH1 0x40 MSTORE POP POP POP JUMP JUMPDEST PUSH0 PUSH3 0xED PUSH3 0x56 JUMP JUMPDEST SWAP1 POP PUSH3 0xFB DUP3 DUP3 PUSH3 0xAC JUMP JUMPDEST SWAP2 SWAP1 POP JUMP JUMPDEST PUSH0 PUSH8 0xFFFFFFFFFFFFFFFF DUP3 GT ISZERO PUSH3 0x11D JUMPI PUSH3 0x11C PUSH3 0x7F JUMP JUMPDEST JUMPDEST PUSH3 0x128 DUP3 PUSH3 0x6F JUMP JUMPDEST SWAP1 POP PUSH1 0x20 DUP2 ADD SWAP1 POP SWAP2 SWAP1 POP JUMP JUMPDEST PUSH0 JUMPDEST DUP4 DUP2 LT ISZERO PUSH3 0x154 JUMPI DUP1 DUP3 ADD MLOAD DUP2 DUP5 ADD MSTORE PUSH1 0x20 DUP2 ADD SWAP1 POP PUSH3 0x137 JUMP JUMPDEST PUSH0 DUP5 DUP5 ADD MSTORE POP POP POP POP JUMP JUMPDEST PUSH0 PUSH3 0x175 PUSH3 0x16F DUP5 PUSH3 0x100 JUMP JUMPDEST PUSH3 0xE2 JUMP JUMPDEST SWAP1 POP DUP3 DUP2 MSTORE PUSH1 0x20 DUP2 ADD DUP5 DUP5 DUP5 ADD GT ISZERO PUSH3 0x194 JUMPI PUSH3 0x193 PUSH3 0x6B JUMP JUMPDEST JUMPDEST PUSH3 0x1A1 DUP5 DUP3 DUP6 PUSH3 0x135 JUMP JUMPDEST POP SWAP4 SWAP3 POP POP POP JUMP JUMPDEST PUSH0 DUP3 PUSH1 0x1F DUP4 ADD SLT PUSH3 0x1C0 JUMPI PUSH3 0x1BF PUSH3 0x67 JUMP JUMPDEST JUMPDEST DUP2 MLOAD PUSH3 0x1D2 DUP5 DUP3 PUSH1 0x20 DUP7 ADD PUSH3 0x15F JUMP JUMPDEST SWAP2 POP POP SWAP3 SWAP2 POP POP JUMP JUMPDEST PUSH0 DUP2 SWAP1 POP SWAP2 SWAP1 POP JUMP JUMPDEST PUSH3 0x1EF DUP2 PUSH3 0x1DB JUMP JUMPDEST DUP2 EQ PUSH3 0x1FA JUMPI PUSH0 DUP1 REVERT JUMPDEST POP JUMP JUMPDEST PUSH0 DUP2 MLOAD SWAP1 POP PUSH3 0x20D DUP2 PUSH3 0x1E4 JUMP JUMPDEST SWAP3 SWAP2 POP POP JUMP JUMPDEST PUSH0 DUP1 PUSH1 0x40 DUP4 DUP6 SUB SLT ISZERO PUSH3 0x22C JUMPI PUSH3 0x22B PUSH3 0x5F JUMP JUMPDEST JUMPDEST PUSH0 DUP4 ADD MLOAD PUSH8 0xFFFFFFFFFFFFFFFF DUP2 GT ISZERO PUSH3 0x24C JUMPI PUSH3 0x24B PUSH3 0x63 JUMP JUMPDEST JUMPDEST PUSH3 0x25A DUP6 DUP3 DUP7 ADD PUSH3 0x1A9 JUMP JUMPDEST SWAP3 POP POP PUSH1 0x20 PUSH3 0x26D DUP6 DUP3 DUP7 ADD PUSH3 0x1FD JUMP JUMPDEST SWAP2 POP POP SWAP3 POP SWAP3 SWAP1 POP JUMP JUMPDEST PUSH0 DUP2 MLOAD SWAP1 POP SWAP2 SWAP1 POP JUMP JUMPDEST PUSH32 0x4E487B7100000000000000000000000000000000000000000000000000000000 PUSH0 MSTORE PUSH1 0x22 PUSH1 0x4 MSTORE PUSH1 0x24 PUSH0 REVERT JUMPDEST PUSH0 PUSH1 0x2 DUP3 DIV SWAP1 POP PUSH1 0x1 DUP3 AND DUP1 PUSH3 0x2C6 JUMPI PUSH1 0x7F DUP3 AND SWAP2 POP JUMPDEST PUSH1 0x20 DUP3 LT DUP2 SUB PUSH3 0x2DC JUMPI PUSH3 0x2DB PUSH3 0x281 JUMP JUMPDEST JUMPDEST POP SWAP2 SWAP1 POP JUMP JUMPDEST PUSH0 DUP2 SWAP1 POP DUP2 PUSH0 MSTORE PUSH1 0x20 PUSH0 KECCAK256 SWAP1 POP SWAP2 SWAP1 POP JUMP JUMPDEST PUSH0 PUSH1 0x20 PUSH1 0x1F DUP4 ADD DIV SWAP1 POP SWAP2 SWAP1 POP JUMP JUMPDEST PUSH0 DUP3 DUP3 SHL SWAP1 POP SWAP3 SWAP2 POP POP JUMP JUMPDEST PUSH0 PUSH1 0x8 DUP4 MUL PUSH3 0x340 PUSH32 0xFFFFFFFFFFFFFFFFFFFFFFFFFFFFFFFFFFFFFFFFFFFFFFFFFFFFFFFFFFFFFFFF DUP3 PUSH3 0x303 JUMP JUMPDEST PUSH3 0x34C DUP7 DUP4 PUSH3 0x303 JUMP JUMPDEST SWAP6 POP DUP1 NOT DUP5 AND SWAP4 POP DUP1 DUP7 AND DUP5 OR SWAP3 POP POP POP SWAP4 SWAP3 POP POP POP JUMP JUMPDEST PUSH0 DUP2 SWAP1 POP SWAP2 SWAP1 POP JUMP JUMPDEST PUSH0 PUSH3 0x38D PUSH3 0x387 PUSH3 0x381 DUP5 PUSH3 0x1DB JUMP JUMPDEST PUSH3 0x364 JUMP JUMPDEST PUSH3 0x1DB JUMP JUMPDEST SWAP1 POP SWAP2 SWAP1 POP JUMP JUMPDEST PUSH0 DUP2 SWAP1 POP SWAP2 SWAP1 POP JUMP JUMPDEST PUSH3 0x3A8 DUP4 PUSH3 0x36D JUMP JUMPDEST PUSH3 0x3C0 PUSH3 0x3B7 DUP3 PUSH3 0x394 JUMP JUMPDEST DUP5 DUP5 SLOAD PUSH3 0x30F JUMP JUMPDEST DUP3 SSTORE POP POP POP POP JUMP JUMPDEST PUSH0 SWAP1 JUMP JUMPDEST PUSH3 0x3D6 PUSH3 0x3C8 JUMP JUMPDEST PUSH3 0x3E3 DUP2 DUP5 DUP5 PUSH3 0x39D JUMP JUMPDEST POP POP POP JUMP JUMPDEST JUMPDEST DUP2 DUP2 LT ISZERO PUSH3 0x40A JUMPI PUSH3 0x3FE PUSH0 DUP3 PUSH3 0x3CC JUMP JUMPDEST PUSH1 0x1 DUP2 ADD SWAP1 POP PUSH3 0x3E9 JUMP JUMPDEST POP POP JUMP JUMPDEST PUSH1 0x1F DUP3 GT ISZERO PUSH3 0x459 JUMPI PUSH3 0x423 DUP2 PUSH3 0x2E2 JUMP JUMPDEST PUSH3 0x42E DUP5 PUSH3 0x2F4 JUMP JUMPDEST DUP2 ADD PUSH1 0x20 DUP6 LT ISZERO PUSH3 0x43E JUMPI DUP2 SWAP1 POP JUMPDEST PUSH3 0x456 PUSH3 0x44D DUP6 PUSH3 0x2F4 JUMP JUMPDEST DUP4 ADD DUP3 PUSH3 0x3E8 JUMP JUMPDEST POP POP JUMPDEST POP POP POP JUMP JUMPDEST PUSH0 DUP3 DUP3 SHR SWAP1 POP SWAP3 SWAP2 POP POP JUMP JUMPDEST PUSH0 PUSH3 0x47B PUSH0 NOT DUP5 PUSH1 0x8 MUL PUSH3 0x45E JUMP JUMPDEST NOT DUP1 DUP4 AND SWAP2 POP POP SWAP3 SWAP2 POP POP JUMP JUMPDEST PUSH0 PUSH3 0x495 DUP4 DUP4 PUSH3 0x46A JUMP JUMPDEST SWAP2 POP DUP3 PUSH1 0x2 MUL DUP3 OR SWAP1 POP SWAP3 SWAP2 POP POP JUMP JUMPDEST PUSH3 0x4B0 DUP3 PUSH3 0x277 JUMP JUMPDEST PUSH8 0xFFFFFFFFFFFFFFFF DUP2 GT ISZERO PUSH3 0x4CC JUMPI PUSH3 0x4CB PUSH3 0x7F JUMP JUMPDEST JUMPDEST PUSH3 0x4D8 DUP3 SLOAD PUSH3 0x2AE JUMP JUMPDEST PUSH3 0x4E5 DUP3 DUP3 DUP6 PUSH3 0x40E JUMP JUMPDEST PUSH0 PUSH1 0x20 SWAP1 POP PUSH1 0x1F DUP4 GT PUSH1 0x1 DUP2 EQ PUSH3 0x51B JUMPI PUSH0 DUP5 ISZERO PUSH3 0x506 JUMPI DUP3 DUP8 ADD MLOAD SWAP1 POP JUMPDEST PUSH3 0x512 DUP6 DUP3 PUSH3 0x488 JUMP JUMPDEST DUP7 SSTORE POP PUSH3 0x581 JUMP JUMPDEST PUSH1 0x1F NOT DUP5 AND PUSH3 0x52B DUP7 PUSH3 0x2E2 JUMP JUMPDEST PUSH0 JUMPDEST DUP3 DUP2 LT ISZERO PUSH3 0x554 JUMPI DUP5 DUP10 ADD MLOAD DUP3 SSTORE PUSH1 0x1 DUP3 ADD SWAP2 POP PUSH1 0x20 DUP6 ADD SWAP5 POP PUSH1 0x20 DUP2 ADD SWAP1 POP PUSH3 0x52D JUMP JUMPDEST DUP7 DUP4 LT ISZERO PUSH3 0x574 JUMPI DUP5 DUP10 ADD MLOAD PUSH3 0x570 PUSH1 0x1F DUP10 AND DUP3 PUSH3 0x46A JUMP JUMPDEST DUP4 SSTORE POP JUMPDEST PUSH1 0x1 PUSH1 0x2 DUP9 MUL ADD DUP9 SSTORE POP POP POP JUMPDEST POP POP POP POP POP POP JUMP JUMPDEST PUSH1 0x80 MLOAD PUSH2 0x378 PUSH3 0x5A2 PUSH0 CODECOPY PUSH0 PUSH2 0x18F ADD MSTORE PUSH2 0x378 PUSH0 RETURN INVALID PUSH1 0x80 PUSH1 0x40 MSTORE CALLVALUE DUP1 ISZERO PUSH2 0xF JUMPI PUSH0 DUP1 REVERT JUMPDEST POP PUSH1 0x4 CALLDATASIZE LT PUSH2 0x55 JUMPI PUSH0 CALLDATALOAD PUSH1 0xE0 SHR DUP1 PUSH4 0x18160DDD EQ PUSH2 0x59 JUMPI DUP1 PUSH4 0x60FE47B1 EQ PUSH2 0x77 JUMPI DUP1 PUSH4 0x6C02A931 EQ PUSH2 0x93 JUMPI DUP1 PUSH4 0x90C52443 EQ PUSH2 0xB1 JUMPI DUP1 PUSH4 0xEB6A867D EQ PUSH2 0xCF JUMPI JUMPDEST PUSH0 DUP1 REVERT JUMPDEST PUSH2 0x61 PUSH2 0xED JUMP JUMPDEST PUSH1 0x40 MLOAD PUSH2 0x6E SWAP2 SWAP1 PUSH2 0x1C9 JUMP JUMPDEST PUSH1 0x40 MLOAD DUP1 SWAP2 SUB SWAP1 RETURN JUMPDEST PUSH2 0x91 PUSH1 0x4 DUP1 CALLDATASIZE SUB DUP2 ADD SWAP1 PUSH2 0x8C SWAP2 SWAP1 PUSH2 0x210 JUMP JUMPDEST PUSH2 0xF3 JUMP JUMPDEST STOP JUMPDEST PUSH2 0x9B PUSH2 0xFD JUMP JUMPDEST PUSH1 0x40 MLOAD PUSH2 0xA8 SWAP2 SWAP1 PUSH2 0x2C5 JUMP JUMPDEST PUSH1 0x40 MLOAD DUP1 SWAP2 SUB SWAP1 RETURN JUMPDEST PUSH2 0xB9 PUSH2 0x188 JUMP JUMPDEST PUSH1 0x40 MLOAD PUSH2 0xC6 SWAP2 SWAP1 PUSH2 0x1C9 JUMP JUMPDEST PUSH1 0x40 MLOAD DUP1 SWAP2 SUB SWAP1 RETURN JUMPDEST PUSH2 0xD7 PUSH2 0x18D JUMP JUMPDEST PUSH1 0x40 MLOAD PUSH2 0xE4 SWAP2 SWAP1 PUSH2 0x1C9 JUMP JUMPDEST PUSH1 0x40 MLOAD DUP1 SWAP2 SUB SWAP1 RETURN JUMPDEST PUSH1 0x1 SLOAD DUP2 JUMP JUMPDEST DUP1 PUSH1 0x1 DUP2 SWAP1 SSTORE POP POP JUMP JUMPDEST PUSH0 DUP1 SLOAD PUSH2 0x109 SWAP1 PUSH2 0x312 JUMP JUMPDEST DUP1 PUSH1 0x1F ADD PUSH1 0x20 DUP1 SWAP2 DIV MUL PUSH1 0x20 ADD PUSH1 0x40 MLOAD SWAP1 DUP2 ADD PUSH1 0x40 MSTORE DUP1 SWAP3 SWAP2 SWAP1 DUP2 DUP2 MSTORE PUSH1 0x20 ADD DUP3 DUP1 SLOAD PUSH2 0x135 SWAP1 PUSH2 0x312 JUMP JUMPDEST DUP1 ISZERO PUSH2 0x180 JUMPI DUP1 PUSH1 0x1F LT PUSH2 0x157 JUMPI PUSH2 0x100 DUP1 DUP4 SLOAD DIV MUL DUP4 MSTORE SWAP2 PUSH1 0x20 ADD SWAP2 PUSH2 0x180 JUMP JUMPDEST DUP3 ADD SWAP2 SWAP1 PUSH0 MSTORE PUSH1 0x20 PUSH0 KECCAK256 SWAP1 JUMPDEST DUP2 SLOAD DUP2 MSTORE SWAP1 PUSH1 0x1 ADD SWAP1 PUSH1 0x20 ADD DUP1 DUP4 GT PUSH2 0x163 JUMPI DUP3 SWAP1 SUB PUSH1 0x1F AND DUP3 ADD SWAP2 JUMPDEST POP POP POP POP POP DUP2 JUMP JUMPDEST PUSH1 0xA DUP2 JUMP JUMPDEST PUSH32 0x0 DUP2 JUMP JUMPDEST PUSH0 DUP2 SWAP1 POP SWAP2 SWAP1 POP JUMP JUMPDEST PUSH2 0x1C3 DUP2 PUSH2 0x1B1 JUMP JUMPDEST DUP3 MSTORE POP POP JUMP JUMPDEST PUSH0 PUSH1 0x20 DUP3 ADD SWAP1 POP PUSH2 0x1DC PUSH0 DUP4 ADD DUP5 PUSH2 0x1BA JUMP JUMPDEST SWAP3 SWAP2 POP POP JUMP JUMPDEST PUSH0 DUP1 REVERT JUMPDEST PUSH2 0x1EF DUP2 PUSH2 0x1B1 JUMP JUMPDEST DUP2 EQ PUSH2 0x1F9 JUMPI PUSH0 DUP1 REVERT JUMPDEST POP JUMP JUMPDEST PUSH0 DUP2 CALLDATALOAD SWAP1 POP PUSH2 0x20A DUP2 PUSH2 0x1E6 JUMP JUMPDEST SWAP3 SWAP2 POP POP JUMP JUMPDEST PUSH0 PUSH1 0x20 DUP3 DUP5 SUB SLT ISZERO PUSH2 0x225 JUMPI PUSH2 0x224 PUSH2 0x1E2 JUMP JUMPDEST JUMPDEST PUSH0 PUSH2 0x232 DUP5 DUP3 DUP6 ADD PUSH2 0x1FC JUMP JUMPDEST SWAP2 POP POP SWAP3 SWAP2 POP POP JUMP JUMPDEST PUSH0 DUP2 MLOAD SWAP1 POP SWAP2 SWAP1 POP JUMP JUMPDEST PUSH0 DUP3 DUP3 MSTORE PUSH1 0x20 DUP3 ADD SWAP1 POP SWAP3 SWAP2 POP POP JUMP JUMPDEST PUSH0 JUMPDEST DUP4 DUP2 LT ISZERO PUSH2 0x272 JUMPI DUP1 DUP3 ADD MLOAD DUP2 DUP5 ADD MSTORE PUSH1 0x20 DUP2 ADD SWAP1 POP PUSH2 0x257 JUMP JUMPDEST PUSH0 DUP5 DUP5 ADD MSTORE POP POP POP POP JUMP JUMPDEST PUSH0 PUSH1 0x1F NOT PUSH1 0x1F DUP4 ADD AND SWAP1 POP SWAP2 SWAP1 POP JUMP JUMPDEST PUSH0 PUSH2 0x297 DUP3 PUSH2 0x23B JUMP JUMPDEST PUSH2 0x2A1 DUP2 DUP6 PUSH2 0x245 JUMP JUMPDEST SWAP4 POP PUSH2 0x2B1 DUP2 DUP6 PUSH1 0x20 DUP7 ADD PUSH2 0x255 JUMP JUMPDEST PUSH2 0x2BA DUP2 PUSH2 0x27D JUMP JUMPDEST DUP5 ADD SWAP2 POP POP SWAP3 SWAP2 POP POP JUMP JUMPDEST PUSH0 PUSH1 0x20 DUP3 ADD SWAP1 POP DUP2 DUP2 SUB PUSH0 DUP4 ADD MSTORE PUSH2 0x2DD DUP2 DUP5 PUSH2 0x28D JUMP JUMPDEST SWAP1 POP SWAP3 SWAP2 POP POP JUMP JUMPDEST PUSH32 0x4E487B7100000000000000000000000000000000000000000000000000000000 PUSH0 MSTORE PUSH1 0x22 PUSH1 0x4 MSTORE PUSH1 0x24 PUSH0 REVERT JUMPDEST PUSH0 PUSH1 0x2 DUP3 DIV SWAP1 POP PUSH1 0x1 DUP3 AND DUP1 PUSH2 0x329 JUMPI PUSH1 0x7F DUP3 AND SWAP2 POP JUMPDEST PUSH1 0x20 DUP3 LT DUP2 SUB PUSH2 0x33C JUMPI PUSH2 0x33B PUSH2 0x2E5 JUMP JUMPDEST JUMPDEST POP SWAP2 SWAP1 POP JUMP INVALID LOG2 PUSH5 0x6970667358 0x22 SLT KECCAK256 LOG1 GASPRICE 0xE9 PUSH24 0xDA08E33FBFBF8A4C4B6871BD5D8383F983FF6A3DE2918098 SUB 0xC0 CALLER 0xD9 PUSH5 0x736F6C6343 STOP ADDMOD OR STOP CALLER "
		},
		"gasEstimates": {
			"creation": {
				"codeDepositCost": "177600",
				"executionCost": "infinite",
				"totalCost": "infinite"
			},
			"external": {
				"number2()": "369",
				"sayi()": "infinite",
				"set(uint256)": "22515",
				"tokenName()": "infinite",
				"totalSupply()": "2403"
			}
		},
		"methodIdentifiers": {
			"number2()": "90c52443",
			"sayi()": "eb6a867d",
			"set(uint256)": "60fe47b1",
			"tokenName()": "6c02a931",
			"totalSupply()": "18160ddd"
		}
	},
	"abi": [
		{
			"inputs": [
				{
					"internalType": "string",
					"name": "name",
					"type": "string"
				},
				{
					"internalType": "uint256",
					"name": "number",
					"type": "uint256"
				}
			],
			"stateMutability": "nonpayable",
			"type": "constructor"
		},
		{
			"inputs": [],
			"name": "number2",
			"outputs": [
				{
					"internalType": "uint256",
					"name": "",
					"type": "uint256"
				}
			],
			"stateMutability": "view",
			"type": "function"
		},
		{
			"inputs": [],
			"name": "sayi",
			"outputs": [
				{
					"internalType": "uint256",
					"name": "",
					"type": "uint256"
				}
			],
			"stateMutability": "view",
			"type": "function"
		},
		{
			"inputs": [
				{
					"internalType": "uint256",
					"name": "number",
					"type": "uint256"
				}
			],
			"name": "set",
			"outputs": [],
			"stateMutability": "nonpayable",
			"type": "function"
		},
		{
			"inputs": [],
			"name": "tokenName",
			"outputs": [
				{
					"internalType": "string",
					"name": "",
					"type": "string"
				}
			],
			"stateMutability": "view",
			"type": "function"
		},
		{
			"inputs": [],
			"name": "totalSupply",
			"outputs": [
				{
					"internalType": "uint256",
					"name": "",
					"type": "uint256"
				}
			],
			"stateMutability": "view",
			"type": "function"
		}
	]
}