{
	"contracts/datalocations.sol": {
		"School": {
			"abi": [
				{
					"inputs": [
						{
							"internalType": "string",
							"name": "name",
							"type": "string"
						},
						{
							"internalType": "uint8",
							"name": "age",
							"type": "uint8"
						},
						{
							"internalType": "uint16",
							"name": "score",
							"type": "uint16"
						}
					],
					"name": "addStudent",
					"outputs": [],
					"stateMutability": "nonpayable",
					"type": "function"
				},
				{
					"inputs": [
						{
							"internalType": "uint256",
							"name": "Id",
							"type": "uint256"
						},
						{
							"internalType": "string",
							"name": "newName",
							"type": "string"
						},
						{
							"internalType": "uint8",
							"name": "newAge",
							"type": "uint8"
						},
						{
							"internalType": "uint16",
							"name": "newScore",
							"type": "uint16"
						}
					],
					"name": "chanceStudentInfoMemory",
					"outputs": [],
					"stateMutability": "view",
					"type": "function"
				},
				{
					"inputs": [
						{
							"internalType": "uint256",
							"name": "Id",
							"type": "uint256"
						},
						{
							"internalType": "string",
							"name": "newName",
							"type": "string"
						},
						{
							"internalType": "uint8",
							"name": "newAge",
							"type": "uint8"
						},
						{
							"internalType": "uint16",
							"name": "newScore",
							"type": "uint16"
						}
					],
					"name": "chanceStudentInfoStroge",
					"outputs": [],
					"stateMutability": "nonpayable",
					"type": "function"
				},
				{
					"inputs": [
						{
							"internalType": "uint256",
							"name": "Id",
							"type": "uint256"
						}
					],
					"name": "getStudent",
					"outputs": [
						{
							"internalType": "string",
							"name": "",
							"type": "string"
						}
					],
					"stateMutability": "view",
					"type": "function"
				}
			],
			"devdoc": {
				"kind": "dev",
				"methods": {},
				"version": 1
			},
			"evm": {
				"assembly": "    /* \"contracts/datalocations.sol\":133:1153  contract School{... */\n  mstore(0x40, 0x80)\n    /* \"contracts/datalocations.sol\":179:180  0 */\n  0x00\n    /* \"contracts/datalocations.sol\":155:180  uint256 totalStudents = 0 */\n  dup1\n  sstore\n    /* \"contracts/datalocations.sol\":133:1153  contract School{... */\n  callvalue\n  dup1\n  iszero\n  tag_1\n  jumpi\n  0x00\n  dup1\n  revert\ntag_1:\n  pop\n  dataSize(sub_0)\n  dup1\n  dataOffset(sub_0)\n  0x00\n  codecopy\n  0x00\n  return\nstop\n\nsub_0: assembly {\n        /* \"contracts/datalocations.sol\":133:1153  contract School{... */\n      mstore(0x40, 0x80)\n      callvalue\n      dup1\n      iszero\n      tag_1\n      jumpi\n      0x00\n      dup1\n      revert\n    tag_1:\n      pop\n      jumpi(tag_2, lt(calldatasize, 0x04))\n      shr(0xe0, calldataload(0x00))\n      dup1\n      0x1bc3115e\n      eq\n      tag_3\n      jumpi\n      dup1\n      0x642f9163\n      eq\n      tag_4\n      jumpi\n      dup1\n      0x95130f98\n      eq\n      tag_5\n      jumpi\n      dup1\n      0xc2dd3895\n      eq\n      tag_6\n      jumpi\n    tag_2:\n      0x00\n      dup1\n      revert\n        /* \"contracts/datalocations.sol\":233:420  function addStudent(string calldata name, uint8 age, uint16 score) external {... */\n    tag_3:\n      tag_7\n      0x04\n      dup1\n      calldatasize\n      sub\n      dup2\n      add\n      swap1\n      tag_8\n      swap2\n      swap1\n      tag_9\n      jump\t// in\n    tag_8:\n      tag_10\n      jump\t// in\n    tag_7:\n      stop\n        /* \"contracts/datalocations.sol\":1038:1150  function getStudent(uint256 Id) external view  returns(string memory){... */\n    tag_4:\n      tag_11\n      0x04\n      dup1\n      calldatasize\n      sub\n      dup2\n      add\n      swap1\n      tag_12\n      swap2\n      swap1\n      tag_13\n      jump\t// in\n    tag_12:\n      tag_14\n      jump\t// in\n    tag_11:\n      mload(0x40)\n      tag_15\n      swap2\n      swap1\n      tag_16\n      jump\t// in\n    tag_15:\n      mload(0x40)\n      dup1\n      swap2\n      sub\n      swap1\n      return\n        /* \"contracts/datalocations.sol\":729:1032  function chanceStudentInfoMemory(uint256 Id, string calldata newName, uint8 newAge, uint16 newScore ) external view   {... */\n    tag_5:\n      tag_17\n      0x04\n      dup1\n      calldatasize\n      sub\n      dup2\n      add\n      swap1\n      tag_18\n      swap2\n      swap1\n      tag_19\n      jump\t// in\n    tag_18:\n      tag_20\n      jump\t// in\n    tag_17:\n      stop\n        /* \"contracts/datalocations.sol\":426:723  function chanceStudentInfoStroge(uint256 Id, string calldata newName, uint8 newAge, uint16 newScore ) external {... */\n    tag_6:\n      tag_21\n      0x04\n      dup1\n      calldatasize\n      sub\n      dup2\n      add\n      swap1\n      tag_22\n      swap2\n      swap1\n      tag_19\n      jump\t// in\n    tag_22:\n      tag_23\n      jump\t// in\n    tag_21:\n      stop\n        /* \"contracts/datalocations.sol\":233:420  function addStudent(string calldata name, uint8 age, uint16 score) external {... */\n    tag_10:\n        /* \"contracts/datalocations.sol\":320:337  uint256 currentId */\n      0x00\n        /* \"contracts/datalocations.sol\":341:354  totalStudents */\n      dup1\n      0x00\n        /* \"contracts/datalocations.sol\":341:356  totalStudents++ */\n      dup2\n      sload\n      dup1\n      swap3\n      swap2\n      swap1\n      tag_25\n      swap1\n      tag_26\n      jump\t// in\n    tag_25:\n      swap2\n      swap1\n      pop\n      sstore\n        /* \"contracts/datalocations.sol\":320:356  uint256 currentId =  totalStudents++ */\n      swap1\n      pop\n        /* \"contracts/datalocations.sol\":389:412  Student(age,score,name) */\n      mload(0x40)\n      dup1\n      0x60\n      add\n      0x40\n      mstore\n      dup1\n        /* \"contracts/datalocations.sol\":397:400  age */\n      dup5\n        /* \"contracts/datalocations.sol\":389:412  Student(age,score,name) */\n      0xff\n      and\n      dup2\n      mstore\n      0x20\n      add\n        /* \"contracts/datalocations.sol\":401:406  score */\n      dup4\n        /* \"contracts/datalocations.sol\":389:412  Student(age,score,name) */\n      0xffff\n      and\n      dup2\n      mstore\n      0x20\n      add\n        /* \"contracts/datalocations.sol\":407:411  name */\n      dup7\n      dup7\n        /* \"contracts/datalocations.sol\":389:412  Student(age,score,name) */\n      dup1\n      dup1\n      0x1f\n      add\n      0x20\n      dup1\n      swap2\n      div\n      mul\n      0x20\n      add\n      mload(0x40)\n      swap1\n      dup2\n      add\n      0x40\n      mstore\n      dup1\n      swap4\n      swap3\n      swap2\n      swap1\n      dup2\n      dup2\n      mstore\n      0x20\n      add\n      dup4\n      dup4\n      dup1\n      dup3\n      dup5\n      calldatacopy\n      0x00\n      dup2\n      dup5\n      add\n      mstore\n      not(0x1f)\n      0x1f\n      dup3\n      add\n      and\n      swap1\n      pop\n      dup1\n      dup4\n      add\n      swap3\n      pop\n      pop\n      pop\n      pop\n      pop\n      pop\n      pop\n      dup2\n      mstore\n      pop\n        /* \"contracts/datalocations.sol\":367:375  students */\n      0x01\n        /* \"contracts/datalocations.sol\":367:386  students[currentId] */\n      0x00\n        /* \"contracts/datalocations.sol\":376:385  currentId */\n      dup4\n        /* \"contracts/datalocations.sol\":367:386  students[currentId] */\n      dup2\n      mstore\n      0x20\n      add\n      swap1\n      dup2\n      mstore\n      0x20\n      add\n      0x00\n      keccak256\n        /* \"contracts/datalocations.sol\":367:412  students[currentId] = Student(age,score,name) */\n      0x00\n      dup3\n      add\n      mload\n      dup2\n      0x00\n      add\n      exp(0x0100, 0x00)\n      dup2\n      sload\n      dup2\n      0xff\n      mul\n      not\n      and\n      swap1\n      dup4\n      0xff\n      and\n      mul\n      or\n      swap1\n      sstore\n      pop\n      0x20\n      dup3\n      add\n      mload\n      dup2\n      0x00\n      add\n      exp(0x0100, 0x01)\n      dup2\n      sload\n      dup2\n      0xffff\n      mul\n      not\n      and\n      swap1\n      dup4\n      0xffff\n      and\n      mul\n      or\n      swap1\n      sstore\n      pop\n      0x40\n      dup3\n      add\n      mload\n      dup2\n      0x01\n      add\n      swap1\n      dup2\n      tag_27\n      swap2\n      swap1\n      tag_28\n      jump\t// in\n    tag_27:\n      pop\n      swap1\n      pop\n      pop\n        /* \"contracts/datalocations.sol\":309:420  {... */\n      pop\n        /* \"contracts/datalocations.sol\":233:420  function addStudent(string calldata name, uint8 age, uint16 score) external {... */\n      pop\n      pop\n      pop\n      pop\n      jump\t// out\n        /* \"contracts/datalocations.sol\":1038:1150  function getStudent(uint256 Id) external view  returns(string memory){... */\n    tag_14:\n        /* \"contracts/datalocations.sol\":1093:1106  string memory */\n      0x60\n        /* \"contracts/datalocations.sol\":1125:1133  students */\n      0x01\n        /* \"contracts/datalocations.sol\":1125:1137  students[Id] */\n      0x00\n        /* \"contracts/datalocations.sol\":1134:1136  Id */\n      dup4\n        /* \"contracts/datalocations.sol\":1125:1137  students[Id] */\n      dup2\n      mstore\n      0x20\n      add\n      swap1\n      dup2\n      mstore\n      0x20\n      add\n      0x00\n      keccak256\n        /* \"contracts/datalocations.sol\":1125:1142  students[Id].name */\n      0x01\n      add\n        /* \"contracts/datalocations.sol\":1118:1142  return students[Id].name */\n      dup1\n      sload\n      tag_30\n      swap1\n      tag_31\n      jump\t// in\n    tag_30:\n      dup1\n      0x1f\n      add\n      0x20\n      dup1\n      swap2\n      div\n      mul\n      0x20\n      add\n      mload(0x40)\n      swap1\n      dup2\n      add\n      0x40\n      mstore\n      dup1\n      swap3\n      swap2\n      swap1\n      dup2\n      dup2\n      mstore\n      0x20\n      add\n      dup3\n      dup1\n      sload\n      tag_32\n      swap1\n      tag_31\n      jump\t// in\n    tag_32:\n      dup1\n      iszero\n      tag_33\n      jumpi\n      dup1\n      0x1f\n      lt\n      tag_34\n      jumpi\n      0x0100\n      dup1\n      dup4\n      sload\n      div\n      mul\n      dup4\n      mstore\n      swap2\n      0x20\n      add\n      swap2\n      jump(tag_33)\n    tag_34:\n      dup3\n      add\n      swap2\n      swap1\n      0x00\n      mstore\n      keccak256(0x00, 0x20)\n      swap1\n    tag_35:\n      dup2\n      sload\n      dup2\n      mstore\n      swap1\n      0x01\n      add\n      swap1\n      0x20\n      add\n      dup1\n      dup4\n      gt\n      tag_35\n      jumpi\n      dup3\n      swap1\n      sub\n      0x1f\n      and\n      dup3\n      add\n      swap2\n    tag_33:\n      pop\n      pop\n      pop\n      pop\n      pop\n      swap1\n      pop\n        /* \"contracts/datalocations.sol\":1038:1150  function getStudent(uint256 Id) external view  returns(string memory){... */\n      swap2\n      swap1\n      pop\n      jump\t// out\n        /* \"contracts/datalocations.sol\":729:1032  function chanceStudentInfoMemory(uint256 Id, string calldata newName, uint8 newAge, uint16 newScore ) external view   {... */\n    tag_20:\n        /* \"contracts/datalocations.sol\":858:887  Student memory currentStudent */\n      0x00\n        /* \"contracts/datalocations.sol\":890:898  students */\n      0x01\n        /* \"contracts/datalocations.sol\":890:902  students[Id] */\n      0x00\n        /* \"contracts/datalocations.sol\":899:901  Id */\n      dup8\n        /* \"contracts/datalocations.sol\":890:902  students[Id] */\n      dup2\n      mstore\n      0x20\n      add\n      swap1\n      dup2\n      mstore\n      0x20\n      add\n      0x00\n      keccak256\n        /* \"contracts/datalocations.sol\":858:902  Student memory currentStudent = students[Id] */\n      mload(0x40)\n      dup1\n      0x60\n      add\n      0x40\n      mstore\n      swap1\n      dup2\n      0x00\n      dup3\n      add\n      0x00\n      swap1\n      sload\n      swap1\n      0x0100\n      exp\n      swap1\n      div\n      0xff\n      and\n      0xff\n      and\n      0xff\n      and\n      dup2\n      mstore\n      0x20\n      add\n      0x00\n      dup3\n      add\n      0x01\n      swap1\n      sload\n      swap1\n      0x0100\n      exp\n      swap1\n      div\n      0xffff\n      and\n      0xffff\n      and\n      0xffff\n      and\n      dup2\n      mstore\n      0x20\n      add\n      0x01\n      dup3\n      add\n      dup1\n      sload\n      tag_37\n      swap1\n      tag_31\n      jump\t// in\n    tag_37:\n      dup1\n      0x1f\n      add\n      0x20\n      dup1\n      swap2\n      div\n      mul\n      0x20\n      add\n      mload(0x40)\n      swap1\n      dup2\n      add\n      0x40\n      mstore\n      dup1\n      swap3\n      swap2\n      swap1\n      dup2\n      dup2\n      mstore\n      0x20\n      add\n      dup3\n      dup1\n      sload\n      tag_38\n      swap1\n      tag_31\n      jump\t// in\n    tag_38:\n      dup1\n      iszero\n      tag_39\n      jumpi\n      dup1\n      0x1f\n      lt\n      tag_40\n      jumpi\n      0x0100\n      dup1\n      dup4\n      sload\n      div\n      mul\n      dup4\n      mstore\n      swap2\n      0x20\n      add\n      swap2\n      jump(tag_39)\n    tag_40:\n      dup3\n      add\n      swap2\n      swap1\n      0x00\n      mstore\n      keccak256(0x00, 0x20)\n      swap1\n    tag_41:\n      dup2\n      sload\n      dup2\n      mstore\n      swap1\n      0x01\n      add\n      swap1\n      0x20\n      add\n      dup1\n      dup4\n      gt\n      tag_41\n      jumpi\n      dup3\n      swap1\n      sub\n      0x1f\n      and\n      dup3\n      add\n      swap2\n    tag_39:\n      pop\n      pop\n      pop\n      pop\n      pop\n      dup2\n      mstore\n      pop\n      pop\n      swap1\n      pop\n        /* \"contracts/datalocations.sol\":937:944  newName */\n      dup5\n      dup5\n        /* \"contracts/datalocations.sol\":915:944  currentStudent.name = newName */\n      dup1\n      dup1\n      0x1f\n      add\n      0x20\n      dup1\n      swap2\n      div\n      mul\n      0x20\n      add\n      mload(0x40)\n      swap1\n      dup2\n      add\n      0x40\n      mstore\n      dup1\n      swap4\n      swap3\n      swap2\n      swap1\n      dup2\n      dup2\n      mstore\n      0x20\n      add\n      dup4\n      dup4\n      dup1\n      dup3\n      dup5\n      calldatacopy\n      0x00\n      dup2\n      dup5\n      add\n      mstore\n      not(0x1f)\n      0x1f\n      dup3\n      add\n      and\n      swap1\n      pop\n      dup1\n      dup4\n      add\n      swap3\n      pop\n      pop\n      pop\n      pop\n      pop\n      pop\n      pop\n        /* \"contracts/datalocations.sol\":915:929  currentStudent */\n      dup2\n        /* \"contracts/datalocations.sol\":915:934  currentStudent.name */\n      0x40\n      add\n        /* \"contracts/datalocations.sol\":915:944  currentStudent.name = newName */\n      dup2\n      swap1\n      mstore\n      pop\n        /* \"contracts/datalocations.sol\":976:982  newAge */\n      dup3\n        /* \"contracts/datalocations.sol\":955:969  currentStudent */\n      dup2\n        /* \"contracts/datalocations.sol\":955:973  currentStudent.age */\n      0x00\n      add\n        /* \"contracts/datalocations.sol\":955:982  currentStudent.age = newAge */\n      swap1\n      0xff\n      and\n      swap1\n      dup2\n      0xff\n      and\n      dup2\n      mstore\n      pop\n      pop\n        /* \"contracts/datalocations.sol\":1016:1024  newScore */\n      dup2\n        /* \"contracts/datalocations.sol\":993:1007  currentStudent */\n      dup2\n        /* \"contracts/datalocations.sol\":993:1013  currentStudent.score */\n      0x20\n      add\n        /* \"contracts/datalocations.sol\":993:1024  currentStudent.score = newScore */\n      swap1\n      0xffff\n      and\n      swap1\n      dup2\n      0xffff\n      and\n      dup2\n      mstore\n      pop\n      pop\n        /* \"contracts/datalocations.sol\":847:1032  {... */\n      pop\n        /* \"contracts/datalocations.sol\":729:1032  function chanceStudentInfoMemory(uint256 Id, string calldata newName, uint8 newAge, uint16 newScore ) external view   {... */\n      pop\n      pop\n      pop\n      pop\n      pop\n      jump\t// out\n        /* \"contracts/datalocations.sol\":426:723  function chanceStudentInfoStroge(uint256 Id, string calldata newName, uint8 newAge, uint16 newScore ) external {... */\n    tag_23:\n        /* \"contracts/datalocations.sol\":548:578  Student storage currentStudent */\n      0x00\n        /* \"contracts/datalocations.sol\":581:589  students */\n      0x01\n        /* \"contracts/datalocations.sol\":581:593  students[Id] */\n      0x00\n        /* \"contracts/datalocations.sol\":590:592  Id */\n      dup8\n        /* \"contracts/datalocations.sol\":581:593  students[Id] */\n      dup2\n      mstore\n      0x20\n      add\n      swap1\n      dup2\n      mstore\n      0x20\n      add\n      0x00\n      keccak256\n        /* \"contracts/datalocations.sol\":548:593  Student storage currentStudent = students[Id] */\n      swap1\n      pop\n        /* \"contracts/datalocations.sol\":628:635  newName */\n      dup5\n      dup5\n        /* \"contracts/datalocations.sol\":606:620  currentStudent */\n      dup3\n        /* \"contracts/datalocations.sol\":606:625  currentStudent.name */\n      0x01\n      add\n        /* \"contracts/datalocations.sol\":606:635  currentStudent.name = newName */\n      swap2\n      dup3\n      tag_43\n      swap3\n      swap2\n      swap1\n      tag_44\n      jump\t// in\n    tag_43:\n      pop\n        /* \"contracts/datalocations.sol\":667:673  newAge */\n      dup3\n        /* \"contracts/datalocations.sol\":646:660  currentStudent */\n      dup2\n        /* \"contracts/datalocations.sol\":646:664  currentStudent.age */\n      0x00\n      add\n      0x00\n        /* \"contracts/datalocations.sol\":646:673  currentStudent.age = newAge */\n      0x0100\n      exp\n      dup2\n      sload\n      dup2\n      0xff\n      mul\n      not\n      and\n      swap1\n      dup4\n      0xff\n      and\n      mul\n      or\n      swap1\n      sstore\n      pop\n        /* \"contracts/datalocations.sol\":707:715  newScore */\n      dup2\n        /* \"contracts/datalocations.sol\":684:698  currentStudent */\n      dup2\n        /* \"contracts/datalocations.sol\":684:704  currentStudent.score */\n      0x00\n      add\n      0x01\n        /* \"contracts/datalocations.sol\":684:715  currentStudent.score = newScore */\n      0x0100\n      exp\n      dup2\n      sload\n      dup2\n      0xffff\n      mul\n      not\n      and\n      swap1\n      dup4\n      0xffff\n      and\n      mul\n      or\n      swap1\n      sstore\n      pop\n        /* \"contracts/datalocations.sol\":537:723  {... */\n      pop\n        /* \"contracts/datalocations.sol\":426:723  function chanceStudentInfoStroge(uint256 Id, string calldata newName, uint8 newAge, uint16 newScore ) external {... */\n      pop\n      pop\n      pop\n      pop\n      pop\n      jump\t// out\n        /* \"#utility.yul\":88:205   */\n    tag_46:\n        /* \"#utility.yul\":197:198   */\n      0x00\n        /* \"#utility.yul\":194:195   */\n      dup1\n        /* \"#utility.yul\":187:199   */\n      revert\n        /* \"#utility.yul\":211:328   */\n    tag_47:\n        /* \"#utility.yul\":320:321   */\n      0x00\n        /* \"#utility.yul\":317:318   */\n      dup1\n        /* \"#utility.yul\":310:322   */\n      revert\n        /* \"#utility.yul\":334:451   */\n    tag_48:\n        /* \"#utility.yul\":443:444   */\n      0x00\n        /* \"#utility.yul\":440:441   */\n      dup1\n        /* \"#utility.yul\":433:445   */\n      revert\n        /* \"#utility.yul\":457:574   */\n    tag_49:\n        /* \"#utility.yul\":566:567   */\n      0x00\n        /* \"#utility.yul\":563:564   */\n      dup1\n        /* \"#utility.yul\":556:568   */\n      revert\n        /* \"#utility.yul\":580:697   */\n    tag_50:\n        /* \"#utility.yul\":689:690   */\n      0x00\n        /* \"#utility.yul\":686:687   */\n      dup1\n        /* \"#utility.yul\":679:691   */\n      revert\n        /* \"#utility.yul\":717:1270   */\n    tag_51:\n        /* \"#utility.yul\":775:783   */\n      0x00\n        /* \"#utility.yul\":785:791   */\n      dup1\n        /* \"#utility.yul\":835:838   */\n      dup4\n        /* \"#utility.yul\":828:832   */\n      0x1f\n        /* \"#utility.yul\":820:826   */\n      dup5\n        /* \"#utility.yul\":816:833   */\n      add\n        /* \"#utility.yul\":812:839   */\n      slt\n        /* \"#utility.yul\":802:924   */\n      tag_93\n      jumpi\n        /* \"#utility.yul\":843:922   */\n      tag_94\n      tag_48\n      jump\t// in\n    tag_94:\n        /* \"#utility.yul\":802:924   */\n    tag_93:\n        /* \"#utility.yul\":956:962   */\n      dup3\n        /* \"#utility.yul\":943:963   */\n      calldataload\n        /* \"#utility.yul\":933:963   */\n      swap1\n      pop\n        /* \"#utility.yul\":986:1004   */\n      0xffffffffffffffff\n        /* \"#utility.yul\":978:984   */\n      dup2\n        /* \"#utility.yul\":975:1005   */\n      gt\n        /* \"#utility.yul\":972:1089   */\n      iszero\n      tag_95\n      jumpi\n        /* \"#utility.yul\":1008:1087   */\n      tag_96\n      tag_49\n      jump\t// in\n    tag_96:\n        /* \"#utility.yul\":972:1089   */\n    tag_95:\n        /* \"#utility.yul\":1122:1126   */\n      0x20\n        /* \"#utility.yul\":1114:1120   */\n      dup4\n        /* \"#utility.yul\":1110:1127   */\n      add\n        /* \"#utility.yul\":1098:1127   */\n      swap2\n      pop\n        /* \"#utility.yul\":1176:1179   */\n      dup4\n        /* \"#utility.yul\":1168:1172   */\n      0x01\n        /* \"#utility.yul\":1160:1166   */\n      dup3\n        /* \"#utility.yul\":1156:1173   */\n      mul\n        /* \"#utility.yul\":1146:1154   */\n      dup4\n        /* \"#utility.yul\":1142:1174   */\n      add\n        /* \"#utility.yul\":1139:1180   */\n      gt\n        /* \"#utility.yul\":1136:1264   */\n      iszero\n      tag_97\n      jumpi\n        /* \"#utility.yul\":1183:1262   */\n      tag_98\n      tag_50\n      jump\t// in\n    tag_98:\n        /* \"#utility.yul\":1136:1264   */\n    tag_97:\n        /* \"#utility.yul\":717:1270   */\n      swap3\n      pop\n      swap3\n      swap1\n      pop\n      jump\t// out\n        /* \"#utility.yul\":1276:1362   */\n    tag_52:\n        /* \"#utility.yul\":1311:1318   */\n      0x00\n        /* \"#utility.yul\":1351:1355   */\n      0xff\n        /* \"#utility.yul\":1344:1349   */\n      dup3\n        /* \"#utility.yul\":1340:1356   */\n      and\n        /* \"#utility.yul\":1329:1356   */\n      swap1\n      pop\n        /* \"#utility.yul\":1276:1362   */\n      swap2\n      swap1\n      pop\n      jump\t// out\n        /* \"#utility.yul\":1368:1486   */\n    tag_53:\n        /* \"#utility.yul\":1439:1461   */\n      tag_101\n        /* \"#utility.yul\":1455:1460   */\n      dup2\n        /* \"#utility.yul\":1439:1461   */\n      tag_52\n      jump\t// in\n    tag_101:\n        /* \"#utility.yul\":1432:1437   */\n      dup2\n        /* \"#utility.yul\":1429:1462   */\n      eq\n        /* \"#utility.yul\":1419:1480   */\n      tag_102\n      jumpi\n        /* \"#utility.yul\":1476:1477   */\n      0x00\n        /* \"#utility.yul\":1473:1474   */\n      dup1\n        /* \"#utility.yul\":1466:1478   */\n      revert\n        /* \"#utility.yul\":1419:1480   */\n    tag_102:\n        /* \"#utility.yul\":1368:1486   */\n      pop\n      jump\t// out\n        /* \"#utility.yul\":1492:1627   */\n    tag_54:\n        /* \"#utility.yul\":1536:1541   */\n      0x00\n        /* \"#utility.yul\":1574:1580   */\n      dup2\n        /* \"#utility.yul\":1561:1581   */\n      calldataload\n        /* \"#utility.yul\":1552:1581   */\n      swap1\n      pop\n        /* \"#utility.yul\":1590:1621   */\n      tag_104\n        /* \"#utility.yul\":1615:1620   */\n      dup2\n        /* \"#utility.yul\":1590:1621   */\n      tag_53\n      jump\t// in\n    tag_104:\n        /* \"#utility.yul\":1492:1627   */\n      swap3\n      swap2\n      pop\n      pop\n      jump\t// out\n        /* \"#utility.yul\":1633:1722   */\n    tag_55:\n        /* \"#utility.yul\":1669:1676   */\n      0x00\n        /* \"#utility.yul\":1709:1715   */\n      0xffff\n        /* \"#utility.yul\":1702:1707   */\n      dup3\n        /* \"#utility.yul\":1698:1716   */\n      and\n        /* \"#utility.yul\":1687:1716   */\n      swap1\n      pop\n        /* \"#utility.yul\":1633:1722   */\n      swap2\n      swap1\n      pop\n      jump\t// out\n        /* \"#utility.yul\":1728:1848   */\n    tag_56:\n        /* \"#utility.yul\":1800:1823   */\n      tag_107\n        /* \"#utility.yul\":1817:1822   */\n      dup2\n        /* \"#utility.yul\":1800:1823   */\n      tag_55\n      jump\t// in\n    tag_107:\n        /* \"#utility.yul\":1793:1798   */\n      dup2\n        /* \"#utility.yul\":1790:1824   */\n      eq\n        /* \"#utility.yul\":1780:1842   */\n      tag_108\n      jumpi\n        /* \"#utility.yul\":1838:1839   */\n      0x00\n        /* \"#utility.yul\":1835:1836   */\n      dup1\n        /* \"#utility.yul\":1828:1840   */\n      revert\n        /* \"#utility.yul\":1780:1842   */\n    tag_108:\n        /* \"#utility.yul\":1728:1848   */\n      pop\n      jump\t// out\n        /* \"#utility.yul\":1854:1991   */\n    tag_57:\n        /* \"#utility.yul\":1899:1904   */\n      0x00\n        /* \"#utility.yul\":1937:1943   */\n      dup2\n        /* \"#utility.yul\":1924:1944   */\n      calldataload\n        /* \"#utility.yul\":1915:1944   */\n      swap1\n      pop\n        /* \"#utility.yul\":1953:1985   */\n      tag_110\n        /* \"#utility.yul\":1979:1984   */\n      dup2\n        /* \"#utility.yul\":1953:1985   */\n      tag_56\n      jump\t// in\n    tag_110:\n        /* \"#utility.yul\":1854:1991   */\n      swap3\n      swap2\n      pop\n      pop\n      jump\t// out\n        /* \"#utility.yul\":1997:2810   */\n    tag_9:\n        /* \"#utility.yul\":2083:2089   */\n      0x00\n        /* \"#utility.yul\":2091:2097   */\n      dup1\n        /* \"#utility.yul\":2099:2105   */\n      0x00\n        /* \"#utility.yul\":2107:2113   */\n      dup1\n        /* \"#utility.yul\":2156:2158   */\n      0x60\n        /* \"#utility.yul\":2144:2153   */\n      dup6\n        /* \"#utility.yul\":2135:2142   */\n      dup8\n        /* \"#utility.yul\":2131:2154   */\n      sub\n        /* \"#utility.yul\":2127:2159   */\n      slt\n        /* \"#utility.yul\":2124:2243   */\n      iszero\n      tag_112\n      jumpi\n        /* \"#utility.yul\":2162:2241   */\n      tag_113\n      tag_46\n      jump\t// in\n    tag_113:\n        /* \"#utility.yul\":2124:2243   */\n    tag_112:\n        /* \"#utility.yul\":2310:2311   */\n      0x00\n        /* \"#utility.yul\":2299:2308   */\n      dup6\n        /* \"#utility.yul\":2295:2312   */\n      add\n        /* \"#utility.yul\":2282:2313   */\n      calldataload\n        /* \"#utility.yul\":2340:2358   */\n      0xffffffffffffffff\n        /* \"#utility.yul\":2332:2338   */\n      dup2\n        /* \"#utility.yul\":2329:2359   */\n      gt\n        /* \"#utility.yul\":2326:2443   */\n      iszero\n      tag_114\n      jumpi\n        /* \"#utility.yul\":2362:2441   */\n      tag_115\n      tag_47\n      jump\t// in\n    tag_115:\n        /* \"#utility.yul\":2326:2443   */\n    tag_114:\n        /* \"#utility.yul\":2475:2540   */\n      tag_116\n        /* \"#utility.yul\":2532:2539   */\n      dup8\n        /* \"#utility.yul\":2523:2529   */\n      dup3\n        /* \"#utility.yul\":2512:2521   */\n      dup9\n        /* \"#utility.yul\":2508:2530   */\n      add\n        /* \"#utility.yul\":2475:2540   */\n      tag_51\n      jump\t// in\n    tag_116:\n        /* \"#utility.yul\":2457:2540   */\n      swap5\n      pop\n      swap5\n      pop\n        /* \"#utility.yul\":2253:2550   */\n      pop\n        /* \"#utility.yul\":2589:2591   */\n      0x20\n        /* \"#utility.yul\":2615:2666   */\n      tag_117\n        /* \"#utility.yul\":2658:2665   */\n      dup8\n        /* \"#utility.yul\":2649:2655   */\n      dup3\n        /* \"#utility.yul\":2638:2647   */\n      dup9\n        /* \"#utility.yul\":2634:2656   */\n      add\n        /* \"#utility.yul\":2615:2666   */\n      tag_54\n      jump\t// in\n    tag_117:\n        /* \"#utility.yul\":2605:2666   */\n      swap3\n      pop\n        /* \"#utility.yul\":2560:2676   */\n      pop\n        /* \"#utility.yul\":2715:2717   */\n      0x40\n        /* \"#utility.yul\":2741:2793   */\n      tag_118\n        /* \"#utility.yul\":2785:2792   */\n      dup8\n        /* \"#utility.yul\":2776:2782   */\n      dup3\n        /* \"#utility.yul\":2765:2774   */\n      dup9\n        /* \"#utility.yul\":2761:2783   */\n      add\n        /* \"#utility.yul\":2741:2793   */\n      tag_57\n      jump\t// in\n    tag_118:\n        /* \"#utility.yul\":2731:2793   */\n      swap2\n      pop\n        /* \"#utility.yul\":2686:2803   */\n      pop\n        /* \"#utility.yul\":1997:2810   */\n      swap3\n      swap6\n      swap2\n      swap5\n      pop\n      swap3\n      pop\n      jump\t// out\n        /* \"#utility.yul\":2816:2893   */\n    tag_58:\n        /* \"#utility.yul\":2853:2860   */\n      0x00\n        /* \"#utility.yul\":2882:2887   */\n      dup2\n        /* \"#utility.yul\":2871:2887   */\n      swap1\n      pop\n        /* \"#utility.yul\":2816:2893   */\n      swap2\n      swap1\n      pop\n      jump\t// out\n        /* \"#utility.yul\":2899:3021   */\n    tag_59:\n        /* \"#utility.yul\":2972:2996   */\n      tag_121\n        /* \"#utility.yul\":2990:2995   */\n      dup2\n        /* \"#utility.yul\":2972:2996   */\n      tag_58\n      jump\t// in\n    tag_121:\n        /* \"#utility.yul\":2965:2970   */\n      dup2\n        /* \"#utility.yul\":2962:2997   */\n      eq\n        /* \"#utility.yul\":2952:3015   */\n      tag_122\n      jumpi\n        /* \"#utility.yul\":3011:3012   */\n      0x00\n        /* \"#utility.yul\":3008:3009   */\n      dup1\n        /* \"#utility.yul\":3001:3013   */\n      revert\n        /* \"#utility.yul\":2952:3015   */\n    tag_122:\n        /* \"#utility.yul\":2899:3021   */\n      pop\n      jump\t// out\n        /* \"#utility.yul\":3027:3166   */\n    tag_60:\n        /* \"#utility.yul\":3073:3078   */\n      0x00\n        /* \"#utility.yul\":3111:3117   */\n      dup2\n        /* \"#utility.yul\":3098:3118   */\n      calldataload\n        /* \"#utility.yul\":3089:3118   */\n      swap1\n      pop\n        /* \"#utility.yul\":3127:3160   */\n      tag_124\n        /* \"#utility.yul\":3154:3159   */\n      dup2\n        /* \"#utility.yul\":3127:3160   */\n      tag_59\n      jump\t// in\n    tag_124:\n        /* \"#utility.yul\":3027:3166   */\n      swap3\n      swap2\n      pop\n      pop\n      jump\t// out\n        /* \"#utility.yul\":3172:3501   */\n    tag_13:\n        /* \"#utility.yul\":3231:3237   */\n      0x00\n        /* \"#utility.yul\":3280:3282   */\n      0x20\n        /* \"#utility.yul\":3268:3277   */\n      dup3\n        /* \"#utility.yul\":3259:3266   */\n      dup5\n        /* \"#utility.yul\":3255:3278   */\n      sub\n        /* \"#utility.yul\":3251:3283   */\n      slt\n        /* \"#utility.yul\":3248:3367   */\n      iszero\n      tag_126\n      jumpi\n        /* \"#utility.yul\":3286:3365   */\n      tag_127\n      tag_46\n      jump\t// in\n    tag_127:\n        /* \"#utility.yul\":3248:3367   */\n    tag_126:\n        /* \"#utility.yul\":3406:3407   */\n      0x00\n        /* \"#utility.yul\":3431:3484   */\n      tag_128\n        /* \"#utility.yul\":3476:3483   */\n      dup5\n        /* \"#utility.yul\":3467:3473   */\n      dup3\n        /* \"#utility.yul\":3456:3465   */\n      dup6\n        /* \"#utility.yul\":3452:3474   */\n      add\n        /* \"#utility.yul\":3431:3484   */\n      tag_60\n      jump\t// in\n    tag_128:\n        /* \"#utility.yul\":3421:3484   */\n      swap2\n      pop\n        /* \"#utility.yul\":3377:3494   */\n      pop\n        /* \"#utility.yul\":3172:3501   */\n      swap3\n      swap2\n      pop\n      pop\n      jump\t// out\n        /* \"#utility.yul\":3507:3606   */\n    tag_61:\n        /* \"#utility.yul\":3559:3565   */\n      0x00\n        /* \"#utility.yul\":3593:3598   */\n      dup2\n        /* \"#utility.yul\":3587:3599   */\n      mload\n        /* \"#utility.yul\":3577:3599   */\n      swap1\n      pop\n        /* \"#utility.yul\":3507:3606   */\n      swap2\n      swap1\n      pop\n      jump\t// out\n        /* \"#utility.yul\":3612:3781   */\n    tag_62:\n        /* \"#utility.yul\":3696:3707   */\n      0x00\n        /* \"#utility.yul\":3730:3736   */\n      dup3\n        /* \"#utility.yul\":3725:3728   */\n      dup3\n        /* \"#utility.yul\":3718:3737   */\n      mstore\n        /* \"#utility.yul\":3770:3774   */\n      0x20\n        /* \"#utility.yul\":3765:3768   */\n      dup3\n        /* \"#utility.yul\":3761:3775   */\n      add\n        /* \"#utility.yul\":3746:3775   */\n      swap1\n      pop\n        /* \"#utility.yul\":3612:3781   */\n      swap3\n      swap2\n      pop\n      pop\n      jump\t// out\n        /* \"#utility.yul\":3787:4033   */\n    tag_63:\n        /* \"#utility.yul\":3868:3869   */\n      0x00\n        /* \"#utility.yul\":3878:3991   */\n    tag_132:\n        /* \"#utility.yul\":3892:3898   */\n      dup4\n        /* \"#utility.yul\":3889:3890   */\n      dup2\n        /* \"#utility.yul\":3886:3899   */\n      lt\n        /* \"#utility.yul\":3878:3991   */\n      iszero\n      tag_134\n      jumpi\n        /* \"#utility.yul\":3977:3978   */\n      dup1\n        /* \"#utility.yul\":3972:3975   */\n      dup3\n        /* \"#utility.yul\":3968:3979   */\n      add\n        /* \"#utility.yul\":3962:3980   */\n      mload\n        /* \"#utility.yul\":3958:3959   */\n      dup2\n        /* \"#utility.yul\":3953:3956   */\n      dup5\n        /* \"#utility.yul\":3949:3960   */\n      add\n        /* \"#utility.yul\":3942:3981   */\n      mstore\n        /* \"#utility.yul\":3914:3916   */\n      0x20\n        /* \"#utility.yul\":3911:3912   */\n      dup2\n        /* \"#utility.yul\":3907:3917   */\n      add\n        /* \"#utility.yul\":3902:3917   */\n      swap1\n      pop\n        /* \"#utility.yul\":3878:3991   */\n      jump(tag_132)\n    tag_134:\n        /* \"#utility.yul\":4025:4026   */\n      0x00\n        /* \"#utility.yul\":4016:4022   */\n      dup5\n        /* \"#utility.yul\":4011:4014   */\n      dup5\n        /* \"#utility.yul\":4007:4023   */\n      add\n        /* \"#utility.yul\":4000:4027   */\n      mstore\n        /* \"#utility.yul\":3849:4033   */\n      pop\n        /* \"#utility.yul\":3787:4033   */\n      pop\n      pop\n      pop\n      jump\t// out\n        /* \"#utility.yul\":4039:4141   */\n    tag_64:\n        /* \"#utility.yul\":4080:4086   */\n      0x00\n        /* \"#utility.yul\":4131:4133   */\n      0x1f\n        /* \"#utility.yul\":4127:4134   */\n      not\n        /* \"#utility.yul\":4122:4124   */\n      0x1f\n        /* \"#utility.yul\":4115:4120   */\n      dup4\n        /* \"#utility.yul\":4111:4125   */\n      add\n        /* \"#utility.yul\":4107:4135   */\n      and\n        /* \"#utility.yul\":4097:4135   */\n      swap1\n      pop\n        /* \"#utility.yul\":4039:4141   */\n      swap2\n      swap1\n      pop\n      jump\t// out\n        /* \"#utility.yul\":4147:4524   */\n    tag_65:\n        /* \"#utility.yul\":4235:4238   */\n      0x00\n        /* \"#utility.yul\":4263:4302   */\n      tag_137\n        /* \"#utility.yul\":4296:4301   */\n      dup3\n        /* \"#utility.yul\":4263:4302   */\n      tag_61\n      jump\t// in\n    tag_137:\n        /* \"#utility.yul\":4318:4389   */\n      tag_138\n        /* \"#utility.yul\":4382:4388   */\n      dup2\n        /* \"#utility.yul\":4377:4380   */\n      dup6\n        /* \"#utility.yul\":4318:4389   */\n      tag_62\n      jump\t// in\n    tag_138:\n        /* \"#utility.yul\":4311:4389   */\n      swap4\n      pop\n        /* \"#utility.yul\":4398:4463   */\n      tag_139\n        /* \"#utility.yul\":4456:4462   */\n      dup2\n        /* \"#utility.yul\":4451:4454   */\n      dup6\n        /* \"#utility.yul\":4444:4448   */\n      0x20\n        /* \"#utility.yul\":4437:4442   */\n      dup7\n        /* \"#utility.yul\":4433:4449   */\n      add\n        /* \"#utility.yul\":4398:4463   */\n      tag_63\n      jump\t// in\n    tag_139:\n        /* \"#utility.yul\":4488:4517   */\n      tag_140\n        /* \"#utility.yul\":4510:4516   */\n      dup2\n        /* \"#utility.yul\":4488:4517   */\n      tag_64\n      jump\t// in\n    tag_140:\n        /* \"#utility.yul\":4483:4486   */\n      dup5\n        /* \"#utility.yul\":4479:4518   */\n      add\n        /* \"#utility.yul\":4472:4518   */\n      swap2\n      pop\n        /* \"#utility.yul\":4239:4524   */\n      pop\n        /* \"#utility.yul\":4147:4524   */\n      swap3\n      swap2\n      pop\n      pop\n      jump\t// out\n        /* \"#utility.yul\":4530:4843   */\n    tag_16:\n        /* \"#utility.yul\":4643:4647   */\n      0x00\n        /* \"#utility.yul\":4681:4683   */\n      0x20\n        /* \"#utility.yul\":4670:4679   */\n      dup3\n        /* \"#utility.yul\":4666:4684   */\n      add\n        /* \"#utility.yul\":4658:4684   */\n      swap1\n      pop\n        /* \"#utility.yul\":4730:4739   */\n      dup2\n        /* \"#utility.yul\":4724:4728   */\n      dup2\n        /* \"#utility.yul\":4720:4740   */\n      sub\n        /* \"#utility.yul\":4716:4717   */\n      0x00\n        /* \"#utility.yul\":4705:4714   */\n      dup4\n        /* \"#utility.yul\":4701:4718   */\n      add\n        /* \"#utility.yul\":4694:4741   */\n      mstore\n        /* \"#utility.yul\":4758:4836   */\n      tag_142\n        /* \"#utility.yul\":4831:4835   */\n      dup2\n        /* \"#utility.yul\":4822:4828   */\n      dup5\n        /* \"#utility.yul\":4758:4836   */\n      tag_65\n      jump\t// in\n    tag_142:\n        /* \"#utility.yul\":4750:4836   */\n      swap1\n      pop\n        /* \"#utility.yul\":4530:4843   */\n      swap3\n      swap2\n      pop\n      pop\n      jump\t// out\n        /* \"#utility.yul\":4849:5808   */\n    tag_19:\n        /* \"#utility.yul\":4944:4950   */\n      0x00\n        /* \"#utility.yul\":4952:4958   */\n      dup1\n        /* \"#utility.yul\":4960:4966   */\n      0x00\n        /* \"#utility.yul\":4968:4974   */\n      dup1\n        /* \"#utility.yul\":4976:4982   */\n      0x00\n        /* \"#utility.yul\":5025:5028   */\n      0x80\n        /* \"#utility.yul\":5013:5022   */\n      dup7\n        /* \"#utility.yul\":5004:5011   */\n      dup9\n        /* \"#utility.yul\":5000:5023   */\n      sub\n        /* \"#utility.yul\":4996:5029   */\n      slt\n        /* \"#utility.yul\":4993:5113   */\n      iszero\n      tag_144\n      jumpi\n        /* \"#utility.yul\":5032:5111   */\n      tag_145\n      tag_46\n      jump\t// in\n    tag_145:\n        /* \"#utility.yul\":4993:5113   */\n    tag_144:\n        /* \"#utility.yul\":5152:5153   */\n      0x00\n        /* \"#utility.yul\":5177:5230   */\n      tag_146\n        /* \"#utility.yul\":5222:5229   */\n      dup9\n        /* \"#utility.yul\":5213:5219   */\n      dup3\n        /* \"#utility.yul\":5202:5211   */\n      dup10\n        /* \"#utility.yul\":5198:5220   */\n      add\n        /* \"#utility.yul\":5177:5230   */\n      tag_60\n      jump\t// in\n    tag_146:\n        /* \"#utility.yul\":5167:5230   */\n      swap6\n      pop\n        /* \"#utility.yul\":5123:5240   */\n      pop\n        /* \"#utility.yul\":5307:5309   */\n      0x20\n        /* \"#utility.yul\":5296:5305   */\n      dup7\n        /* \"#utility.yul\":5292:5310   */\n      add\n        /* \"#utility.yul\":5279:5311   */\n      calldataload\n        /* \"#utility.yul\":5338:5356   */\n      0xffffffffffffffff\n        /* \"#utility.yul\":5330:5336   */\n      dup2\n        /* \"#utility.yul\":5327:5357   */\n      gt\n        /* \"#utility.yul\":5324:5441   */\n      iszero\n      tag_147\n      jumpi\n        /* \"#utility.yul\":5360:5439   */\n      tag_148\n      tag_47\n      jump\t// in\n    tag_148:\n        /* \"#utility.yul\":5324:5441   */\n    tag_147:\n        /* \"#utility.yul\":5473:5538   */\n      tag_149\n        /* \"#utility.yul\":5530:5537   */\n      dup9\n        /* \"#utility.yul\":5521:5527   */\n      dup3\n        /* \"#utility.yul\":5510:5519   */\n      dup10\n        /* \"#utility.yul\":5506:5528   */\n      add\n        /* \"#utility.yul\":5473:5538   */\n      tag_51\n      jump\t// in\n    tag_149:\n        /* \"#utility.yul\":5455:5538   */\n      swap5\n      pop\n      swap5\n      pop\n        /* \"#utility.yul\":5250:5548   */\n      pop\n        /* \"#utility.yul\":5587:5589   */\n      0x40\n        /* \"#utility.yul\":5613:5664   */\n      tag_150\n        /* \"#utility.yul\":5656:5663   */\n      dup9\n        /* \"#utility.yul\":5647:5653   */\n      dup3\n        /* \"#utility.yul\":5636:5645   */\n      dup10\n        /* \"#utility.yul\":5632:5654   */\n      add\n        /* \"#utility.yul\":5613:5664   */\n      tag_54\n      jump\t// in\n    tag_150:\n        /* \"#utility.yul\":5603:5664   */\n      swap3\n      pop\n        /* \"#utility.yul\":5558:5674   */\n      pop\n        /* \"#utility.yul\":5713:5715   */\n      0x60\n        /* \"#utility.yul\":5739:5791   */\n      tag_151\n        /* \"#utility.yul\":5783:5790   */\n      dup9\n        /* \"#utility.yul\":5774:5780   */\n      dup3\n        /* \"#utility.yul\":5763:5772   */\n      dup10\n        /* \"#utility.yul\":5759:5781   */\n      add\n        /* \"#utility.yul\":5739:5791   */\n      tag_57\n      jump\t// in\n    tag_151:\n        /* \"#utility.yul\":5729:5791   */\n      swap2\n      pop\n        /* \"#utility.yul\":5684:5801   */\n      pop\n        /* \"#utility.yul\":4849:5808   */\n      swap3\n      swap6\n      pop\n      swap3\n      swap6\n      swap1\n      swap4\n      pop\n      jump\t// out\n        /* \"#utility.yul\":5814:5994   */\n    tag_66:\n        /* \"#utility.yul\":5862:5939   */\n      0x4e487b7100000000000000000000000000000000000000000000000000000000\n        /* \"#utility.yul\":5859:5860   */\n      0x00\n        /* \"#utility.yul\":5852:5940   */\n      mstore\n        /* \"#utility.yul\":5959:5963   */\n      0x11\n        /* \"#utility.yul\":5956:5957   */\n      0x04\n        /* \"#utility.yul\":5949:5964   */\n      mstore\n        /* \"#utility.yul\":5983:5987   */\n      0x24\n        /* \"#utility.yul\":5980:5981   */\n      0x00\n        /* \"#utility.yul\":5973:5988   */\n      revert\n        /* \"#utility.yul\":6000:6233   */\n    tag_26:\n        /* \"#utility.yul\":6039:6042   */\n      0x00\n        /* \"#utility.yul\":6062:6086   */\n      tag_154\n        /* \"#utility.yul\":6080:6085   */\n      dup3\n        /* \"#utility.yul\":6062:6086   */\n      tag_58\n      jump\t// in\n    tag_154:\n        /* \"#utility.yul\":6053:6086   */\n      swap2\n      pop\n        /* \"#utility.yul\":6108:6174   */\n      0xffffffffffffffffffffffffffffffffffffffffffffffffffffffffffffffff\n        /* \"#utility.yul\":6101:6106   */\n      dup3\n        /* \"#utility.yul\":6098:6175   */\n      sub\n        /* \"#utility.yul\":6095:6198   */\n      tag_155\n      jumpi\n        /* \"#utility.yul\":6178:6196   */\n      tag_156\n      tag_66\n      jump\t// in\n    tag_156:\n        /* \"#utility.yul\":6095:6198   */\n    tag_155:\n        /* \"#utility.yul\":6225:6226   */\n      0x01\n        /* \"#utility.yul\":6218:6223   */\n      dup3\n        /* \"#utility.yul\":6214:6227   */\n      add\n        /* \"#utility.yul\":6207:6227   */\n      swap1\n      pop\n        /* \"#utility.yul\":6000:6233   */\n      swap2\n      swap1\n      pop\n      jump\t// out\n        /* \"#utility.yul\":6239:6419   */\n    tag_67:\n        /* \"#utility.yul\":6287:6364   */\n      0x4e487b7100000000000000000000000000000000000000000000000000000000\n        /* \"#utility.yul\":6284:6285   */\n      0x00\n        /* \"#utility.yul\":6277:6365   */\n      mstore\n        /* \"#utility.yul\":6384:6388   */\n      0x41\n        /* \"#utility.yul\":6381:6382   */\n      0x04\n        /* \"#utility.yul\":6374:6389   */\n      mstore\n        /* \"#utility.yul\":6408:6412   */\n      0x24\n        /* \"#utility.yul\":6405:6406   */\n      0x00\n        /* \"#utility.yul\":6398:6413   */\n      revert\n        /* \"#utility.yul\":6425:6605   */\n    tag_68:\n        /* \"#utility.yul\":6473:6550   */\n      0x4e487b7100000000000000000000000000000000000000000000000000000000\n        /* \"#utility.yul\":6470:6471   */\n      0x00\n        /* \"#utility.yul\":6463:6551   */\n      mstore\n        /* \"#utility.yul\":6570:6574   */\n      0x22\n        /* \"#utility.yul\":6567:6568   */\n      0x04\n        /* \"#utility.yul\":6560:6575   */\n      mstore\n        /* \"#utility.yul\":6594:6598   */\n      0x24\n        /* \"#utility.yul\":6591:6592   */\n      0x00\n        /* \"#utility.yul\":6584:6599   */\n      revert\n        /* \"#utility.yul\":6611:6931   */\n    tag_31:\n        /* \"#utility.yul\":6655:6661   */\n      0x00\n        /* \"#utility.yul\":6692:6693   */\n      0x02\n        /* \"#utility.yul\":6686:6690   */\n      dup3\n        /* \"#utility.yul\":6682:6694   */\n      div\n        /* \"#utility.yul\":6672:6694   */\n      swap1\n      pop\n        /* \"#utility.yul\":6739:6740   */\n      0x01\n        /* \"#utility.yul\":6733:6737   */\n      dup3\n        /* \"#utility.yul\":6729:6741   */\n      and\n        /* \"#utility.yul\":6760:6778   */\n      dup1\n        /* \"#utility.yul\":6750:6831   */\n      tag_160\n      jumpi\n        /* \"#utility.yul\":6816:6820   */\n      0x7f\n        /* \"#utility.yul\":6808:6814   */\n      dup3\n        /* \"#utility.yul\":6804:6821   */\n      and\n        /* \"#utility.yul\":6794:6821   */\n      swap2\n      pop\n        /* \"#utility.yul\":6750:6831   */\n    tag_160:\n        /* \"#utility.yul\":6878:6880   */\n      0x20\n        /* \"#utility.yul\":6870:6876   */\n      dup3\n        /* \"#utility.yul\":6867:6881   */\n      lt\n        /* \"#utility.yul\":6847:6865   */\n      dup2\n        /* \"#utility.yul\":6844:6882   */\n      sub\n        /* \"#utility.yul\":6841:6925   */\n      tag_161\n      jumpi\n        /* \"#utility.yul\":6897:6915   */\n      tag_162\n      tag_68\n      jump\t// in\n    tag_162:\n        /* \"#utility.yul\":6841:6925   */\n    tag_161:\n        /* \"#utility.yul\":6662:6931   */\n      pop\n        /* \"#utility.yul\":6611:6931   */\n      swap2\n      swap1\n      pop\n      jump\t// out\n        /* \"#utility.yul\":6937:7078   */\n    tag_69:\n        /* \"#utility.yul\":6986:6990   */\n      0x00\n        /* \"#utility.yul\":7009:7012   */\n      dup2\n        /* \"#utility.yul\":7001:7012   */\n      swap1\n      pop\n        /* \"#utility.yul\":7032:7035   */\n      dup2\n        /* \"#utility.yul\":7029:7030   */\n      0x00\n        /* \"#utility.yul\":7022:7036   */\n      mstore\n        /* \"#utility.yul\":7066:7070   */\n      0x20\n        /* \"#utility.yul\":7063:7064   */\n      0x00\n        /* \"#utility.yul\":7053:7071   */\n      keccak256\n        /* \"#utility.yul\":7045:7071   */\n      swap1\n      pop\n        /* \"#utility.yul\":6937:7078   */\n      swap2\n      swap1\n      pop\n      jump\t// out\n        /* \"#utility.yul\":7084:7177   */\n    tag_70:\n        /* \"#utility.yul\":7121:7127   */\n      0x00\n        /* \"#utility.yul\":7168:7170   */\n      0x20\n        /* \"#utility.yul\":7163:7165   */\n      0x1f\n        /* \"#utility.yul\":7156:7161   */\n      dup4\n        /* \"#utility.yul\":7152:7166   */\n      add\n        /* \"#utility.yul\":7148:7171   */\n      div\n        /* \"#utility.yul\":7138:7171   */\n      swap1\n      pop\n        /* \"#utility.yul\":7084:7177   */\n      swap2\n      swap1\n      pop\n      jump\t// out\n        /* \"#utility.yul\":7183:7290   */\n    tag_71:\n        /* \"#utility.yul\":7227:7235   */\n      0x00\n        /* \"#utility.yul\":7277:7282   */\n      dup3\n        /* \"#utility.yul\":7271:7275   */\n      dup3\n        /* \"#utility.yul\":7267:7283   */\n      shl\n        /* \"#utility.yul\":7246:7283   */\n      swap1\n      pop\n        /* \"#utility.yul\":7183:7290   */\n      swap3\n      swap2\n      pop\n      pop\n      jump\t// out\n        /* \"#utility.yul\":7296:7689   */\n    tag_72:\n        /* \"#utility.yul\":7365:7371   */\n      0x00\n        /* \"#utility.yul\":7415:7416   */\n      0x08\n        /* \"#utility.yul\":7403:7413   */\n      dup4\n        /* \"#utility.yul\":7399:7417   */\n      mul\n        /* \"#utility.yul\":7438:7535   */\n      tag_167\n        /* \"#utility.yul\":7468:7534   */\n      0xffffffffffffffffffffffffffffffffffffffffffffffffffffffffffffffff\n        /* \"#utility.yul\":7457:7466   */\n      dup3\n        /* \"#utility.yul\":7438:7535   */\n      tag_71\n      jump\t// in\n    tag_167:\n        /* \"#utility.yul\":7556:7595   */\n      tag_168\n        /* \"#utility.yul\":7586:7594   */\n      dup7\n        /* \"#utility.yul\":7575:7584   */\n      dup4\n        /* \"#utility.yul\":7556:7595   */\n      tag_71\n      jump\t// in\n    tag_168:\n        /* \"#utility.yul\":7544:7595   */\n      swap6\n      pop\n        /* \"#utility.yul\":7628:7632   */\n      dup1\n        /* \"#utility.yul\":7624:7633   */\n      not\n        /* \"#utility.yul\":7617:7622   */\n      dup5\n        /* \"#utility.yul\":7613:7634   */\n      and\n        /* \"#utility.yul\":7604:7634   */\n      swap4\n      pop\n        /* \"#utility.yul\":7677:7681   */\n      dup1\n        /* \"#utility.yul\":7667:7675   */\n      dup7\n        /* \"#utility.yul\":7663:7682   */\n      and\n        /* \"#utility.yul\":7656:7661   */\n      dup5\n        /* \"#utility.yul\":7653:7683   */\n      or\n        /* \"#utility.yul\":7643:7683   */\n      swap3\n      pop\n        /* \"#utility.yul\":7372:7689   */\n      pop\n      pop\n        /* \"#utility.yul\":7296:7689   */\n      swap4\n      swap3\n      pop\n      pop\n      pop\n      jump\t// out\n        /* \"#utility.yul\":7695:7755   */\n    tag_73:\n        /* \"#utility.yul\":7723:7726   */\n      0x00\n        /* \"#utility.yul\":7744:7749   */\n      dup2\n        /* \"#utility.yul\":7737:7749   */\n      swap1\n      pop\n        /* \"#utility.yul\":7695:7755   */\n      swap2\n      swap1\n      pop\n      jump\t// out\n        /* \"#utility.yul\":7761:7903   */\n    tag_74:\n        /* \"#utility.yul\":7811:7820   */\n      0x00\n        /* \"#utility.yul\":7844:7897   */\n      tag_171\n        /* \"#utility.yul\":7862:7896   */\n      tag_172\n        /* \"#utility.yul\":7871:7895   */\n      tag_173\n        /* \"#utility.yul\":7889:7894   */\n      dup5\n        /* \"#utility.yul\":7871:7895   */\n      tag_58\n      jump\t// in\n    tag_173:\n        /* \"#utility.yul\":7862:7896   */\n      tag_73\n      jump\t// in\n    tag_172:\n        /* \"#utility.yul\":7844:7897   */\n      tag_58\n      jump\t// in\n    tag_171:\n        /* \"#utility.yul\":7831:7897   */\n      swap1\n      pop\n        /* \"#utility.yul\":7761:7903   */\n      swap2\n      swap1\n      pop\n      jump\t// out\n        /* \"#utility.yul\":7909:7984   */\n    tag_75:\n        /* \"#utility.yul\":7952:7955   */\n      0x00\n        /* \"#utility.yul\":7973:7978   */\n      dup2\n        /* \"#utility.yul\":7966:7978   */\n      swap1\n      pop\n        /* \"#utility.yul\":7909:7984   */\n      swap2\n      swap1\n      pop\n      jump\t// out\n        /* \"#utility.yul\":7990:8259   */\n    tag_76:\n        /* \"#utility.yul\":8100:8139   */\n      tag_176\n        /* \"#utility.yul\":8131:8138   */\n      dup4\n        /* \"#utility.yul\":8100:8139   */\n      tag_74\n      jump\t// in\n    tag_176:\n        /* \"#utility.yul\":8161:8252   */\n      tag_177\n        /* \"#utility.yul\":8210:8251   */\n      tag_178\n        /* \"#utility.yul\":8234:8250   */\n      dup3\n        /* \"#utility.yul\":8210:8251   */\n      tag_75\n      jump\t// in\n    tag_178:\n        /* \"#utility.yul\":8202:8208   */\n      dup5\n        /* \"#utility.yul\":8195:8199   */\n      dup5\n        /* \"#utility.yul\":8189:8200   */\n      sload\n        /* \"#utility.yul\":8161:8252   */\n      tag_72\n      jump\t// in\n    tag_177:\n        /* \"#utility.yul\":8155:8159   */\n      dup3\n        /* \"#utility.yul\":8148:8253   */\n      sstore\n        /* \"#utility.yul\":8066:8259   */\n      pop\n        /* \"#utility.yul\":7990:8259   */\n      pop\n      pop\n      pop\n      jump\t// out\n        /* \"#utility.yul\":8265:8338   */\n    tag_77:\n        /* \"#utility.yul\":8310:8313   */\n      0x00\n        /* \"#utility.yul\":8265:8338   */\n      swap1\n      jump\t// out\n        /* \"#utility.yul\":8344:8533   */\n    tag_78:\n        /* \"#utility.yul\":8421:8453   */\n      tag_181\n      tag_77\n      jump\t// in\n    tag_181:\n        /* \"#utility.yul\":8462:8527   */\n      tag_182\n        /* \"#utility.yul\":8520:8526   */\n      dup2\n        /* \"#utility.yul\":8512:8518   */\n      dup5\n        /* \"#utility.yul\":8506:8510   */\n      dup5\n        /* \"#utility.yul\":8462:8527   */\n      tag_76\n      jump\t// in\n    tag_182:\n        /* \"#utility.yul\":8397:8533   */\n      pop\n        /* \"#utility.yul\":8344:8533   */\n      pop\n      pop\n      jump\t// out\n        /* \"#utility.yul\":8539:8725   */\n    tag_79:\n        /* \"#utility.yul\":8599:8719   */\n    tag_184:\n        /* \"#utility.yul\":8616:8619   */\n      dup2\n        /* \"#utility.yul\":8609:8614   */\n      dup2\n        /* \"#utility.yul\":8606:8620   */\n      lt\n        /* \"#utility.yul\":8599:8719   */\n      iszero\n      tag_186\n      jumpi\n        /* \"#utility.yul\":8670:8709   */\n      tag_187\n        /* \"#utility.yul\":8707:8708   */\n      0x00\n        /* \"#utility.yul\":8700:8705   */\n      dup3\n        /* \"#utility.yul\":8670:8709   */\n      tag_78\n      jump\t// in\n    tag_187:\n        /* \"#utility.yul\":8643:8644   */\n      0x01\n        /* \"#utility.yul\":8636:8641   */\n      dup2\n        /* \"#utility.yul\":8632:8645   */\n      add\n        /* \"#utility.yul\":8623:8645   */\n      swap1\n      pop\n        /* \"#utility.yul\":8599:8719   */\n      jump(tag_184)\n    tag_186:\n        /* \"#utility.yul\":8539:8725   */\n      pop\n      pop\n      jump\t// out\n        /* \"#utility.yul\":8731:9274   */\n    tag_80:\n        /* \"#utility.yul\":8832:8834   */\n      0x1f\n        /* \"#utility.yul\":8827:8830   */\n      dup3\n        /* \"#utility.yul\":8824:8835   */\n      gt\n        /* \"#utility.yul\":8821:9267   */\n      iszero\n      tag_189\n      jumpi\n        /* \"#utility.yul\":8866:8904   */\n      tag_190\n        /* \"#utility.yul\":8898:8903   */\n      dup2\n        /* \"#utility.yul\":8866:8904   */\n      tag_69\n      jump\t// in\n    tag_190:\n        /* \"#utility.yul\":8950:8979   */\n      tag_191\n        /* \"#utility.yul\":8968:8978   */\n      dup5\n        /* \"#utility.yul\":8950:8979   */\n      tag_70\n      jump\t// in\n    tag_191:\n        /* \"#utility.yul\":8940:8948   */\n      dup2\n        /* \"#utility.yul\":8936:8980   */\n      add\n        /* \"#utility.yul\":9133:9135   */\n      0x20\n        /* \"#utility.yul\":9121:9131   */\n      dup6\n        /* \"#utility.yul\":9118:9136   */\n      lt\n        /* \"#utility.yul\":9115:9164   */\n      iszero\n      tag_192\n      jumpi\n        /* \"#utility.yul\":9154:9162   */\n      dup2\n        /* \"#utility.yul\":9139:9162   */\n      swap1\n      pop\n        /* \"#utility.yul\":9115:9164   */\n    tag_192:\n        /* \"#utility.yul\":9177:9257   */\n      tag_193\n        /* \"#utility.yul\":9233:9255   */\n      tag_194\n        /* \"#utility.yul\":9251:9254   */\n      dup6\n        /* \"#utility.yul\":9233:9255   */\n      tag_70\n      jump\t// in\n    tag_194:\n        /* \"#utility.yul\":9223:9231   */\n      dup4\n        /* \"#utility.yul\":9219:9256   */\n      add\n        /* \"#utility.yul\":9206:9217   */\n      dup3\n        /* \"#utility.yul\":9177:9257   */\n      tag_79\n      jump\t// in\n    tag_193:\n        /* \"#utility.yul\":8836:9267   */\n      pop\n      pop\n        /* \"#utility.yul\":8821:9267   */\n    tag_189:\n        /* \"#utility.yul\":8731:9274   */\n      pop\n      pop\n      pop\n      jump\t// out\n        /* \"#utility.yul\":9280:9397   */\n    tag_81:\n        /* \"#utility.yul\":9334:9342   */\n      0x00\n        /* \"#utility.yul\":9384:9389   */\n      dup3\n        /* \"#utility.yul\":9378:9382   */\n      dup3\n        /* \"#utility.yul\":9374:9390   */\n      shr\n        /* \"#utility.yul\":9353:9390   */\n      swap1\n      pop\n        /* \"#utility.yul\":9280:9397   */\n      swap3\n      swap2\n      pop\n      pop\n      jump\t// out\n        /* \"#utility.yul\":9403:9572   */\n    tag_82:\n        /* \"#utility.yul\":9447:9453   */\n      0x00\n        /* \"#utility.yul\":9480:9531   */\n      tag_197\n        /* \"#utility.yul\":9528:9529   */\n      0x00\n        /* \"#utility.yul\":9524:9530   */\n      not\n        /* \"#utility.yul\":9516:9521   */\n      dup5\n        /* \"#utility.yul\":9513:9514   */\n      0x08\n        /* \"#utility.yul\":9509:9522   */\n      mul\n        /* \"#utility.yul\":9480:9531   */\n      tag_81\n      jump\t// in\n    tag_197:\n        /* \"#utility.yul\":9476:9532   */\n      not\n        /* \"#utility.yul\":9561:9565   */\n      dup1\n        /* \"#utility.yul\":9555:9559   */\n      dup4\n        /* \"#utility.yul\":9551:9566   */\n      and\n        /* \"#utility.yul\":9541:9566   */\n      swap2\n      pop\n        /* \"#utility.yul\":9454:9572   */\n      pop\n        /* \"#utility.yul\":9403:9572   */\n      swap3\n      swap2\n      pop\n      pop\n      jump\t// out\n        /* \"#utility.yul\":9577:9872   */\n    tag_83:\n        /* \"#utility.yul\":9653:9657   */\n      0x00\n        /* \"#utility.yul\":9799:9828   */\n      tag_199\n        /* \"#utility.yul\":9824:9827   */\n      dup4\n        /* \"#utility.yul\":9818:9822   */\n      dup4\n        /* \"#utility.yul\":9799:9828   */\n      tag_82\n      jump\t// in\n    tag_199:\n        /* \"#utility.yul\":9791:9828   */\n      swap2\n      pop\n        /* \"#utility.yul\":9861:9864   */\n      dup3\n        /* \"#utility.yul\":9858:9859   */\n      0x02\n        /* \"#utility.yul\":9854:9865   */\n      mul\n        /* \"#utility.yul\":9848:9852   */\n      dup3\n        /* \"#utility.yul\":9845:9866   */\n      or\n        /* \"#utility.yul\":9837:9866   */\n      swap1\n      pop\n        /* \"#utility.yul\":9577:9872   */\n      swap3\n      swap2\n      pop\n      pop\n      jump\t// out\n        /* \"#utility.yul\":9877:11272   */\n    tag_28:\n        /* \"#utility.yul\":9994:10031   */\n      tag_201\n        /* \"#utility.yul\":10027:10030   */\n      dup3\n        /* \"#utility.yul\":9994:10031   */\n      tag_61\n      jump\t// in\n    tag_201:\n        /* \"#utility.yul\":10096:10114   */\n      0xffffffffffffffff\n        /* \"#utility.yul\":10088:10094   */\n      dup2\n        /* \"#utility.yul\":10085:10115   */\n      gt\n        /* \"#utility.yul\":10082:10138   */\n      iszero\n      tag_202\n      jumpi\n        /* \"#utility.yul\":10118:10136   */\n      tag_203\n      tag_67\n      jump\t// in\n    tag_203:\n        /* \"#utility.yul\":10082:10138   */\n    tag_202:\n        /* \"#utility.yul\":10162:10200   */\n      tag_204\n        /* \"#utility.yul\":10194:10198   */\n      dup3\n        /* \"#utility.yul\":10188:10199   */\n      sload\n        /* \"#utility.yul\":10162:10200   */\n      tag_31\n      jump\t// in\n    tag_204:\n        /* \"#utility.yul\":10247:10314   */\n      tag_205\n        /* \"#utility.yul\":10307:10313   */\n      dup3\n        /* \"#utility.yul\":10299:10305   */\n      dup3\n        /* \"#utility.yul\":10293:10297   */\n      dup6\n        /* \"#utility.yul\":10247:10314   */\n      tag_80\n      jump\t// in\n    tag_205:\n        /* \"#utility.yul\":10341:10342   */\n      0x00\n        /* \"#utility.yul\":10365:10369   */\n      0x20\n        /* \"#utility.yul\":10352:10369   */\n      swap1\n      pop\n        /* \"#utility.yul\":10397:10399   */\n      0x1f\n        /* \"#utility.yul\":10389:10395   */\n      dup4\n        /* \"#utility.yul\":10386:10400   */\n      gt\n        /* \"#utility.yul\":10414:10415   */\n      0x01\n        /* \"#utility.yul\":10409:11027   */\n      dup2\n      eq\n      tag_207\n      jumpi\n        /* \"#utility.yul\":11071:11072   */\n      0x00\n        /* \"#utility.yul\":11088:11094   */\n      dup5\n        /* \"#utility.yul\":11085:11162   */\n      iszero\n      tag_208\n      jumpi\n        /* \"#utility.yul\":11137:11146   */\n      dup3\n        /* \"#utility.yul\":11132:11135   */\n      dup8\n        /* \"#utility.yul\":11128:11147   */\n      add\n        /* \"#utility.yul\":11122:11148   */\n      mload\n        /* \"#utility.yul\":11113:11148   */\n      swap1\n      pop\n        /* \"#utility.yul\":11085:11162   */\n    tag_208:\n        /* \"#utility.yul\":11188:11255   */\n      tag_209\n        /* \"#utility.yul\":11248:11254   */\n      dup6\n        /* \"#utility.yul\":11241:11246   */\n      dup3\n        /* \"#utility.yul\":11188:11255   */\n      tag_83\n      jump\t// in\n    tag_209:\n        /* \"#utility.yul\":11182:11186   */\n      dup7\n        /* \"#utility.yul\":11175:11256   */\n      sstore\n        /* \"#utility.yul\":11044:11266   */\n      pop\n        /* \"#utility.yul\":10379:11266   */\n      jump(tag_206)\n        /* \"#utility.yul\":10409:11027   */\n    tag_207:\n        /* \"#utility.yul\":10461:10465   */\n      0x1f\n        /* \"#utility.yul\":10457:10466   */\n      not\n        /* \"#utility.yul\":10449:10455   */\n      dup5\n        /* \"#utility.yul\":10445:10467   */\n      and\n        /* \"#utility.yul\":10495:10532   */\n      tag_210\n        /* \"#utility.yul\":10527:10531   */\n      dup7\n        /* \"#utility.yul\":10495:10532   */\n      tag_69\n      jump\t// in\n    tag_210:\n        /* \"#utility.yul\":10554:10555   */\n      0x00\n        /* \"#utility.yul\":10568:10776   */\n    tag_211:\n        /* \"#utility.yul\":10582:10589   */\n      dup3\n        /* \"#utility.yul\":10579:10580   */\n      dup2\n        /* \"#utility.yul\":10576:10590   */\n      lt\n        /* \"#utility.yul\":10568:10776   */\n      iszero\n      tag_213\n      jumpi\n        /* \"#utility.yul\":10661:10670   */\n      dup5\n        /* \"#utility.yul\":10656:10659   */\n      dup10\n        /* \"#utility.yul\":10652:10671   */\n      add\n        /* \"#utility.yul\":10646:10672   */\n      mload\n        /* \"#utility.yul\":10638:10644   */\n      dup3\n        /* \"#utility.yul\":10631:10673   */\n      sstore\n        /* \"#utility.yul\":10712:10713   */\n      0x01\n        /* \"#utility.yul\":10704:10710   */\n      dup3\n        /* \"#utility.yul\":10700:10714   */\n      add\n        /* \"#utility.yul\":10690:10714   */\n      swap2\n      pop\n        /* \"#utility.yul\":10759:10761   */\n      0x20\n        /* \"#utility.yul\":10748:10757   */\n      dup6\n        /* \"#utility.yul\":10744:10762   */\n      add\n        /* \"#utility.yul\":10731:10762   */\n      swap5\n      pop\n        /* \"#utility.yul\":10605:10609   */\n      0x20\n        /* \"#utility.yul\":10602:10603   */\n      dup2\n        /* \"#utility.yul\":10598:10610   */\n      add\n        /* \"#utility.yul\":10593:10610   */\n      swap1\n      pop\n        /* \"#utility.yul\":10568:10776   */\n      jump(tag_211)\n    tag_213:\n        /* \"#utility.yul\":10804:10810   */\n      dup7\n        /* \"#utility.yul\":10795:10802   */\n      dup4\n        /* \"#utility.yul\":10792:10811   */\n      lt\n        /* \"#utility.yul\":10789:10968   */\n      iszero\n      tag_214\n      jumpi\n        /* \"#utility.yul\":10862:10871   */\n      dup5\n        /* \"#utility.yul\":10857:10860   */\n      dup10\n        /* \"#utility.yul\":10853:10872   */\n      add\n        /* \"#utility.yul\":10847:10873   */\n      mload\n        /* \"#utility.yul\":10905:10953   */\n      tag_215\n        /* \"#utility.yul\":10947:10951   */\n      0x1f\n        /* \"#utility.yul\":10939:10945   */\n      dup10\n        /* \"#utility.yul\":10935:10952   */\n      and\n        /* \"#utility.yul\":10924:10933   */\n      dup3\n        /* \"#utility.yul\":10905:10953   */\n      tag_82\n      jump\t// in\n    tag_215:\n        /* \"#utility.yul\":10897:10903   */\n      dup4\n        /* \"#utility.yul\":10890:10954   */\n      sstore\n        /* \"#utility.yul\":10812:10968   */\n      pop\n        /* \"#utility.yul\":10789:10968   */\n    tag_214:\n        /* \"#utility.yul\":11014:11015   */\n      0x01\n        /* \"#utility.yul\":11010:11011   */\n      0x02\n        /* \"#utility.yul\":11002:11008   */\n      dup9\n        /* \"#utility.yul\":10998:11012   */\n      mul\n        /* \"#utility.yul\":10994:11016   */\n      add\n        /* \"#utility.yul\":10988:10992   */\n      dup9\n        /* \"#utility.yul\":10981:11017   */\n      sstore\n        /* \"#utility.yul\":10416:11027   */\n      pop\n      pop\n      pop\n        /* \"#utility.yul\":10379:11266   */\n    tag_206:\n      pop\n        /* \"#utility.yul\":9969:11272   */\n      pop\n      pop\n      pop\n        /* \"#utility.yul\":9877:11272   */\n      pop\n      pop\n      jump\t// out\n        /* \"#utility.yul\":11278:11375   */\n    tag_84:\n        /* \"#utility.yul\":11337:11343   */\n      0x00\n        /* \"#utility.yul\":11365:11368   */\n      dup3\n        /* \"#utility.yul\":11355:11368   */\n      swap1\n      pop\n        /* \"#utility.yul\":11278:11375   */\n      swap3\n      swap2\n      pop\n      pop\n      jump\t// out\n        /* \"#utility.yul\":11381:12784   */\n    tag_44:\n        /* \"#utility.yul\":11505:11549   */\n      tag_218\n        /* \"#utility.yul\":11545:11548   */\n      dup4\n        /* \"#utility.yul\":11540:11543   */\n      dup4\n        /* \"#utility.yul\":11505:11549   */\n      tag_84\n      jump\t// in\n    tag_218:\n        /* \"#utility.yul\":11614:11632   */\n      0xffffffffffffffff\n        /* \"#utility.yul\":11606:11612   */\n      dup2\n        /* \"#utility.yul\":11603:11633   */\n      gt\n        /* \"#utility.yul\":11600:11656   */\n      iszero\n      tag_219\n      jumpi\n        /* \"#utility.yul\":11636:11654   */\n      tag_220\n      tag_67\n      jump\t// in\n    tag_220:\n        /* \"#utility.yul\":11600:11656   */\n    tag_219:\n        /* \"#utility.yul\":11680:11718   */\n      tag_221\n        /* \"#utility.yul\":11712:11716   */\n      dup3\n        /* \"#utility.yul\":11706:11717   */\n      sload\n        /* \"#utility.yul\":11680:11718   */\n      tag_31\n      jump\t// in\n    tag_221:\n        /* \"#utility.yul\":11765:11832   */\n      tag_222\n        /* \"#utility.yul\":11825:11831   */\n      dup3\n        /* \"#utility.yul\":11817:11823   */\n      dup3\n        /* \"#utility.yul\":11811:11815   */\n      dup6\n        /* \"#utility.yul\":11765:11832   */\n      tag_80\n      jump\t// in\n    tag_222:\n        /* \"#utility.yul\":11859:11860   */\n      0x00\n        /* \"#utility.yul\":11888:11890   */\n      0x1f\n        /* \"#utility.yul\":11880:11886   */\n      dup4\n        /* \"#utility.yul\":11877:11891   */\n      gt\n        /* \"#utility.yul\":11905:11906   */\n      0x01\n        /* \"#utility.yul\":11900:12532   */\n      dup2\n      eq\n      tag_224\n      jumpi\n        /* \"#utility.yul\":12576:12577   */\n      0x00\n        /* \"#utility.yul\":12593:12599   */\n      dup5\n        /* \"#utility.yul\":12590:12674   */\n      iszero\n      tag_225\n      jumpi\n        /* \"#utility.yul\":12649:12658   */\n      dup3\n        /* \"#utility.yul\":12644:12647   */\n      dup8\n        /* \"#utility.yul\":12640:12659   */\n      add\n        /* \"#utility.yul\":12627:12660   */\n      calldataload\n        /* \"#utility.yul\":12618:12660   */\n      swap1\n      pop\n        /* \"#utility.yul\":12590:12674   */\n    tag_225:\n        /* \"#utility.yul\":12700:12767   */\n      tag_226\n        /* \"#utility.yul\":12760:12766   */\n      dup6\n        /* \"#utility.yul\":12753:12758   */\n      dup3\n        /* \"#utility.yul\":12700:12767   */\n      tag_83\n      jump\t// in\n    tag_226:\n        /* \"#utility.yul\":12694:12698   */\n      dup7\n        /* \"#utility.yul\":12687:12768   */\n      sstore\n        /* \"#utility.yul\":12549:12778   */\n      pop\n        /* \"#utility.yul\":11870:12778   */\n      jump(tag_223)\n        /* \"#utility.yul\":11900:12532   */\n    tag_224:\n        /* \"#utility.yul\":11952:11956   */\n      0x1f\n        /* \"#utility.yul\":11948:11957   */\n      not\n        /* \"#utility.yul\":11940:11946   */\n      dup5\n        /* \"#utility.yul\":11936:11958   */\n      and\n        /* \"#utility.yul\":11986:12023   */\n      tag_227\n        /* \"#utility.yul\":12018:12022   */\n      dup7\n        /* \"#utility.yul\":11986:12023   */\n      tag_69\n      jump\t// in\n    tag_227:\n        /* \"#utility.yul\":12045:12046   */\n      0x00\n        /* \"#utility.yul\":12059:12274   */\n    tag_228:\n        /* \"#utility.yul\":12073:12080   */\n      dup3\n        /* \"#utility.yul\":12070:12071   */\n      dup2\n        /* \"#utility.yul\":12067:12081   */\n      lt\n        /* \"#utility.yul\":12059:12274   */\n      iszero\n      tag_230\n      jumpi\n        /* \"#utility.yul\":12159:12168   */\n      dup5\n        /* \"#utility.yul\":12154:12157   */\n      dup10\n        /* \"#utility.yul\":12150:12169   */\n      add\n        /* \"#utility.yul\":12137:12170   */\n      calldataload\n        /* \"#utility.yul\":12129:12135   */\n      dup3\n        /* \"#utility.yul\":12122:12171   */\n      sstore\n        /* \"#utility.yul\":12210:12211   */\n      0x01\n        /* \"#utility.yul\":12202:12208   */\n      dup3\n        /* \"#utility.yul\":12198:12212   */\n      add\n        /* \"#utility.yul\":12188:12212   */\n      swap2\n      pop\n        /* \"#utility.yul\":12257:12259   */\n      0x20\n        /* \"#utility.yul\":12246:12255   */\n      dup6\n        /* \"#utility.yul\":12242:12260   */\n      add\n        /* \"#utility.yul\":12229:12260   */\n      swap5\n      pop\n        /* \"#utility.yul\":12096:12100   */\n      0x20\n        /* \"#utility.yul\":12093:12094   */\n      dup2\n        /* \"#utility.yul\":12089:12101   */\n      add\n        /* \"#utility.yul\":12084:12101   */\n      swap1\n      pop\n        /* \"#utility.yul\":12059:12274   */\n      jump(tag_228)\n    tag_230:\n        /* \"#utility.yul\":12302:12308   */\n      dup7\n        /* \"#utility.yul\":12293:12300   */\n      dup4\n        /* \"#utility.yul\":12290:12309   */\n      lt\n        /* \"#utility.yul\":12287:12473   */\n      iszero\n      tag_231\n      jumpi\n        /* \"#utility.yul\":12367:12376   */\n      dup5\n        /* \"#utility.yul\":12362:12365   */\n      dup10\n        /* \"#utility.yul\":12358:12377   */\n      add\n        /* \"#utility.yul\":12345:12378   */\n      calldataload\n        /* \"#utility.yul\":12410:12458   */\n      tag_232\n        /* \"#utility.yul\":12452:12456   */\n      0x1f\n        /* \"#utility.yul\":12444:12450   */\n      dup10\n        /* \"#utility.yul\":12440:12457   */\n      and\n        /* \"#utility.yul\":12429:12438   */\n      dup3\n        /* \"#utility.yul\":12410:12458   */\n      tag_82\n      jump\t// in\n    tag_232:\n        /* \"#utility.yul\":12402:12408   */\n      dup4\n        /* \"#utility.yul\":12395:12459   */\n      sstore\n        /* \"#utility.yul\":12310:12473   */\n      pop\n        /* \"#utility.yul\":12287:12473   */\n    tag_231:\n        /* \"#utility.yul\":12519:12520   */\n      0x01\n        /* \"#utility.yul\":12515:12516   */\n      0x02\n        /* \"#utility.yul\":12507:12513   */\n      dup9\n        /* \"#utility.yul\":12503:12517   */\n      mul\n        /* \"#utility.yul\":12499:12521   */\n      add\n        /* \"#utility.yul\":12493:12497   */\n      dup9\n        /* \"#utility.yul\":12486:12522   */\n      sstore\n        /* \"#utility.yul\":11907:12532   */\n      pop\n      pop\n      pop\n        /* \"#utility.yul\":11870:12778   */\n    tag_223:\n      pop\n        /* \"#utility.yul\":11480:12784   */\n      pop\n      pop\n      pop\n        /* \"#utility.yul\":11381:12784   */\n      pop\n      pop\n      pop\n      jump\t// out\n\n    auxdata: 0xa2646970667358221220b6e6ae0481a8c86b8eab00423856ef4d1956ae74b68f48793a4c168bb2d2648864736f6c63430008160033\n}\n",
				"bytecode": {
					"linkReferences": {},
					"object": "60806040525f8055348015610012575f80fd5b50610b79806100205f395ff3fe608060405234801561000f575f80fd5b506004361061004a575f3560e01c80631bc3115e1461004e578063642f91631461006a57806395130f981461009a578063c2dd3895146100b6575b5f80fd5b61006860048036038101906100639190610505565b6100d2565b005b610084600480360381019061007f91906105a9565b6101c0565b604051610091919061065e565b60405180910390f35b6100b460048036038101906100af919061067e565b610264565b005b6100d060048036038101906100cb919061067e565b6103c6565b005b5f805f8154809291906100e49061072f565b91905055905060405180606001604052808460ff1681526020018361ffff16815260200186868080601f0160208091040260200160405190810160405280939291908181526020018383808284375f81840152601f19601f8201169050808301925050505050505081525060015f8381526020019081526020015f205f820151815f015f6101000a81548160ff021916908360ff1602179055506020820151815f0160016101000a81548161ffff021916908361ffff16021790555060408201518160010190816101b5919061099d565b509050505050505050565b606060015f8381526020019081526020015f2060010180546101e1906107d0565b80601f016020809104026020016040519081016040528092919081815260200182805461020d906107d0565b80156102585780601f1061022f57610100808354040283529160200191610258565b820191905f5260205f20905b81548152906001019060200180831161023b57829003601f168201915b50505050509050919050565b5f60015f8781526020019081526020015f206040518060600160405290815f82015f9054906101000a900460ff1660ff1660ff1681526020015f820160019054906101000a900461ffff1661ffff1661ffff1681526020016001820180546102cb906107d0565b80601f01602080910402602001604051908101604052809291908181526020018280546102f7906107d0565b80156103425780601f1061031957610100808354040283529160200191610342565b820191905f5260205f20905b81548152906001019060200180831161032557829003601f168201915b505050505081525050905084848080601f0160208091040260200160405190810160405280939291908181526020018383808284375f81840152601f19601f82011690508083019250505050505050816040018190525082815f019060ff16908160ff168152505081816020019061ffff16908161ffff1681525050505050505050565b5f60015f8781526020019081526020015f20905084848260010191826103ed929190610a76565b5082815f015f6101000a81548160ff021916908360ff16021790555081815f0160016101000a81548161ffff021916908361ffff160217905550505050505050565b5f80fd5b5f80fd5b5f80fd5b5f80fd5b5f80fd5b5f8083601f84011261045857610457610437565b5b8235905067ffffffffffffffff8111156104755761047461043b565b5b6020830191508360018202830111156104915761049061043f565b5b9250929050565b5f60ff82169050919050565b6104ad81610498565b81146104b7575f80fd5b50565b5f813590506104c8816104a4565b92915050565b5f61ffff82169050919050565b6104e4816104ce565b81146104ee575f80fd5b50565b5f813590506104ff816104db565b92915050565b5f805f806060858703121561051d5761051c61042f565b5b5f85013567ffffffffffffffff81111561053a57610539610433565b5b61054687828801610443565b94509450506020610559878288016104ba565b925050604061056a878288016104f1565b91505092959194509250565b5f819050919050565b61058881610576565b8114610592575f80fd5b50565b5f813590506105a38161057f565b92915050565b5f602082840312156105be576105bd61042f565b5b5f6105cb84828501610595565b91505092915050565b5f81519050919050565b5f82825260208201905092915050565b5f5b8381101561060b5780820151818401526020810190506105f0565b5f8484015250505050565b5f601f19601f8301169050919050565b5f610630826105d4565b61063a81856105de565b935061064a8185602086016105ee565b61065381610616565b840191505092915050565b5f6020820190508181035f8301526106768184610626565b905092915050565b5f805f805f608086880312156106975761069661042f565b5b5f6106a488828901610595565b955050602086013567ffffffffffffffff8111156106c5576106c4610433565b5b6106d188828901610443565b945094505060406106e4888289016104ba565b92505060606106f5888289016104f1565b9150509295509295909350565b7f4e487b71000000000000000000000000000000000000000000000000000000005f52601160045260245ffd5b5f61073982610576565b91507fffffffffffffffffffffffffffffffffffffffffffffffffffffffffffffffff820361076b5761076a610702565b5b600182019050919050565b7f4e487b71000000000000000000000000000000000000000000000000000000005f52604160045260245ffd5b7f4e487b71000000000000000000000000000000000000000000000000000000005f52602260045260245ffd5b5f60028204905060018216806107e757607f821691505b6020821081036107fa576107f96107a3565b5b50919050565b5f819050815f5260205f209050919050565b5f6020601f8301049050919050565b5f82821b905092915050565b5f6008830261085c7fffffffffffffffffffffffffffffffffffffffffffffffffffffffffffffffff82610821565b6108668683610821565b95508019841693508086168417925050509392505050565b5f819050919050565b5f6108a161089c61089784610576565b61087e565b610576565b9050919050565b5f819050919050565b6108ba83610887565b6108ce6108c6826108a8565b84845461082d565b825550505050565b5f90565b6108e26108d6565b6108ed8184846108b1565b505050565b5b81811015610910576109055f826108da565b6001810190506108f3565b5050565b601f8211156109555761092681610800565b61092f84610812565b8101602085101561093e578190505b61095261094a85610812565b8301826108f2565b50505b505050565b5f82821c905092915050565b5f6109755f198460080261095a565b1980831691505092915050565b5f61098d8383610966565b9150826002028217905092915050565b6109a6826105d4565b67ffffffffffffffff8111156109bf576109be610776565b5b6109c982546107d0565b6109d4828285610914565b5f60209050601f831160018114610a05575f84156109f3578287015190505b6109fd8582610982565b865550610a64565b601f198416610a1386610800565b5f5b82811015610a3a57848901518255600182019150602085019450602081019050610a15565b86831015610a575784890151610a53601f891682610966565b8355505b6001600288020188555050505b505050505050565b5f82905092915050565b610a808383610a6c565b67ffffffffffffffff811115610a9957610a98610776565b5b610aa382546107d0565b610aae828285610914565b5f601f831160018114610adb575f8415610ac9578287013590505b610ad38582610982565b865550610b3a565b601f198416610ae986610800565b5f5b82811015610b1057848901358255600182019150602085019450602081019050610aeb565b86831015610b2d5784890135610b29601f891682610966565b8355505b6001600288020188555050505b5050505050505056fea2646970667358221220b6e6ae0481a8c86b8eab00423856ef4d1956ae74b68f48793a4c168bb2d2648864736f6c63430008160033",
					"opcodes": "PUSH1 0x80 PUSH1 0x40 MSTORE PUSH0 DUP1 SSTORE CALLVALUE DUP1 ISZERO PUSH2 0x12 JUMPI PUSH0 DUP1 REVERT JUMPDEST POP PUSH2 0xB79 DUP1 PUSH2 0x20 PUSH0 CODECOPY PUSH0 RETURN INVALID PUSH1 0x80 PUSH1 0x40 MSTORE CALLVALUE DUP1 ISZERO PUSH2 0xF JUMPI PUSH0 DUP1 REVERT JUMPDEST POP PUSH1 0x4 CALLDATASIZE LT PUSH2 0x4A JUMPI PUSH0 CALLDATALOAD PUSH1 0xE0 SHR DUP1 PUSH4 0x1BC3115E EQ PUSH2 0x4E JUMPI DUP1 PUSH4 0x642F9163 EQ PUSH2 0x6A JUMPI DUP1 PUSH4 0x95130F98 EQ PUSH2 0x9A JUMPI DUP1 PUSH4 0xC2DD3895 EQ PUSH2 0xB6 JUMPI JUMPDEST PUSH0 DUP1 REVERT JUMPDEST PUSH2 0x68 PUSH1 0x4 DUP1 CALLDATASIZE SUB DUP2 ADD SWAP1 PUSH2 0x63 SWAP2 SWAP1 PUSH2 0x505 JUMP JUMPDEST PUSH2 0xD2 JUMP JUMPDEST STOP JUMPDEST PUSH2 0x84 PUSH1 0x4 DUP1 CALLDATASIZE SUB DUP2 ADD SWAP1 PUSH2 0x7F SWAP2 SWAP1 PUSH2 0x5A9 JUMP JUMPDEST PUSH2 0x1C0 JUMP JUMPDEST PUSH1 0x40 MLOAD PUSH2 0x91 SWAP2 SWAP1 PUSH2 0x65E JUMP JUMPDEST PUSH1 0x40 MLOAD DUP1 SWAP2 SUB SWAP1 RETURN JUMPDEST PUSH2 0xB4 PUSH1 0x4 DUP1 CALLDATASIZE SUB DUP2 ADD SWAP1 PUSH2 0xAF SWAP2 SWAP1 PUSH2 0x67E JUMP JUMPDEST PUSH2 0x264 JUMP JUMPDEST STOP JUMPDEST PUSH2 0xD0 PUSH1 0x4 DUP1 CALLDATASIZE SUB DUP2 ADD SWAP1 PUSH2 0xCB SWAP2 SWAP1 PUSH2 0x67E JUMP JUMPDEST PUSH2 0x3C6 JUMP JUMPDEST STOP JUMPDEST PUSH0 DUP1 PUSH0 DUP2 SLOAD DUP1 SWAP3 SWAP2 SWAP1 PUSH2 0xE4 SWAP1 PUSH2 0x72F JUMP JUMPDEST SWAP2 SWAP1 POP SSTORE SWAP1 POP PUSH1 0x40 MLOAD DUP1 PUSH1 0x60 ADD PUSH1 0x40 MSTORE DUP1 DUP5 PUSH1 0xFF AND DUP2 MSTORE PUSH1 0x20 ADD DUP4 PUSH2 0xFFFF AND DUP2 MSTORE PUSH1 0x20 ADD DUP7 DUP7 DUP1 DUP1 PUSH1 0x1F ADD PUSH1 0x20 DUP1 SWAP2 DIV MUL PUSH1 0x20 ADD PUSH1 0x40 MLOAD SWAP1 DUP2 ADD PUSH1 0x40 MSTORE DUP1 SWAP4 SWAP3 SWAP2 SWAP1 DUP2 DUP2 MSTORE PUSH1 0x20 ADD DUP4 DUP4 DUP1 DUP3 DUP5 CALLDATACOPY PUSH0 DUP2 DUP5 ADD MSTORE PUSH1 0x1F NOT PUSH1 0x1F DUP3 ADD AND SWAP1 POP DUP1 DUP4 ADD SWAP3 POP POP POP POP POP POP POP DUP2 MSTORE POP PUSH1 0x1 PUSH0 DUP4 DUP2 MSTORE PUSH1 0x20 ADD SWAP1 DUP2 MSTORE PUSH1 0x20 ADD PUSH0 KECCAK256 PUSH0 DUP3 ADD MLOAD DUP2 PUSH0 ADD PUSH0 PUSH2 0x100 EXP DUP2 SLOAD DUP2 PUSH1 0xFF MUL NOT AND SWAP1 DUP4 PUSH1 0xFF AND MUL OR SWAP1 SSTORE POP PUSH1 0x20 DUP3 ADD MLOAD DUP2 PUSH0 ADD PUSH1 0x1 PUSH2 0x100 EXP DUP2 SLOAD DUP2 PUSH2 0xFFFF MUL NOT AND SWAP1 DUP4 PUSH2 0xFFFF AND MUL OR SWAP1 SSTORE POP PUSH1 0x40 DUP3 ADD MLOAD DUP2 PUSH1 0x1 ADD SWAP1 DUP2 PUSH2 0x1B5 SWAP2 SWAP1 PUSH2 0x99D JUMP JUMPDEST POP SWAP1 POP POP POP POP POP POP POP JUMP JUMPDEST PUSH1 0x60 PUSH1 0x1 PUSH0 DUP4 DUP2 MSTORE PUSH1 0x20 ADD SWAP1 DUP2 MSTORE PUSH1 0x20 ADD PUSH0 KECCAK256 PUSH1 0x1 ADD DUP1 SLOAD PUSH2 0x1E1 SWAP1 PUSH2 0x7D0 JUMP JUMPDEST DUP1 PUSH1 0x1F ADD PUSH1 0x20 DUP1 SWAP2 DIV MUL PUSH1 0x20 ADD PUSH1 0x40 MLOAD SWAP1 DUP2 ADD PUSH1 0x40 MSTORE DUP1 SWAP3 SWAP2 SWAP1 DUP2 DUP2 MSTORE PUSH1 0x20 ADD DUP3 DUP1 SLOAD PUSH2 0x20D SWAP1 PUSH2 0x7D0 JUMP JUMPDEST DUP1 ISZERO PUSH2 0x258 JUMPI DUP1 PUSH1 0x1F LT PUSH2 0x22F JUMPI PUSH2 0x100 DUP1 DUP4 SLOAD DIV MUL DUP4 MSTORE SWAP2 PUSH1 0x20 ADD SWAP2 PUSH2 0x258 JUMP JUMPDEST DUP3 ADD SWAP2 SWAP1 PUSH0 MSTORE PUSH1 0x20 PUSH0 KECCAK256 SWAP1 JUMPDEST DUP2 SLOAD DUP2 MSTORE SWAP1 PUSH1 0x1 ADD SWAP1 PUSH1 0x20 ADD DUP1 DUP4 GT PUSH2 0x23B JUMPI DUP3 SWAP1 SUB PUSH1 0x1F AND DUP3 ADD SWAP2 JUMPDEST POP POP POP POP POP SWAP1 POP SWAP2 SWAP1 POP JUMP JUMPDEST PUSH0 PUSH1 0x1 PUSH0 DUP8 DUP2 MSTORE PUSH1 0x20 ADD SWAP1 DUP2 MSTORE PUSH1 0x20 ADD PUSH0 KECCAK256 PUSH1 0x40 MLOAD DUP1 PUSH1 0x60 ADD PUSH1 0x40 MSTORE SWAP1 DUP2 PUSH0 DUP3 ADD PUSH0 SWAP1 SLOAD SWAP1 PUSH2 0x100 EXP SWAP1 DIV PUSH1 0xFF AND PUSH1 0xFF AND PUSH1 0xFF AND DUP2 MSTORE PUSH1 0x20 ADD PUSH0 DUP3 ADD PUSH1 0x1 SWAP1 SLOAD SWAP1 PUSH2 0x100 EXP SWAP1 DIV PUSH2 0xFFFF AND PUSH2 0xFFFF AND PUSH2 0xFFFF AND DUP2 MSTORE PUSH1 0x20 ADD PUSH1 0x1 DUP3 ADD DUP1 SLOAD PUSH2 0x2CB SWAP1 PUSH2 0x7D0 JUMP JUMPDEST DUP1 PUSH1 0x1F ADD PUSH1 0x20 DUP1 SWAP2 DIV MUL PUSH1 0x20 ADD PUSH1 0x40 MLOAD SWAP1 DUP2 ADD PUSH1 0x40 MSTORE DUP1 SWAP3 SWAP2 SWAP1 DUP2 DUP2 MSTORE PUSH1 0x20 ADD DUP3 DUP1 SLOAD PUSH2 0x2F7 SWAP1 PUSH2 0x7D0 JUMP JUMPDEST DUP1 ISZERO PUSH2 0x342 JUMPI DUP1 PUSH1 0x1F LT PUSH2 0x319 JUMPI PUSH2 0x100 DUP1 DUP4 SLOAD DIV MUL DUP4 MSTORE SWAP2 PUSH1 0x20 ADD SWAP2 PUSH2 0x342 JUMP JUMPDEST DUP3 ADD SWAP2 SWAP1 PUSH0 MSTORE PUSH1 0x20 PUSH0 KECCAK256 SWAP1 JUMPDEST DUP2 SLOAD DUP2 MSTORE SWAP1 PUSH1 0x1 ADD SWAP1 PUSH1 0x20 ADD DUP1 DUP4 GT PUSH2 0x325 JUMPI DUP3 SWAP1 SUB PUSH1 0x1F AND DUP3 ADD SWAP2 JUMPDEST POP POP POP POP POP DUP2 MSTORE POP POP SWAP1 POP DUP5 DUP5 DUP1 DUP1 PUSH1 0x1F ADD PUSH1 0x20 DUP1 SWAP2 DIV MUL PUSH1 0x20 ADD PUSH1 0x40 MLOAD SWAP1 DUP2 ADD PUSH1 0x40 MSTORE DUP1 SWAP4 SWAP3 SWAP2 SWAP1 DUP2 DUP2 MSTORE PUSH1 0x20 ADD DUP4 DUP4 DUP1 DUP3 DUP5 CALLDATACOPY PUSH0 DUP2 DUP5 ADD MSTORE PUSH1 0x1F NOT PUSH1 0x1F DUP3 ADD AND SWAP1 POP DUP1 DUP4 ADD SWAP3 POP POP POP POP POP POP POP DUP2 PUSH1 0x40 ADD DUP2 SWAP1 MSTORE POP DUP3 DUP2 PUSH0 ADD SWAP1 PUSH1 0xFF AND SWAP1 DUP2 PUSH1 0xFF AND DUP2 MSTORE POP POP DUP2 DUP2 PUSH1 0x20 ADD SWAP1 PUSH2 0xFFFF AND SWAP1 DUP2 PUSH2 0xFFFF AND DUP2 MSTORE POP POP POP POP POP POP POP POP JUMP JUMPDEST PUSH0 PUSH1 0x1 PUSH0 DUP8 DUP2 MSTORE PUSH1 0x20 ADD SWAP1 DUP2 MSTORE PUSH1 0x20 ADD PUSH0 KECCAK256 SWAP1 POP DUP5 DUP5 DUP3 PUSH1 0x1 ADD SWAP2 DUP3 PUSH2 0x3ED SWAP3 SWAP2 SWAP1 PUSH2 0xA76 JUMP JUMPDEST POP DUP3 DUP2 PUSH0 ADD PUSH0 PUSH2 0x100 EXP DUP2 SLOAD DUP2 PUSH1 0xFF MUL NOT AND SWAP1 DUP4 PUSH1 0xFF AND MUL OR SWAP1 SSTORE POP DUP2 DUP2 PUSH0 ADD PUSH1 0x1 PUSH2 0x100 EXP DUP2 SLOAD DUP2 PUSH2 0xFFFF MUL NOT AND SWAP1 DUP4 PUSH2 0xFFFF AND MUL OR SWAP1 SSTORE POP POP POP POP POP POP POP JUMP JUMPDEST PUSH0 DUP1 REVERT JUMPDEST PUSH0 DUP1 REVERT JUMPDEST PUSH0 DUP1 REVERT JUMPDEST PUSH0 DUP1 REVERT JUMPDEST PUSH0 DUP1 REVERT JUMPDEST PUSH0 DUP1 DUP4 PUSH1 0x1F DUP5 ADD SLT PUSH2 0x458 JUMPI PUSH2 0x457 PUSH2 0x437 JUMP JUMPDEST JUMPDEST DUP3 CALLDATALOAD SWAP1 POP PUSH8 0xFFFFFFFFFFFFFFFF DUP2 GT ISZERO PUSH2 0x475 JUMPI PUSH2 0x474 PUSH2 0x43B JUMP JUMPDEST JUMPDEST PUSH1 0x20 DUP4 ADD SWAP2 POP DUP4 PUSH1 0x1 DUP3 MUL DUP4 ADD GT ISZERO PUSH2 0x491 JUMPI PUSH2 0x490 PUSH2 0x43F JUMP JUMPDEST JUMPDEST SWAP3 POP SWAP3 SWAP1 POP JUMP JUMPDEST PUSH0 PUSH1 0xFF DUP3 AND SWAP1 POP SWAP2 SWAP1 POP JUMP JUMPDEST PUSH2 0x4AD DUP2 PUSH2 0x498 JUMP JUMPDEST DUP2 EQ PUSH2 0x4B7 JUMPI PUSH0 DUP1 REVERT JUMPDEST POP JUMP JUMPDEST PUSH0 DUP2 CALLDATALOAD SWAP1 POP PUSH2 0x4C8 DUP2 PUSH2 0x4A4 JUMP JUMPDEST SWAP3 SWAP2 POP POP JUMP JUMPDEST PUSH0 PUSH2 0xFFFF DUP3 AND SWAP1 POP SWAP2 SWAP1 POP JUMP JUMPDEST PUSH2 0x4E4 DUP2 PUSH2 0x4CE JUMP JUMPDEST DUP2 EQ PUSH2 0x4EE JUMPI PUSH0 DUP1 REVERT JUMPDEST POP JUMP JUMPDEST PUSH0 DUP2 CALLDATALOAD SWAP1 POP PUSH2 0x4FF DUP2 PUSH2 0x4DB JUMP JUMPDEST SWAP3 SWAP2 POP POP JUMP JUMPDEST PUSH0 DUP1 PUSH0 DUP1 PUSH1 0x60 DUP6 DUP8 SUB SLT ISZERO PUSH2 0x51D JUMPI PUSH2 0x51C PUSH2 0x42F JUMP JUMPDEST JUMPDEST PUSH0 DUP6 ADD CALLDATALOAD PUSH8 0xFFFFFFFFFFFFFFFF DUP2 GT ISZERO PUSH2 0x53A JUMPI PUSH2 0x539 PUSH2 0x433 JUMP JUMPDEST JUMPDEST PUSH2 0x546 DUP8 DUP3 DUP9 ADD PUSH2 0x443 JUMP JUMPDEST SWAP5 POP SWAP5 POP POP PUSH1 0x20 PUSH2 0x559 DUP8 DUP3 DUP9 ADD PUSH2 0x4BA JUMP JUMPDEST SWAP3 POP POP PUSH1 0x40 PUSH2 0x56A DUP8 DUP3 DUP9 ADD PUSH2 0x4F1 JUMP JUMPDEST SWAP2 POP POP SWAP3 SWAP6 SWAP2 SWAP5 POP SWAP3 POP JUMP JUMPDEST PUSH0 DUP2 SWAP1 POP SWAP2 SWAP1 POP JUMP JUMPDEST PUSH2 0x588 DUP2 PUSH2 0x576 JUMP JUMPDEST DUP2 EQ PUSH2 0x592 JUMPI PUSH0 DUP1 REVERT JUMPDEST POP JUMP JUMPDEST PUSH0 DUP2 CALLDATALOAD SWAP1 POP PUSH2 0x5A3 DUP2 PUSH2 0x57F JUMP JUMPDEST SWAP3 SWAP2 POP POP JUMP JUMPDEST PUSH0 PUSH1 0x20 DUP3 DUP5 SUB SLT ISZERO PUSH2 0x5BE JUMPI PUSH2 0x5BD PUSH2 0x42F JUMP JUMPDEST JUMPDEST PUSH0 PUSH2 0x5CB DUP5 DUP3 DUP6 ADD PUSH2 0x595 JUMP JUMPDEST SWAP2 POP POP SWAP3 SWAP2 POP POP JUMP JUMPDEST PUSH0 DUP2 MLOAD SWAP1 POP SWAP2 SWAP1 POP JUMP JUMPDEST PUSH0 DUP3 DUP3 MSTORE PUSH1 0x20 DUP3 ADD SWAP1 POP SWAP3 SWAP2 POP POP JUMP JUMPDEST PUSH0 JUMPDEST DUP4 DUP2 LT ISZERO PUSH2 0x60B JUMPI DUP1 DUP3 ADD MLOAD DUP2 DUP5 ADD MSTORE PUSH1 0x20 DUP2 ADD SWAP1 POP PUSH2 0x5F0 JUMP JUMPDEST PUSH0 DUP5 DUP5 ADD MSTORE POP POP POP POP JUMP JUMPDEST PUSH0 PUSH1 0x1F NOT PUSH1 0x1F DUP4 ADD AND SWAP1 POP SWAP2 SWAP1 POP JUMP JUMPDEST PUSH0 PUSH2 0x630 DUP3 PUSH2 0x5D4 JUMP JUMPDEST PUSH2 0x63A DUP2 DUP6 PUSH2 0x5DE JUMP JUMPDEST SWAP4 POP PUSH2 0x64A DUP2 DUP6 PUSH1 0x20 DUP7 ADD PUSH2 0x5EE JUMP JUMPDEST PUSH2 0x653 DUP2 PUSH2 0x616 JUMP JUMPDEST DUP5 ADD SWAP2 POP POP SWAP3 SWAP2 POP POP JUMP JUMPDEST PUSH0 PUSH1 0x20 DUP3 ADD SWAP1 POP DUP2 DUP2 SUB PUSH0 DUP4 ADD MSTORE PUSH2 0x676 DUP2 DUP5 PUSH2 0x626 JUMP JUMPDEST SWAP1 POP SWAP3 SWAP2 POP POP JUMP JUMPDEST PUSH0 DUP1 PUSH0 DUP1 PUSH0 PUSH1 0x80 DUP7 DUP9 SUB SLT ISZERO PUSH2 0x697 JUMPI PUSH2 0x696 PUSH2 0x42F JUMP JUMPDEST JUMPDEST PUSH0 PUSH2 0x6A4 DUP9 DUP3 DUP10 ADD PUSH2 0x595 JUMP JUMPDEST SWAP6 POP POP PUSH1 0x20 DUP7 ADD CALLDATALOAD PUSH8 0xFFFFFFFFFFFFFFFF DUP2 GT ISZERO PUSH2 0x6C5 JUMPI PUSH2 0x6C4 PUSH2 0x433 JUMP JUMPDEST JUMPDEST PUSH2 0x6D1 DUP9 DUP3 DUP10 ADD PUSH2 0x443 JUMP JUMPDEST SWAP5 POP SWAP5 POP POP PUSH1 0x40 PUSH2 0x6E4 DUP9 DUP3 DUP10 ADD PUSH2 0x4BA JUMP JUMPDEST SWAP3 POP POP PUSH1 0x60 PUSH2 0x6F5 DUP9 DUP3 DUP10 ADD PUSH2 0x4F1 JUMP JUMPDEST SWAP2 POP POP SWAP3 SWAP6 POP SWAP3 SWAP6 SWAP1 SWAP4 POP JUMP JUMPDEST PUSH32 0x4E487B7100000000000000000000000000000000000000000000000000000000 PUSH0 MSTORE PUSH1 0x11 PUSH1 0x4 MSTORE PUSH1 0x24 PUSH0 REVERT JUMPDEST PUSH0 PUSH2 0x739 DUP3 PUSH2 0x576 JUMP JUMPDEST SWAP2 POP PUSH32 0xFFFFFFFFFFFFFFFFFFFFFFFFFFFFFFFFFFFFFFFFFFFFFFFFFFFFFFFFFFFFFFFF DUP3 SUB PUSH2 0x76B JUMPI PUSH2 0x76A PUSH2 0x702 JUMP JUMPDEST JUMPDEST PUSH1 0x1 DUP3 ADD SWAP1 POP SWAP2 SWAP1 POP JUMP JUMPDEST PUSH32 0x4E487B7100000000000000000000000000000000000000000000000000000000 PUSH0 MSTORE PUSH1 0x41 PUSH1 0x4 MSTORE PUSH1 0x24 PUSH0 REVERT JUMPDEST PUSH32 0x4E487B7100000000000000000000000000000000000000000000000000000000 PUSH0 MSTORE PUSH1 0x22 PUSH1 0x4 MSTORE PUSH1 0x24 PUSH0 REVERT JUMPDEST PUSH0 PUSH1 0x2 DUP3 DIV SWAP1 POP PUSH1 0x1 DUP3 AND DUP1 PUSH2 0x7E7 JUMPI PUSH1 0x7F DUP3 AND SWAP2 POP JUMPDEST PUSH1 0x20 DUP3 LT DUP2 SUB PUSH2 0x7FA JUMPI PUSH2 0x7F9 PUSH2 0x7A3 JUMP JUMPDEST JUMPDEST POP SWAP2 SWAP1 POP JUMP JUMPDEST PUSH0 DUP2 SWAP1 POP DUP2 PUSH0 MSTORE PUSH1 0x20 PUSH0 KECCAK256 SWAP1 POP SWAP2 SWAP1 POP JUMP JUMPDEST PUSH0 PUSH1 0x20 PUSH1 0x1F DUP4 ADD DIV SWAP1 POP SWAP2 SWAP1 POP JUMP JUMPDEST PUSH0 DUP3 DUP3 SHL SWAP1 POP SWAP3 SWAP2 POP POP JUMP JUMPDEST PUSH0 PUSH1 0x8 DUP4 MUL PUSH2 0x85C PUSH32 0xFFFFFFFFFFFFFFFFFFFFFFFFFFFFFFFFFFFFFFFFFFFFFFFFFFFFFFFFFFFFFFFF DUP3 PUSH2 0x821 JUMP JUMPDEST PUSH2 0x866 DUP7 DUP4 PUSH2 0x821 JUMP JUMPDEST SWAP6 POP DUP1 NOT DUP5 AND SWAP4 POP DUP1 DUP7 AND DUP5 OR SWAP3 POP POP POP SWAP4 SWAP3 POP POP POP JUMP JUMPDEST PUSH0 DUP2 SWAP1 POP SWAP2 SWAP1 POP JUMP JUMPDEST PUSH0 PUSH2 0x8A1 PUSH2 0x89C PUSH2 0x897 DUP5 PUSH2 0x576 JUMP JUMPDEST PUSH2 0x87E JUMP JUMPDEST PUSH2 0x576 JUMP JUMPDEST SWAP1 POP SWAP2 SWAP1 POP JUMP JUMPDEST PUSH0 DUP2 SWAP1 POP SWAP2 SWAP1 POP JUMP JUMPDEST PUSH2 0x8BA DUP4 PUSH2 0x887 JUMP JUMPDEST PUSH2 0x8CE PUSH2 0x8C6 DUP3 PUSH2 0x8A8 JUMP JUMPDEST DUP5 DUP5 SLOAD PUSH2 0x82D JUMP JUMPDEST DUP3 SSTORE POP POP POP POP JUMP JUMPDEST PUSH0 SWAP1 JUMP JUMPDEST PUSH2 0x8E2 PUSH2 0x8D6 JUMP JUMPDEST PUSH2 0x8ED DUP2 DUP5 DUP5 PUSH2 0x8B1 JUMP JUMPDEST POP POP POP JUMP JUMPDEST JUMPDEST DUP2 DUP2 LT ISZERO PUSH2 0x910 JUMPI PUSH2 0x905 PUSH0 DUP3 PUSH2 0x8DA JUMP JUMPDEST PUSH1 0x1 DUP2 ADD SWAP1 POP PUSH2 0x8F3 JUMP JUMPDEST POP POP JUMP JUMPDEST PUSH1 0x1F DUP3 GT ISZERO PUSH2 0x955 JUMPI PUSH2 0x926 DUP2 PUSH2 0x800 JUMP JUMPDEST PUSH2 0x92F DUP5 PUSH2 0x812 JUMP JUMPDEST DUP2 ADD PUSH1 0x20 DUP6 LT ISZERO PUSH2 0x93E JUMPI DUP2 SWAP1 POP JUMPDEST PUSH2 0x952 PUSH2 0x94A DUP6 PUSH2 0x812 JUMP JUMPDEST DUP4 ADD DUP3 PUSH2 0x8F2 JUMP JUMPDEST POP POP JUMPDEST POP POP POP JUMP JUMPDEST PUSH0 DUP3 DUP3 SHR SWAP1 POP SWAP3 SWAP2 POP POP JUMP JUMPDEST PUSH0 PUSH2 0x975 PUSH0 NOT DUP5 PUSH1 0x8 MUL PUSH2 0x95A JUMP JUMPDEST NOT DUP1 DUP4 AND SWAP2 POP POP SWAP3 SWAP2 POP POP JUMP JUMPDEST PUSH0 PUSH2 0x98D DUP4 DUP4 PUSH2 0x966 JUMP JUMPDEST SWAP2 POP DUP3 PUSH1 0x2 MUL DUP3 OR SWAP1 POP SWAP3 SWAP2 POP POP JUMP JUMPDEST PUSH2 0x9A6 DUP3 PUSH2 0x5D4 JUMP JUMPDEST PUSH8 0xFFFFFFFFFFFFFFFF DUP2 GT ISZERO PUSH2 0x9BF JUMPI PUSH2 0x9BE PUSH2 0x776 JUMP JUMPDEST JUMPDEST PUSH2 0x9C9 DUP3 SLOAD PUSH2 0x7D0 JUMP JUMPDEST PUSH2 0x9D4 DUP3 DUP3 DUP6 PUSH2 0x914 JUMP JUMPDEST PUSH0 PUSH1 0x20 SWAP1 POP PUSH1 0x1F DUP4 GT PUSH1 0x1 DUP2 EQ PUSH2 0xA05 JUMPI PUSH0 DUP5 ISZERO PUSH2 0x9F3 JUMPI DUP3 DUP8 ADD MLOAD SWAP1 POP JUMPDEST PUSH2 0x9FD DUP6 DUP3 PUSH2 0x982 JUMP JUMPDEST DUP7 SSTORE POP PUSH2 0xA64 JUMP JUMPDEST PUSH1 0x1F NOT DUP5 AND PUSH2 0xA13 DUP7 PUSH2 0x800 JUMP JUMPDEST PUSH0 JUMPDEST DUP3 DUP2 LT ISZERO PUSH2 0xA3A JUMPI DUP5 DUP10 ADD MLOAD DUP3 SSTORE PUSH1 0x1 DUP3 ADD SWAP2 POP PUSH1 0x20 DUP6 ADD SWAP5 POP PUSH1 0x20 DUP2 ADD SWAP1 POP PUSH2 0xA15 JUMP JUMPDEST DUP7 DUP4 LT ISZERO PUSH2 0xA57 JUMPI DUP5 DUP10 ADD MLOAD PUSH2 0xA53 PUSH1 0x1F DUP10 AND DUP3 PUSH2 0x966 JUMP JUMPDEST DUP4 SSTORE POP JUMPDEST PUSH1 0x1 PUSH1 0x2 DUP9 MUL ADD DUP9 SSTORE POP POP POP JUMPDEST POP POP POP POP POP POP JUMP JUMPDEST PUSH0 DUP3 SWAP1 POP SWAP3 SWAP2 POP POP JUMP JUMPDEST PUSH2 0xA80 DUP4 DUP4 PUSH2 0xA6C JUMP JUMPDEST PUSH8 0xFFFFFFFFFFFFFFFF DUP2 GT ISZERO PUSH2 0xA99 JUMPI PUSH2 0xA98 PUSH2 0x776 JUMP JUMPDEST JUMPDEST PUSH2 0xAA3 DUP3 SLOAD PUSH2 0x7D0 JUMP JUMPDEST PUSH2 0xAAE DUP3 DUP3 DUP6 PUSH2 0x914 JUMP JUMPDEST PUSH0 PUSH1 0x1F DUP4 GT PUSH1 0x1 DUP2 EQ PUSH2 0xADB JUMPI PUSH0 DUP5 ISZERO PUSH2 0xAC9 JUMPI DUP3 DUP8 ADD CALLDATALOAD SWAP1 POP JUMPDEST PUSH2 0xAD3 DUP6 DUP3 PUSH2 0x982 JUMP JUMPDEST DUP7 SSTORE POP PUSH2 0xB3A JUMP JUMPDEST PUSH1 0x1F NOT DUP5 AND PUSH2 0xAE9 DUP7 PUSH2 0x800 JUMP JUMPDEST PUSH0 JUMPDEST DUP3 DUP2 LT ISZERO PUSH2 0xB10 JUMPI DUP5 DUP10 ADD CALLDATALOAD DUP3 SSTORE PUSH1 0x1 DUP3 ADD SWAP2 POP PUSH1 0x20 DUP6 ADD SWAP5 POP PUSH1 0x20 DUP2 ADD SWAP1 POP PUSH2 0xAEB JUMP JUMPDEST DUP7 DUP4 LT ISZERO PUSH2 0xB2D JUMPI DUP5 DUP10 ADD CALLDATALOAD PUSH2 0xB29 PUSH1 0x1F DUP10 AND DUP3 PUSH2 0x966 JUMP JUMPDEST DUP4 SSTORE POP JUMPDEST PUSH1 0x1 PUSH1 0x2 DUP9 MUL ADD DUP9 SSTORE POP POP POP JUMPDEST POP POP POP POP POP POP POP JUMP INVALID LOG2 PUSH5 0x6970667358 0x22 SLT KECCAK256 0xB6 0xE6 0xAE DIV DUP2 0xA8 0xC8 PUSH12 0x8EAB00423856EF4D1956AE74 0xB6 DUP16 BASEFEE PUSH26 0x3A4C168BB2D2648864736F6C6343000816003300000000000000 "
				},
				"gasEstimates": {
					"creation": {
						"codeDepositCost": "587400",
						"executionCost": "5622",
						"totalCost": "593022"
					},
					"external": {
						"addStudent(string,uint8,uint16)": "infinite",
						"chanceStudentInfoMemory(uint256,string,uint8,uint16)": "infinite",
						"chanceStudentInfoStroge(uint256,string,uint8,uint16)": "infinite",
						"getStudent(uint256)": "infinite"
					}
				},
				"methodIdentifiers": {
					"addStudent(string,uint8,uint16)": "1bc3115e",
					"chanceStudentInfoMemory(uint256,string,uint8,uint16)": "95130f98",
					"chanceStudentInfoStroge(uint256,string,uint8,uint16)": "c2dd3895",
					"getStudent(uint256)": "642f9163"
				}
			},
			"storageLayout": {
				"storage": [
					{
						"astId": 11,
						"contract": "contracts/datalocations.sol:School",
						"label": "totalStudents",
						"offset": 0,
						"slot": "0",
						"type": "t_uint256"
					},
					{
						"astId": 16,
						"contract": "contracts/datalocations.sol:School",
						"label": "students",
						"offset": 0,
						"slot": "1",
						"type": "t_mapping(t_uint256,t_struct(Student)8_storage)"
					}
				],
				"types": {
					"t_mapping(t_uint256,t_struct(Student)8_storage)": {
						"encoding": "mapping",
						"key": "t_uint256",
						"label": "mapping(uint256 => struct Student)",
						"numberOfBytes": "32",
						"value": "t_struct(Student)8_storage"
					},
					"t_string_storage": {
						"encoding": "bytes",
						"label": "string",
						"numberOfBytes": "32"
					},
					"t_struct(Student)8_storage": {
						"encoding": "inplace",
						"label": "struct Student",
						"members": [
							{
								"astId": 3,
								"contract": "contracts/datalocations.sol:School",
								"label": "age",
								"offset": 0,
								"slot": "0",
								"type": "t_uint8"
							},
							{
								"astId": 5,
								"contract": "contracts/datalocations.sol:School",
								"label": "score",
								"offset": 1,
								"slot": "0",
								"type": "t_uint16"
							},
							{
								"astId": 7,
								"contract": "contracts/datalocations.sol:School",
								"label": "name",
								"offset": 0,
								"slot": "1",
								"type": "t_string_storage"
							}
						],
						"numberOfBytes": "64"
					},
					"t_uint16": {
						"encoding": "inplace",
						"label": "uint16",
						"numberOfBytes": "2"
					},
					"t_uint256": {
						"encoding": "inplace",
						"label": "uint256",
						"numberOfBytes": "32"
					},
					"t_uint8": {
						"encoding": "inplace",
						"label": "uint8",
						"numberOfBytes": "1"
					}
				}
			},
			"userdoc": {
				"kind": "user",
				"methods": {},
				"version": 1
			}
		}
	}
}