{
	"contracts/functions.sol": {
		"Function": {
			"abi": [
				{
					"inputs": [
						{
							"internalType": "uint256",
							"name": "a1",
							"type": "uint256"
						},
						{
							"internalType": "uint256",
							"name": "b1",
							"type": "uint256"
						}
					],
					"name": "add",
					"outputs": [
						{
							"internalType": "uint256",
							"name": "",
							"type": "uint256"
						}
					],
					"stateMutability": "view",
					"type": "function"
				},
				{
					"inputs": [
						{
							"internalType": "uint256",
							"name": "a",
							"type": "uint256"
						},
						{
							"internalType": "uint256",
							"name": "b",
							"type": "uint256"
						}
					],
					"name": "add2",
					"outputs": [
						{
							"internalType": "uint256",
							"name": "",
							"type": "uint256"
						}
					],
					"stateMutability": "pure",
					"type": "function"
				},
				{
					"inputs": [
						{
							"internalType": "uint256",
							"name": "a",
							"type": "uint256"
						},
						{
							"internalType": "uint256",
							"name": "b",
							"type": "uint256"
						}
					],
					"name": "add3",
					"outputs": [
						{
							"internalType": "uint256",
							"name": "",
							"type": "uint256"
						}
					],
					"stateMutability": "pure",
					"type": "function"
				},
				{
					"inputs": [
						{
							"internalType": "uint256",
							"name": "c",
							"type": "uint256"
						},
						{
							"internalType": "uint256",
							"name": "d",
							"type": "uint256"
						}
					],
					"name": "add4",
					"outputs": [
						{
							"internalType": "uint256",
							"name": "",
							"type": "uint256"
						}
					],
					"stateMutability": "pure",
					"type": "function"
				},
				{
					"inputs": [],
					"name": "externalFunction",
					"outputs": [
						{
							"internalType": "string",
							"name": "",
							"type": "string"
						}
					],
					"stateMutability": "pure",
					"type": "function"
				},
				{
					"inputs": [],
					"name": "keyboard",
					"outputs": [
						{
							"internalType": "string",
							"name": "",
							"type": "string"
						}
					],
					"stateMutability": "pure",
					"type": "function"
				},
				{
					"inputs": [],
					"name": "keyboardreturn",
					"outputs": [
						{
							"internalType": "string",
							"name": "",
							"type": "string"
						}
					],
					"stateMutability": "pure",
					"type": "function"
				},
				{
					"inputs": [],
					"name": "luckynumber",
					"outputs": [
						{
							"internalType": "uint256",
							"name": "",
							"type": "uint256"
						}
					],
					"stateMutability": "view",
					"type": "function"
				},
				{
					"inputs": [],
					"name": "nothin",
					"outputs": [
						{
							"internalType": "uint256",
							"name": "a",
							"type": "uint256"
						},
						{
							"internalType": "bool",
							"name": "y",
							"type": "bool"
						},
						{
							"internalType": "bool",
							"name": "z",
							"type": "bool"
						}
					],
					"stateMutability": "pure",
					"type": "function"
				},
				{
					"inputs": [
						{
							"internalType": "uint256",
							"name": "newNumber",
							"type": "uint256"
						}
					],
					"name": "setNumber",
					"outputs": [],
					"stateMutability": "nonpayable",
					"type": "function"
				},
				{
					"inputs": [
						{
							"internalType": "uint256",
							"name": "y",
							"type": "uint256"
						}
					],
					"name": "setX",
					"outputs": [
						{
							"internalType": "uint256",
							"name": "",
							"type": "uint256"
						}
					],
					"stateMutability": "view",
					"type": "function"
				},
				{
					"inputs": [],
					"name": "showNumber",
					"outputs": [
						{
							"internalType": "uint256",
							"name": "",
							"type": "uint256"
						}
					],
					"stateMutability": "view",
					"type": "function"
				}
			],
			"devdoc": {
				"kind": "dev",
				"methods": {},
				"version": 1
			},
			"evm": {
				"assembly": "    /* \"contracts/functions.sol\":66:1911  contract Function{... */\n  mstore(0x40, 0x80)\n    /* \"contracts/functions.sol\":105:106  3 */\n  0x03\n    /* \"contracts/functions.sol\":96:106  uint x = 3 */\n  0x00\n  sstore\n    /* \"contracts/functions.sol\":140:141  7 */\n  0x07\n    /* \"contracts/functions.sol\":113:141  uint public  luckynumber = 7 */\n  0x01\n  sstore\n    /* \"contracts/functions.sol\":66:1911  contract Function{... */\n  callvalue\n  dup1\n  iszero\n  tag_1\n  jumpi\n  0x00\n  dup1\n  revert\ntag_1:\n  pop\n  dataSize(sub_0)\n  dup1\n  dataOffset(sub_0)\n  0x00\n  codecopy\n  0x00\n  return\nstop\n\nsub_0: assembly {\n        /* \"contracts/functions.sol\":66:1911  contract Function{... */\n      mstore(0x40, 0x80)\n      callvalue\n      dup1\n      iszero\n      tag_1\n      jumpi\n      0x00\n      dup1\n      revert\n    tag_1:\n      pop\n      jumpi(tag_2, lt(calldatasize, 0x04))\n      shr(0xe0, calldataload(0x00))\n      dup1\n      0x6e03a031\n      gt\n      tag_15\n      jumpi\n      dup1\n      0x6e03a031\n      eq\n      tag_9\n      jumpi\n      dup1\n      0x76dad223\n      eq\n      tag_10\n      jumpi\n      dup1\n      0x771602f7\n      eq\n      tag_11\n      jumpi\n      dup1\n      0x8f206308\n      eq\n      tag_12\n      jumpi\n      dup1\n      0xf5b7d45d\n      eq\n      tag_13\n      jumpi\n      dup1\n      0xff0251de\n      eq\n      tag_14\n      jumpi\n      jump(tag_2)\n    tag_15:\n      dup1\n      0xc3314f\n      eq\n      tag_3\n      jumpi\n      dup1\n      0x295ccb73\n      eq\n      tag_4\n      jumpi\n      dup1\n      0x29fcda33\n      eq\n      tag_5\n      jumpi\n      dup1\n      0x3a32b549\n      eq\n      tag_6\n      jumpi\n      dup1\n      0x3fb5c1cb\n      eq\n      tag_7\n      jumpi\n      dup1\n      0x4018d9aa\n      eq\n      tag_8\n      jumpi\n    tag_2:\n      0x00\n      dup1\n      revert\n        /* \"contracts/functions.sol\":810:899  function add3(uint a, uint b) public pure returns (uint){... */\n    tag_3:\n      tag_16\n      0x04\n      dup1\n      calldatasize\n      sub\n      dup2\n      add\n      swap1\n      tag_17\n      swap2\n      swap1\n      tag_18\n      jump\t// in\n    tag_17:\n      tag_19\n      jump\t// in\n    tag_16:\n      mload(0x40)\n      tag_20\n      swap2\n      swap1\n      tag_21\n      jump\t// in\n    tag_20:\n      mload(0x40)\n      dup1\n      swap2\n      sub\n      swap1\n      return\n        /* \"contracts/functions.sol\":113:141  uint public  luckynumber = 7 */\n    tag_4:\n      tag_22\n      tag_23\n      jump\t// in\n    tag_22:\n      mload(0x40)\n      tag_24\n      swap2\n      swap1\n      tag_21\n      jump\t// in\n    tag_24:\n      mload(0x40)\n      dup1\n      swap2\n      sub\n      swap1\n      return\n        /* \"contracts/functions.sol\":673:762  function add2(uint a, uint b) public pure returns (uint){... */\n    tag_5:\n      tag_25\n      0x04\n      dup1\n      calldatasize\n      sub\n      dup2\n      add\n      swap1\n      tag_26\n      swap2\n      swap1\n      tag_18\n      jump\t// in\n    tag_26:\n      tag_27\n      jump\t// in\n    tag_25:\n      mload(0x40)\n      tag_28\n      swap2\n      swap1\n      tag_21\n      jump\t// in\n    tag_28:\n      mload(0x40)\n      dup1\n      swap2\n      sub\n      swap1\n      return\n        /* \"contracts/functions.sol\":1786:1908  function externalFunction() external pure returns (string memory){... */\n    tag_6:\n      tag_29\n      tag_30\n      jump\t// in\n    tag_29:\n      mload(0x40)\n      tag_31\n      swap2\n      swap1\n      tag_32\n      jump\t// in\n    tag_31:\n      mload(0x40)\n      dup1\n      swap2\n      sub\n      swap1\n      return\n        /* \"contracts/functions.sol\":244:327  function setNumber(uint newNumber) public {... */\n    tag_7:\n      tag_33\n      0x04\n      dup1\n      calldatasize\n      sub\n      dup2\n      add\n      swap1\n      tag_34\n      swap2\n      swap1\n      tag_35\n      jump\t// in\n    tag_34:\n      tag_36\n      jump\t// in\n    tag_33:\n      stop\n        /* \"contracts/functions.sol\":453:552  function setX(uint y) public view returns (uint){... */\n    tag_8:\n      tag_37\n      0x04\n      dup1\n      calldatasize\n      sub\n      dup2\n      add\n      swap1\n      tag_38\n      swap2\n      swap1\n      tag_35\n      jump\t// in\n    tag_38:\n      tag_39\n      jump\t// in\n    tag_37:\n      mload(0x40)\n      tag_40\n      swap2\n      swap1\n      tag_21\n      jump\t// in\n    tag_40:\n      mload(0x40)\n      dup1\n      swap2\n      sub\n      swap1\n      return\n        /* \"contracts/functions.sol\":334:446  function nothin() public pure returns(uint a,bool y,bool z){... */\n    tag_9:\n      tag_41\n      tag_42\n      jump\t// in\n    tag_41:\n      mload(0x40)\n      tag_43\n      swap4\n      swap3\n      swap2\n      swap1\n      tag_44\n      jump\t// in\n    tag_43:\n      mload(0x40)\n      dup1\n      swap2\n      sub\n      swap1\n      return\n        /* \"contracts/functions.sol\":149:239  function showNumber() public view returns (uint){... */\n    tag_10:\n      tag_45\n      tag_46\n      jump\t// in\n    tag_45:\n      mload(0x40)\n      tag_47\n      swap2\n      swap1\n      tag_21\n      jump\t// in\n    tag_47:\n      mload(0x40)\n      dup1\n      swap2\n      sub\n      swap1\n      return\n        /* \"contracts/functions.sol\":559:665  function add(uint a1,uint b1) public view returns (uint){... */\n    tag_11:\n      tag_48\n      0x04\n      dup1\n      calldatasize\n      sub\n      dup2\n      add\n      swap1\n      tag_49\n      swap2\n      swap1\n      tag_18\n      jump\t// in\n    tag_49:\n      tag_50\n      jump\t// in\n    tag_48:\n      mload(0x40)\n      tag_51\n      swap2\n      swap1\n      tag_21\n      jump\t// in\n    tag_51:\n      mload(0x40)\n      dup1\n      swap2\n      sub\n      swap1\n      return\n        /* \"contracts/functions.sol\":1134:1231  function keyboardreturn() public pure returns (string memory){... */\n    tag_12:\n      tag_52\n      tag_53\n      jump\t// in\n    tag_52:\n      mload(0x40)\n      tag_54\n      swap2\n      swap1\n      tag_32\n      jump\t// in\n    tag_54:\n      mload(0x40)\n      dup1\n      swap2\n      sub\n      swap1\n      return\n        /* \"contracts/functions.sol\":1009:1128  function keyboard() public pure returns (string memory){... */\n    tag_13:\n      tag_55\n      tag_56\n      jump\t// in\n    tag_55:\n      mload(0x40)\n      tag_57\n      swap2\n      swap1\n      tag_32\n      jump\t// in\n    tag_57:\n      mload(0x40)\n      dup1\n      swap2\n      sub\n      swap1\n      return\n        /* \"contracts/functions.sol\":907:1003  function add4(uint c, uint d) public pure returns (uint){... */\n    tag_14:\n      tag_58\n      0x04\n      dup1\n      calldatasize\n      sub\n      dup2\n      add\n      swap1\n      tag_59\n      swap2\n      swap1\n      tag_18\n      jump\t// in\n    tag_59:\n      tag_60\n      jump\t// in\n    tag_58:\n      mload(0x40)\n      tag_61\n      swap2\n      swap1\n      tag_21\n      jump\t// in\n    tag_61:\n      mload(0x40)\n      dup1\n      swap2\n      sub\n      swap1\n      return\n        /* \"contracts/functions.sol\":810:899  function add3(uint a, uint b) public pure returns (uint){... */\n    tag_19:\n        /* \"contracts/functions.sol\":861:865  uint */\n      0x00\n        /* \"contracts/functions.sol\":888:889  b */\n      dup2\n        /* \"contracts/functions.sol\":886:887  a */\n      dup4\n        /* \"contracts/functions.sol\":886:889  a+b */\n      tag_63\n      swap2\n      swap1\n      tag_64\n      jump\t// in\n    tag_63:\n        /* \"contracts/functions.sol\":879:889  return a+b */\n      swap1\n      pop\n        /* \"contracts/functions.sol\":810:899  function add3(uint a, uint b) public pure returns (uint){... */\n      swap3\n      swap2\n      pop\n      pop\n      jump\t// out\n        /* \"contracts/functions.sol\":113:141  uint public  luckynumber = 7 */\n    tag_23:\n      sload(0x01)\n      dup2\n      jump\t// out\n        /* \"contracts/functions.sol\":673:762  function add2(uint a, uint b) public pure returns (uint){... */\n    tag_27:\n        /* \"contracts/functions.sol\":724:728  uint */\n      0x00\n        /* \"contracts/functions.sol\":751:752  b */\n      dup2\n        /* \"contracts/functions.sol\":749:750  a */\n      dup4\n        /* \"contracts/functions.sol\":749:752  a+b */\n      tag_66\n      swap2\n      swap1\n      tag_64\n      jump\t// in\n    tag_66:\n        /* \"contracts/functions.sol\":742:752  return a+b */\n      swap1\n      pop\n        /* \"contracts/functions.sol\":673:762  function add2(uint a, uint b) public pure returns (uint){... */\n      swap3\n      swap2\n      pop\n      pop\n      jump\t// out\n        /* \"contracts/functions.sol\":1786:1908  function externalFunction() external pure returns (string memory){... */\n    tag_30:\n        /* \"contracts/functions.sol\":1837:1850  string memory */\n      0x60\n        /* \"contracts/functions.sol\":1862:1900  return  \"bu bir external fonksiyondur\" */\n      mload(0x40)\n      dup1\n      0x40\n      add\n      0x40\n      mstore\n      dup1\n      0x1c\n      dup2\n      mstore\n      0x20\n      add\n      0x6275206269722065787465726e616c20666f6e6b7369796f6e64757200000000\n      dup2\n      mstore\n      pop\n      swap1\n      pop\n        /* \"contracts/functions.sol\":1786:1908  function externalFunction() external pure returns (string memory){... */\n      swap1\n      jump\t// out\n        /* \"contracts/functions.sol\":244:327  function setNumber(uint newNumber) public {... */\n    tag_36:\n        /* \"contracts/functions.sol\":309:318  newNumber */\n      dup1\n        /* \"contracts/functions.sol\":295:306  luckynumber */\n      0x01\n        /* \"contracts/functions.sol\":295:318  luckynumber = newNumber */\n      dup2\n      swap1\n      sstore\n      pop\n        /* \"contracts/functions.sol\":244:327  function setNumber(uint newNumber) public {... */\n      pop\n      jump\t// out\n        /* \"contracts/functions.sol\":453:552  function setX(uint y) public view returns (uint){... */\n    tag_39:\n        /* \"contracts/functions.sol\":496:500  uint */\n      0x00\n        /* \"contracts/functions.sol\":510:516  uint e */\n      dup1\n        /* \"contracts/functions.sol\":521:522  y */\n      dup3\n        /* \"contracts/functions.sol\":519:520  x */\n      sload(0x00)\n        /* \"contracts/functions.sol\":519:522  x+y */\n      tag_70\n      swap2\n      swap1\n      tag_64\n      jump\t// in\n    tag_70:\n        /* \"contracts/functions.sol\":510:522  uint e = x+y */\n      swap1\n      pop\n        /* \"contracts/functions.sol\":536:537  e */\n      dup1\n        /* \"contracts/functions.sol\":529:537  return e */\n      swap2\n      pop\n      pop\n        /* \"contracts/functions.sol\":453:552  function setX(uint y) public view returns (uint){... */\n      swap2\n      swap1\n      pop\n      jump\t// out\n        /* \"contracts/functions.sol\":334:446  function nothin() public pure returns(uint a,bool y,bool z){... */\n    tag_42:\n        /* \"contracts/functions.sol\":372:378  uint a */\n      0x00\n        /* \"contracts/functions.sol\":379:385  bool y */\n      dup1\n        /* \"contracts/functions.sol\":386:392  bool z */\n      0x00\n        /* \"contracts/functions.sol\":406:407  8 */\n      0x08\n        /* \"contracts/functions.sol\":402:407  a = 8 */\n      swap3\n      pop\n        /* \"contracts/functions.sol\":417:421  true */\n      0x01\n        /* \"contracts/functions.sol\":414:421  y= true */\n      swap2\n      pop\n        /* \"contracts/functions.sol\":432:437  false */\n      0x00\n        /* \"contracts/functions.sol\":428:437  z = false */\n      swap1\n      pop\n        /* \"contracts/functions.sol\":334:446  function nothin() public pure returns(uint a,bool y,bool z){... */\n      swap1\n      swap2\n      swap3\n      jump\t// out\n        /* \"contracts/functions.sol\":149:239  function showNumber() public view returns (uint){... */\n    tag_46:\n        /* \"contracts/functions.sol\":192:196  uint */\n      0x00\n        /* \"contracts/functions.sol\":218:229  luckynumber */\n      sload(0x01)\n        /* \"contracts/functions.sol\":211:229  return luckynumber */\n      swap1\n      pop\n        /* \"contracts/functions.sol\":149:239  function showNumber() public view returns (uint){... */\n      swap1\n      jump\t// out\n        /* \"contracts/functions.sol\":559:665  function add(uint a1,uint b1) public view returns (uint){... */\n    tag_50:\n        /* \"contracts/functions.sol\":610:614  uint */\n      0x00\n        /* \"contracts/functions.sol\":641:656  block.timestamp */\n      timestamp\n        /* \"contracts/functions.sol\":636:638  b1 */\n      dup3\n        /* \"contracts/functions.sol\":631:633  a1 */\n      dup5\n        /* \"contracts/functions.sol\":631:638  a1 + b1 */\n      tag_74\n      swap2\n      swap1\n      tag_64\n      jump\t// in\n    tag_74:\n        /* \"contracts/functions.sol\":631:656  a1 + b1 + block.timestamp */\n      tag_75\n      swap2\n      swap1\n      tag_64\n      jump\t// in\n    tag_75:\n        /* \"contracts/functions.sol\":624:656  return a1 + b1 + block.timestamp */\n      swap1\n      pop\n        /* \"contracts/functions.sol\":559:665  function add(uint a1,uint b1) public view returns (uint){... */\n      swap3\n      swap2\n      pop\n      pop\n      jump\t// out\n        /* \"contracts/functions.sol\":1134:1231  function keyboardreturn() public pure returns (string memory){... */\n    tag_53:\n        /* \"contracts/functions.sol\":1181:1194  string memory */\n      0x60\n        /* \"contracts/functions.sol\":1213:1223  keyboard() */\n      tag_77\n        /* \"contracts/functions.sol\":1213:1221  keyboard */\n      tag_56\n        /* \"contracts/functions.sol\":1213:1223  keyboard() */\n      jump\t// in\n    tag_77:\n        /* \"contracts/functions.sol\":1206:1223  return keyboard() */\n      swap1\n      pop\n        /* \"contracts/functions.sol\":1134:1231  function keyboardreturn() public pure returns (string memory){... */\n      swap1\n      jump\t// out\n        /* \"contracts/functions.sol\":1009:1128  function keyboard() public pure returns (string memory){... */\n    tag_56:\n        /* \"contracts/functions.sol\":1050:1063  string memory */\n      0x60\n        /* \"contracts/functions.sol\":1085:1110  return \"bu bir fonksiyon\" */\n      mload(0x40)\n      dup1\n      0x40\n      add\n      0x40\n      mstore\n      dup1\n      0x10\n      dup2\n      mstore\n      0x20\n      add\n      0x62752062697220666f6e6b7369796f6e00000000000000000000000000000000\n      dup2\n      mstore\n      pop\n      swap1\n      pop\n        /* \"contracts/functions.sol\":1009:1128  function keyboard() public pure returns (string memory){... */\n      swap1\n      jump\t// out\n        /* \"contracts/functions.sol\":907:1003  function add4(uint c, uint d) public pure returns (uint){... */\n    tag_60:\n        /* \"contracts/functions.sol\":958:962  uint */\n      0x00\n        /* \"contracts/functions.sol\":983:993  add3(c, d) */\n      tag_80\n        /* \"contracts/functions.sol\":988:989  c */\n      dup4\n        /* \"contracts/functions.sol\":991:992  d */\n      dup4\n        /* \"contracts/functions.sol\":983:987  add3 */\n      tag_19\n        /* \"contracts/functions.sol\":983:993  add3(c, d) */\n      jump\t// in\n    tag_80:\n        /* \"contracts/functions.sol\":976:993  return add3(c, d) */\n      swap1\n      pop\n        /* \"contracts/functions.sol\":907:1003  function add4(uint c, uint d) public pure returns (uint){... */\n      swap3\n      swap2\n      pop\n      pop\n      jump\t// out\n        /* \"#utility.yul\":88:205   */\n    tag_82:\n        /* \"#utility.yul\":197:198   */\n      0x00\n        /* \"#utility.yul\":194:195   */\n      dup1\n        /* \"#utility.yul\":187:199   */\n      revert\n        /* \"#utility.yul\":334:411   */\n    tag_84:\n        /* \"#utility.yul\":371:378   */\n      0x00\n        /* \"#utility.yul\":400:405   */\n      dup2\n        /* \"#utility.yul\":389:405   */\n      swap1\n      pop\n        /* \"#utility.yul\":334:411   */\n      swap2\n      swap1\n      pop\n      jump\t// out\n        /* \"#utility.yul\":417:539   */\n    tag_85:\n        /* \"#utility.yul\":490:514   */\n      tag_102\n        /* \"#utility.yul\":508:513   */\n      dup2\n        /* \"#utility.yul\":490:514   */\n      tag_84\n      jump\t// in\n    tag_102:\n        /* \"#utility.yul\":483:488   */\n      dup2\n        /* \"#utility.yul\":480:515   */\n      eq\n        /* \"#utility.yul\":470:533   */\n      tag_103\n      jumpi\n        /* \"#utility.yul\":529:530   */\n      0x00\n        /* \"#utility.yul\":526:527   */\n      dup1\n        /* \"#utility.yul\":519:531   */\n      revert\n        /* \"#utility.yul\":470:533   */\n    tag_103:\n        /* \"#utility.yul\":417:539   */\n      pop\n      jump\t// out\n        /* \"#utility.yul\":545:684   */\n    tag_86:\n        /* \"#utility.yul\":591:596   */\n      0x00\n        /* \"#utility.yul\":629:635   */\n      dup2\n        /* \"#utility.yul\":616:636   */\n      calldataload\n        /* \"#utility.yul\":607:636   */\n      swap1\n      pop\n        /* \"#utility.yul\":645:678   */\n      tag_105\n        /* \"#utility.yul\":672:677   */\n      dup2\n        /* \"#utility.yul\":645:678   */\n      tag_85\n      jump\t// in\n    tag_105:\n        /* \"#utility.yul\":545:684   */\n      swap3\n      swap2\n      pop\n      pop\n      jump\t// out\n        /* \"#utility.yul\":690:1164   */\n    tag_18:\n        /* \"#utility.yul\":758:764   */\n      0x00\n        /* \"#utility.yul\":766:772   */\n      dup1\n        /* \"#utility.yul\":815:817   */\n      0x40\n        /* \"#utility.yul\":803:812   */\n      dup4\n        /* \"#utility.yul\":794:801   */\n      dup6\n        /* \"#utility.yul\":790:813   */\n      sub\n        /* \"#utility.yul\":786:818   */\n      slt\n        /* \"#utility.yul\":783:902   */\n      iszero\n      tag_107\n      jumpi\n        /* \"#utility.yul\":821:900   */\n      tag_108\n      tag_82\n      jump\t// in\n    tag_108:\n        /* \"#utility.yul\":783:902   */\n    tag_107:\n        /* \"#utility.yul\":941:942   */\n      0x00\n        /* \"#utility.yul\":966:1019   */\n      tag_109\n        /* \"#utility.yul\":1011:1018   */\n      dup6\n        /* \"#utility.yul\":1002:1008   */\n      dup3\n        /* \"#utility.yul\":991:1000   */\n      dup7\n        /* \"#utility.yul\":987:1009   */\n      add\n        /* \"#utility.yul\":966:1019   */\n      tag_86\n      jump\t// in\n    tag_109:\n        /* \"#utility.yul\":956:1019   */\n      swap3\n      pop\n        /* \"#utility.yul\":912:1029   */\n      pop\n        /* \"#utility.yul\":1068:1070   */\n      0x20\n        /* \"#utility.yul\":1094:1147   */\n      tag_110\n        /* \"#utility.yul\":1139:1146   */\n      dup6\n        /* \"#utility.yul\":1130:1136   */\n      dup3\n        /* \"#utility.yul\":1119:1128   */\n      dup7\n        /* \"#utility.yul\":1115:1137   */\n      add\n        /* \"#utility.yul\":1094:1147   */\n      tag_86\n      jump\t// in\n    tag_110:\n        /* \"#utility.yul\":1084:1147   */\n      swap2\n      pop\n        /* \"#utility.yul\":1039:1157   */\n      pop\n        /* \"#utility.yul\":690:1164   */\n      swap3\n      pop\n      swap3\n      swap1\n      pop\n      jump\t// out\n        /* \"#utility.yul\":1170:1288   */\n    tag_87:\n        /* \"#utility.yul\":1257:1281   */\n      tag_112\n        /* \"#utility.yul\":1275:1280   */\n      dup2\n        /* \"#utility.yul\":1257:1281   */\n      tag_84\n      jump\t// in\n    tag_112:\n        /* \"#utility.yul\":1252:1255   */\n      dup3\n        /* \"#utility.yul\":1245:1282   */\n      mstore\n        /* \"#utility.yul\":1170:1288   */\n      pop\n      pop\n      jump\t// out\n        /* \"#utility.yul\":1294:1516   */\n    tag_21:\n        /* \"#utility.yul\":1387:1391   */\n      0x00\n        /* \"#utility.yul\":1425:1427   */\n      0x20\n        /* \"#utility.yul\":1414:1423   */\n      dup3\n        /* \"#utility.yul\":1410:1428   */\n      add\n        /* \"#utility.yul\":1402:1428   */\n      swap1\n      pop\n        /* \"#utility.yul\":1438:1509   */\n      tag_114\n        /* \"#utility.yul\":1506:1507   */\n      0x00\n        /* \"#utility.yul\":1495:1504   */\n      dup4\n        /* \"#utility.yul\":1491:1508   */\n      add\n        /* \"#utility.yul\":1482:1488   */\n      dup5\n        /* \"#utility.yul\":1438:1509   */\n      tag_87\n      jump\t// in\n    tag_114:\n        /* \"#utility.yul\":1294:1516   */\n      swap3\n      swap2\n      pop\n      pop\n      jump\t// out\n        /* \"#utility.yul\":1522:1621   */\n    tag_88:\n        /* \"#utility.yul\":1574:1580   */\n      0x00\n        /* \"#utility.yul\":1608:1613   */\n      dup2\n        /* \"#utility.yul\":1602:1614   */\n      mload\n        /* \"#utility.yul\":1592:1614   */\n      swap1\n      pop\n        /* \"#utility.yul\":1522:1621   */\n      swap2\n      swap1\n      pop\n      jump\t// out\n        /* \"#utility.yul\":1627:1796   */\n    tag_89:\n        /* \"#utility.yul\":1711:1722   */\n      0x00\n        /* \"#utility.yul\":1745:1751   */\n      dup3\n        /* \"#utility.yul\":1740:1743   */\n      dup3\n        /* \"#utility.yul\":1733:1752   */\n      mstore\n        /* \"#utility.yul\":1785:1789   */\n      0x20\n        /* \"#utility.yul\":1780:1783   */\n      dup3\n        /* \"#utility.yul\":1776:1790   */\n      add\n        /* \"#utility.yul\":1761:1790   */\n      swap1\n      pop\n        /* \"#utility.yul\":1627:1796   */\n      swap3\n      swap2\n      pop\n      pop\n      jump\t// out\n        /* \"#utility.yul\":1802:2048   */\n    tag_90:\n        /* \"#utility.yul\":1883:1884   */\n      0x00\n        /* \"#utility.yul\":1893:2006   */\n    tag_118:\n        /* \"#utility.yul\":1907:1913   */\n      dup4\n        /* \"#utility.yul\":1904:1905   */\n      dup2\n        /* \"#utility.yul\":1901:1914   */\n      lt\n        /* \"#utility.yul\":1893:2006   */\n      iszero\n      tag_120\n      jumpi\n        /* \"#utility.yul\":1992:1993   */\n      dup1\n        /* \"#utility.yul\":1987:1990   */\n      dup3\n        /* \"#utility.yul\":1983:1994   */\n      add\n        /* \"#utility.yul\":1977:1995   */\n      mload\n        /* \"#utility.yul\":1973:1974   */\n      dup2\n        /* \"#utility.yul\":1968:1971   */\n      dup5\n        /* \"#utility.yul\":1964:1975   */\n      add\n        /* \"#utility.yul\":1957:1996   */\n      mstore\n        /* \"#utility.yul\":1929:1931   */\n      0x20\n        /* \"#utility.yul\":1926:1927   */\n      dup2\n        /* \"#utility.yul\":1922:1932   */\n      add\n        /* \"#utility.yul\":1917:1932   */\n      swap1\n      pop\n        /* \"#utility.yul\":1893:2006   */\n      jump(tag_118)\n    tag_120:\n        /* \"#utility.yul\":2040:2041   */\n      0x00\n        /* \"#utility.yul\":2031:2037   */\n      dup5\n        /* \"#utility.yul\":2026:2029   */\n      dup5\n        /* \"#utility.yul\":2022:2038   */\n      add\n        /* \"#utility.yul\":2015:2042   */\n      mstore\n        /* \"#utility.yul\":1864:2048   */\n      pop\n        /* \"#utility.yul\":1802:2048   */\n      pop\n      pop\n      pop\n      jump\t// out\n        /* \"#utility.yul\":2054:2156   */\n    tag_91:\n        /* \"#utility.yul\":2095:2101   */\n      0x00\n        /* \"#utility.yul\":2146:2148   */\n      0x1f\n        /* \"#utility.yul\":2142:2149   */\n      not\n        /* \"#utility.yul\":2137:2139   */\n      0x1f\n        /* \"#utility.yul\":2130:2135   */\n      dup4\n        /* \"#utility.yul\":2126:2140   */\n      add\n        /* \"#utility.yul\":2122:2150   */\n      and\n        /* \"#utility.yul\":2112:2150   */\n      swap1\n      pop\n        /* \"#utility.yul\":2054:2156   */\n      swap2\n      swap1\n      pop\n      jump\t// out\n        /* \"#utility.yul\":2162:2539   */\n    tag_92:\n        /* \"#utility.yul\":2250:2253   */\n      0x00\n        /* \"#utility.yul\":2278:2317   */\n      tag_123\n        /* \"#utility.yul\":2311:2316   */\n      dup3\n        /* \"#utility.yul\":2278:2317   */\n      tag_88\n      jump\t// in\n    tag_123:\n        /* \"#utility.yul\":2333:2404   */\n      tag_124\n        /* \"#utility.yul\":2397:2403   */\n      dup2\n        /* \"#utility.yul\":2392:2395   */\n      dup6\n        /* \"#utility.yul\":2333:2404   */\n      tag_89\n      jump\t// in\n    tag_124:\n        /* \"#utility.yul\":2326:2404   */\n      swap4\n      pop\n        /* \"#utility.yul\":2413:2478   */\n      tag_125\n        /* \"#utility.yul\":2471:2477   */\n      dup2\n        /* \"#utility.yul\":2466:2469   */\n      dup6\n        /* \"#utility.yul\":2459:2463   */\n      0x20\n        /* \"#utility.yul\":2452:2457   */\n      dup7\n        /* \"#utility.yul\":2448:2464   */\n      add\n        /* \"#utility.yul\":2413:2478   */\n      tag_90\n      jump\t// in\n    tag_125:\n        /* \"#utility.yul\":2503:2532   */\n      tag_126\n        /* \"#utility.yul\":2525:2531   */\n      dup2\n        /* \"#utility.yul\":2503:2532   */\n      tag_91\n      jump\t// in\n    tag_126:\n        /* \"#utility.yul\":2498:2501   */\n      dup5\n        /* \"#utility.yul\":2494:2533   */\n      add\n        /* \"#utility.yul\":2487:2533   */\n      swap2\n      pop\n        /* \"#utility.yul\":2254:2539   */\n      pop\n        /* \"#utility.yul\":2162:2539   */\n      swap3\n      swap2\n      pop\n      pop\n      jump\t// out\n        /* \"#utility.yul\":2545:2858   */\n    tag_32:\n        /* \"#utility.yul\":2658:2662   */\n      0x00\n        /* \"#utility.yul\":2696:2698   */\n      0x20\n        /* \"#utility.yul\":2685:2694   */\n      dup3\n        /* \"#utility.yul\":2681:2699   */\n      add\n        /* \"#utility.yul\":2673:2699   */\n      swap1\n      pop\n        /* \"#utility.yul\":2745:2754   */\n      dup2\n        /* \"#utility.yul\":2739:2743   */\n      dup2\n        /* \"#utility.yul\":2735:2755   */\n      sub\n        /* \"#utility.yul\":2731:2732   */\n      0x00\n        /* \"#utility.yul\":2720:2729   */\n      dup4\n        /* \"#utility.yul\":2716:2733   */\n      add\n        /* \"#utility.yul\":2709:2756   */\n      mstore\n        /* \"#utility.yul\":2773:2851   */\n      tag_128\n        /* \"#utility.yul\":2846:2850   */\n      dup2\n        /* \"#utility.yul\":2837:2843   */\n      dup5\n        /* \"#utility.yul\":2773:2851   */\n      tag_92\n      jump\t// in\n    tag_128:\n        /* \"#utility.yul\":2765:2851   */\n      swap1\n      pop\n        /* \"#utility.yul\":2545:2858   */\n      swap3\n      swap2\n      pop\n      pop\n      jump\t// out\n        /* \"#utility.yul\":2864:3193   */\n    tag_35:\n        /* \"#utility.yul\":2923:2929   */\n      0x00\n        /* \"#utility.yul\":2972:2974   */\n      0x20\n        /* \"#utility.yul\":2960:2969   */\n      dup3\n        /* \"#utility.yul\":2951:2958   */\n      dup5\n        /* \"#utility.yul\":2947:2970   */\n      sub\n        /* \"#utility.yul\":2943:2975   */\n      slt\n        /* \"#utility.yul\":2940:3059   */\n      iszero\n      tag_130\n      jumpi\n        /* \"#utility.yul\":2978:3057   */\n      tag_131\n      tag_82\n      jump\t// in\n    tag_131:\n        /* \"#utility.yul\":2940:3059   */\n    tag_130:\n        /* \"#utility.yul\":3098:3099   */\n      0x00\n        /* \"#utility.yul\":3123:3176   */\n      tag_132\n        /* \"#utility.yul\":3168:3175   */\n      dup5\n        /* \"#utility.yul\":3159:3165   */\n      dup3\n        /* \"#utility.yul\":3148:3157   */\n      dup6\n        /* \"#utility.yul\":3144:3166   */\n      add\n        /* \"#utility.yul\":3123:3176   */\n      tag_86\n      jump\t// in\n    tag_132:\n        /* \"#utility.yul\":3113:3176   */\n      swap2\n      pop\n        /* \"#utility.yul\":3069:3186   */\n      pop\n        /* \"#utility.yul\":2864:3193   */\n      swap3\n      swap2\n      pop\n      pop\n      jump\t// out\n        /* \"#utility.yul\":3199:3289   */\n    tag_93:\n        /* \"#utility.yul\":3233:3240   */\n      0x00\n        /* \"#utility.yul\":3276:3281   */\n      dup2\n        /* \"#utility.yul\":3269:3282   */\n      iszero\n        /* \"#utility.yul\":3262:3283   */\n      iszero\n        /* \"#utility.yul\":3251:3283   */\n      swap1\n      pop\n        /* \"#utility.yul\":3199:3289   */\n      swap2\n      swap1\n      pop\n      jump\t// out\n        /* \"#utility.yul\":3295:3404   */\n    tag_94:\n        /* \"#utility.yul\":3376:3397   */\n      tag_135\n        /* \"#utility.yul\":3391:3396   */\n      dup2\n        /* \"#utility.yul\":3376:3397   */\n      tag_93\n      jump\t// in\n    tag_135:\n        /* \"#utility.yul\":3371:3374   */\n      dup3\n        /* \"#utility.yul\":3364:3398   */\n      mstore\n        /* \"#utility.yul\":3295:3404   */\n      pop\n      pop\n      jump\t// out\n        /* \"#utility.yul\":3410:3828   */\n    tag_44:\n        /* \"#utility.yul\":3547:3551   */\n      0x00\n        /* \"#utility.yul\":3585:3587   */\n      0x60\n        /* \"#utility.yul\":3574:3583   */\n      dup3\n        /* \"#utility.yul\":3570:3588   */\n      add\n        /* \"#utility.yul\":3562:3588   */\n      swap1\n      pop\n        /* \"#utility.yul\":3598:3669   */\n      tag_137\n        /* \"#utility.yul\":3666:3667   */\n      0x00\n        /* \"#utility.yul\":3655:3664   */\n      dup4\n        /* \"#utility.yul\":3651:3668   */\n      add\n        /* \"#utility.yul\":3642:3648   */\n      dup7\n        /* \"#utility.yul\":3598:3669   */\n      tag_87\n      jump\t// in\n    tag_137:\n        /* \"#utility.yul\":3679:3745   */\n      tag_138\n        /* \"#utility.yul\":3741:3743   */\n      0x20\n        /* \"#utility.yul\":3730:3739   */\n      dup4\n        /* \"#utility.yul\":3726:3744   */\n      add\n        /* \"#utility.yul\":3717:3723   */\n      dup6\n        /* \"#utility.yul\":3679:3745   */\n      tag_94\n      jump\t// in\n    tag_138:\n        /* \"#utility.yul\":3755:3821   */\n      tag_139\n        /* \"#utility.yul\":3817:3819   */\n      0x40\n        /* \"#utility.yul\":3806:3815   */\n      dup4\n        /* \"#utility.yul\":3802:3820   */\n      add\n        /* \"#utility.yul\":3793:3799   */\n      dup5\n        /* \"#utility.yul\":3755:3821   */\n      tag_94\n      jump\t// in\n    tag_139:\n        /* \"#utility.yul\":3410:3828   */\n      swap5\n      swap4\n      pop\n      pop\n      pop\n      pop\n      jump\t// out\n        /* \"#utility.yul\":3834:4014   */\n    tag_95:\n        /* \"#utility.yul\":3882:3959   */\n      0x4e487b7100000000000000000000000000000000000000000000000000000000\n        /* \"#utility.yul\":3879:3880   */\n      0x00\n        /* \"#utility.yul\":3872:3960   */\n      mstore\n        /* \"#utility.yul\":3979:3983   */\n      0x11\n        /* \"#utility.yul\":3976:3977   */\n      0x04\n        /* \"#utility.yul\":3969:3984   */\n      mstore\n        /* \"#utility.yul\":4003:4007   */\n      0x24\n        /* \"#utility.yul\":4000:4001   */\n      0x00\n        /* \"#utility.yul\":3993:4008   */\n      revert\n        /* \"#utility.yul\":4020:4211   */\n    tag_64:\n        /* \"#utility.yul\":4060:4063   */\n      0x00\n        /* \"#utility.yul\":4079:4099   */\n      tag_142\n        /* \"#utility.yul\":4097:4098   */\n      dup3\n        /* \"#utility.yul\":4079:4099   */\n      tag_84\n      jump\t// in\n    tag_142:\n        /* \"#utility.yul\":4074:4099   */\n      swap2\n      pop\n        /* \"#utility.yul\":4113:4133   */\n      tag_143\n        /* \"#utility.yul\":4131:4132   */\n      dup4\n        /* \"#utility.yul\":4113:4133   */\n      tag_84\n      jump\t// in\n    tag_143:\n        /* \"#utility.yul\":4108:4133   */\n      swap3\n      pop\n        /* \"#utility.yul\":4156:4157   */\n      dup3\n        /* \"#utility.yul\":4153:4154   */\n      dup3\n        /* \"#utility.yul\":4149:4158   */\n      add\n        /* \"#utility.yul\":4142:4158   */\n      swap1\n      pop\n        /* \"#utility.yul\":4177:4180   */\n      dup1\n        /* \"#utility.yul\":4174:4175   */\n      dup3\n        /* \"#utility.yul\":4171:4181   */\n      gt\n        /* \"#utility.yul\":4168:4204   */\n      iszero\n      tag_144\n      jumpi\n        /* \"#utility.yul\":4184:4202   */\n      tag_145\n      tag_95\n      jump\t// in\n    tag_145:\n        /* \"#utility.yul\":4168:4204   */\n    tag_144:\n        /* \"#utility.yul\":4020:4211   */\n      swap3\n      swap2\n      pop\n      pop\n      jump\t// out\n\n    auxdata: 0xa2646970667358221220983a16c5bf318913e16ff0f05efc51c9d180c78bf3297c85041d8cced4e2fe1d64736f6c63430008160033\n}\n",
				"bytecode": {
					"linkReferences": {},
					"object": "608060405260035f556007600155348015610018575f80fd5b506105fa806100265f395ff3fe608060405234801561000f575f80fd5b50600436106100b1575f3560e01c80636e03a0311161006f5780636e03a0311461019d57806376dad223146101bd578063771602f7146101db5780638f2063081461020b578063f5b7d45d14610229578063ff0251de14610247576100b1565b8062c3314f146100b5578063295ccb73146100e557806329fcda33146101035780633a32b549146101335780633fb5c1cb146101515780634018d9aa1461016d575b5f80fd5b6100cf60048036038101906100ca91906103da565b610277565b6040516100dc9190610427565b60405180910390f35b6100ed61028c565b6040516100fa9190610427565b60405180910390f35b61011d600480360381019061011891906103da565b610292565b60405161012a9190610427565b60405180910390f35b61013b6102a7565b60405161014891906104ca565b60405180910390f35b61016b600480360381019061016691906104ea565b6102e4565b005b610187600480360381019061018291906104ea565b6102ee565b6040516101949190610427565b60405180910390f35b6101a5610308565b6040516101b49392919061052f565b60405180910390f35b6101c561031b565b6040516101d29190610427565b60405180910390f35b6101f560048036038101906101f091906103da565b610324565b6040516102029190610427565b60405180910390f35b610213610344565b60405161022091906104ca565b60405180910390f35b610231610353565b60405161023e91906104ca565b60405180910390f35b610261600480360381019061025c91906103da565b610390565b60405161026e9190610427565b60405180910390f35b5f81836102849190610591565b905092915050565b60015481565b5f818361029f9190610591565b905092915050565b60606040518060400160405280601c81526020017f6275206269722065787465726e616c20666f6e6b7369796f6e64757200000000815250905090565b8060018190555050565b5f80825f546102fd9190610591565b905080915050919050565b5f805f60089250600191505f9050909192565b5f600154905090565b5f4282846103329190610591565b61033c9190610591565b905092915050565b606061034e610353565b905090565b60606040518060400160405280601081526020017f62752062697220666f6e6b7369796f6e00000000000000000000000000000000815250905090565b5f61039b8383610277565b905092915050565b5f80fd5b5f819050919050565b6103b9816103a7565b81146103c3575f80fd5b50565b5f813590506103d4816103b0565b92915050565b5f80604083850312156103f0576103ef6103a3565b5b5f6103fd858286016103c6565b925050602061040e858286016103c6565b9150509250929050565b610421816103a7565b82525050565b5f60208201905061043a5f830184610418565b92915050565b5f81519050919050565b5f82825260208201905092915050565b5f5b8381101561047757808201518184015260208101905061045c565b5f8484015250505050565b5f601f19601f8301169050919050565b5f61049c82610440565b6104a6818561044a565b93506104b681856020860161045a565b6104bf81610482565b840191505092915050565b5f6020820190508181035f8301526104e28184610492565b905092915050565b5f602082840312156104ff576104fe6103a3565b5b5f61050c848285016103c6565b91505092915050565b5f8115159050919050565b61052981610515565b82525050565b5f6060820190506105425f830186610418565b61054f6020830185610520565b61055c6040830184610520565b949350505050565b7f4e487b71000000000000000000000000000000000000000000000000000000005f52601160045260245ffd5b5f61059b826103a7565b91506105a6836103a7565b92508282019050808211156105be576105bd610564565b5b9291505056fea2646970667358221220983a16c5bf318913e16ff0f05efc51c9d180c78bf3297c85041d8cced4e2fe1d64736f6c63430008160033",
					"opcodes": "PUSH1 0x80 PUSH1 0x40 MSTORE PUSH1 0x3 PUSH0 SSTORE PUSH1 0x7 PUSH1 0x1 SSTORE CALLVALUE DUP1 ISZERO PUSH2 0x18 JUMPI PUSH0 DUP1 REVERT JUMPDEST POP PUSH2 0x5FA DUP1 PUSH2 0x26 PUSH0 CODECOPY PUSH0 RETURN INVALID PUSH1 0x80 PUSH1 0x40 MSTORE CALLVALUE DUP1 ISZERO PUSH2 0xF JUMPI PUSH0 DUP1 REVERT JUMPDEST POP PUSH1 0x4 CALLDATASIZE LT PUSH2 0xB1 JUMPI PUSH0 CALLDATALOAD PUSH1 0xE0 SHR DUP1 PUSH4 0x6E03A031 GT PUSH2 0x6F JUMPI DUP1 PUSH4 0x6E03A031 EQ PUSH2 0x19D JUMPI DUP1 PUSH4 0x76DAD223 EQ PUSH2 0x1BD JUMPI DUP1 PUSH4 0x771602F7 EQ PUSH2 0x1DB JUMPI DUP1 PUSH4 0x8F206308 EQ PUSH2 0x20B JUMPI DUP1 PUSH4 0xF5B7D45D EQ PUSH2 0x229 JUMPI DUP1 PUSH4 0xFF0251DE EQ PUSH2 0x247 JUMPI PUSH2 0xB1 JUMP JUMPDEST DUP1 PUSH3 0xC3314F EQ PUSH2 0xB5 JUMPI DUP1 PUSH4 0x295CCB73 EQ PUSH2 0xE5 JUMPI DUP1 PUSH4 0x29FCDA33 EQ PUSH2 0x103 JUMPI DUP1 PUSH4 0x3A32B549 EQ PUSH2 0x133 JUMPI DUP1 PUSH4 0x3FB5C1CB EQ PUSH2 0x151 JUMPI DUP1 PUSH4 0x4018D9AA EQ PUSH2 0x16D JUMPI JUMPDEST PUSH0 DUP1 REVERT JUMPDEST PUSH2 0xCF PUSH1 0x4 DUP1 CALLDATASIZE SUB DUP2 ADD SWAP1 PUSH2 0xCA SWAP2 SWAP1 PUSH2 0x3DA JUMP JUMPDEST PUSH2 0x277 JUMP JUMPDEST PUSH1 0x40 MLOAD PUSH2 0xDC SWAP2 SWAP1 PUSH2 0x427 JUMP JUMPDEST PUSH1 0x40 MLOAD DUP1 SWAP2 SUB SWAP1 RETURN JUMPDEST PUSH2 0xED PUSH2 0x28C JUMP JUMPDEST PUSH1 0x40 MLOAD PUSH2 0xFA SWAP2 SWAP1 PUSH2 0x427 JUMP JUMPDEST PUSH1 0x40 MLOAD DUP1 SWAP2 SUB SWAP1 RETURN JUMPDEST PUSH2 0x11D PUSH1 0x4 DUP1 CALLDATASIZE SUB DUP2 ADD SWAP1 PUSH2 0x118 SWAP2 SWAP1 PUSH2 0x3DA JUMP JUMPDEST PUSH2 0x292 JUMP JUMPDEST PUSH1 0x40 MLOAD PUSH2 0x12A SWAP2 SWAP1 PUSH2 0x427 JUMP JUMPDEST PUSH1 0x40 MLOAD DUP1 SWAP2 SUB SWAP1 RETURN JUMPDEST PUSH2 0x13B PUSH2 0x2A7 JUMP JUMPDEST PUSH1 0x40 MLOAD PUSH2 0x148 SWAP2 SWAP1 PUSH2 0x4CA JUMP JUMPDEST PUSH1 0x40 MLOAD DUP1 SWAP2 SUB SWAP1 RETURN JUMPDEST PUSH2 0x16B PUSH1 0x4 DUP1 CALLDATASIZE SUB DUP2 ADD SWAP1 PUSH2 0x166 SWAP2 SWAP1 PUSH2 0x4EA JUMP JUMPDEST PUSH2 0x2E4 JUMP JUMPDEST STOP JUMPDEST PUSH2 0x187 PUSH1 0x4 DUP1 CALLDATASIZE SUB DUP2 ADD SWAP1 PUSH2 0x182 SWAP2 SWAP1 PUSH2 0x4EA JUMP JUMPDEST PUSH2 0x2EE JUMP JUMPDEST PUSH1 0x40 MLOAD PUSH2 0x194 SWAP2 SWAP1 PUSH2 0x427 JUMP JUMPDEST PUSH1 0x40 MLOAD DUP1 SWAP2 SUB SWAP1 RETURN JUMPDEST PUSH2 0x1A5 PUSH2 0x308 JUMP JUMPDEST PUSH1 0x40 MLOAD PUSH2 0x1B4 SWAP4 SWAP3 SWAP2 SWAP1 PUSH2 0x52F JUMP JUMPDEST PUSH1 0x40 MLOAD DUP1 SWAP2 SUB SWAP1 RETURN JUMPDEST PUSH2 0x1C5 PUSH2 0x31B JUMP JUMPDEST PUSH1 0x40 MLOAD PUSH2 0x1D2 SWAP2 SWAP1 PUSH2 0x427 JUMP JUMPDEST PUSH1 0x40 MLOAD DUP1 SWAP2 SUB SWAP1 RETURN JUMPDEST PUSH2 0x1F5 PUSH1 0x4 DUP1 CALLDATASIZE SUB DUP2 ADD SWAP1 PUSH2 0x1F0 SWAP2 SWAP1 PUSH2 0x3DA JUMP JUMPDEST PUSH2 0x324 JUMP JUMPDEST PUSH1 0x40 MLOAD PUSH2 0x202 SWAP2 SWAP1 PUSH2 0x427 JUMP JUMPDEST PUSH1 0x40 MLOAD DUP1 SWAP2 SUB SWAP1 RETURN JUMPDEST PUSH2 0x213 PUSH2 0x344 JUMP JUMPDEST PUSH1 0x40 MLOAD PUSH2 0x220 SWAP2 SWAP1 PUSH2 0x4CA JUMP JUMPDEST PUSH1 0x40 MLOAD DUP1 SWAP2 SUB SWAP1 RETURN JUMPDEST PUSH2 0x231 PUSH2 0x353 JUMP JUMPDEST PUSH1 0x40 MLOAD PUSH2 0x23E SWAP2 SWAP1 PUSH2 0x4CA JUMP JUMPDEST PUSH1 0x40 MLOAD DUP1 SWAP2 SUB SWAP1 RETURN JUMPDEST PUSH2 0x261 PUSH1 0x4 DUP1 CALLDATASIZE SUB DUP2 ADD SWAP1 PUSH2 0x25C SWAP2 SWAP1 PUSH2 0x3DA JUMP JUMPDEST PUSH2 0x390 JUMP JUMPDEST PUSH1 0x40 MLOAD PUSH2 0x26E SWAP2 SWAP1 PUSH2 0x427 JUMP JUMPDEST PUSH1 0x40 MLOAD DUP1 SWAP2 SUB SWAP1 RETURN JUMPDEST PUSH0 DUP2 DUP4 PUSH2 0x284 SWAP2 SWAP1 PUSH2 0x591 JUMP JUMPDEST SWAP1 POP SWAP3 SWAP2 POP POP JUMP JUMPDEST PUSH1 0x1 SLOAD DUP2 JUMP JUMPDEST PUSH0 DUP2 DUP4 PUSH2 0x29F SWAP2 SWAP1 PUSH2 0x591 JUMP JUMPDEST SWAP1 POP SWAP3 SWAP2 POP POP JUMP JUMPDEST PUSH1 0x60 PUSH1 0x40 MLOAD DUP1 PUSH1 0x40 ADD PUSH1 0x40 MSTORE DUP1 PUSH1 0x1C DUP2 MSTORE PUSH1 0x20 ADD PUSH32 0x6275206269722065787465726E616C20666F6E6B7369796F6E64757200000000 DUP2 MSTORE POP SWAP1 POP SWAP1 JUMP JUMPDEST DUP1 PUSH1 0x1 DUP2 SWAP1 SSTORE POP POP JUMP JUMPDEST PUSH0 DUP1 DUP3 PUSH0 SLOAD PUSH2 0x2FD SWAP2 SWAP1 PUSH2 0x591 JUMP JUMPDEST SWAP1 POP DUP1 SWAP2 POP POP SWAP2 SWAP1 POP JUMP JUMPDEST PUSH0 DUP1 PUSH0 PUSH1 0x8 SWAP3 POP PUSH1 0x1 SWAP2 POP PUSH0 SWAP1 POP SWAP1 SWAP2 SWAP3 JUMP JUMPDEST PUSH0 PUSH1 0x1 SLOAD SWAP1 POP SWAP1 JUMP JUMPDEST PUSH0 TIMESTAMP DUP3 DUP5 PUSH2 0x332 SWAP2 SWAP1 PUSH2 0x591 JUMP JUMPDEST PUSH2 0x33C SWAP2 SWAP1 PUSH2 0x591 JUMP JUMPDEST SWAP1 POP SWAP3 SWAP2 POP POP JUMP JUMPDEST PUSH1 0x60 PUSH2 0x34E PUSH2 0x353 JUMP JUMPDEST SWAP1 POP SWAP1 JUMP JUMPDEST PUSH1 0x60 PUSH1 0x40 MLOAD DUP1 PUSH1 0x40 ADD PUSH1 0x40 MSTORE DUP1 PUSH1 0x10 DUP2 MSTORE PUSH1 0x20 ADD PUSH32 0x62752062697220666F6E6B7369796F6E00000000000000000000000000000000 DUP2 MSTORE POP SWAP1 POP SWAP1 JUMP JUMPDEST PUSH0 PUSH2 0x39B DUP4 DUP4 PUSH2 0x277 JUMP JUMPDEST SWAP1 POP SWAP3 SWAP2 POP POP JUMP JUMPDEST PUSH0 DUP1 REVERT JUMPDEST PUSH0 DUP2 SWAP1 POP SWAP2 SWAP1 POP JUMP JUMPDEST PUSH2 0x3B9 DUP2 PUSH2 0x3A7 JUMP JUMPDEST DUP2 EQ PUSH2 0x3C3 JUMPI PUSH0 DUP1 REVERT JUMPDEST POP JUMP JUMPDEST PUSH0 DUP2 CALLDATALOAD SWAP1 POP PUSH2 0x3D4 DUP2 PUSH2 0x3B0 JUMP JUMPDEST SWAP3 SWAP2 POP POP JUMP JUMPDEST PUSH0 DUP1 PUSH1 0x40 DUP4 DUP6 SUB SLT ISZERO PUSH2 0x3F0 JUMPI PUSH2 0x3EF PUSH2 0x3A3 JUMP JUMPDEST JUMPDEST PUSH0 PUSH2 0x3FD DUP6 DUP3 DUP7 ADD PUSH2 0x3C6 JUMP JUMPDEST SWAP3 POP POP PUSH1 0x20 PUSH2 0x40E DUP6 DUP3 DUP7 ADD PUSH2 0x3C6 JUMP JUMPDEST SWAP2 POP POP SWAP3 POP SWAP3 SWAP1 POP JUMP JUMPDEST PUSH2 0x421 DUP2 PUSH2 0x3A7 JUMP JUMPDEST DUP3 MSTORE POP POP JUMP JUMPDEST PUSH0 PUSH1 0x20 DUP3 ADD SWAP1 POP PUSH2 0x43A PUSH0 DUP4 ADD DUP5 PUSH2 0x418 JUMP JUMPDEST SWAP3 SWAP2 POP POP JUMP JUMPDEST PUSH0 DUP2 MLOAD SWAP1 POP SWAP2 SWAP1 POP JUMP JUMPDEST PUSH0 DUP3 DUP3 MSTORE PUSH1 0x20 DUP3 ADD SWAP1 POP SWAP3 SWAP2 POP POP JUMP JUMPDEST PUSH0 JUMPDEST DUP4 DUP2 LT ISZERO PUSH2 0x477 JUMPI DUP1 DUP3 ADD MLOAD DUP2 DUP5 ADD MSTORE PUSH1 0x20 DUP2 ADD SWAP1 POP PUSH2 0x45C JUMP JUMPDEST PUSH0 DUP5 DUP5 ADD MSTORE POP POP POP POP JUMP JUMPDEST PUSH0 PUSH1 0x1F NOT PUSH1 0x1F DUP4 ADD AND SWAP1 POP SWAP2 SWAP1 POP JUMP JUMPDEST PUSH0 PUSH2 0x49C DUP3 PUSH2 0x440 JUMP JUMPDEST PUSH2 0x4A6 DUP2 DUP6 PUSH2 0x44A JUMP JUMPDEST SWAP4 POP PUSH2 0x4B6 DUP2 DUP6 PUSH1 0x20 DUP7 ADD PUSH2 0x45A JUMP JUMPDEST PUSH2 0x4BF DUP2 PUSH2 0x482 JUMP JUMPDEST DUP5 ADD SWAP2 POP POP SWAP3 SWAP2 POP POP JUMP JUMPDEST PUSH0 PUSH1 0x20 DUP3 ADD SWAP1 POP DUP2 DUP2 SUB PUSH0 DUP4 ADD MSTORE PUSH2 0x4E2 DUP2 DUP5 PUSH2 0x492 JUMP JUMPDEST SWAP1 POP SWAP3 SWAP2 POP POP JUMP JUMPDEST PUSH0 PUSH1 0x20 DUP3 DUP5 SUB SLT ISZERO PUSH2 0x4FF JUMPI PUSH2 0x4FE PUSH2 0x3A3 JUMP JUMPDEST JUMPDEST PUSH0 PUSH2 0x50C DUP5 DUP3 DUP6 ADD PUSH2 0x3C6 JUMP JUMPDEST SWAP2 POP POP SWAP3 SWAP2 POP POP JUMP JUMPDEST PUSH0 DUP2 ISZERO ISZERO SWAP1 POP SWAP2 SWAP1 POP JUMP JUMPDEST PUSH2 0x529 DUP2 PUSH2 0x515 JUMP JUMPDEST DUP3 MSTORE POP POP JUMP JUMPDEST PUSH0 PUSH1 0x60 DUP3 ADD SWAP1 POP PUSH2 0x542 PUSH0 DUP4 ADD DUP7 PUSH2 0x418 JUMP JUMPDEST PUSH2 0x54F PUSH1 0x20 DUP4 ADD DUP6 PUSH2 0x520 JUMP JUMPDEST PUSH2 0x55C PUSH1 0x40 DUP4 ADD DUP5 PUSH2 0x520 JUMP JUMPDEST SWAP5 SWAP4 POP POP POP POP JUMP JUMPDEST PUSH32 0x4E487B7100000000000000000000000000000000000000000000000000000000 PUSH0 MSTORE PUSH1 0x11 PUSH1 0x4 MSTORE PUSH1 0x24 PUSH0 REVERT JUMPDEST PUSH0 PUSH2 0x59B DUP3 PUSH2 0x3A7 JUMP JUMPDEST SWAP2 POP PUSH2 0x5A6 DUP4 PUSH2 0x3A7 JUMP JUMPDEST SWAP3 POP DUP3 DUP3 ADD SWAP1 POP DUP1 DUP3 GT ISZERO PUSH2 0x5BE JUMPI PUSH2 0x5BD PUSH2 0x564 JUMP JUMPDEST JUMPDEST SWAP3 SWAP2 POP POP JUMP INVALID LOG2 PUSH5 0x6970667358 0x22 SLT KECCAK256 SWAP9 GASPRICE AND 0xC5 0xBF BALANCE DUP10 SGT 0xE1 PUSH16 0xF0F05EFC51C9D180C78BF3297C85041D DUP13 0xCE 0xD4 0xE2 INVALID SAR PUSH5 0x736F6C6343 STOP ADDMOD AND STOP CALLER "
				},
				"gasEstimates": {
					"creation": {
						"codeDepositCost": "306000",
						"executionCost": "44552",
						"totalCost": "350552"
					},
					"external": {
						"add(uint256,uint256)": "infinite",
						"add2(uint256,uint256)": "infinite",
						"add3(uint256,uint256)": "infinite",
						"add4(uint256,uint256)": "infinite",
						"externalFunction()": "infinite",
						"keyboard()": "infinite",
						"keyboardreturn()": "infinite",
						"luckynumber()": "2448",
						"nothin()": "infinite",
						"setNumber(uint256)": "22604",
						"setX(uint256)": "infinite",
						"showNumber()": "2454"
					},
					"internal": {
						"internalFonksiyon()": "infinite",
						"privateFuntion()": "infinite"
					}
				},
				"methodIdentifiers": {
					"add(uint256,uint256)": "771602f7",
					"add2(uint256,uint256)": "29fcda33",
					"add3(uint256,uint256)": "00c3314f",
					"add4(uint256,uint256)": "ff0251de",
					"externalFunction()": "3a32b549",
					"keyboard()": "f5b7d45d",
					"keyboardreturn()": "8f206308",
					"luckynumber()": "295ccb73",
					"nothin()": "6e03a031",
					"setNumber(uint256)": "3fb5c1cb",
					"setX(uint256)": "4018d9aa",
					"showNumber()": "76dad223"
				}
			},
			"storageLayout": {
				"storage": [
					{
						"astId": 4,
						"contract": "contracts/functions.sol:Function",
						"label": "x",
						"offset": 0,
						"slot": "0",
						"type": "t_uint256"
					},
					{
						"astId": 7,
						"contract": "contracts/functions.sol:Function",
						"label": "luckynumber",
						"offset": 0,
						"slot": "1",
						"type": "t_uint256"
					}
				],
				"types": {
					"t_uint256": {
						"encoding": "inplace",
						"label": "uint256",
						"numberOfBytes": "32"
					}
				}
			},
			"userdoc": {
				"kind": "user",
				"methods": {},
				"version": 1
			}
		}
	}
}