{
	"contracts/errors.sol": {
		"Errors": {
			"abi": [
				{
					"inputs": [
						{
							"internalType": "string",
							"name": "reason",
							"type": "string"
						}
					],
					"name": "Deny",
					"type": "error"
				},
				{
					"inputs": [
						{
							"internalType": "address",
							"name": "user",
							"type": "address"
						},
						{
							"internalType": "uint256",
							"name": "exceeddingAmount",
							"type": "uint256"
						}
					],
					"name": "ExceeddingAmount",
					"type": "error"
				},
				{
					"stateMutability": "payable",
					"type": "fallback"
				},
				{
					"inputs": [],
					"name": "pay",
					"outputs": [],
					"stateMutability": "payable",
					"type": "function"
				},
				{
					"inputs": [],
					"name": "totalBalance",
					"outputs": [
						{
							"internalType": "uint256",
							"name": "",
							"type": "uint256"
						}
					],
					"stateMutability": "view",
					"type": "function"
				},
				{
					"inputs": [
						{
							"internalType": "address",
							"name": "",
							"type": "address"
						}
					],
					"name": "userBalance",
					"outputs": [
						{
							"internalType": "uint256",
							"name": "",
							"type": "uint256"
						}
					],
					"stateMutability": "view",
					"type": "function"
				},
				{
					"inputs": [
						{
							"internalType": "uint256",
							"name": "_amount",
							"type": "uint256"
						}
					],
					"name": "withdraw",
					"outputs": [],
					"stateMutability": "nonpayable",
					"type": "function"
				},
				{
					"stateMutability": "payable",
					"type": "receive"
				}
			],
			"devdoc": {
				"kind": "dev",
				"methods": {},
				"version": 1
			},
			"evm": {
				"assembly": "    /* \"contracts/errors.sol\":60:1357  contract Errors{... */\n  mstore(0x40, 0x80)\n  callvalue\n  dup1\n  iszero\n  tag_1\n  jumpi\n  0x00\n  dup1\n  revert\ntag_1:\n  pop\n  dataSize(sub_0)\n  dup1\n  dataOffset(sub_0)\n  0x00\n  codecopy\n  0x00\n  return\nstop\n\nsub_0: assembly {\n        /* \"contracts/errors.sol\":60:1357  contract Errors{... */\n      mstore(0x40, 0x80)\n      jumpi(tag_1, lt(calldatasize, 0x04))\n      shr(0xe0, calldataload(0x00))\n      dup1\n      0x0103c92b\n      eq\n      tag_3\n      jumpi\n      dup1\n      0x1b9265b8\n      eq\n      tag_4\n      jumpi\n      dup1\n      0x2e1a7d4d\n      eq\n      tag_5\n      jumpi\n      dup1\n      0xad7a672f\n      eq\n      tag_6\n      jumpi\n      jump(tag_2)\n    tag_1:\n      jumpi(tag_2, calldatasize)\n        /* \"contracts/errors.sol\":323:350  Deny(\"No direct payments.\") */\n      mload(0x40)\n      0x1948a7bc00000000000000000000000000000000000000000000000000000000\n      dup2\n      mstore\n      0x04\n      add\n      tag_9\n      swap1\n      tag_10\n      jump\t// in\n    tag_9:\n      mload(0x40)\n      dup1\n      swap2\n      sub\n      swap1\n      revert\n        /* \"contracts/errors.sol\":60:1357  contract Errors{... */\n    tag_2:\n        /* \"contracts/errors.sol\":410:437  Deny(\"No direct payments.\") */\n      mload(0x40)\n      0x1948a7bc00000000000000000000000000000000000000000000000000000000\n      dup2\n      mstore\n      0x04\n      add\n      tag_13\n      swap1\n      tag_10\n      jump\t// in\n    tag_13:\n      mload(0x40)\n      dup1\n      swap2\n      sub\n      swap1\n      revert\n        /* \"contracts/errors.sol\":118:164  mapping (address=>uint256 ) public userBalance */\n    tag_3:\n      callvalue\n      dup1\n      iszero\n      tag_14\n      jumpi\n      0x00\n      dup1\n      revert\n    tag_14:\n      pop\n      tag_15\n      0x04\n      dup1\n      calldatasize\n      sub\n      dup2\n      add\n      swap1\n      tag_16\n      swap2\n      swap1\n      tag_17\n      jump\t// in\n    tag_16:\n      tag_18\n      jump\t// in\n    tag_15:\n      mload(0x40)\n      tag_19\n      swap2\n      swap1\n      tag_20\n      jump\t// in\n    tag_19:\n      mload(0x40)\n      dup1\n      swap2\n      sub\n      swap1\n      return\n        /* \"contracts/errors.sol\":453:653  function pay() noZero(msg.value) external payable {... */\n    tag_4:\n      tag_21\n      tag_22\n      jump\t// in\n    tag_21:\n      stop\n        /* \"contracts/errors.sol\":659:1262  function withdraw(uint256 _amount) noZero(_amount)   external {... */\n    tag_5:\n      callvalue\n      dup1\n      iszero\n      tag_23\n      jumpi\n      0x00\n      dup1\n      revert\n    tag_23:\n      pop\n      tag_24\n      0x04\n      dup1\n      calldatasize\n      sub\n      dup2\n      add\n      swap1\n      tag_25\n      swap2\n      swap1\n      tag_26\n      jump\t// in\n    tag_25:\n      tag_27\n      jump\t// in\n    tag_24:\n      stop\n        /* \"contracts/errors.sol\":84:111  uint256 public totalBalance */\n    tag_6:\n      callvalue\n      dup1\n      iszero\n      tag_28\n      jumpi\n      0x00\n      dup1\n      revert\n    tag_28:\n      pop\n      tag_29\n      tag_30\n      jump\t// in\n    tag_29:\n      mload(0x40)\n      tag_31\n      swap2\n      swap1\n      tag_20\n      jump\t// in\n    tag_31:\n      mload(0x40)\n      dup1\n      swap2\n      sub\n      swap1\n      return\n        /* \"contracts/errors.sol\":118:164  mapping (address=>uint256 ) public userBalance */\n    tag_18:\n      mstore(0x20, 0x01)\n      dup1\n      0x00\n      mstore\n      keccak256(0x00, 0x40)\n      0x00\n      swap2\n      pop\n      swap1\n      pop\n      sload\n      dup2\n      jump\t// out\n        /* \"contracts/errors.sol\":453:653  function pay() noZero(msg.value) external payable {... */\n    tag_22:\n        /* \"contracts/errors.sol\":475:484  msg.value */\n      callvalue\n        /* \"contracts/errors.sol\":1330:1331  0 */\n      0x00\n        /* \"contracts/errors.sol\":1320:1327  _amount */\n      dup2\n        /* \"contracts/errors.sol\":1320:1331  _amount !=0 */\n      sub\n        /* \"contracts/errors.sol\":1312:1332  require(_amount !=0) */\n      tag_33\n      jumpi\n      0x00\n      dup1\n      revert\n    tag_33:\n        /* \"contracts/errors.sol\":535:542  1 ether */\n      0x0de0b6b3a7640000\n        /* \"contracts/errors.sol\":522:531  msg.value */\n      callvalue\n        /* \"contracts/errors.sol\":522:542  msg.value == 1 ether */\n      eq\n        /* \"contracts/errors.sol\":514:570  require(msg.value == 1 ether,\"Only payments in 1 ether\") */\n      tag_35\n      jumpi\n      mload(0x40)\n      0x08c379a000000000000000000000000000000000000000000000000000000000\n      dup2\n      mstore\n      0x04\n      add\n      tag_36\n      swap1\n      tag_37\n      jump\t// in\n    tag_36:\n      mload(0x40)\n      dup1\n      swap2\n      sub\n      swap1\n      revert\n    tag_35:\n        /* \"contracts/errors.sol\":598:599  1 */\n      0x01\n        /* \"contracts/errors.sol\":583:595  totalBalance */\n      0x00\n      dup1\n        /* \"contracts/errors.sol\":583:599  totalBalance +=1 */\n      dup3\n      dup3\n      sload\n      tag_38\n      swap2\n      swap1\n      tag_39\n      jump\t// in\n    tag_38:\n      swap3\n      pop\n      pop\n      dup2\n      swap1\n      sstore\n      pop\n        /* \"contracts/errors.sol\":636:643  1 ether */\n      0x0de0b6b3a7640000\n        /* \"contracts/errors.sol\":610:621  userBalance */\n      0x01\n        /* \"contracts/errors.sol\":610:633  userBalance[msg.sender] */\n      0x00\n        /* \"contracts/errors.sol\":622:632  msg.sender */\n      caller\n        /* \"contracts/errors.sol\":610:633  userBalance[msg.sender] */\n      0xffffffffffffffffffffffffffffffffffffffff\n      and\n      0xffffffffffffffffffffffffffffffffffffffff\n      and\n      dup2\n      mstore\n      0x20\n      add\n      swap1\n      dup2\n      mstore\n      0x20\n      add\n      0x00\n      keccak256\n      0x00\n        /* \"contracts/errors.sol\":610:643  userBalance[msg.sender] +=1 ether */\n      dup3\n      dup3\n      sload\n      tag_40\n      swap2\n      swap1\n      tag_39\n      jump\t// in\n    tag_40:\n      swap3\n      pop\n      pop\n      dup2\n      swap1\n      sstore\n      pop\n        /* \"contracts/errors.sol\":453:653  function pay() noZero(msg.value) external payable {... */\n      pop\n      jump\t// out\n        /* \"contracts/errors.sol\":659:1262  function withdraw(uint256 _amount) noZero(_amount)   external {... */\n    tag_27:\n        /* \"contracts/errors.sol\":701:708  _amount */\n      dup1\n        /* \"contracts/errors.sol\":1330:1331  0 */\n      0x00\n        /* \"contracts/errors.sol\":1320:1327  _amount */\n      dup2\n        /* \"contracts/errors.sol\":1320:1331  _amount !=0 */\n      sub\n        /* \"contracts/errors.sol\":1312:1332  require(_amount !=0) */\n      tag_42\n      jumpi\n      0x00\n      dup1\n      revert\n    tag_42:\n        /* \"contracts/errors.sol\":732:754  uint256 initialBalance */\n      0x00\n        /* \"contracts/errors.sol\":757:769  totalBalance */\n      dup1\n      sload\n        /* \"contracts/errors.sol\":732:769  uint256 initialBalance = totalBalance */\n      swap1\n      pop\n        /* \"contracts/errors.sol\":887:894  _amount */\n      dup3\n        /* \"contracts/errors.sol\":861:872  userBalance */\n      0x01\n        /* \"contracts/errors.sol\":861:884  userBalance[msg.sender] */\n      0x00\n        /* \"contracts/errors.sol\":873:883  msg.sender */\n      caller\n        /* \"contracts/errors.sol\":861:884  userBalance[msg.sender] */\n      0xffffffffffffffffffffffffffffffffffffffff\n      and\n      0xffffffffffffffffffffffffffffffffffffffff\n      and\n      dup2\n      mstore\n      0x20\n      add\n      swap1\n      dup2\n      mstore\n      0x20\n      add\n      0x00\n      keccak256\n      sload\n        /* \"contracts/errors.sol\":861:894  userBalance[msg.sender] < _amount */\n      lt\n        /* \"contracts/errors.sol\":858:1037  if(userBalance[msg.sender] < _amount){... */\n      iszero\n      tag_44\n      jumpi\n        /* \"contracts/errors.sol\":981:991  msg.sender */\n      caller\n        /* \"contracts/errors.sol\":1001:1012  userBalance */\n      0x01\n        /* \"contracts/errors.sol\":1001:1024  userBalance[msg.sender] */\n      0x00\n        /* \"contracts/errors.sol\":1013:1023  msg.sender */\n      caller\n        /* \"contracts/errors.sol\":1001:1024  userBalance[msg.sender] */\n      0xffffffffffffffffffffffffffffffffffffffff\n      and\n      0xffffffffffffffffffffffffffffffffffffffff\n      and\n      dup2\n      mstore\n      0x20\n      add\n      swap1\n      dup2\n      mstore\n      0x20\n      add\n      0x00\n      keccak256\n      sload\n        /* \"contracts/errors.sol\":993:1000  _amount */\n      dup5\n        /* \"contracts/errors.sol\":993:1024  _amount-userBalance[msg.sender] */\n      tag_45\n      swap2\n      swap1\n      tag_46\n      jump\t// in\n    tag_45:\n        /* \"contracts/errors.sol\":964:1025  ExceeddingAmount(msg.sender, _amount-userBalance[msg.sender]) */\n      mload(0x40)\n      0x74f0d8dc00000000000000000000000000000000000000000000000000000000\n      dup2\n      mstore\n      0x04\n      add\n      tag_47\n      swap3\n      swap2\n      swap1\n      tag_48\n      jump\t// in\n    tag_47:\n      mload(0x40)\n      dup1\n      swap2\n      sub\n      swap1\n      revert\n        /* \"contracts/errors.sol\":858:1037  if(userBalance[msg.sender] < _amount){... */\n    tag_44:\n        /* \"contracts/errors.sol\":1063:1070  _amount */\n      dup3\n        /* \"contracts/errors.sol\":1047:1059  totalBalance */\n      0x00\n      dup1\n        /* \"contracts/errors.sol\":1047:1070  totalBalance -= _amount */\n      dup3\n      dup3\n      sload\n      tag_49\n      swap2\n      swap1\n      tag_46\n      jump\t// in\n    tag_49:\n      swap3\n      pop\n      pop\n      dup2\n      swap1\n      sstore\n      pop\n        /* \"contracts/errors.sol\":1108:1115  _amount */\n      dup3\n        /* \"contracts/errors.sol\":1081:1092  userBalance */\n      0x01\n        /* \"contracts/errors.sol\":1081:1104  userBalance[msg.sender] */\n      0x00\n        /* \"contracts/errors.sol\":1093:1103  msg.sender */\n      caller\n        /* \"contracts/errors.sol\":1081:1104  userBalance[msg.sender] */\n      0xffffffffffffffffffffffffffffffffffffffff\n      and\n      0xffffffffffffffffffffffffffffffffffffffff\n      and\n      dup2\n      mstore\n      0x20\n      add\n      swap1\n      dup2\n      mstore\n      0x20\n      add\n      0x00\n      keccak256\n      0x00\n        /* \"contracts/errors.sol\":1081:1115  userBalance[msg.sender] -= _amount */\n      dup3\n      dup3\n      sload\n      tag_50\n      swap2\n      swap1\n      tag_46\n      jump\t// in\n    tag_50:\n      swap3\n      pop\n      pop\n      dup2\n      swap1\n      sstore\n      pop\n        /* \"contracts/errors.sol\":1173:1183  msg.sender */\n      caller\n        /* \"contracts/errors.sol\":1165:1193  payable(msg.sender).transfer */\n      0xffffffffffffffffffffffffffffffffffffffff\n      and\n        /* \"contracts/errors.sol\":1165:1202  payable(msg.sender).transfer(_amount) */\n      0x08fc\n        /* \"contracts/errors.sol\":1194:1201  _amount */\n      dup5\n        /* \"contracts/errors.sol\":1165:1202  payable(msg.sender).transfer(_amount) */\n      swap1\n      dup2\n      iszero\n      mul\n      swap1\n      mload(0x40)\n      0x00\n      mload(0x40)\n      dup1\n      dup4\n      sub\n      dup2\n      dup6\n      dup9\n      dup9\n      call\n      swap4\n      pop\n      pop\n      pop\n      pop\n      iszero\n      dup1\n      iszero\n      tag_52\n      jumpi\n      returndatasize\n      0x00\n      dup1\n      returndatacopy\n      revert(0x00, returndatasize)\n    tag_52:\n      pop\n        /* \"contracts/errors.sol\":1237:1251  initialBalance */\n      dup1\n        /* \"contracts/errors.sol\":1222:1234  totalBalance */\n      sload(0x00)\n        /* \"contracts/errors.sol\":1222:1251  totalBalance < initialBalance */\n      lt\n        /* \"contracts/errors.sol\":1215:1252  assert(totalBalance < initialBalance) */\n      tag_53\n      jumpi\n      tag_54\n      tag_55\n      jump\t// in\n    tag_54:\n    tag_53:\n        /* \"contracts/errors.sol\":721:1262  {... */\n      pop\n        /* \"contracts/errors.sol\":659:1262  function withdraw(uint256 _amount) noZero(_amount)   external {... */\n      pop\n      pop\n      jump\t// out\n        /* \"contracts/errors.sol\":84:111  uint256 public totalBalance */\n    tag_30:\n      sload(0x00)\n      dup2\n      jump\t// out\n        /* \"#utility.yul\":7:176   */\n    tag_56:\n        /* \"#utility.yul\":91:102   */\n      0x00\n        /* \"#utility.yul\":125:131   */\n      dup3\n        /* \"#utility.yul\":120:123   */\n      dup3\n        /* \"#utility.yul\":113:132   */\n      mstore\n        /* \"#utility.yul\":165:169   */\n      0x20\n        /* \"#utility.yul\":160:163   */\n      dup3\n        /* \"#utility.yul\":156:170   */\n      add\n        /* \"#utility.yul\":141:170   */\n      swap1\n      pop\n        /* \"#utility.yul\":7:176   */\n      swap3\n      swap2\n      pop\n      pop\n      jump\t// out\n        /* \"#utility.yul\":182:351   */\n    tag_57:\n        /* \"#utility.yul\":322:343   */\n      0x4e6f20646972656374207061796d656e74732e00000000000000000000000000\n        /* \"#utility.yul\":318:319   */\n      0x00\n        /* \"#utility.yul\":310:316   */\n      dup3\n        /* \"#utility.yul\":306:320   */\n      add\n        /* \"#utility.yul\":299:344   */\n      mstore\n        /* \"#utility.yul\":182:351   */\n      pop\n      jump\t// out\n        /* \"#utility.yul\":357:723   */\n    tag_58:\n        /* \"#utility.yul\":499:502   */\n      0x00\n        /* \"#utility.yul\":520:587   */\n      tag_78\n        /* \"#utility.yul\":584:586   */\n      0x13\n        /* \"#utility.yul\":579:582   */\n      dup4\n        /* \"#utility.yul\":520:587   */\n      tag_56\n      jump\t// in\n    tag_78:\n        /* \"#utility.yul\":513:587   */\n      swap2\n      pop\n        /* \"#utility.yul\":596:689   */\n      tag_79\n        /* \"#utility.yul\":685:688   */\n      dup3\n        /* \"#utility.yul\":596:689   */\n      tag_57\n      jump\t// in\n    tag_79:\n        /* \"#utility.yul\":714:716   */\n      0x20\n        /* \"#utility.yul\":709:712   */\n      dup3\n        /* \"#utility.yul\":705:717   */\n      add\n        /* \"#utility.yul\":698:717   */\n      swap1\n      pop\n        /* \"#utility.yul\":357:723   */\n      swap2\n      swap1\n      pop\n      jump\t// out\n        /* \"#utility.yul\":729:1148   */\n    tag_10:\n        /* \"#utility.yul\":895:899   */\n      0x00\n        /* \"#utility.yul\":933:935   */\n      0x20\n        /* \"#utility.yul\":922:931   */\n      dup3\n        /* \"#utility.yul\":918:936   */\n      add\n        /* \"#utility.yul\":910:936   */\n      swap1\n      pop\n        /* \"#utility.yul\":982:991   */\n      dup2\n        /* \"#utility.yul\":976:980   */\n      dup2\n        /* \"#utility.yul\":972:992   */\n      sub\n        /* \"#utility.yul\":968:969   */\n      0x00\n        /* \"#utility.yul\":957:966   */\n      dup4\n        /* \"#utility.yul\":953:970   */\n      add\n        /* \"#utility.yul\":946:993   */\n      mstore\n        /* \"#utility.yul\":1010:1141   */\n      tag_81\n        /* \"#utility.yul\":1136:1140   */\n      dup2\n        /* \"#utility.yul\":1010:1141   */\n      tag_58\n      jump\t// in\n    tag_81:\n        /* \"#utility.yul\":1002:1141   */\n      swap1\n      pop\n        /* \"#utility.yul\":729:1148   */\n      swap2\n      swap1\n      pop\n      jump\t// out\n        /* \"#utility.yul\":1235:1352   */\n    tag_60:\n        /* \"#utility.yul\":1344:1345   */\n      0x00\n        /* \"#utility.yul\":1341:1342   */\n      dup1\n        /* \"#utility.yul\":1334:1346   */\n      revert\n        /* \"#utility.yul\":1481:1607   */\n    tag_62:\n        /* \"#utility.yul\":1518:1525   */\n      0x00\n        /* \"#utility.yul\":1558:1600   */\n      0xffffffffffffffffffffffffffffffffffffffff\n        /* \"#utility.yul\":1551:1556   */\n      dup3\n        /* \"#utility.yul\":1547:1601   */\n      and\n        /* \"#utility.yul\":1536:1601   */\n      swap1\n      pop\n        /* \"#utility.yul\":1481:1607   */\n      swap2\n      swap1\n      pop\n      jump\t// out\n        /* \"#utility.yul\":1613:1709   */\n    tag_63:\n        /* \"#utility.yul\":1650:1657   */\n      0x00\n        /* \"#utility.yul\":1679:1703   */\n      tag_87\n        /* \"#utility.yul\":1697:1702   */\n      dup3\n        /* \"#utility.yul\":1679:1703   */\n      tag_62\n      jump\t// in\n    tag_87:\n        /* \"#utility.yul\":1668:1703   */\n      swap1\n      pop\n        /* \"#utility.yul\":1613:1709   */\n      swap2\n      swap1\n      pop\n      jump\t// out\n        /* \"#utility.yul\":1715:1837   */\n    tag_64:\n        /* \"#utility.yul\":1788:1812   */\n      tag_89\n        /* \"#utility.yul\":1806:1811   */\n      dup2\n        /* \"#utility.yul\":1788:1812   */\n      tag_63\n      jump\t// in\n    tag_89:\n        /* \"#utility.yul\":1781:1786   */\n      dup2\n        /* \"#utility.yul\":1778:1813   */\n      eq\n        /* \"#utility.yul\":1768:1831   */\n      tag_90\n      jumpi\n        /* \"#utility.yul\":1827:1828   */\n      0x00\n        /* \"#utility.yul\":1824:1825   */\n      dup1\n        /* \"#utility.yul\":1817:1829   */\n      revert\n        /* \"#utility.yul\":1768:1831   */\n    tag_90:\n        /* \"#utility.yul\":1715:1837   */\n      pop\n      jump\t// out\n        /* \"#utility.yul\":1843:1982   */\n    tag_65:\n        /* \"#utility.yul\":1889:1894   */\n      0x00\n        /* \"#utility.yul\":1927:1933   */\n      dup2\n        /* \"#utility.yul\":1914:1934   */\n      calldataload\n        /* \"#utility.yul\":1905:1934   */\n      swap1\n      pop\n        /* \"#utility.yul\":1943:1976   */\n      tag_92\n        /* \"#utility.yul\":1970:1975   */\n      dup2\n        /* \"#utility.yul\":1943:1976   */\n      tag_64\n      jump\t// in\n    tag_92:\n        /* \"#utility.yul\":1843:1982   */\n      swap3\n      swap2\n      pop\n      pop\n      jump\t// out\n        /* \"#utility.yul\":1988:2317   */\n    tag_17:\n        /* \"#utility.yul\":2047:2053   */\n      0x00\n        /* \"#utility.yul\":2096:2098   */\n      0x20\n        /* \"#utility.yul\":2084:2093   */\n      dup3\n        /* \"#utility.yul\":2075:2082   */\n      dup5\n        /* \"#utility.yul\":2071:2094   */\n      sub\n        /* \"#utility.yul\":2067:2099   */\n      slt\n        /* \"#utility.yul\":2064:2183   */\n      iszero\n      tag_94\n      jumpi\n        /* \"#utility.yul\":2102:2181   */\n      tag_95\n      tag_60\n      jump\t// in\n    tag_95:\n        /* \"#utility.yul\":2064:2183   */\n    tag_94:\n        /* \"#utility.yul\":2222:2223   */\n      0x00\n        /* \"#utility.yul\":2247:2300   */\n      tag_96\n        /* \"#utility.yul\":2292:2299   */\n      dup5\n        /* \"#utility.yul\":2283:2289   */\n      dup3\n        /* \"#utility.yul\":2272:2281   */\n      dup6\n        /* \"#utility.yul\":2268:2290   */\n      add\n        /* \"#utility.yul\":2247:2300   */\n      tag_65\n      jump\t// in\n    tag_96:\n        /* \"#utility.yul\":2237:2300   */\n      swap2\n      pop\n        /* \"#utility.yul\":2193:2310   */\n      pop\n        /* \"#utility.yul\":1988:2317   */\n      swap3\n      swap2\n      pop\n      pop\n      jump\t// out\n        /* \"#utility.yul\":2323:2400   */\n    tag_66:\n        /* \"#utility.yul\":2360:2367   */\n      0x00\n        /* \"#utility.yul\":2389:2394   */\n      dup2\n        /* \"#utility.yul\":2378:2394   */\n      swap1\n      pop\n        /* \"#utility.yul\":2323:2400   */\n      swap2\n      swap1\n      pop\n      jump\t// out\n        /* \"#utility.yul\":2406:2524   */\n    tag_67:\n        /* \"#utility.yul\":2493:2517   */\n      tag_99\n        /* \"#utility.yul\":2511:2516   */\n      dup2\n        /* \"#utility.yul\":2493:2517   */\n      tag_66\n      jump\t// in\n    tag_99:\n        /* \"#utility.yul\":2488:2491   */\n      dup3\n        /* \"#utility.yul\":2481:2518   */\n      mstore\n        /* \"#utility.yul\":2406:2524   */\n      pop\n      pop\n      jump\t// out\n        /* \"#utility.yul\":2530:2752   */\n    tag_20:\n        /* \"#utility.yul\":2623:2627   */\n      0x00\n        /* \"#utility.yul\":2661:2663   */\n      0x20\n        /* \"#utility.yul\":2650:2659   */\n      dup3\n        /* \"#utility.yul\":2646:2664   */\n      add\n        /* \"#utility.yul\":2638:2664   */\n      swap1\n      pop\n        /* \"#utility.yul\":2674:2745   */\n      tag_101\n        /* \"#utility.yul\":2742:2743   */\n      0x00\n        /* \"#utility.yul\":2731:2740   */\n      dup4\n        /* \"#utility.yul\":2727:2744   */\n      add\n        /* \"#utility.yul\":2718:2724   */\n      dup5\n        /* \"#utility.yul\":2674:2745   */\n      tag_67\n      jump\t// in\n    tag_101:\n        /* \"#utility.yul\":2530:2752   */\n      swap3\n      swap2\n      pop\n      pop\n      jump\t// out\n        /* \"#utility.yul\":2758:2880   */\n    tag_68:\n        /* \"#utility.yul\":2831:2855   */\n      tag_103\n        /* \"#utility.yul\":2849:2854   */\n      dup2\n        /* \"#utility.yul\":2831:2855   */\n      tag_66\n      jump\t// in\n    tag_103:\n        /* \"#utility.yul\":2824:2829   */\n      dup2\n        /* \"#utility.yul\":2821:2856   */\n      eq\n        /* \"#utility.yul\":2811:2874   */\n      tag_104\n      jumpi\n        /* \"#utility.yul\":2870:2871   */\n      0x00\n        /* \"#utility.yul\":2867:2868   */\n      dup1\n        /* \"#utility.yul\":2860:2872   */\n      revert\n        /* \"#utility.yul\":2811:2874   */\n    tag_104:\n        /* \"#utility.yul\":2758:2880   */\n      pop\n      jump\t// out\n        /* \"#utility.yul\":2886:3025   */\n    tag_69:\n        /* \"#utility.yul\":2932:2937   */\n      0x00\n        /* \"#utility.yul\":2970:2976   */\n      dup2\n        /* \"#utility.yul\":2957:2977   */\n      calldataload\n        /* \"#utility.yul\":2948:2977   */\n      swap1\n      pop\n        /* \"#utility.yul\":2986:3019   */\n      tag_106\n        /* \"#utility.yul\":3013:3018   */\n      dup2\n        /* \"#utility.yul\":2986:3019   */\n      tag_68\n      jump\t// in\n    tag_106:\n        /* \"#utility.yul\":2886:3025   */\n      swap3\n      swap2\n      pop\n      pop\n      jump\t// out\n        /* \"#utility.yul\":3031:3360   */\n    tag_26:\n        /* \"#utility.yul\":3090:3096   */\n      0x00\n        /* \"#utility.yul\":3139:3141   */\n      0x20\n        /* \"#utility.yul\":3127:3136   */\n      dup3\n        /* \"#utility.yul\":3118:3125   */\n      dup5\n        /* \"#utility.yul\":3114:3137   */\n      sub\n        /* \"#utility.yul\":3110:3142   */\n      slt\n        /* \"#utility.yul\":3107:3226   */\n      iszero\n      tag_108\n      jumpi\n        /* \"#utility.yul\":3145:3224   */\n      tag_109\n      tag_60\n      jump\t// in\n    tag_109:\n        /* \"#utility.yul\":3107:3226   */\n    tag_108:\n        /* \"#utility.yul\":3265:3266   */\n      0x00\n        /* \"#utility.yul\":3290:3343   */\n      tag_110\n        /* \"#utility.yul\":3335:3342   */\n      dup5\n        /* \"#utility.yul\":3326:3332   */\n      dup3\n        /* \"#utility.yul\":3315:3324   */\n      dup6\n        /* \"#utility.yul\":3311:3333   */\n      add\n        /* \"#utility.yul\":3290:3343   */\n      tag_69\n      jump\t// in\n    tag_110:\n        /* \"#utility.yul\":3280:3343   */\n      swap2\n      pop\n        /* \"#utility.yul\":3236:3353   */\n      pop\n        /* \"#utility.yul\":3031:3360   */\n      swap3\n      swap2\n      pop\n      pop\n      jump\t// out\n        /* \"#utility.yul\":3366:3540   */\n    tag_70:\n        /* \"#utility.yul\":3506:3532   */\n      0x4f6e6c79207061796d656e747320696e20312065746865720000000000000000\n        /* \"#utility.yul\":3502:3503   */\n      0x00\n        /* \"#utility.yul\":3494:3500   */\n      dup3\n        /* \"#utility.yul\":3490:3504   */\n      add\n        /* \"#utility.yul\":3483:3533   */\n      mstore\n        /* \"#utility.yul\":3366:3540   */\n      pop\n      jump\t// out\n        /* \"#utility.yul\":3546:3912   */\n    tag_71:\n        /* \"#utility.yul\":3688:3691   */\n      0x00\n        /* \"#utility.yul\":3709:3776   */\n      tag_113\n        /* \"#utility.yul\":3773:3775   */\n      0x18\n        /* \"#utility.yul\":3768:3771   */\n      dup4\n        /* \"#utility.yul\":3709:3776   */\n      tag_56\n      jump\t// in\n    tag_113:\n        /* \"#utility.yul\":3702:3776   */\n      swap2\n      pop\n        /* \"#utility.yul\":3785:3878   */\n      tag_114\n        /* \"#utility.yul\":3874:3877   */\n      dup3\n        /* \"#utility.yul\":3785:3878   */\n      tag_70\n      jump\t// in\n    tag_114:\n        /* \"#utility.yul\":3903:3905   */\n      0x20\n        /* \"#utility.yul\":3898:3901   */\n      dup3\n        /* \"#utility.yul\":3894:3906   */\n      add\n        /* \"#utility.yul\":3887:3906   */\n      swap1\n      pop\n        /* \"#utility.yul\":3546:3912   */\n      swap2\n      swap1\n      pop\n      jump\t// out\n        /* \"#utility.yul\":3918:4337   */\n    tag_37:\n        /* \"#utility.yul\":4084:4088   */\n      0x00\n        /* \"#utility.yul\":4122:4124   */\n      0x20\n        /* \"#utility.yul\":4111:4120   */\n      dup3\n        /* \"#utility.yul\":4107:4125   */\n      add\n        /* \"#utility.yul\":4099:4125   */\n      swap1\n      pop\n        /* \"#utility.yul\":4171:4180   */\n      dup2\n        /* \"#utility.yul\":4165:4169   */\n      dup2\n        /* \"#utility.yul\":4161:4181   */\n      sub\n        /* \"#utility.yul\":4157:4158   */\n      0x00\n        /* \"#utility.yul\":4146:4155   */\n      dup4\n        /* \"#utility.yul\":4142:4159   */\n      add\n        /* \"#utility.yul\":4135:4182   */\n      mstore\n        /* \"#utility.yul\":4199:4330   */\n      tag_116\n        /* \"#utility.yul\":4325:4329   */\n      dup2\n        /* \"#utility.yul\":4199:4330   */\n      tag_71\n      jump\t// in\n    tag_116:\n        /* \"#utility.yul\":4191:4330   */\n      swap1\n      pop\n        /* \"#utility.yul\":3918:4337   */\n      swap2\n      swap1\n      pop\n      jump\t// out\n        /* \"#utility.yul\":4343:4523   */\n    tag_72:\n        /* \"#utility.yul\":4391:4468   */\n      0x4e487b7100000000000000000000000000000000000000000000000000000000\n        /* \"#utility.yul\":4388:4389   */\n      0x00\n        /* \"#utility.yul\":4381:4469   */\n      mstore\n        /* \"#utility.yul\":4488:4492   */\n      0x11\n        /* \"#utility.yul\":4485:4486   */\n      0x04\n        /* \"#utility.yul\":4478:4493   */\n      mstore\n        /* \"#utility.yul\":4512:4516   */\n      0x24\n        /* \"#utility.yul\":4509:4510   */\n      0x00\n        /* \"#utility.yul\":4502:4517   */\n      revert\n        /* \"#utility.yul\":4529:4720   */\n    tag_39:\n        /* \"#utility.yul\":4569:4572   */\n      0x00\n        /* \"#utility.yul\":4588:4608   */\n      tag_119\n        /* \"#utility.yul\":4606:4607   */\n      dup3\n        /* \"#utility.yul\":4588:4608   */\n      tag_66\n      jump\t// in\n    tag_119:\n        /* \"#utility.yul\":4583:4608   */\n      swap2\n      pop\n        /* \"#utility.yul\":4622:4642   */\n      tag_120\n        /* \"#utility.yul\":4640:4641   */\n      dup4\n        /* \"#utility.yul\":4622:4642   */\n      tag_66\n      jump\t// in\n    tag_120:\n        /* \"#utility.yul\":4617:4642   */\n      swap3\n      pop\n        /* \"#utility.yul\":4665:4666   */\n      dup3\n        /* \"#utility.yul\":4662:4663   */\n      dup3\n        /* \"#utility.yul\":4658:4667   */\n      add\n        /* \"#utility.yul\":4651:4667   */\n      swap1\n      pop\n        /* \"#utility.yul\":4686:4689   */\n      dup1\n        /* \"#utility.yul\":4683:4684   */\n      dup3\n        /* \"#utility.yul\":4680:4690   */\n      gt\n        /* \"#utility.yul\":4677:4713   */\n      iszero\n      tag_121\n      jumpi\n        /* \"#utility.yul\":4693:4711   */\n      tag_122\n      tag_72\n      jump\t// in\n    tag_122:\n        /* \"#utility.yul\":4677:4713   */\n    tag_121:\n        /* \"#utility.yul\":4529:4720   */\n      swap3\n      swap2\n      pop\n      pop\n      jump\t// out\n        /* \"#utility.yul\":4726:4920   */\n    tag_46:\n        /* \"#utility.yul\":4766:4770   */\n      0x00\n        /* \"#utility.yul\":4786:4806   */\n      tag_124\n        /* \"#utility.yul\":4804:4805   */\n      dup3\n        /* \"#utility.yul\":4786:4806   */\n      tag_66\n      jump\t// in\n    tag_124:\n        /* \"#utility.yul\":4781:4806   */\n      swap2\n      pop\n        /* \"#utility.yul\":4820:4840   */\n      tag_125\n        /* \"#utility.yul\":4838:4839   */\n      dup4\n        /* \"#utility.yul\":4820:4840   */\n      tag_66\n      jump\t// in\n    tag_125:\n        /* \"#utility.yul\":4815:4840   */\n      swap3\n      pop\n        /* \"#utility.yul\":4864:4865   */\n      dup3\n        /* \"#utility.yul\":4861:4862   */\n      dup3\n        /* \"#utility.yul\":4857:4866   */\n      sub\n        /* \"#utility.yul\":4849:4866   */\n      swap1\n      pop\n        /* \"#utility.yul\":4888:4889   */\n      dup2\n        /* \"#utility.yul\":4882:4886   */\n      dup2\n        /* \"#utility.yul\":4879:4890   */\n      gt\n        /* \"#utility.yul\":4876:4913   */\n      iszero\n      tag_126\n      jumpi\n        /* \"#utility.yul\":4893:4911   */\n      tag_127\n      tag_72\n      jump\t// in\n    tag_127:\n        /* \"#utility.yul\":4876:4913   */\n    tag_126:\n        /* \"#utility.yul\":4726:4920   */\n      swap3\n      swap2\n      pop\n      pop\n      jump\t// out\n        /* \"#utility.yul\":4926:5044   */\n    tag_73:\n        /* \"#utility.yul\":5013:5037   */\n      tag_129\n        /* \"#utility.yul\":5031:5036   */\n      dup2\n        /* \"#utility.yul\":5013:5037   */\n      tag_63\n      jump\t// in\n    tag_129:\n        /* \"#utility.yul\":5008:5011   */\n      dup3\n        /* \"#utility.yul\":5001:5038   */\n      mstore\n        /* \"#utility.yul\":4926:5044   */\n      pop\n      pop\n      jump\t// out\n        /* \"#utility.yul\":5050:5382   */\n    tag_48:\n        /* \"#utility.yul\":5171:5175   */\n      0x00\n        /* \"#utility.yul\":5209:5211   */\n      0x40\n        /* \"#utility.yul\":5198:5207   */\n      dup3\n        /* \"#utility.yul\":5194:5212   */\n      add\n        /* \"#utility.yul\":5186:5212   */\n      swap1\n      pop\n        /* \"#utility.yul\":5222:5293   */\n      tag_131\n        /* \"#utility.yul\":5290:5291   */\n      0x00\n        /* \"#utility.yul\":5279:5288   */\n      dup4\n        /* \"#utility.yul\":5275:5292   */\n      add\n        /* \"#utility.yul\":5266:5272   */\n      dup6\n        /* \"#utility.yul\":5222:5293   */\n      tag_73\n      jump\t// in\n    tag_131:\n        /* \"#utility.yul\":5303:5375   */\n      tag_132\n        /* \"#utility.yul\":5371:5373   */\n      0x20\n        /* \"#utility.yul\":5360:5369   */\n      dup4\n        /* \"#utility.yul\":5356:5374   */\n      add\n        /* \"#utility.yul\":5347:5353   */\n      dup5\n        /* \"#utility.yul\":5303:5375   */\n      tag_67\n      jump\t// in\n    tag_132:\n        /* \"#utility.yul\":5050:5382   */\n      swap4\n      swap3\n      pop\n      pop\n      pop\n      jump\t// out\n        /* \"#utility.yul\":5388:5568   */\n    tag_55:\n        /* \"#utility.yul\":5436:5513   */\n      0x4e487b7100000000000000000000000000000000000000000000000000000000\n        /* \"#utility.yul\":5433:5434   */\n      0x00\n        /* \"#utility.yul\":5426:5514   */\n      mstore\n        /* \"#utility.yul\":5533:5537   */\n      0x01\n        /* \"#utility.yul\":5530:5531   */\n      0x04\n        /* \"#utility.yul\":5523:5538   */\n      mstore\n        /* \"#utility.yul\":5557:5561   */\n      0x24\n        /* \"#utility.yul\":5554:5555   */\n      0x00\n        /* \"#utility.yul\":5547:5562   */\n      revert\n\n    auxdata: 0xa2646970667358221220843b7fca057dd2e13353d2a3bc7c4dae318057749ffb7c9763ce6b0ea82ad93264736f6c63430008160033\n}\n",
				"bytecode": {
					"linkReferences": {},
					"object": "608060405234801561000f575f80fd5b506106f78061001d5f395ff3fe608060405260043610610042575f3560e01c80630103c92b146100bd5780631b9265b8146100f95780632e1a7d4d14610103578063ad7a672f1461012b57610082565b36610082576040517f1948a7bc00000000000000000000000000000000000000000000000000000000815260040161007990610436565b60405180910390fd5b6040517f1948a7bc0000000000000000000000000000000000000000000000000000000081526004016100b490610436565b60405180910390fd5b3480156100c8575f80fd5b506100e360048036038101906100de91906104b2565b610155565b6040516100f091906104f5565b60405180910390f35b61010161016a565b005b34801561010e575f80fd5b5061012960048036038101906101249190610538565b610236565b005b348015610136575f80fd5b5061013f6103d7565b60405161014c91906104f5565b60405180910390f35b6001602052805f5260405f205f915090505481565b345f8103610176575f80fd5b670de0b6b3a764000034146101c0576040517f08c379a00000000000000000000000000000000000000000000000000000000081526004016101b7906105ad565b60405180910390fd5b60015f808282546101d191906105f8565b92505081905550670de0b6b3a764000060015f3373ffffffffffffffffffffffffffffffffffffffff1673ffffffffffffffffffffffffffffffffffffffff1681526020019081526020015f205f82825461022c91906105f8565b9250508190555050565b805f8103610242575f80fd5b5f805490508260015f3373ffffffffffffffffffffffffffffffffffffffff1673ffffffffffffffffffffffffffffffffffffffff1681526020019081526020015f20541015610313573360015f3373ffffffffffffffffffffffffffffffffffffffff1673ffffffffffffffffffffffffffffffffffffffff1681526020019081526020015f2054846102d6919061062b565b6040517f74f0d8dc00000000000000000000000000000000000000000000000000000000815260040161030a92919061066d565b60405180910390fd5b825f80828254610323919061062b565b925050819055508260015f3373ffffffffffffffffffffffffffffffffffffffff1673ffffffffffffffffffffffffffffffffffffffff1681526020019081526020015f205f828254610376919061062b565b925050819055503373ffffffffffffffffffffffffffffffffffffffff166108fc8490811502906040515f60405180830381858888f193505050501580156103c0573d5f803e3d5ffd5b50805f54106103d2576103d1610694565b5b505050565b5f5481565b5f82825260208201905092915050565b7f4e6f20646972656374207061796d656e74732e000000000000000000000000005f82015250565b5f6104206013836103dc565b915061042b826103ec565b602082019050919050565b5f6020820190508181035f83015261044d81610414565b9050919050565b5f80fd5b5f73ffffffffffffffffffffffffffffffffffffffff82169050919050565b5f61048182610458565b9050919050565b61049181610477565b811461049b575f80fd5b50565b5f813590506104ac81610488565b92915050565b5f602082840312156104c7576104c6610454565b5b5f6104d48482850161049e565b91505092915050565b5f819050919050565b6104ef816104dd565b82525050565b5f6020820190506105085f8301846104e6565b92915050565b610517816104dd565b8114610521575f80fd5b50565b5f813590506105328161050e565b92915050565b5f6020828403121561054d5761054c610454565b5b5f61055a84828501610524565b91505092915050565b7f4f6e6c79207061796d656e747320696e203120657468657200000000000000005f82015250565b5f6105976018836103dc565b91506105a282610563565b602082019050919050565b5f6020820190508181035f8301526105c48161058b565b9050919050565b7f4e487b71000000000000000000000000000000000000000000000000000000005f52601160045260245ffd5b5f610602826104dd565b915061060d836104dd565b9250828201905080821115610625576106246105cb565b5b92915050565b5f610635826104dd565b9150610640836104dd565b9250828203905081811115610658576106576105cb565b5b92915050565b61066781610477565b82525050565b5f6040820190506106805f83018561065e565b61068d60208301846104e6565b9392505050565b7f4e487b71000000000000000000000000000000000000000000000000000000005f52600160045260245ffdfea2646970667358221220843b7fca057dd2e13353d2a3bc7c4dae318057749ffb7c9763ce6b0ea82ad93264736f6c63430008160033",
					"opcodes": "PUSH1 0x80 PUSH1 0x40 MSTORE CALLVALUE DUP1 ISZERO PUSH2 0xF JUMPI PUSH0 DUP1 REVERT JUMPDEST POP PUSH2 0x6F7 DUP1 PUSH2 0x1D PUSH0 CODECOPY PUSH0 RETURN INVALID PUSH1 0x80 PUSH1 0x40 MSTORE PUSH1 0x4 CALLDATASIZE LT PUSH2 0x42 JUMPI PUSH0 CALLDATALOAD PUSH1 0xE0 SHR DUP1 PUSH4 0x103C92B EQ PUSH2 0xBD JUMPI DUP1 PUSH4 0x1B9265B8 EQ PUSH2 0xF9 JUMPI DUP1 PUSH4 0x2E1A7D4D EQ PUSH2 0x103 JUMPI DUP1 PUSH4 0xAD7A672F EQ PUSH2 0x12B JUMPI PUSH2 0x82 JUMP JUMPDEST CALLDATASIZE PUSH2 0x82 JUMPI PUSH1 0x40 MLOAD PUSH32 0x1948A7BC00000000000000000000000000000000000000000000000000000000 DUP2 MSTORE PUSH1 0x4 ADD PUSH2 0x79 SWAP1 PUSH2 0x436 JUMP JUMPDEST PUSH1 0x40 MLOAD DUP1 SWAP2 SUB SWAP1 REVERT JUMPDEST PUSH1 0x40 MLOAD PUSH32 0x1948A7BC00000000000000000000000000000000000000000000000000000000 DUP2 MSTORE PUSH1 0x4 ADD PUSH2 0xB4 SWAP1 PUSH2 0x436 JUMP JUMPDEST PUSH1 0x40 MLOAD DUP1 SWAP2 SUB SWAP1 REVERT JUMPDEST CALLVALUE DUP1 ISZERO PUSH2 0xC8 JUMPI PUSH0 DUP1 REVERT JUMPDEST POP PUSH2 0xE3 PUSH1 0x4 DUP1 CALLDATASIZE SUB DUP2 ADD SWAP1 PUSH2 0xDE SWAP2 SWAP1 PUSH2 0x4B2 JUMP JUMPDEST PUSH2 0x155 JUMP JUMPDEST PUSH1 0x40 MLOAD PUSH2 0xF0 SWAP2 SWAP1 PUSH2 0x4F5 JUMP JUMPDEST PUSH1 0x40 MLOAD DUP1 SWAP2 SUB SWAP1 RETURN JUMPDEST PUSH2 0x101 PUSH2 0x16A JUMP JUMPDEST STOP JUMPDEST CALLVALUE DUP1 ISZERO PUSH2 0x10E JUMPI PUSH0 DUP1 REVERT JUMPDEST POP PUSH2 0x129 PUSH1 0x4 DUP1 CALLDATASIZE SUB DUP2 ADD SWAP1 PUSH2 0x124 SWAP2 SWAP1 PUSH2 0x538 JUMP JUMPDEST PUSH2 0x236 JUMP JUMPDEST STOP JUMPDEST CALLVALUE DUP1 ISZERO PUSH2 0x136 JUMPI PUSH0 DUP1 REVERT JUMPDEST POP PUSH2 0x13F PUSH2 0x3D7 JUMP JUMPDEST PUSH1 0x40 MLOAD PUSH2 0x14C SWAP2 SWAP1 PUSH2 0x4F5 JUMP JUMPDEST PUSH1 0x40 MLOAD DUP1 SWAP2 SUB SWAP1 RETURN JUMPDEST PUSH1 0x1 PUSH1 0x20 MSTORE DUP1 PUSH0 MSTORE PUSH1 0x40 PUSH0 KECCAK256 PUSH0 SWAP2 POP SWAP1 POP SLOAD DUP2 JUMP JUMPDEST CALLVALUE PUSH0 DUP2 SUB PUSH2 0x176 JUMPI PUSH0 DUP1 REVERT JUMPDEST PUSH8 0xDE0B6B3A7640000 CALLVALUE EQ PUSH2 0x1C0 JUMPI PUSH1 0x40 MLOAD PUSH32 0x8C379A000000000000000000000000000000000000000000000000000000000 DUP2 MSTORE PUSH1 0x4 ADD PUSH2 0x1B7 SWAP1 PUSH2 0x5AD JUMP JUMPDEST PUSH1 0x40 MLOAD DUP1 SWAP2 SUB SWAP1 REVERT JUMPDEST PUSH1 0x1 PUSH0 DUP1 DUP3 DUP3 SLOAD PUSH2 0x1D1 SWAP2 SWAP1 PUSH2 0x5F8 JUMP JUMPDEST SWAP3 POP POP DUP2 SWAP1 SSTORE POP PUSH8 0xDE0B6B3A7640000 PUSH1 0x1 PUSH0 CALLER PUSH20 0xFFFFFFFFFFFFFFFFFFFFFFFFFFFFFFFFFFFFFFFF AND PUSH20 0xFFFFFFFFFFFFFFFFFFFFFFFFFFFFFFFFFFFFFFFF AND DUP2 MSTORE PUSH1 0x20 ADD SWAP1 DUP2 MSTORE PUSH1 0x20 ADD PUSH0 KECCAK256 PUSH0 DUP3 DUP3 SLOAD PUSH2 0x22C SWAP2 SWAP1 PUSH2 0x5F8 JUMP JUMPDEST SWAP3 POP POP DUP2 SWAP1 SSTORE POP POP JUMP JUMPDEST DUP1 PUSH0 DUP2 SUB PUSH2 0x242 JUMPI PUSH0 DUP1 REVERT JUMPDEST PUSH0 DUP1 SLOAD SWAP1 POP DUP3 PUSH1 0x1 PUSH0 CALLER PUSH20 0xFFFFFFFFFFFFFFFFFFFFFFFFFFFFFFFFFFFFFFFF AND PUSH20 0xFFFFFFFFFFFFFFFFFFFFFFFFFFFFFFFFFFFFFFFF AND DUP2 MSTORE PUSH1 0x20 ADD SWAP1 DUP2 MSTORE PUSH1 0x20 ADD PUSH0 KECCAK256 SLOAD LT ISZERO PUSH2 0x313 JUMPI CALLER PUSH1 0x1 PUSH0 CALLER PUSH20 0xFFFFFFFFFFFFFFFFFFFFFFFFFFFFFFFFFFFFFFFF AND PUSH20 0xFFFFFFFFFFFFFFFFFFFFFFFFFFFFFFFFFFFFFFFF AND DUP2 MSTORE PUSH1 0x20 ADD SWAP1 DUP2 MSTORE PUSH1 0x20 ADD PUSH0 KECCAK256 SLOAD DUP5 PUSH2 0x2D6 SWAP2 SWAP1 PUSH2 0x62B JUMP JUMPDEST PUSH1 0x40 MLOAD PUSH32 0x74F0D8DC00000000000000000000000000000000000000000000000000000000 DUP2 MSTORE PUSH1 0x4 ADD PUSH2 0x30A SWAP3 SWAP2 SWAP1 PUSH2 0x66D JUMP JUMPDEST PUSH1 0x40 MLOAD DUP1 SWAP2 SUB SWAP1 REVERT JUMPDEST DUP3 PUSH0 DUP1 DUP3 DUP3 SLOAD PUSH2 0x323 SWAP2 SWAP1 PUSH2 0x62B JUMP JUMPDEST SWAP3 POP POP DUP2 SWAP1 SSTORE POP DUP3 PUSH1 0x1 PUSH0 CALLER PUSH20 0xFFFFFFFFFFFFFFFFFFFFFFFFFFFFFFFFFFFFFFFF AND PUSH20 0xFFFFFFFFFFFFFFFFFFFFFFFFFFFFFFFFFFFFFFFF AND DUP2 MSTORE PUSH1 0x20 ADD SWAP1 DUP2 MSTORE PUSH1 0x20 ADD PUSH0 KECCAK256 PUSH0 DUP3 DUP3 SLOAD PUSH2 0x376 SWAP2 SWAP1 PUSH2 0x62B JUMP JUMPDEST SWAP3 POP POP DUP2 SWAP1 SSTORE POP CALLER PUSH20 0xFFFFFFFFFFFFFFFFFFFFFFFFFFFFFFFFFFFFFFFF AND PUSH2 0x8FC DUP5 SWAP1 DUP2 ISZERO MUL SWAP1 PUSH1 0x40 MLOAD PUSH0 PUSH1 0x40 MLOAD DUP1 DUP4 SUB DUP2 DUP6 DUP9 DUP9 CALL SWAP4 POP POP POP POP ISZERO DUP1 ISZERO PUSH2 0x3C0 JUMPI RETURNDATASIZE PUSH0 DUP1 RETURNDATACOPY RETURNDATASIZE PUSH0 REVERT JUMPDEST POP DUP1 PUSH0 SLOAD LT PUSH2 0x3D2 JUMPI PUSH2 0x3D1 PUSH2 0x694 JUMP JUMPDEST JUMPDEST POP POP POP JUMP JUMPDEST PUSH0 SLOAD DUP2 JUMP JUMPDEST PUSH0 DUP3 DUP3 MSTORE PUSH1 0x20 DUP3 ADD SWAP1 POP SWAP3 SWAP2 POP POP JUMP JUMPDEST PUSH32 0x4E6F20646972656374207061796D656E74732E00000000000000000000000000 PUSH0 DUP3 ADD MSTORE POP JUMP JUMPDEST PUSH0 PUSH2 0x420 PUSH1 0x13 DUP4 PUSH2 0x3DC JUMP JUMPDEST SWAP2 POP PUSH2 0x42B DUP3 PUSH2 0x3EC JUMP JUMPDEST PUSH1 0x20 DUP3 ADD SWAP1 POP SWAP2 SWAP1 POP JUMP JUMPDEST PUSH0 PUSH1 0x20 DUP3 ADD SWAP1 POP DUP2 DUP2 SUB PUSH0 DUP4 ADD MSTORE PUSH2 0x44D DUP2 PUSH2 0x414 JUMP JUMPDEST SWAP1 POP SWAP2 SWAP1 POP JUMP JUMPDEST PUSH0 DUP1 REVERT JUMPDEST PUSH0 PUSH20 0xFFFFFFFFFFFFFFFFFFFFFFFFFFFFFFFFFFFFFFFF DUP3 AND SWAP1 POP SWAP2 SWAP1 POP JUMP JUMPDEST PUSH0 PUSH2 0x481 DUP3 PUSH2 0x458 JUMP JUMPDEST SWAP1 POP SWAP2 SWAP1 POP JUMP JUMPDEST PUSH2 0x491 DUP2 PUSH2 0x477 JUMP JUMPDEST DUP2 EQ PUSH2 0x49B JUMPI PUSH0 DUP1 REVERT JUMPDEST POP JUMP JUMPDEST PUSH0 DUP2 CALLDATALOAD SWAP1 POP PUSH2 0x4AC DUP2 PUSH2 0x488 JUMP JUMPDEST SWAP3 SWAP2 POP POP JUMP JUMPDEST PUSH0 PUSH1 0x20 DUP3 DUP5 SUB SLT ISZERO PUSH2 0x4C7 JUMPI PUSH2 0x4C6 PUSH2 0x454 JUMP JUMPDEST JUMPDEST PUSH0 PUSH2 0x4D4 DUP5 DUP3 DUP6 ADD PUSH2 0x49E JUMP JUMPDEST SWAP2 POP POP SWAP3 SWAP2 POP POP JUMP JUMPDEST PUSH0 DUP2 SWAP1 POP SWAP2 SWAP1 POP JUMP JUMPDEST PUSH2 0x4EF DUP2 PUSH2 0x4DD JUMP JUMPDEST DUP3 MSTORE POP POP JUMP JUMPDEST PUSH0 PUSH1 0x20 DUP3 ADD SWAP1 POP PUSH2 0x508 PUSH0 DUP4 ADD DUP5 PUSH2 0x4E6 JUMP JUMPDEST SWAP3 SWAP2 POP POP JUMP JUMPDEST PUSH2 0x517 DUP2 PUSH2 0x4DD JUMP JUMPDEST DUP2 EQ PUSH2 0x521 JUMPI PUSH0 DUP1 REVERT JUMPDEST POP JUMP JUMPDEST PUSH0 DUP2 CALLDATALOAD SWAP1 POP PUSH2 0x532 DUP2 PUSH2 0x50E JUMP JUMPDEST SWAP3 SWAP2 POP POP JUMP JUMPDEST PUSH0 PUSH1 0x20 DUP3 DUP5 SUB SLT ISZERO PUSH2 0x54D JUMPI PUSH2 0x54C PUSH2 0x454 JUMP JUMPDEST JUMPDEST PUSH0 PUSH2 0x55A DUP5 DUP3 DUP6 ADD PUSH2 0x524 JUMP JUMPDEST SWAP2 POP POP SWAP3 SWAP2 POP POP JUMP JUMPDEST PUSH32 0x4F6E6C79207061796D656E747320696E20312065746865720000000000000000 PUSH0 DUP3 ADD MSTORE POP JUMP JUMPDEST PUSH0 PUSH2 0x597 PUSH1 0x18 DUP4 PUSH2 0x3DC JUMP JUMPDEST SWAP2 POP PUSH2 0x5A2 DUP3 PUSH2 0x563 JUMP JUMPDEST PUSH1 0x20 DUP3 ADD SWAP1 POP SWAP2 SWAP1 POP JUMP JUMPDEST PUSH0 PUSH1 0x20 DUP3 ADD SWAP1 POP DUP2 DUP2 SUB PUSH0 DUP4 ADD MSTORE PUSH2 0x5C4 DUP2 PUSH2 0x58B JUMP JUMPDEST SWAP1 POP SWAP2 SWAP1 POP JUMP JUMPDEST PUSH32 0x4E487B7100000000000000000000000000000000000000000000000000000000 PUSH0 MSTORE PUSH1 0x11 PUSH1 0x4 MSTORE PUSH1 0x24 PUSH0 REVERT JUMPDEST PUSH0 PUSH2 0x602 DUP3 PUSH2 0x4DD JUMP JUMPDEST SWAP2 POP PUSH2 0x60D DUP4 PUSH2 0x4DD JUMP JUMPDEST SWAP3 POP DUP3 DUP3 ADD SWAP1 POP DUP1 DUP3 GT ISZERO PUSH2 0x625 JUMPI PUSH2 0x624 PUSH2 0x5CB JUMP JUMPDEST JUMPDEST SWAP3 SWAP2 POP POP JUMP JUMPDEST PUSH0 PUSH2 0x635 DUP3 PUSH2 0x4DD JUMP JUMPDEST SWAP2 POP PUSH2 0x640 DUP4 PUSH2 0x4DD JUMP JUMPDEST SWAP3 POP DUP3 DUP3 SUB SWAP1 POP DUP2 DUP2 GT ISZERO PUSH2 0x658 JUMPI PUSH2 0x657 PUSH2 0x5CB JUMP JUMPDEST JUMPDEST SWAP3 SWAP2 POP POP JUMP JUMPDEST PUSH2 0x667 DUP2 PUSH2 0x477 JUMP JUMPDEST DUP3 MSTORE POP POP JUMP JUMPDEST PUSH0 PUSH1 0x40 DUP3 ADD SWAP1 POP PUSH2 0x680 PUSH0 DUP4 ADD DUP6 PUSH2 0x65E JUMP JUMPDEST PUSH2 0x68D PUSH1 0x20 DUP4 ADD DUP5 PUSH2 0x4E6 JUMP JUMPDEST SWAP4 SWAP3 POP POP POP JUMP JUMPDEST PUSH32 0x4E487B7100000000000000000000000000000000000000000000000000000000 PUSH0 MSTORE PUSH1 0x1 PUSH1 0x4 MSTORE PUSH1 0x24 PUSH0 REVERT INVALID LOG2 PUSH5 0x6970667358 0x22 SLT KECCAK256 DUP5 EXTCODESIZE PUSH32 0xCA057DD2E13353D2A3BC7C4DAE318057749FFB7C9763CE6B0EA82AD93264736F PUSH13 0x63430008160033000000000000 "
				},
				"gasEstimates": {
					"creation": {
						"codeDepositCost": "356600",
						"executionCost": "391",
						"totalCost": "356991"
					},
					"external": {
						"": "444",
						"pay()": "infinite",
						"totalBalance()": "2468",
						"userBalance(address)": "2780",
						"withdraw(uint256)": "infinite"
					}
				},
				"methodIdentifiers": {
					"pay()": "1b9265b8",
					"totalBalance()": "ad7a672f",
					"userBalance(address)": "0103c92b",
					"withdraw(uint256)": "2e1a7d4d"
				}
			},
			"storageLayout": {
				"storage": [
					{
						"astId": 3,
						"contract": "contracts/errors.sol:Errors",
						"label": "totalBalance",
						"offset": 0,
						"slot": "0",
						"type": "t_uint256"
					},
					{
						"astId": 7,
						"contract": "contracts/errors.sol:Errors",
						"label": "userBalance",
						"offset": 0,
						"slot": "1",
						"type": "t_mapping(t_address,t_uint256)"
					}
				],
				"types": {
					"t_address": {
						"encoding": "inplace",
						"label": "address",
						"numberOfBytes": "20"
					},
					"t_mapping(t_address,t_uint256)": {
						"encoding": "mapping",
						"key": "t_address",
						"label": "mapping(address => uint256)",
						"numberOfBytes": "32",
						"value": "t_uint256"
					},
					"t_uint256": {
						"encoding": "inplace",
						"label": "uint256",
						"numberOfBytes": "32"
					}
				}
			},
			"userdoc": {
				"kind": "user",
				"methods": {},
				"version": 1
			}
		}
	}
}