{
	"contracts/StructEnum.sol": {
		"StructEnum": {
			"abi": [
				{
					"inputs": [],
					"stateMutability": "nonpayable",
					"type": "constructor"
				},
				{
					"inputs": [
						{
							"internalType": "uint256",
							"name": "_orderId",
							"type": "uint256"
						}
					],
					"name": "advencerOrder",
					"outputs": [],
					"stateMutability": "nonpayable",
					"type": "function"
				},
				{
					"inputs": [
						{
							"internalType": "string",
							"name": "_zipCode",
							"type": "string"
						},
						{
							"internalType": "uint256[]",
							"name": "_products",
							"type": "uint256[]"
						}
					],
					"name": "creatOrder",
					"outputs": [
						{
							"internalType": "uint256",
							"name": "",
							"type": "uint256"
						}
					],
					"stateMutability": "nonpayable",
					"type": "function"
				},
				{
					"inputs": [
						{
							"internalType": "uint256",
							"name": "_orderId",
							"type": "uint256"
						}
					],
					"name": "getOrder",
					"outputs": [
						{
							"components": [
								{
									"internalType": "address",
									"name": "customer",
									"type": "address"
								},
								{
									"internalType": "string",
									"name": "zipCode",
									"type": "string"
								},
								{
									"internalType": "uint256[]",
									"name": "product",
									"type": "uint256[]"
								},
								{
									"internalType": "enum StructEnum.Status",
									"name": "status",
									"type": "uint8"
								}
							],
							"internalType": "struct StructEnum.Order",
							"name": "",
							"type": "tuple"
						}
					],
					"stateMutability": "view",
					"type": "function"
				},
				{
					"inputs": [
						{
							"internalType": "uint256",
							"name": "",
							"type": "uint256"
						}
					],
					"name": "orders",
					"outputs": [
						{
							"internalType": "address",
							"name": "customer",
							"type": "address"
						},
						{
							"internalType": "string",
							"name": "zipCode",
							"type": "string"
						},
						{
							"internalType": "enum StructEnum.Status",
							"name": "status",
							"type": "uint8"
						}
					],
					"stateMutability": "view",
					"type": "function"
				},
				{
					"inputs": [],
					"name": "owner",
					"outputs": [
						{
							"internalType": "address",
							"name": "",
							"type": "address"
						}
					],
					"stateMutability": "view",
					"type": "function"
				},
				{
					"inputs": [
						{
							"internalType": "uint256",
							"name": "_orderId",
							"type": "uint256"
						},
						{
							"internalType": "string",
							"name": "_zip",
							"type": "string"
						}
					],
					"name": "updateZip",
					"outputs": [],
					"stateMutability": "nonpayable",
					"type": "function"
				}
			],
			"devdoc": {
				"kind": "dev",
				"methods": {},
				"version": 1
			},
			"evm": {
				"assembly": "    /* \"contracts/StructEnum.sol\":60:2317  contract StructEnum{... */\n  mstore(0x40, 0x80)\n    /* \"contracts/StructEnum.sol\":385:435  constructor(){... */\n  callvalue\n  dup1\n  iszero\n  tag_1\n  jumpi\n  0x00\n  dup1\n  revert\ntag_1:\n  pop\n    /* \"contracts/StructEnum.sol\":417:427  msg.sender */\n  caller\n    /* \"contracts/StructEnum.sol\":409:414  owner */\n  0x01\n  0x00\n    /* \"contracts/StructEnum.sol\":409:427  owner = msg.sender */\n  0x0100\n  exp\n  dup2\n  sload\n  dup2\n  0xffffffffffffffffffffffffffffffffffffffff\n  mul\n  not\n  and\n  swap1\n  dup4\n  0xffffffffffffffffffffffffffffffffffffffff\n  and\n  mul\n  or\n  swap1\n  sstore\n  pop\n    /* \"contracts/StructEnum.sol\":60:2317  contract StructEnum{... */\n  dataSize(sub_0)\n  dup1\n  dataOffset(sub_0)\n  0x00\n  codecopy\n  0x00\n  return\nstop\n\nsub_0: assembly {\n        /* \"contracts/StructEnum.sol\":60:2317  contract StructEnum{... */\n      mstore(0x40, 0x80)\n      callvalue\n      dup1\n      iszero\n      tag_1\n      jumpi\n      0x00\n      dup1\n      revert\n    tag_1:\n      pop\n      jumpi(tag_2, lt(calldatasize, 0x04))\n      shr(0xe0, calldataload(0x00))\n      dup1\n      0x577dc0a0\n      eq\n      tag_3\n      jumpi\n      dup1\n      0x8da5cb5b\n      eq\n      tag_4\n      jumpi\n      dup1\n      0xa85c38ef\n      eq\n      tag_5\n      jumpi\n      dup1\n      0xb147135d\n      eq\n      tag_6\n      jumpi\n      dup1\n      0xd09ef241\n      eq\n      tag_7\n      jumpi\n      dup1\n      0xf68d22d6\n      eq\n      tag_8\n      jumpi\n    tag_2:\n      0x00\n      dup1\n      revert\n        /* \"contracts/StructEnum.sol\":2015:2312  function updateZip(uint256 _orderId, string memory _zip) external  {... */\n    tag_3:\n      tag_9\n      0x04\n      dup1\n      calldatasize\n      sub\n      dup2\n      add\n      swap1\n      tag_10\n      swap2\n      swap1\n      tag_11\n      jump\t// in\n    tag_10:\n      tag_12\n      jump\t// in\n    tag_9:\n      stop\n        /* \"contracts/StructEnum.sol\":356:376  address public owner */\n    tag_4:\n      tag_13\n      tag_14\n      jump\t// in\n    tag_13:\n      mload(0x40)\n      tag_15\n      swap2\n      swap1\n      tag_16\n      jump\t// in\n    tag_15:\n      mload(0x40)\n      dup1\n      swap2\n      sub\n      swap1\n      return\n        /* \"contracts/StructEnum.sol\":326:347  Order[] public orders */\n    tag_5:\n      tag_17\n      0x04\n      dup1\n      calldatasize\n      sub\n      dup2\n      add\n      swap1\n      tag_18\n      swap2\n      swap1\n      tag_19\n      jump\t// in\n    tag_18:\n      tag_20\n      jump\t// in\n    tag_17:\n      mload(0x40)\n      tag_21\n      swap4\n      swap3\n      swap2\n      swap1\n      tag_22\n      jump\t// in\n    tag_21:\n      mload(0x40)\n      dup1\n      swap2\n      sub\n      swap1\n      return\n        /* \"contracts/StructEnum.sol\":443:1189  function creatOrder(string memory _zipCode, uint256[] memory _products) external  returns (uint256){... */\n    tag_6:\n      tag_23\n      0x04\n      dup1\n      calldatasize\n      sub\n      dup2\n      add\n      swap1\n      tag_24\n      swap2\n      swap1\n      tag_25\n      jump\t// in\n    tag_24:\n      tag_26\n      jump\t// in\n    tag_23:\n      mload(0x40)\n      tag_27\n      swap2\n      swap1\n      tag_28\n      jump\t// in\n    tag_27:\n      mload(0x40)\n      dup1\n      swap2\n      sub\n      swap1\n      return\n        /* \"contracts/StructEnum.sol\":1822:2009  function getOrder(uint256 _orderId) external  view returns (Order memory){... */\n    tag_7:\n      tag_29\n      0x04\n      dup1\n      calldatasize\n      sub\n      dup2\n      add\n      swap1\n      tag_30\n      swap2\n      swap1\n      tag_19\n      jump\t// in\n    tag_30:\n      tag_31\n      jump\t// in\n    tag_29:\n      mload(0x40)\n      tag_32\n      swap2\n      swap1\n      tag_33\n      jump\t// in\n    tag_32:\n      mload(0x40)\n      dup1\n      swap2\n      sub\n      swap1\n      return\n        /* \"contracts/StructEnum.sol\":1196:1816  function advencerOrder(uint256 _orderId) external    {... */\n    tag_8:\n      tag_34\n      0x04\n      dup1\n      calldatasize\n      sub\n      dup2\n      add\n      swap1\n      tag_35\n      swap2\n      swap1\n      tag_19\n      jump\t// in\n    tag_35:\n      tag_36\n      jump\t// in\n    tag_34:\n      stop\n        /* \"contracts/StructEnum.sol\":2015:2312  function updateZip(uint256 _orderId, string memory _zip) external  {... */\n    tag_12:\n        /* \"contracts/StructEnum.sol\":2112:2118  orders */\n      0x00\n        /* \"contracts/StructEnum.sol\":2112:2125  orders.length */\n      dup1\n      sload\n      swap1\n      pop\n        /* \"contracts/StructEnum.sol\":2101:2109  _orderId */\n      dup3\n        /* \"contracts/StructEnum.sol\":2101:2125  _orderId < orders.length */\n      lt\n        /* \"contracts/StructEnum.sol\":2093:2150  require(_orderId < orders.length, \"Not a valid order id\") */\n      tag_38\n      jumpi\n      mload(0x40)\n      0x08c379a000000000000000000000000000000000000000000000000000000000\n      dup2\n      mstore\n      0x04\n      add\n      tag_39\n      swap1\n      tag_40\n      jump\t// in\n    tag_39:\n      mload(0x40)\n      dup1\n      swap2\n      sub\n      swap1\n      revert\n    tag_38:\n        /* \"contracts/StructEnum.sol\":2161:2180  Order storage order */\n      0x00\n        /* \"contracts/StructEnum.sol\":2183:2189  orders */\n      dup1\n        /* \"contracts/StructEnum.sol\":2190:2198  _orderId */\n      dup4\n        /* \"contracts/StructEnum.sol\":2183:2199  orders[_orderId] */\n      dup2\n      sload\n      dup2\n      lt\n      tag_41\n      jumpi\n      tag_42\n      tag_43\n      jump\t// in\n    tag_42:\n    tag_41:\n      swap1\n      0x00\n      mstore\n      keccak256(0x00, 0x20)\n      swap1\n      0x04\n      mul\n      add\n        /* \"contracts/StructEnum.sol\":2161:2199  Order storage order = orders[_orderId] */\n      swap1\n      pop\n        /* \"contracts/StructEnum.sol\":2236:2246  msg.sender */\n      caller\n        /* \"contracts/StructEnum.sol\":2218:2246  order.customer == msg.sender */\n      0xffffffffffffffffffffffffffffffffffffffff\n      and\n        /* \"contracts/StructEnum.sol\":2218:2223  order */\n      dup2\n        /* \"contracts/StructEnum.sol\":2218:2232  order.customer */\n      0x00\n      add\n      0x00\n      swap1\n      sload\n      swap1\n      0x0100\n      exp\n      swap1\n      div\n      0xffffffffffffffffffffffffffffffffffffffff\n      and\n        /* \"contracts/StructEnum.sol\":2218:2246  order.customer == msg.sender */\n      0xffffffffffffffffffffffffffffffffffffffff\n      and\n      eq\n        /* \"contracts/StructEnum.sol\":2210:2273  require(order.customer == msg.sender, \" you are not the owner\") */\n      tag_45\n      jumpi\n      mload(0x40)\n      0x08c379a000000000000000000000000000000000000000000000000000000000\n      dup2\n      mstore\n      0x04\n      add\n      tag_46\n      swap1\n      tag_47\n      jump\t// in\n    tag_46:\n      mload(0x40)\n      dup1\n      swap2\n      sub\n      swap1\n      revert\n    tag_45:\n        /* \"contracts/StructEnum.sol\":2300:2304  _zip */\n      dup2\n        /* \"contracts/StructEnum.sol\":2284:2289  order */\n      dup2\n        /* \"contracts/StructEnum.sol\":2284:2297  order.zipCode */\n      0x01\n      add\n        /* \"contracts/StructEnum.sol\":2284:2304  order.zipCode = _zip */\n      swap1\n      dup2\n      tag_48\n      swap2\n      swap1\n      tag_49\n      jump\t// in\n    tag_48:\n      pop\n        /* \"contracts/StructEnum.sol\":2082:2312  {... */\n      pop\n        /* \"contracts/StructEnum.sol\":2015:2312  function updateZip(uint256 _orderId, string memory _zip) external  {... */\n      pop\n      pop\n      jump\t// out\n        /* \"contracts/StructEnum.sol\":356:376  address public owner */\n    tag_14:\n      0x01\n      0x00\n      swap1\n      sload\n      swap1\n      0x0100\n      exp\n      swap1\n      div\n      0xffffffffffffffffffffffffffffffffffffffff\n      and\n      dup2\n      jump\t// out\n        /* \"contracts/StructEnum.sol\":326:347  Order[] public orders */\n    tag_20:\n      0x00\n      dup2\n      dup2\n      sload\n      dup2\n      lt\n      tag_50\n      jumpi\n      0x00\n      dup1\n      revert\n    tag_50:\n      swap1\n      0x00\n      mstore\n      keccak256(0x00, 0x20)\n      swap1\n      0x04\n      mul\n      add\n      0x00\n      swap2\n      pop\n      swap1\n      pop\n      dup1\n      0x00\n      add\n      0x00\n      swap1\n      sload\n      swap1\n      0x0100\n      exp\n      swap1\n      div\n      0xffffffffffffffffffffffffffffffffffffffff\n      and\n      swap1\n      dup1\n      0x01\n      add\n      dup1\n      sload\n      tag_52\n      swap1\n      tag_53\n      jump\t// in\n    tag_52:\n      dup1\n      0x1f\n      add\n      0x20\n      dup1\n      swap2\n      div\n      mul\n      0x20\n      add\n      mload(0x40)\n      swap1\n      dup2\n      add\n      0x40\n      mstore\n      dup1\n      swap3\n      swap2\n      swap1\n      dup2\n      dup2\n      mstore\n      0x20\n      add\n      dup3\n      dup1\n      sload\n      tag_54\n      swap1\n      tag_53\n      jump\t// in\n    tag_54:\n      dup1\n      iszero\n      tag_55\n      jumpi\n      dup1\n      0x1f\n      lt\n      tag_56\n      jumpi\n      0x0100\n      dup1\n      dup4\n      sload\n      div\n      mul\n      dup4\n      mstore\n      swap2\n      0x20\n      add\n      swap2\n      jump(tag_55)\n    tag_56:\n      dup3\n      add\n      swap2\n      swap1\n      0x00\n      mstore\n      keccak256(0x00, 0x20)\n      swap1\n    tag_57:\n      dup2\n      sload\n      dup2\n      mstore\n      swap1\n      0x01\n      add\n      swap1\n      0x20\n      add\n      dup1\n      dup4\n      gt\n      tag_57\n      jumpi\n      dup3\n      swap1\n      sub\n      0x1f\n      and\n      dup3\n      add\n      swap2\n    tag_55:\n      pop\n      pop\n      pop\n      pop\n      pop\n      swap1\n      dup1\n      0x03\n      add\n      0x00\n      swap1\n      sload\n      swap1\n      0x0100\n      exp\n      swap1\n      div\n      0xff\n      and\n      swap1\n      pop\n      dup4\n      jump\t// out\n        /* \"contracts/StructEnum.sol\":443:1189  function creatOrder(string memory _zipCode, uint256[] memory _products) external  returns (uint256){... */\n    tag_26:\n        /* \"contracts/StructEnum.sol\":534:541  uint256 */\n      0x00\n        /* \"contracts/StructEnum.sol\":580:581  0 */\n      dup1\n        /* \"contracts/StructEnum.sol\":561:570  _products */\n      dup3\n        /* \"contracts/StructEnum.sol\":561:577  _products.length */\n      mload\n        /* \"contracts/StructEnum.sol\":561:581  _products.length > 0 */\n      gt\n        /* \"contracts/StructEnum.sol\":553:598  require(_products.length > 0 , \"No products\") */\n      tag_59\n      jumpi\n      mload(0x40)\n      0x08c379a000000000000000000000000000000000000000000000000000000000\n      dup2\n      mstore\n      0x04\n      add\n      tag_60\n      swap1\n      tag_61\n      jump\t// in\n    tag_60:\n      mload(0x40)\n      dup1\n      swap2\n      sub\n      swap1\n      revert\n    tag_59:\n        /* \"contracts/StructEnum.sol\":611:629  Order memory order */\n      tag_62\n      tag_63\n      jump\t// in\n    tag_62:\n        /* \"contracts/StructEnum.sol\":657:667  msg.sender */\n      caller\n        /* \"contracts/StructEnum.sol\":640:645  order */\n      dup2\n        /* \"contracts/StructEnum.sol\":640:654  order.customer */\n      0x00\n      add\n        /* \"contracts/StructEnum.sol\":640:667  order.customer = msg.sender */\n      swap1\n      0xffffffffffffffffffffffffffffffffffffffff\n      and\n      swap1\n      dup2\n      0xffffffffffffffffffffffffffffffffffffffff\n      and\n      dup2\n      mstore\n      pop\n      pop\n        /* \"contracts/StructEnum.sol\":695:703  _zipCode */\n      dup4\n        /* \"contracts/StructEnum.sol\":678:683  order */\n      dup2\n        /* \"contracts/StructEnum.sol\":678:691  order.zipCode */\n      0x20\n      add\n        /* \"contracts/StructEnum.sol\":678:703  order.zipCode  = _zipCode */\n      dup2\n      swap1\n      mstore\n      pop\n        /* \"contracts/StructEnum.sol\":731:740  _products */\n      dup3\n        /* \"contracts/StructEnum.sol\":714:719  order */\n      dup2\n        /* \"contracts/StructEnum.sol\":714:727  order.product */\n      0x40\n      add\n        /* \"contracts/StructEnum.sol\":714:740  order.product  = _products */\n      dup2\n      swap1\n      mstore\n      pop\n        /* \"contracts/StructEnum.sol\":768:780  Status.Taken */\n      0x00\n        /* \"contracts/StructEnum.sol\":751:756  order */\n      dup2\n        /* \"contracts/StructEnum.sol\":751:763  order.status */\n      0x60\n      add\n        /* \"contracts/StructEnum.sol\":751:780  order.status   = Status.Taken */\n      swap1\n      0x03\n      dup2\n      gt\n      iszero\n      tag_64\n      jumpi\n      tag_65\n      tag_66\n      jump\t// in\n    tag_65:\n    tag_64:\n      swap1\n      dup2\n      0x03\n      dup2\n      gt\n      iszero\n      tag_67\n      jumpi\n      tag_68\n      tag_66\n      jump\t// in\n    tag_68:\n    tag_67:\n      dup2\n      mstore\n      pop\n      pop\n        /* \"contracts/StructEnum.sol\":791:797  orders */\n      0x00\n        /* \"contracts/StructEnum.sol\":803:808  order */\n      dup2\n        /* \"contracts/StructEnum.sol\":791:809  orders.push(order) */\n      swap1\n      dup1\n      0x01\n      dup2\n      sload\n      add\n      dup1\n      dup3\n      sstore\n      dup1\n      swap2\n      pop\n      pop\n      0x01\n      swap1\n      sub\n      swap1\n      0x00\n      mstore\n      keccak256(0x00, 0x20)\n      swap1\n      0x04\n      mul\n      add\n      0x00\n      swap1\n      swap2\n      swap1\n      swap2\n      swap1\n      swap2\n      pop\n      0x00\n      dup3\n      add\n      mload\n      dup2\n      0x00\n      add\n      exp(0x0100, 0x00)\n      dup2\n      sload\n      dup2\n      0xffffffffffffffffffffffffffffffffffffffff\n      mul\n      not\n      and\n      swap1\n      dup4\n      0xffffffffffffffffffffffffffffffffffffffff\n      and\n      mul\n      or\n      swap1\n      sstore\n      pop\n      0x20\n      dup3\n      add\n      mload\n      dup2\n      0x01\n      add\n      swap1\n      dup2\n      tag_70\n      swap2\n      swap1\n      tag_49\n      jump\t// in\n    tag_70:\n      pop\n      0x40\n      dup3\n      add\n      mload\n      dup2\n      0x02\n      add\n      swap1\n      dup1\n      mload\n      swap1\n      0x20\n      add\n      swap1\n      tag_71\n      swap3\n      swap2\n      swap1\n      tag_72\n      jump\t// in\n    tag_71:\n      pop\n      0x60\n      dup3\n      add\n      mload\n      dup2\n      0x03\n      add\n      exp(0x0100, 0x00)\n      dup2\n      sload\n      dup2\n      0xff\n      mul\n      not\n      and\n      swap1\n      dup4\n      0x03\n      dup2\n      gt\n      iszero\n      tag_73\n      jumpi\n      tag_74\n      tag_66\n      jump\t// in\n    tag_74:\n    tag_73:\n      mul\n      or\n      swap1\n      sstore\n      pop\n      pop\n      pop\n        /* \"contracts/StructEnum.sol\":1179:1180  1 */\n      0x01\n        /* \"contracts/StructEnum.sol\":1164:1170  orders */\n      0x00\n        /* \"contracts/StructEnum.sol\":1164:1177  orders.length */\n      dup1\n      sload\n      swap1\n      pop\n        /* \"contracts/StructEnum.sol\":1164:1180  orders.length -1 */\n      tag_75\n      swap2\n      swap1\n      tag_76\n      jump\t// in\n    tag_75:\n        /* \"contracts/StructEnum.sol\":1157:1180  return orders.length -1 */\n      swap2\n      pop\n      pop\n        /* \"contracts/StructEnum.sol\":443:1189  function creatOrder(string memory _zipCode, uint256[] memory _products) external  returns (uint256){... */\n      swap3\n      swap2\n      pop\n      pop\n      jump\t// out\n        /* \"contracts/StructEnum.sol\":1822:2009  function getOrder(uint256 _orderId) external  view returns (Order memory){... */\n    tag_31:\n        /* \"contracts/StructEnum.sol\":1882:1894  Order memory */\n      tag_77\n      tag_63\n      jump\t// in\n    tag_77:\n        /* \"contracts/StructEnum.sol\":1927:1933  orders */\n      0x00\n        /* \"contracts/StructEnum.sol\":1927:1940  orders.length */\n      dup1\n      sload\n      swap1\n      pop\n        /* \"contracts/StructEnum.sol\":1916:1924  _orderId */\n      dup3\n        /* \"contracts/StructEnum.sol\":1916:1940  _orderId < orders.length */\n      lt\n        /* \"contracts/StructEnum.sol\":1908:1965  require(_orderId < orders.length, \"Not a valid order id\") */\n      tag_79\n      jumpi\n      mload(0x40)\n      0x08c379a000000000000000000000000000000000000000000000000000000000\n      dup2\n      mstore\n      0x04\n      add\n      tag_80\n      swap1\n      tag_40\n      jump\t// in\n    tag_80:\n      mload(0x40)\n      dup1\n      swap2\n      sub\n      swap1\n      revert\n    tag_79:\n        /* \"contracts/StructEnum.sol\":1983:1989  orders */\n      0x00\n        /* \"contracts/StructEnum.sol\":1990:1998  _orderId */\n      dup3\n        /* \"contracts/StructEnum.sol\":1983:1999  orders[_orderId] */\n      dup2\n      sload\n      dup2\n      lt\n      tag_81\n      jumpi\n      tag_82\n      tag_43\n      jump\t// in\n    tag_82:\n    tag_81:\n      swap1\n      0x00\n      mstore\n      keccak256(0x00, 0x20)\n      swap1\n      0x04\n      mul\n      add\n        /* \"contracts/StructEnum.sol\":1976:1999  return orders[_orderId] */\n      mload(0x40)\n      dup1\n      0x80\n      add\n      0x40\n      mstore\n      swap1\n      dup2\n      0x00\n      dup3\n      add\n      0x00\n      swap1\n      sload\n      swap1\n      0x0100\n      exp\n      swap1\n      div\n      0xffffffffffffffffffffffffffffffffffffffff\n      and\n      0xffffffffffffffffffffffffffffffffffffffff\n      and\n      0xffffffffffffffffffffffffffffffffffffffff\n      and\n      dup2\n      mstore\n      0x20\n      add\n      0x01\n      dup3\n      add\n      dup1\n      sload\n      tag_84\n      swap1\n      tag_53\n      jump\t// in\n    tag_84:\n      dup1\n      0x1f\n      add\n      0x20\n      dup1\n      swap2\n      div\n      mul\n      0x20\n      add\n      mload(0x40)\n      swap1\n      dup2\n      add\n      0x40\n      mstore\n      dup1\n      swap3\n      swap2\n      swap1\n      dup2\n      dup2\n      mstore\n      0x20\n      add\n      dup3\n      dup1\n      sload\n      tag_85\n      swap1\n      tag_53\n      jump\t// in\n    tag_85:\n      dup1\n      iszero\n      tag_86\n      jumpi\n      dup1\n      0x1f\n      lt\n      tag_87\n      jumpi\n      0x0100\n      dup1\n      dup4\n      sload\n      div\n      mul\n      dup4\n      mstore\n      swap2\n      0x20\n      add\n      swap2\n      jump(tag_86)\n    tag_87:\n      dup3\n      add\n      swap2\n      swap1\n      0x00\n      mstore\n      keccak256(0x00, 0x20)\n      swap1\n    tag_88:\n      dup2\n      sload\n      dup2\n      mstore\n      swap1\n      0x01\n      add\n      swap1\n      0x20\n      add\n      dup1\n      dup4\n      gt\n      tag_88\n      jumpi\n      dup3\n      swap1\n      sub\n      0x1f\n      and\n      dup3\n      add\n      swap2\n    tag_86:\n      pop\n      pop\n      pop\n      pop\n      pop\n      dup2\n      mstore\n      0x20\n      add\n      0x02\n      dup3\n      add\n      dup1\n      sload\n      dup1\n      0x20\n      mul\n      0x20\n      add\n      mload(0x40)\n      swap1\n      dup2\n      add\n      0x40\n      mstore\n      dup1\n      swap3\n      swap2\n      swap1\n      dup2\n      dup2\n      mstore\n      0x20\n      add\n      dup3\n      dup1\n      sload\n      dup1\n      iszero\n      tag_89\n      jumpi\n      0x20\n      mul\n      dup3\n      add\n      swap2\n      swap1\n      0x00\n      mstore\n      keccak256(0x00, 0x20)\n      swap1\n    tag_90:\n      dup2\n      sload\n      dup2\n      mstore\n      0x20\n      add\n      swap1\n      0x01\n      add\n      swap1\n      dup1\n      dup4\n      gt\n      tag_90\n      jumpi\n    tag_89:\n      pop\n      pop\n      pop\n      pop\n      pop\n      dup2\n      mstore\n      0x20\n      add\n      0x03\n      dup3\n      add\n      0x00\n      swap1\n      sload\n      swap1\n      0x0100\n      exp\n      swap1\n      div\n      0xff\n      and\n      0x03\n      dup2\n      gt\n      iszero\n      tag_91\n      jumpi\n      tag_92\n      tag_66\n      jump\t// in\n    tag_92:\n    tag_91:\n      0x03\n      dup2\n      gt\n      iszero\n      tag_93\n      jumpi\n      tag_94\n      tag_66\n      jump\t// in\n    tag_94:\n    tag_93:\n      dup2\n      mstore\n      pop\n      pop\n      swap1\n      pop\n        /* \"contracts/StructEnum.sol\":1822:2009  function getOrder(uint256 _orderId) external  view returns (Order memory){... */\n      swap2\n      swap1\n      pop\n      jump\t// out\n        /* \"contracts/StructEnum.sol\":1196:1816  function advencerOrder(uint256 _orderId) external    {... */\n    tag_36:\n        /* \"contracts/StructEnum.sol\":1279:1289  msg.sender */\n      caller\n        /* \"contracts/StructEnum.sol\":1270:1289  owner == msg.sender */\n      0xffffffffffffffffffffffffffffffffffffffff\n      and\n        /* \"contracts/StructEnum.sol\":1270:1275  owner */\n      0x01\n      0x00\n      swap1\n      sload\n      swap1\n      0x0100\n      exp\n      swap1\n      div\n      0xffffffffffffffffffffffffffffffffffffffff\n      and\n        /* \"contracts/StructEnum.sol\":1270:1289  owner == msg.sender */\n      0xffffffffffffffffffffffffffffffffffffffff\n      and\n      eq\n        /* \"contracts/StructEnum.sol\":1262:1317  require(owner == msg.sender, \" you are not authorized\") */\n      tag_96\n      jumpi\n      mload(0x40)\n      0x08c379a000000000000000000000000000000000000000000000000000000000\n      dup2\n      mstore\n      0x04\n      add\n      tag_97\n      swap1\n      tag_98\n      jump\t// in\n    tag_97:\n      mload(0x40)\n      dup1\n      swap2\n      sub\n      swap1\n      revert\n    tag_96:\n        /* \"contracts/StructEnum.sol\":1347:1353  orders */\n      0x00\n        /* \"contracts/StructEnum.sol\":1347:1360  orders.length */\n      dup1\n      sload\n      swap1\n      pop\n        /* \"contracts/StructEnum.sol\":1336:1344  _orderId */\n      dup2\n        /* \"contracts/StructEnum.sol\":1336:1360  _orderId < orders.length */\n      lt\n        /* \"contracts/StructEnum.sol\":1328:1385  require(_orderId < orders.length, \"Not a valid order id\") */\n      tag_99\n      jumpi\n      mload(0x40)\n      0x08c379a000000000000000000000000000000000000000000000000000000000\n      dup2\n      mstore\n      0x04\n      add\n      tag_100\n      swap1\n      tag_40\n      jump\t// in\n    tag_100:\n      mload(0x40)\n      dup1\n      swap2\n      sub\n      swap1\n      revert\n    tag_99:\n        /* \"contracts/StructEnum.sol\":1398:1417  Order storage order */\n      0x00\n        /* \"contracts/StructEnum.sol\":1420:1426  orders */\n      dup1\n        /* \"contracts/StructEnum.sol\":1427:1435  _orderId */\n      dup3\n        /* \"contracts/StructEnum.sol\":1420:1436  orders[_orderId] */\n      dup2\n      sload\n      dup2\n      lt\n      tag_101\n      jumpi\n      tag_102\n      tag_43\n      jump\t// in\n    tag_102:\n    tag_101:\n      swap1\n      0x00\n      mstore\n      keccak256(0x00, 0x20)\n      swap1\n      0x04\n      mul\n      add\n        /* \"contracts/StructEnum.sol\":1398:1436  Order storage order = orders[_orderId] */\n      swap1\n      pop\n        /* \"contracts/StructEnum.sol\":1471:1485  Status.Shipped */\n      0x03\n        /* \"contracts/StructEnum.sol\":1455:1485  order.status != Status.Shipped */\n      dup1\n      dup2\n      gt\n      iszero\n      tag_104\n      jumpi\n      tag_105\n      tag_66\n      jump\t// in\n    tag_105:\n    tag_104:\n        /* \"contracts/StructEnum.sol\":1455:1460  order */\n      dup2\n        /* \"contracts/StructEnum.sol\":1455:1467  order.status */\n      0x03\n      add\n      0x00\n      swap1\n      sload\n      swap1\n      0x0100\n      exp\n      swap1\n      div\n      0xff\n      and\n        /* \"contracts/StructEnum.sol\":1455:1485  order.status != Status.Shipped */\n      0x03\n      dup2\n      gt\n      iszero\n      tag_106\n      jumpi\n      tag_107\n      tag_66\n      jump\t// in\n    tag_107:\n    tag_106:\n      sub\n        /* \"contracts/StructEnum.sol\":1447:1514  require(order.status != Status.Shipped, \"Order is already shipped\") */\n      tag_108\n      jumpi\n      mload(0x40)\n      0x08c379a000000000000000000000000000000000000000000000000000000000\n      dup2\n      mstore\n      0x04\n      add\n      tag_109\n      swap1\n      tag_110\n      jump\t// in\n    tag_109:\n      mload(0x40)\n      dup1\n      swap2\n      sub\n      swap1\n      revert\n    tag_108:\n        /* \"contracts/StructEnum.sol\":1546:1558  Status.Taken */\n      0x00\n        /* \"contracts/StructEnum.sol\":1530:1558  order.status == Status.Taken */\n      0x03\n      dup2\n      gt\n      iszero\n      tag_111\n      jumpi\n      tag_112\n      tag_66\n      jump\t// in\n    tag_112:\n    tag_111:\n        /* \"contracts/StructEnum.sol\":1530:1535  order */\n      dup2\n        /* \"contracts/StructEnum.sol\":1530:1542  order.status */\n      0x03\n      add\n      0x00\n      swap1\n      sload\n      swap1\n      0x0100\n      exp\n      swap1\n      div\n      0xff\n      and\n        /* \"contracts/StructEnum.sol\":1530:1558  order.status == Status.Taken */\n      0x03\n      dup2\n      gt\n      iszero\n      tag_113\n      jumpi\n      tag_114\n      tag_66\n      jump\t// in\n    tag_114:\n    tag_113:\n      sub\n        /* \"contracts/StructEnum.sol\":1527:1805  if(order.status == Status.Taken){... */\n      tag_115\n      jumpi\n        /* \"contracts/StructEnum.sol\":1589:1605  Status.Preparing */\n      0x01\n        /* \"contracts/StructEnum.sol\":1574:1579  order */\n      dup2\n        /* \"contracts/StructEnum.sol\":1574:1586  order.status */\n      0x03\n      add\n      0x00\n        /* \"contracts/StructEnum.sol\":1574:1605  order.status = Status.Preparing */\n      0x0100\n      exp\n      dup2\n      sload\n      dup2\n      0xff\n      mul\n      not\n      and\n      swap1\n      dup4\n      0x03\n      dup2\n      gt\n      iszero\n      tag_116\n      jumpi\n      tag_117\n      tag_66\n      jump\t// in\n    tag_117:\n    tag_116:\n      mul\n      or\n      swap1\n      sstore\n      pop\n        /* \"contracts/StructEnum.sol\":1527:1805  if(order.status == Status.Taken){... */\n      jump(tag_118)\n    tag_115:\n        /* \"contracts/StructEnum.sol\":1641:1657  Status.Preparing */\n      0x01\n        /* \"contracts/StructEnum.sol\":1625:1657  order.status == Status.Preparing */\n      0x03\n      dup2\n      gt\n      iszero\n      tag_119\n      jumpi\n      tag_120\n      tag_66\n      jump\t// in\n    tag_120:\n    tag_119:\n        /* \"contracts/StructEnum.sol\":1625:1630  order */\n      dup2\n        /* \"contracts/StructEnum.sol\":1625:1637  order.status */\n      0x03\n      add\n      0x00\n      swap1\n      sload\n      swap1\n      0x0100\n      exp\n      swap1\n      div\n      0xff\n      and\n        /* \"contracts/StructEnum.sol\":1625:1657  order.status == Status.Preparing */\n      0x03\n      dup2\n      gt\n      iszero\n      tag_121\n      jumpi\n      tag_122\n      tag_66\n      jump\t// in\n    tag_122:\n    tag_121:\n      sub\n        /* \"contracts/StructEnum.sol\":1622:1805  if(order.status == Status.Preparing){... */\n      tag_123\n      jumpi\n        /* \"contracts/StructEnum.sol\":1688:1700  Status.Boxed */\n      0x02\n        /* \"contracts/StructEnum.sol\":1673:1678  order */\n      dup2\n        /* \"contracts/StructEnum.sol\":1673:1685  order.status */\n      0x03\n      add\n      0x00\n        /* \"contracts/StructEnum.sol\":1673:1700  order.status = Status.Boxed */\n      0x0100\n      exp\n      dup2\n      sload\n      dup2\n      0xff\n      mul\n      not\n      and\n      swap1\n      dup4\n      0x03\n      dup2\n      gt\n      iszero\n      tag_124\n      jumpi\n      tag_125\n      tag_66\n      jump\t// in\n    tag_125:\n    tag_124:\n      mul\n      or\n      swap1\n      sstore\n      pop\n        /* \"contracts/StructEnum.sol\":1622:1805  if(order.status == Status.Preparing){... */\n      jump(tag_126)\n    tag_123:\n        /* \"contracts/StructEnum.sol\":1736:1748  Status.Boxed */\n      0x02\n        /* \"contracts/StructEnum.sol\":1720:1748  order.status == Status.Boxed */\n      0x03\n      dup2\n      gt\n      iszero\n      tag_127\n      jumpi\n      tag_128\n      tag_66\n      jump\t// in\n    tag_128:\n    tag_127:\n        /* \"contracts/StructEnum.sol\":1720:1725  order */\n      dup2\n        /* \"contracts/StructEnum.sol\":1720:1732  order.status */\n      0x03\n      add\n      0x00\n      swap1\n      sload\n      swap1\n      0x0100\n      exp\n      swap1\n      div\n      0xff\n      and\n        /* \"contracts/StructEnum.sol\":1720:1748  order.status == Status.Boxed */\n      0x03\n      dup2\n      gt\n      iszero\n      tag_129\n      jumpi\n      tag_130\n      tag_66\n      jump\t// in\n    tag_130:\n    tag_129:\n      sub\n        /* \"contracts/StructEnum.sol\":1717:1805  if(order.status == Status.Boxed){... */\n      tag_131\n      jumpi\n        /* \"contracts/StructEnum.sol\":1779:1793  Status.Shipped */\n      0x03\n        /* \"contracts/StructEnum.sol\":1764:1769  order */\n      dup2\n        /* \"contracts/StructEnum.sol\":1764:1776  order.status */\n      0x03\n      add\n      0x00\n        /* \"contracts/StructEnum.sol\":1764:1793  order.status = Status.Shipped */\n      0x0100\n      exp\n      dup2\n      sload\n      dup2\n      0xff\n      mul\n      not\n      and\n      swap1\n      dup4\n      0x03\n      dup2\n      gt\n      iszero\n      tag_132\n      jumpi\n      tag_133\n      tag_66\n      jump\t// in\n    tag_133:\n    tag_132:\n      mul\n      or\n      swap1\n      sstore\n      pop\n        /* \"contracts/StructEnum.sol\":1717:1805  if(order.status == Status.Boxed){... */\n    tag_131:\n        /* \"contracts/StructEnum.sol\":1622:1805  if(order.status == Status.Preparing){... */\n    tag_126:\n        /* \"contracts/StructEnum.sol\":1527:1805  if(order.status == Status.Taken){... */\n    tag_118:\n        /* \"contracts/StructEnum.sol\":1249:1816  {... */\n      pop\n        /* \"contracts/StructEnum.sol\":1196:1816  function advencerOrder(uint256 _orderId) external    {... */\n      pop\n      jump\t// out\n    tag_63:\n      mload(0x40)\n      dup1\n      0x80\n      add\n      0x40\n      mstore\n      dup1\n      and(0xffffffffffffffffffffffffffffffffffffffff, 0x00)\n      dup2\n      mstore\n      0x20\n      add\n      0x60\n      dup2\n      mstore\n      0x20\n      add\n      0x60\n      dup2\n      mstore\n      0x20\n      add\n      0x00\n      0x03\n      dup2\n      gt\n      iszero\n      tag_134\n      jumpi\n      tag_135\n      tag_66\n      jump\t// in\n    tag_135:\n    tag_134:\n      dup2\n      mstore\n      pop\n      swap1\n      jump\t// out\n    tag_72:\n      dup3\n      dup1\n      sload\n      dup3\n      dup3\n      sstore\n      swap1\n      0x00\n      mstore\n      keccak256(0x00, 0x20)\n      swap1\n      dup2\n      add\n      swap3\n      dup3\n      iszero\n      tag_136\n      jumpi\n      swap2\n      0x20\n      mul\n      dup3\n      add\n    tag_137:\n      dup3\n      dup2\n      gt\n      iszero\n      tag_138\n      jumpi\n      dup3\n      mload\n      dup3\n      sstore\n      swap2\n      0x20\n      add\n      swap2\n      swap1\n      0x01\n      add\n      swap1\n      jump(tag_137)\n    tag_138:\n    tag_136:\n      pop\n      swap1\n      pop\n      tag_139\n      swap2\n      swap1\n      tag_140\n      jump\t// in\n    tag_139:\n      pop\n      swap1\n      jump\t// out\n    tag_140:\n    tag_141:\n      dup1\n      dup3\n      gt\n      iszero\n      tag_142\n      jumpi\n      0x00\n      dup2\n      0x00\n      swap1\n      sstore\n      pop\n      0x01\n      add\n      jump(tag_141)\n    tag_142:\n      pop\n      swap1\n      jump\t// out\n        /* \"#utility.yul\":7:82   */\n    tag_143:\n        /* \"#utility.yul\":40:46   */\n      0x00\n        /* \"#utility.yul\":73:75   */\n      0x40\n        /* \"#utility.yul\":67:76   */\n      mload\n        /* \"#utility.yul\":57:76   */\n      swap1\n      pop\n        /* \"#utility.yul\":7:82   */\n      swap1\n      jump\t// out\n        /* \"#utility.yul\":88:205   */\n    tag_144:\n        /* \"#utility.yul\":197:198   */\n      0x00\n        /* \"#utility.yul\":194:195   */\n      dup1\n        /* \"#utility.yul\":187:199   */\n      revert\n        /* \"#utility.yul\":211:328   */\n    tag_145:\n        /* \"#utility.yul\":320:321   */\n      0x00\n        /* \"#utility.yul\":317:318   */\n      dup1\n        /* \"#utility.yul\":310:322   */\n      revert\n        /* \"#utility.yul\":334:411   */\n    tag_146:\n        /* \"#utility.yul\":371:378   */\n      0x00\n        /* \"#utility.yul\":400:405   */\n      dup2\n        /* \"#utility.yul\":389:405   */\n      swap1\n      pop\n        /* \"#utility.yul\":334:411   */\n      swap2\n      swap1\n      pop\n      jump\t// out\n        /* \"#utility.yul\":417:539   */\n    tag_147:\n        /* \"#utility.yul\":490:514   */\n      tag_220\n        /* \"#utility.yul\":508:513   */\n      dup2\n        /* \"#utility.yul\":490:514   */\n      tag_146\n      jump\t// in\n    tag_220:\n        /* \"#utility.yul\":483:488   */\n      dup2\n        /* \"#utility.yul\":480:515   */\n      eq\n        /* \"#utility.yul\":470:533   */\n      tag_221\n      jumpi\n        /* \"#utility.yul\":529:530   */\n      0x00\n        /* \"#utility.yul\":526:527   */\n      dup1\n        /* \"#utility.yul\":519:531   */\n      revert\n        /* \"#utility.yul\":470:533   */\n    tag_221:\n        /* \"#utility.yul\":417:539   */\n      pop\n      jump\t// out\n        /* \"#utility.yul\":545:684   */\n    tag_148:\n        /* \"#utility.yul\":591:596   */\n      0x00\n        /* \"#utility.yul\":629:635   */\n      dup2\n        /* \"#utility.yul\":616:636   */\n      calldataload\n        /* \"#utility.yul\":607:636   */\n      swap1\n      pop\n        /* \"#utility.yul\":645:678   */\n      tag_223\n        /* \"#utility.yul\":672:677   */\n      dup2\n        /* \"#utility.yul\":645:678   */\n      tag_147\n      jump\t// in\n    tag_223:\n        /* \"#utility.yul\":545:684   */\n      swap3\n      swap2\n      pop\n      pop\n      jump\t// out\n        /* \"#utility.yul\":690:807   */\n    tag_149:\n        /* \"#utility.yul\":799:800   */\n      0x00\n        /* \"#utility.yul\":796:797   */\n      dup1\n        /* \"#utility.yul\":789:801   */\n      revert\n        /* \"#utility.yul\":813:930   */\n    tag_150:\n        /* \"#utility.yul\":922:923   */\n      0x00\n        /* \"#utility.yul\":919:920   */\n      dup1\n        /* \"#utility.yul\":912:924   */\n      revert\n        /* \"#utility.yul\":936:1038   */\n    tag_151:\n        /* \"#utility.yul\":977:983   */\n      0x00\n        /* \"#utility.yul\":1028:1030   */\n      0x1f\n        /* \"#utility.yul\":1024:1031   */\n      not\n        /* \"#utility.yul\":1019:1021   */\n      0x1f\n        /* \"#utility.yul\":1012:1017   */\n      dup4\n        /* \"#utility.yul\":1008:1022   */\n      add\n        /* \"#utility.yul\":1004:1032   */\n      and\n        /* \"#utility.yul\":994:1032   */\n      swap1\n      pop\n        /* \"#utility.yul\":936:1038   */\n      swap2\n      swap1\n      pop\n      jump\t// out\n        /* \"#utility.yul\":1044:1224   */\n    tag_152:\n        /* \"#utility.yul\":1092:1169   */\n      0x4e487b7100000000000000000000000000000000000000000000000000000000\n        /* \"#utility.yul\":1089:1090   */\n      0x00\n        /* \"#utility.yul\":1082:1170   */\n      mstore\n        /* \"#utility.yul\":1189:1193   */\n      0x41\n        /* \"#utility.yul\":1186:1187   */\n      0x04\n        /* \"#utility.yul\":1179:1194   */\n      mstore\n        /* \"#utility.yul\":1213:1217   */\n      0x24\n        /* \"#utility.yul\":1210:1211   */\n      0x00\n        /* \"#utility.yul\":1203:1218   */\n      revert\n        /* \"#utility.yul\":1230:1511   */\n    tag_153:\n        /* \"#utility.yul\":1313:1340   */\n      tag_229\n        /* \"#utility.yul\":1335:1339   */\n      dup3\n        /* \"#utility.yul\":1313:1340   */\n      tag_151\n      jump\t// in\n    tag_229:\n        /* \"#utility.yul\":1305:1311   */\n      dup2\n        /* \"#utility.yul\":1301:1341   */\n      add\n        /* \"#utility.yul\":1443:1449   */\n      dup2\n        /* \"#utility.yul\":1431:1441   */\n      dup2\n        /* \"#utility.yul\":1428:1450   */\n      lt\n        /* \"#utility.yul\":1407:1425   */\n      0xffffffffffffffff\n        /* \"#utility.yul\":1395:1405   */\n      dup3\n        /* \"#utility.yul\":1392:1426   */\n      gt\n        /* \"#utility.yul\":1389:1451   */\n      or\n        /* \"#utility.yul\":1386:1474   */\n      iszero\n      tag_230\n      jumpi\n        /* \"#utility.yul\":1454:1472   */\n      tag_231\n      tag_152\n      jump\t// in\n    tag_231:\n        /* \"#utility.yul\":1386:1474   */\n    tag_230:\n        /* \"#utility.yul\":1494:1504   */\n      dup1\n        /* \"#utility.yul\":1490:1492   */\n      0x40\n        /* \"#utility.yul\":1483:1505   */\n      mstore\n        /* \"#utility.yul\":1273:1511   */\n      pop\n        /* \"#utility.yul\":1230:1511   */\n      pop\n      pop\n      jump\t// out\n        /* \"#utility.yul\":1517:1646   */\n    tag_154:\n        /* \"#utility.yul\":1551:1557   */\n      0x00\n        /* \"#utility.yul\":1578:1598   */\n      tag_233\n      tag_143\n      jump\t// in\n    tag_233:\n        /* \"#utility.yul\":1568:1598   */\n      swap1\n      pop\n        /* \"#utility.yul\":1607:1640   */\n      tag_234\n        /* \"#utility.yul\":1635:1639   */\n      dup3\n        /* \"#utility.yul\":1627:1633   */\n      dup3\n        /* \"#utility.yul\":1607:1640   */\n      tag_153\n      jump\t// in\n    tag_234:\n        /* \"#utility.yul\":1517:1646   */\n      swap2\n      swap1\n      pop\n      jump\t// out\n        /* \"#utility.yul\":1652:1960   */\n    tag_155:\n        /* \"#utility.yul\":1714:1718   */\n      0x00\n        /* \"#utility.yul\":1804:1822   */\n      0xffffffffffffffff\n        /* \"#utility.yul\":1796:1802   */\n      dup3\n        /* \"#utility.yul\":1793:1823   */\n      gt\n        /* \"#utility.yul\":1790:1846   */\n      iszero\n      tag_236\n      jumpi\n        /* \"#utility.yul\":1826:1844   */\n      tag_237\n      tag_152\n      jump\t// in\n    tag_237:\n        /* \"#utility.yul\":1790:1846   */\n    tag_236:\n        /* \"#utility.yul\":1864:1893   */\n      tag_238\n        /* \"#utility.yul\":1886:1892   */\n      dup3\n        /* \"#utility.yul\":1864:1893   */\n      tag_151\n      jump\t// in\n    tag_238:\n        /* \"#utility.yul\":1856:1893   */\n      swap1\n      pop\n        /* \"#utility.yul\":1948:1952   */\n      0x20\n        /* \"#utility.yul\":1942:1946   */\n      dup2\n        /* \"#utility.yul\":1938:1953   */\n      add\n        /* \"#utility.yul\":1930:1953   */\n      swap1\n      pop\n        /* \"#utility.yul\":1652:1960   */\n      swap2\n      swap1\n      pop\n      jump\t// out\n        /* \"#utility.yul\":1966:2112   */\n    tag_156:\n        /* \"#utility.yul\":2063:2069   */\n      dup3\n        /* \"#utility.yul\":2058:2061   */\n      dup2\n        /* \"#utility.yul\":2053:2056   */\n      dup4\n        /* \"#utility.yul\":2040:2070   */\n      calldatacopy\n        /* \"#utility.yul\":2104:2105   */\n      0x00\n        /* \"#utility.yul\":2095:2101   */\n      dup4\n        /* \"#utility.yul\":2090:2093   */\n      dup4\n        /* \"#utility.yul\":2086:2102   */\n      add\n        /* \"#utility.yul\":2079:2106   */\n      mstore\n        /* \"#utility.yul\":1966:2112   */\n      pop\n      pop\n      pop\n      jump\t// out\n        /* \"#utility.yul\":2118:2543   */\n    tag_157:\n        /* \"#utility.yul\":2196:2201   */\n      0x00\n        /* \"#utility.yul\":2221:2287   */\n      tag_241\n        /* \"#utility.yul\":2237:2286   */\n      tag_242\n        /* \"#utility.yul\":2279:2285   */\n      dup5\n        /* \"#utility.yul\":2237:2286   */\n      tag_155\n      jump\t// in\n    tag_242:\n        /* \"#utility.yul\":2221:2287   */\n      tag_154\n      jump\t// in\n    tag_241:\n        /* \"#utility.yul\":2212:2287   */\n      swap1\n      pop\n        /* \"#utility.yul\":2310:2316   */\n      dup3\n        /* \"#utility.yul\":2303:2308   */\n      dup2\n        /* \"#utility.yul\":2296:2317   */\n      mstore\n        /* \"#utility.yul\":2348:2352   */\n      0x20\n        /* \"#utility.yul\":2341:2346   */\n      dup2\n        /* \"#utility.yul\":2337:2353   */\n      add\n        /* \"#utility.yul\":2386:2389   */\n      dup5\n        /* \"#utility.yul\":2377:2383   */\n      dup5\n        /* \"#utility.yul\":2372:2375   */\n      dup5\n        /* \"#utility.yul\":2368:2384   */\n      add\n        /* \"#utility.yul\":2365:2390   */\n      gt\n        /* \"#utility.yul\":2362:2474   */\n      iszero\n      tag_243\n      jumpi\n        /* \"#utility.yul\":2393:2472   */\n      tag_244\n      tag_150\n      jump\t// in\n    tag_244:\n        /* \"#utility.yul\":2362:2474   */\n    tag_243:\n        /* \"#utility.yul\":2483:2537   */\n      tag_245\n        /* \"#utility.yul\":2530:2536   */\n      dup5\n        /* \"#utility.yul\":2525:2528   */\n      dup3\n        /* \"#utility.yul\":2520:2523   */\n      dup6\n        /* \"#utility.yul\":2483:2537   */\n      tag_156\n      jump\t// in\n    tag_245:\n        /* \"#utility.yul\":2202:2543   */\n      pop\n        /* \"#utility.yul\":2118:2543   */\n      swap4\n      swap3\n      pop\n      pop\n      pop\n      jump\t// out\n        /* \"#utility.yul\":2563:2903   */\n    tag_158:\n        /* \"#utility.yul\":2619:2624   */\n      0x00\n        /* \"#utility.yul\":2668:2671   */\n      dup3\n        /* \"#utility.yul\":2661:2665   */\n      0x1f\n        /* \"#utility.yul\":2653:2659   */\n      dup4\n        /* \"#utility.yul\":2649:2666   */\n      add\n        /* \"#utility.yul\":2645:2672   */\n      slt\n        /* \"#utility.yul\":2635:2757   */\n      tag_247\n      jumpi\n        /* \"#utility.yul\":2676:2755   */\n      tag_248\n      tag_149\n      jump\t// in\n    tag_248:\n        /* \"#utility.yul\":2635:2757   */\n    tag_247:\n        /* \"#utility.yul\":2793:2799   */\n      dup2\n        /* \"#utility.yul\":2780:2800   */\n      calldataload\n        /* \"#utility.yul\":2818:2897   */\n      tag_249\n        /* \"#utility.yul\":2893:2896   */\n      dup5\n        /* \"#utility.yul\":2885:2891   */\n      dup3\n        /* \"#utility.yul\":2878:2882   */\n      0x20\n        /* \"#utility.yul\":2870:2876   */\n      dup7\n        /* \"#utility.yul\":2866:2883   */\n      add\n        /* \"#utility.yul\":2818:2897   */\n      tag_157\n      jump\t// in\n    tag_249:\n        /* \"#utility.yul\":2809:2897   */\n      swap2\n      pop\n        /* \"#utility.yul\":2625:2903   */\n      pop\n        /* \"#utility.yul\":2563:2903   */\n      swap3\n      swap2\n      pop\n      pop\n      jump\t// out\n        /* \"#utility.yul\":2909:3563   */\n    tag_11:\n        /* \"#utility.yul\":2987:2993   */\n      0x00\n        /* \"#utility.yul\":2995:3001   */\n      dup1\n        /* \"#utility.yul\":3044:3046   */\n      0x40\n        /* \"#utility.yul\":3032:3041   */\n      dup4\n        /* \"#utility.yul\":3023:3030   */\n      dup6\n        /* \"#utility.yul\":3019:3042   */\n      sub\n        /* \"#utility.yul\":3015:3047   */\n      slt\n        /* \"#utility.yul\":3012:3131   */\n      iszero\n      tag_251\n      jumpi\n        /* \"#utility.yul\":3050:3129   */\n      tag_252\n      tag_144\n      jump\t// in\n    tag_252:\n        /* \"#utility.yul\":3012:3131   */\n    tag_251:\n        /* \"#utility.yul\":3170:3171   */\n      0x00\n        /* \"#utility.yul\":3195:3248   */\n      tag_253\n        /* \"#utility.yul\":3240:3247   */\n      dup6\n        /* \"#utility.yul\":3231:3237   */\n      dup3\n        /* \"#utility.yul\":3220:3229   */\n      dup7\n        /* \"#utility.yul\":3216:3238   */\n      add\n        /* \"#utility.yul\":3195:3248   */\n      tag_148\n      jump\t// in\n    tag_253:\n        /* \"#utility.yul\":3185:3248   */\n      swap3\n      pop\n        /* \"#utility.yul\":3141:3258   */\n      pop\n        /* \"#utility.yul\":3325:3327   */\n      0x20\n        /* \"#utility.yul\":3314:3323   */\n      dup4\n        /* \"#utility.yul\":3310:3328   */\n      add\n        /* \"#utility.yul\":3297:3329   */\n      calldataload\n        /* \"#utility.yul\":3356:3374   */\n      0xffffffffffffffff\n        /* \"#utility.yul\":3348:3354   */\n      dup2\n        /* \"#utility.yul\":3345:3375   */\n      gt\n        /* \"#utility.yul\":3342:3459   */\n      iszero\n      tag_254\n      jumpi\n        /* \"#utility.yul\":3378:3457   */\n      tag_255\n      tag_145\n      jump\t// in\n    tag_255:\n        /* \"#utility.yul\":3342:3459   */\n    tag_254:\n        /* \"#utility.yul\":3483:3546   */\n      tag_256\n        /* \"#utility.yul\":3538:3545   */\n      dup6\n        /* \"#utility.yul\":3529:3535   */\n      dup3\n        /* \"#utility.yul\":3518:3527   */\n      dup7\n        /* \"#utility.yul\":3514:3536   */\n      add\n        /* \"#utility.yul\":3483:3546   */\n      tag_158\n      jump\t// in\n    tag_256:\n        /* \"#utility.yul\":3473:3546   */\n      swap2\n      pop\n        /* \"#utility.yul\":3268:3556   */\n      pop\n        /* \"#utility.yul\":2909:3563   */\n      swap3\n      pop\n      swap3\n      swap1\n      pop\n      jump\t// out\n        /* \"#utility.yul\":3569:3695   */\n    tag_159:\n        /* \"#utility.yul\":3606:3613   */\n      0x00\n        /* \"#utility.yul\":3646:3688   */\n      0xffffffffffffffffffffffffffffffffffffffff\n        /* \"#utility.yul\":3639:3644   */\n      dup3\n        /* \"#utility.yul\":3635:3689   */\n      and\n        /* \"#utility.yul\":3624:3689   */\n      swap1\n      pop\n        /* \"#utility.yul\":3569:3695   */\n      swap2\n      swap1\n      pop\n      jump\t// out\n        /* \"#utility.yul\":3701:3797   */\n    tag_160:\n        /* \"#utility.yul\":3738:3745   */\n      0x00\n        /* \"#utility.yul\":3767:3791   */\n      tag_259\n        /* \"#utility.yul\":3785:3790   */\n      dup3\n        /* \"#utility.yul\":3767:3791   */\n      tag_159\n      jump\t// in\n    tag_259:\n        /* \"#utility.yul\":3756:3791   */\n      swap1\n      pop\n        /* \"#utility.yul\":3701:3797   */\n      swap2\n      swap1\n      pop\n      jump\t// out\n        /* \"#utility.yul\":3803:3921   */\n    tag_161:\n        /* \"#utility.yul\":3890:3914   */\n      tag_261\n        /* \"#utility.yul\":3908:3913   */\n      dup2\n        /* \"#utility.yul\":3890:3914   */\n      tag_160\n      jump\t// in\n    tag_261:\n        /* \"#utility.yul\":3885:3888   */\n      dup3\n        /* \"#utility.yul\":3878:3915   */\n      mstore\n        /* \"#utility.yul\":3803:3921   */\n      pop\n      pop\n      jump\t// out\n        /* \"#utility.yul\":3927:4149   */\n    tag_16:\n        /* \"#utility.yul\":4020:4024   */\n      0x00\n        /* \"#utility.yul\":4058:4060   */\n      0x20\n        /* \"#utility.yul\":4047:4056   */\n      dup3\n        /* \"#utility.yul\":4043:4061   */\n      add\n        /* \"#utility.yul\":4035:4061   */\n      swap1\n      pop\n        /* \"#utility.yul\":4071:4142   */\n      tag_263\n        /* \"#utility.yul\":4139:4140   */\n      0x00\n        /* \"#utility.yul\":4128:4137   */\n      dup4\n        /* \"#utility.yul\":4124:4141   */\n      add\n        /* \"#utility.yul\":4115:4121   */\n      dup5\n        /* \"#utility.yul\":4071:4142   */\n      tag_161\n      jump\t// in\n    tag_263:\n        /* \"#utility.yul\":3927:4149   */\n      swap3\n      swap2\n      pop\n      pop\n      jump\t// out\n        /* \"#utility.yul\":4155:4484   */\n    tag_19:\n        /* \"#utility.yul\":4214:4220   */\n      0x00\n        /* \"#utility.yul\":4263:4265   */\n      0x20\n        /* \"#utility.yul\":4251:4260   */\n      dup3\n        /* \"#utility.yul\":4242:4249   */\n      dup5\n        /* \"#utility.yul\":4238:4261   */\n      sub\n        /* \"#utility.yul\":4234:4266   */\n      slt\n        /* \"#utility.yul\":4231:4350   */\n      iszero\n      tag_265\n      jumpi\n        /* \"#utility.yul\":4269:4348   */\n      tag_266\n      tag_144\n      jump\t// in\n    tag_266:\n        /* \"#utility.yul\":4231:4350   */\n    tag_265:\n        /* \"#utility.yul\":4389:4390   */\n      0x00\n        /* \"#utility.yul\":4414:4467   */\n      tag_267\n        /* \"#utility.yul\":4459:4466   */\n      dup5\n        /* \"#utility.yul\":4450:4456   */\n      dup3\n        /* \"#utility.yul\":4439:4448   */\n      dup6\n        /* \"#utility.yul\":4435:4457   */\n      add\n        /* \"#utility.yul\":4414:4467   */\n      tag_148\n      jump\t// in\n    tag_267:\n        /* \"#utility.yul\":4404:4467   */\n      swap2\n      pop\n        /* \"#utility.yul\":4360:4477   */\n      pop\n        /* \"#utility.yul\":4155:4484   */\n      swap3\n      swap2\n      pop\n      pop\n      jump\t// out\n        /* \"#utility.yul\":4490:4589   */\n    tag_162:\n        /* \"#utility.yul\":4542:4548   */\n      0x00\n        /* \"#utility.yul\":4576:4581   */\n      dup2\n        /* \"#utility.yul\":4570:4582   */\n      mload\n        /* \"#utility.yul\":4560:4582   */\n      swap1\n      pop\n        /* \"#utility.yul\":4490:4589   */\n      swap2\n      swap1\n      pop\n      jump\t// out\n        /* \"#utility.yul\":4595:4764   */\n    tag_163:\n        /* \"#utility.yul\":4679:4690   */\n      0x00\n        /* \"#utility.yul\":4713:4719   */\n      dup3\n        /* \"#utility.yul\":4708:4711   */\n      dup3\n        /* \"#utility.yul\":4701:4720   */\n      mstore\n        /* \"#utility.yul\":4753:4757   */\n      0x20\n        /* \"#utility.yul\":4748:4751   */\n      dup3\n        /* \"#utility.yul\":4744:4758   */\n      add\n        /* \"#utility.yul\":4729:4758   */\n      swap1\n      pop\n        /* \"#utility.yul\":4595:4764   */\n      swap3\n      swap2\n      pop\n      pop\n      jump\t// out\n        /* \"#utility.yul\":4770:5016   */\n    tag_164:\n        /* \"#utility.yul\":4851:4852   */\n      0x00\n        /* \"#utility.yul\":4861:4974   */\n    tag_271:\n        /* \"#utility.yul\":4875:4881   */\n      dup4\n        /* \"#utility.yul\":4872:4873   */\n      dup2\n        /* \"#utility.yul\":4869:4882   */\n      lt\n        /* \"#utility.yul\":4861:4974   */\n      iszero\n      tag_273\n      jumpi\n        /* \"#utility.yul\":4960:4961   */\n      dup1\n        /* \"#utility.yul\":4955:4958   */\n      dup3\n        /* \"#utility.yul\":4951:4962   */\n      add\n        /* \"#utility.yul\":4945:4963   */\n      mload\n        /* \"#utility.yul\":4941:4942   */\n      dup2\n        /* \"#utility.yul\":4936:4939   */\n      dup5\n        /* \"#utility.yul\":4932:4943   */\n      add\n        /* \"#utility.yul\":4925:4964   */\n      mstore\n        /* \"#utility.yul\":4897:4899   */\n      0x20\n        /* \"#utility.yul\":4894:4895   */\n      dup2\n        /* \"#utility.yul\":4890:4900   */\n      add\n        /* \"#utility.yul\":4885:4900   */\n      swap1\n      pop\n        /* \"#utility.yul\":4861:4974   */\n      jump(tag_271)\n    tag_273:\n        /* \"#utility.yul\":5008:5009   */\n      0x00\n        /* \"#utility.yul\":4999:5005   */\n      dup5\n        /* \"#utility.yul\":4994:4997   */\n      dup5\n        /* \"#utility.yul\":4990:5006   */\n      add\n        /* \"#utility.yul\":4983:5010   */\n      mstore\n        /* \"#utility.yul\":4832:5016   */\n      pop\n        /* \"#utility.yul\":4770:5016   */\n      pop\n      pop\n      pop\n      jump\t// out\n        /* \"#utility.yul\":5022:5399   */\n    tag_165:\n        /* \"#utility.yul\":5110:5113   */\n      0x00\n        /* \"#utility.yul\":5138:5177   */\n      tag_275\n        /* \"#utility.yul\":5171:5176   */\n      dup3\n        /* \"#utility.yul\":5138:5177   */\n      tag_162\n      jump\t// in\n    tag_275:\n        /* \"#utility.yul\":5193:5264   */\n      tag_276\n        /* \"#utility.yul\":5257:5263   */\n      dup2\n        /* \"#utility.yul\":5252:5255   */\n      dup6\n        /* \"#utility.yul\":5193:5264   */\n      tag_163\n      jump\t// in\n    tag_276:\n        /* \"#utility.yul\":5186:5264   */\n      swap4\n      pop\n        /* \"#utility.yul\":5273:5338   */\n      tag_277\n        /* \"#utility.yul\":5331:5337   */\n      dup2\n        /* \"#utility.yul\":5326:5329   */\n      dup6\n        /* \"#utility.yul\":5319:5323   */\n      0x20\n        /* \"#utility.yul\":5312:5317   */\n      dup7\n        /* \"#utility.yul\":5308:5324   */\n      add\n        /* \"#utility.yul\":5273:5338   */\n      tag_164\n      jump\t// in\n    tag_277:\n        /* \"#utility.yul\":5363:5392   */\n      tag_278\n        /* \"#utility.yul\":5385:5391   */\n      dup2\n        /* \"#utility.yul\":5363:5392   */\n      tag_151\n      jump\t// in\n    tag_278:\n        /* \"#utility.yul\":5358:5361   */\n      dup5\n        /* \"#utility.yul\":5354:5393   */\n      add\n        /* \"#utility.yul\":5347:5393   */\n      swap2\n      pop\n        /* \"#utility.yul\":5114:5399   */\n      pop\n        /* \"#utility.yul\":5022:5399   */\n      swap3\n      swap2\n      pop\n      pop\n      jump\t// out\n        /* \"#utility.yul\":5405:5585   */\n    tag_66:\n        /* \"#utility.yul\":5453:5530   */\n      0x4e487b7100000000000000000000000000000000000000000000000000000000\n        /* \"#utility.yul\":5450:5451   */\n      0x00\n        /* \"#utility.yul\":5443:5531   */\n      mstore\n        /* \"#utility.yul\":5550:5554   */\n      0x21\n        /* \"#utility.yul\":5547:5548   */\n      0x04\n        /* \"#utility.yul\":5540:5555   */\n      mstore\n        /* \"#utility.yul\":5574:5578   */\n      0x24\n        /* \"#utility.yul\":5571:5572   */\n      0x00\n        /* \"#utility.yul\":5564:5579   */\n      revert\n        /* \"#utility.yul\":5591:5704   */\n    tag_166:\n        /* \"#utility.yul\":5672:5673   */\n      0x04\n        /* \"#utility.yul\":5665:5670   */\n      dup2\n        /* \"#utility.yul\":5662:5674   */\n      lt\n        /* \"#utility.yul\":5652:5698   */\n      tag_281\n      jumpi\n        /* \"#utility.yul\":5678:5696   */\n      tag_282\n      tag_66\n      jump\t// in\n    tag_282:\n        /* \"#utility.yul\":5652:5698   */\n    tag_281:\n        /* \"#utility.yul\":5591:5704   */\n      pop\n      jump\t// out\n        /* \"#utility.yul\":5710:5837   */\n    tag_167:\n        /* \"#utility.yul\":5755:5762   */\n      0x00\n        /* \"#utility.yul\":5784:5789   */\n      dup2\n        /* \"#utility.yul\":5773:5789   */\n      swap1\n      pop\n        /* \"#utility.yul\":5790:5831   */\n      tag_284\n        /* \"#utility.yul\":5825:5830   */\n      dup3\n        /* \"#utility.yul\":5790:5831   */\n      tag_166\n      jump\t// in\n    tag_284:\n        /* \"#utility.yul\":5710:5837   */\n      swap2\n      swap1\n      pop\n      jump\t// out\n        /* \"#utility.yul\":5843:5970   */\n    tag_168:\n        /* \"#utility.yul\":5899:5908   */\n      0x00\n        /* \"#utility.yul\":5932:5964   */\n      tag_286\n        /* \"#utility.yul\":5958:5963   */\n      dup3\n        /* \"#utility.yul\":5932:5964   */\n      tag_167\n      jump\t// in\n    tag_286:\n        /* \"#utility.yul\":5919:5964   */\n      swap1\n      pop\n        /* \"#utility.yul\":5843:5970   */\n      swap2\n      swap1\n      pop\n      jump\t// out\n        /* \"#utility.yul\":5976:6119   */\n    tag_169:\n        /* \"#utility.yul\":6069:6112   */\n      tag_288\n        /* \"#utility.yul\":6106:6111   */\n      dup2\n        /* \"#utility.yul\":6069:6112   */\n      tag_168\n      jump\t// in\n    tag_288:\n        /* \"#utility.yul\":6064:6067   */\n      dup3\n        /* \"#utility.yul\":6057:6113   */\n      mstore\n        /* \"#utility.yul\":5976:6119   */\n      pop\n      pop\n      jump\t// out\n        /* \"#utility.yul\":6125:6670   */\n    tag_22:\n        /* \"#utility.yul\":6300:6304   */\n      0x00\n        /* \"#utility.yul\":6338:6340   */\n      0x60\n        /* \"#utility.yul\":6327:6336   */\n      dup3\n        /* \"#utility.yul\":6323:6341   */\n      add\n        /* \"#utility.yul\":6315:6341   */\n      swap1\n      pop\n        /* \"#utility.yul\":6351:6422   */\n      tag_290\n        /* \"#utility.yul\":6419:6420   */\n      0x00\n        /* \"#utility.yul\":6408:6417   */\n      dup4\n        /* \"#utility.yul\":6404:6421   */\n      add\n        /* \"#utility.yul\":6395:6401   */\n      dup7\n        /* \"#utility.yul\":6351:6422   */\n      tag_161\n      jump\t// in\n    tag_290:\n        /* \"#utility.yul\":6469:6478   */\n      dup2\n        /* \"#utility.yul\":6463:6467   */\n      dup2\n        /* \"#utility.yul\":6459:6479   */\n      sub\n        /* \"#utility.yul\":6454:6456   */\n      0x20\n        /* \"#utility.yul\":6443:6452   */\n      dup4\n        /* \"#utility.yul\":6439:6457   */\n      add\n        /* \"#utility.yul\":6432:6480   */\n      mstore\n        /* \"#utility.yul\":6497:6575   */\n      tag_291\n        /* \"#utility.yul\":6570:6574   */\n      dup2\n        /* \"#utility.yul\":6561:6567   */\n      dup6\n        /* \"#utility.yul\":6497:6575   */\n      tag_165\n      jump\t// in\n    tag_291:\n        /* \"#utility.yul\":6489:6575   */\n      swap1\n      pop\n        /* \"#utility.yul\":6585:6663   */\n      tag_292\n        /* \"#utility.yul\":6659:6661   */\n      0x40\n        /* \"#utility.yul\":6648:6657   */\n      dup4\n        /* \"#utility.yul\":6644:6662   */\n      add\n        /* \"#utility.yul\":6635:6641   */\n      dup5\n        /* \"#utility.yul\":6585:6663   */\n      tag_169\n      jump\t// in\n    tag_292:\n        /* \"#utility.yul\":6125:6670   */\n      swap5\n      swap4\n      pop\n      pop\n      pop\n      pop\n      jump\t// out\n        /* \"#utility.yul\":6676:6987   */\n    tag_170:\n        /* \"#utility.yul\":6753:6757   */\n      0x00\n        /* \"#utility.yul\":6843:6861   */\n      0xffffffffffffffff\n        /* \"#utility.yul\":6835:6841   */\n      dup3\n        /* \"#utility.yul\":6832:6862   */\n      gt\n        /* \"#utility.yul\":6829:6885   */\n      iszero\n      tag_294\n      jumpi\n        /* \"#utility.yul\":6865:6883   */\n      tag_295\n      tag_152\n      jump\t// in\n    tag_295:\n        /* \"#utility.yul\":6829:6885   */\n    tag_294:\n        /* \"#utility.yul\":6915:6919   */\n      0x20\n        /* \"#utility.yul\":6907:6913   */\n      dup3\n        /* \"#utility.yul\":6903:6920   */\n      mul\n        /* \"#utility.yul\":6895:6920   */\n      swap1\n      pop\n        /* \"#utility.yul\":6975:6979   */\n      0x20\n        /* \"#utility.yul\":6969:6973   */\n      dup2\n        /* \"#utility.yul\":6965:6980   */\n      add\n        /* \"#utility.yul\":6957:6980   */\n      swap1\n      pop\n        /* \"#utility.yul\":6676:6987   */\n      swap2\n      swap1\n      pop\n      jump\t// out\n        /* \"#utility.yul\":6993:7110   */\n    tag_171:\n        /* \"#utility.yul\":7102:7103   */\n      0x00\n        /* \"#utility.yul\":7099:7100   */\n      dup1\n        /* \"#utility.yul\":7092:7104   */\n      revert\n        /* \"#utility.yul\":7133:7843   */\n    tag_172:\n        /* \"#utility.yul\":7229:7234   */\n      0x00\n        /* \"#utility.yul\":7254:7335   */\n      tag_298\n        /* \"#utility.yul\":7270:7334   */\n      tag_299\n        /* \"#utility.yul\":7327:7333   */\n      dup5\n        /* \"#utility.yul\":7270:7334   */\n      tag_170\n      jump\t// in\n    tag_299:\n        /* \"#utility.yul\":7254:7335   */\n      tag_154\n      jump\t// in\n    tag_298:\n        /* \"#utility.yul\":7245:7335   */\n      swap1\n      pop\n        /* \"#utility.yul\":7355:7360   */\n      dup1\n        /* \"#utility.yul\":7384:7390   */\n      dup4\n        /* \"#utility.yul\":7377:7382   */\n      dup3\n        /* \"#utility.yul\":7370:7391   */\n      mstore\n        /* \"#utility.yul\":7418:7422   */\n      0x20\n        /* \"#utility.yul\":7411:7416   */\n      dup3\n        /* \"#utility.yul\":7407:7423   */\n      add\n        /* \"#utility.yul\":7400:7423   */\n      swap1\n      pop\n        /* \"#utility.yul\":7471:7475   */\n      0x20\n        /* \"#utility.yul\":7463:7469   */\n      dup5\n        /* \"#utility.yul\":7459:7476   */\n      mul\n        /* \"#utility.yul\":7451:7457   */\n      dup4\n        /* \"#utility.yul\":7447:7477   */\n      add\n        /* \"#utility.yul\":7500:7503   */\n      dup6\n        /* \"#utility.yul\":7492:7498   */\n      dup2\n        /* \"#utility.yul\":7489:7504   */\n      gt\n        /* \"#utility.yul\":7486:7608   */\n      iszero\n      tag_300\n      jumpi\n        /* \"#utility.yul\":7519:7598   */\n      tag_301\n      tag_171\n      jump\t// in\n    tag_301:\n        /* \"#utility.yul\":7486:7608   */\n    tag_300:\n        /* \"#utility.yul\":7634:7640   */\n      dup4\n        /* \"#utility.yul\":7617:7837   */\n    tag_302:\n        /* \"#utility.yul\":7651:7657   */\n      dup2\n        /* \"#utility.yul\":7646:7649   */\n      dup2\n        /* \"#utility.yul\":7643:7658   */\n      lt\n        /* \"#utility.yul\":7617:7837   */\n      iszero\n      tag_304\n      jumpi\n        /* \"#utility.yul\":7726:7729   */\n      dup1\n        /* \"#utility.yul\":7755:7792   */\n      tag_305\n        /* \"#utility.yul\":7788:7791   */\n      dup9\n        /* \"#utility.yul\":7776:7786   */\n      dup3\n        /* \"#utility.yul\":7755:7792   */\n      tag_148\n      jump\t// in\n    tag_305:\n        /* \"#utility.yul\":7750:7753   */\n      dup5\n        /* \"#utility.yul\":7743:7793   */\n      mstore\n        /* \"#utility.yul\":7822:7826   */\n      0x20\n        /* \"#utility.yul\":7817:7820   */\n      dup5\n        /* \"#utility.yul\":7813:7827   */\n      add\n        /* \"#utility.yul\":7806:7827   */\n      swap4\n      pop\n        /* \"#utility.yul\":7693:7837   */\n      pop\n        /* \"#utility.yul\":7677:7681   */\n      0x20\n        /* \"#utility.yul\":7672:7675   */\n      dup2\n        /* \"#utility.yul\":7668:7682   */\n      add\n        /* \"#utility.yul\":7661:7682   */\n      swap1\n      pop\n        /* \"#utility.yul\":7617:7837   */\n      jump(tag_302)\n    tag_304:\n        /* \"#utility.yul\":7621:7642   */\n      pop\n        /* \"#utility.yul\":7235:7843   */\n      pop\n      pop\n        /* \"#utility.yul\":7133:7843   */\n      swap4\n      swap3\n      pop\n      pop\n      pop\n      jump\t// out\n        /* \"#utility.yul\":7866:8236   */\n    tag_173:\n        /* \"#utility.yul\":7937:7942   */\n      0x00\n        /* \"#utility.yul\":7986:7989   */\n      dup3\n        /* \"#utility.yul\":7979:7983   */\n      0x1f\n        /* \"#utility.yul\":7971:7977   */\n      dup4\n        /* \"#utility.yul\":7967:7984   */\n      add\n        /* \"#utility.yul\":7963:7990   */\n      slt\n        /* \"#utility.yul\":7953:8075   */\n      tag_307\n      jumpi\n        /* \"#utility.yul\":7994:8073   */\n      tag_308\n      tag_149\n      jump\t// in\n    tag_308:\n        /* \"#utility.yul\":7953:8075   */\n    tag_307:\n        /* \"#utility.yul\":8111:8117   */\n      dup2\n        /* \"#utility.yul\":8098:8118   */\n      calldataload\n        /* \"#utility.yul\":8136:8230   */\n      tag_309\n        /* \"#utility.yul\":8226:8229   */\n      dup5\n        /* \"#utility.yul\":8218:8224   */\n      dup3\n        /* \"#utility.yul\":8211:8215   */\n      0x20\n        /* \"#utility.yul\":8203:8209   */\n      dup7\n        /* \"#utility.yul\":8199:8216   */\n      add\n        /* \"#utility.yul\":8136:8230   */\n      tag_172\n      jump\t// in\n    tag_309:\n        /* \"#utility.yul\":8127:8230   */\n      swap2\n      pop\n        /* \"#utility.yul\":7943:8236   */\n      pop\n        /* \"#utility.yul\":7866:8236   */\n      swap3\n      swap2\n      pop\n      pop\n      jump\t// out\n        /* \"#utility.yul\":8242:9106   */\n    tag_25:\n        /* \"#utility.yul\":8345:8351   */\n      0x00\n        /* \"#utility.yul\":8353:8359   */\n      dup1\n        /* \"#utility.yul\":8402:8404   */\n      0x40\n        /* \"#utility.yul\":8390:8399   */\n      dup4\n        /* \"#utility.yul\":8381:8388   */\n      dup6\n        /* \"#utility.yul\":8377:8400   */\n      sub\n        /* \"#utility.yul\":8373:8405   */\n      slt\n        /* \"#utility.yul\":8370:8489   */\n      iszero\n      tag_311\n      jumpi\n        /* \"#utility.yul\":8408:8487   */\n      tag_312\n      tag_144\n      jump\t// in\n    tag_312:\n        /* \"#utility.yul\":8370:8489   */\n    tag_311:\n        /* \"#utility.yul\":8556:8557   */\n      0x00\n        /* \"#utility.yul\":8545:8554   */\n      dup4\n        /* \"#utility.yul\":8541:8558   */\n      add\n        /* \"#utility.yul\":8528:8559   */\n      calldataload\n        /* \"#utility.yul\":8586:8604   */\n      0xffffffffffffffff\n        /* \"#utility.yul\":8578:8584   */\n      dup2\n        /* \"#utility.yul\":8575:8605   */\n      gt\n        /* \"#utility.yul\":8572:8689   */\n      iszero\n      tag_313\n      jumpi\n        /* \"#utility.yul\":8608:8687   */\n      tag_314\n      tag_145\n      jump\t// in\n    tag_314:\n        /* \"#utility.yul\":8572:8689   */\n    tag_313:\n        /* \"#utility.yul\":8713:8776   */\n      tag_315\n        /* \"#utility.yul\":8768:8775   */\n      dup6\n        /* \"#utility.yul\":8759:8765   */\n      dup3\n        /* \"#utility.yul\":8748:8757   */\n      dup7\n        /* \"#utility.yul\":8744:8766   */\n      add\n        /* \"#utility.yul\":8713:8776   */\n      tag_158\n      jump\t// in\n    tag_315:\n        /* \"#utility.yul\":8703:8776   */\n      swap3\n      pop\n        /* \"#utility.yul\":8499:8786   */\n      pop\n        /* \"#utility.yul\":8853:8855   */\n      0x20\n        /* \"#utility.yul\":8842:8851   */\n      dup4\n        /* \"#utility.yul\":8838:8856   */\n      add\n        /* \"#utility.yul\":8825:8857   */\n      calldataload\n        /* \"#utility.yul\":8884:8902   */\n      0xffffffffffffffff\n        /* \"#utility.yul\":8876:8882   */\n      dup2\n        /* \"#utility.yul\":8873:8903   */\n      gt\n        /* \"#utility.yul\":8870:8987   */\n      iszero\n      tag_316\n      jumpi\n        /* \"#utility.yul\":8906:8985   */\n      tag_317\n      tag_145\n      jump\t// in\n    tag_317:\n        /* \"#utility.yul\":8870:8987   */\n    tag_316:\n        /* \"#utility.yul\":9011:9089   */\n      tag_318\n        /* \"#utility.yul\":9081:9088   */\n      dup6\n        /* \"#utility.yul\":9072:9078   */\n      dup3\n        /* \"#utility.yul\":9061:9070   */\n      dup7\n        /* \"#utility.yul\":9057:9079   */\n      add\n        /* \"#utility.yul\":9011:9089   */\n      tag_173\n      jump\t// in\n    tag_318:\n        /* \"#utility.yul\":9001:9089   */\n      swap2\n      pop\n        /* \"#utility.yul\":8796:9099   */\n      pop\n        /* \"#utility.yul\":8242:9106   */\n      swap3\n      pop\n      swap3\n      swap1\n      pop\n      jump\t// out\n        /* \"#utility.yul\":9112:9230   */\n    tag_174:\n        /* \"#utility.yul\":9199:9223   */\n      tag_320\n        /* \"#utility.yul\":9217:9222   */\n      dup2\n        /* \"#utility.yul\":9199:9223   */\n      tag_146\n      jump\t// in\n    tag_320:\n        /* \"#utility.yul\":9194:9197   */\n      dup3\n        /* \"#utility.yul\":9187:9224   */\n      mstore\n        /* \"#utility.yul\":9112:9230   */\n      pop\n      pop\n      jump\t// out\n        /* \"#utility.yul\":9236:9458   */\n    tag_28:\n        /* \"#utility.yul\":9329:9333   */\n      0x00\n        /* \"#utility.yul\":9367:9369   */\n      0x20\n        /* \"#utility.yul\":9356:9365   */\n      dup3\n        /* \"#utility.yul\":9352:9370   */\n      add\n        /* \"#utility.yul\":9344:9370   */\n      swap1\n      pop\n        /* \"#utility.yul\":9380:9451   */\n      tag_322\n        /* \"#utility.yul\":9448:9449   */\n      0x00\n        /* \"#utility.yul\":9437:9446   */\n      dup4\n        /* \"#utility.yul\":9433:9450   */\n      add\n        /* \"#utility.yul\":9424:9430   */\n      dup5\n        /* \"#utility.yul\":9380:9451   */\n      tag_174\n      jump\t// in\n    tag_322:\n        /* \"#utility.yul\":9236:9458   */\n      swap3\n      swap2\n      pop\n      pop\n      jump\t// out\n        /* \"#utility.yul\":9464:9572   */\n    tag_175:\n        /* \"#utility.yul\":9541:9565   */\n      tag_324\n        /* \"#utility.yul\":9559:9564   */\n      dup2\n        /* \"#utility.yul\":9541:9565   */\n      tag_160\n      jump\t// in\n    tag_324:\n        /* \"#utility.yul\":9536:9539   */\n      dup3\n        /* \"#utility.yul\":9529:9566   */\n      mstore\n        /* \"#utility.yul\":9464:9572   */\n      pop\n      pop\n      jump\t// out\n        /* \"#utility.yul\":9578:9737   */\n    tag_176:\n        /* \"#utility.yul\":9652:9663   */\n      0x00\n        /* \"#utility.yul\":9686:9692   */\n      dup3\n        /* \"#utility.yul\":9681:9684   */\n      dup3\n        /* \"#utility.yul\":9674:9693   */\n      mstore\n        /* \"#utility.yul\":9726:9730   */\n      0x20\n        /* \"#utility.yul\":9721:9724   */\n      dup3\n        /* \"#utility.yul\":9717:9731   */\n      add\n        /* \"#utility.yul\":9702:9731   */\n      swap1\n      pop\n        /* \"#utility.yul\":9578:9737   */\n      swap3\n      swap2\n      pop\n      pop\n      jump\t// out\n        /* \"#utility.yul\":9743:10100   */\n    tag_177:\n        /* \"#utility.yul\":9821:9824   */\n      0x00\n        /* \"#utility.yul\":9849:9888   */\n      tag_327\n        /* \"#utility.yul\":9882:9887   */\n      dup3\n        /* \"#utility.yul\":9849:9888   */\n      tag_162\n      jump\t// in\n    tag_327:\n        /* \"#utility.yul\":9904:9965   */\n      tag_328\n        /* \"#utility.yul\":9958:9964   */\n      dup2\n        /* \"#utility.yul\":9953:9956   */\n      dup6\n        /* \"#utility.yul\":9904:9965   */\n      tag_176\n      jump\t// in\n    tag_328:\n        /* \"#utility.yul\":9897:9965   */\n      swap4\n      pop\n        /* \"#utility.yul\":9974:10039   */\n      tag_329\n        /* \"#utility.yul\":10032:10038   */\n      dup2\n        /* \"#utility.yul\":10027:10030   */\n      dup6\n        /* \"#utility.yul\":10020:10024   */\n      0x20\n        /* \"#utility.yul\":10013:10018   */\n      dup7\n        /* \"#utility.yul\":10009:10025   */\n      add\n        /* \"#utility.yul\":9974:10039   */\n      tag_164\n      jump\t// in\n    tag_329:\n        /* \"#utility.yul\":10064:10093   */\n      tag_330\n        /* \"#utility.yul\":10086:10092   */\n      dup2\n        /* \"#utility.yul\":10064:10093   */\n      tag_151\n      jump\t// in\n    tag_330:\n        /* \"#utility.yul\":10059:10062   */\n      dup5\n        /* \"#utility.yul\":10055:10094   */\n      add\n        /* \"#utility.yul\":10048:10094   */\n      swap2\n      pop\n        /* \"#utility.yul\":9825:10100   */\n      pop\n        /* \"#utility.yul\":9743:10100   */\n      swap3\n      swap2\n      pop\n      pop\n      jump\t// out\n        /* \"#utility.yul\":10106:10220   */\n    tag_178:\n        /* \"#utility.yul\":10173:10179   */\n      0x00\n        /* \"#utility.yul\":10207:10212   */\n      dup2\n        /* \"#utility.yul\":10201:10213   */\n      mload\n        /* \"#utility.yul\":10191:10213   */\n      swap1\n      pop\n        /* \"#utility.yul\":10106:10220   */\n      swap2\n      swap1\n      pop\n      jump\t// out\n        /* \"#utility.yul\":10226:10400   */\n    tag_179:\n        /* \"#utility.yul\":10315:10326   */\n      0x00\n        /* \"#utility.yul\":10349:10355   */\n      dup3\n        /* \"#utility.yul\":10344:10347   */\n      dup3\n        /* \"#utility.yul\":10337:10356   */\n      mstore\n        /* \"#utility.yul\":10389:10393   */\n      0x20\n        /* \"#utility.yul\":10384:10387   */\n      dup3\n        /* \"#utility.yul\":10380:10394   */\n      add\n        /* \"#utility.yul\":10365:10394   */\n      swap1\n      pop\n        /* \"#utility.yul\":10226:10400   */\n      swap3\n      swap2\n      pop\n      pop\n      jump\t// out\n        /* \"#utility.yul\":10406:10538   */\n    tag_180:\n        /* \"#utility.yul\":10473:10477   */\n      0x00\n        /* \"#utility.yul\":10496:10499   */\n      dup2\n        /* \"#utility.yul\":10488:10499   */\n      swap1\n      pop\n        /* \"#utility.yul\":10526:10530   */\n      0x20\n        /* \"#utility.yul\":10521:10524   */\n      dup3\n        /* \"#utility.yul\":10517:10531   */\n      add\n        /* \"#utility.yul\":10509:10531   */\n      swap1\n      pop\n        /* \"#utility.yul\":10406:10538   */\n      swap2\n      swap1\n      pop\n      jump\t// out\n        /* \"#utility.yul\":10544:10652   */\n    tag_181:\n        /* \"#utility.yul\":10621:10645   */\n      tag_335\n        /* \"#utility.yul\":10639:10644   */\n      dup2\n        /* \"#utility.yul\":10621:10645   */\n      tag_146\n      jump\t// in\n    tag_335:\n        /* \"#utility.yul\":10616:10619   */\n      dup3\n        /* \"#utility.yul\":10609:10646   */\n      mstore\n        /* \"#utility.yul\":10544:10652   */\n      pop\n      pop\n      jump\t// out\n        /* \"#utility.yul\":10658:10837   */\n    tag_182:\n        /* \"#utility.yul\":10727:10737   */\n      0x00\n        /* \"#utility.yul\":10748:10794   */\n      tag_337\n        /* \"#utility.yul\":10790:10793   */\n      dup4\n        /* \"#utility.yul\":10782:10788   */\n      dup4\n        /* \"#utility.yul\":10748:10794   */\n      tag_181\n      jump\t// in\n    tag_337:\n        /* \"#utility.yul\":10826:10830   */\n      0x20\n        /* \"#utility.yul\":10821:10824   */\n      dup4\n        /* \"#utility.yul\":10817:10831   */\n      add\n        /* \"#utility.yul\":10803:10831   */\n      swap1\n      pop\n        /* \"#utility.yul\":10658:10837   */\n      swap3\n      swap2\n      pop\n      pop\n      jump\t// out\n        /* \"#utility.yul\":10843:10956   */\n    tag_183:\n        /* \"#utility.yul\":10913:10917   */\n      0x00\n        /* \"#utility.yul\":10945:10949   */\n      0x20\n        /* \"#utility.yul\":10940:10943   */\n      dup3\n        /* \"#utility.yul\":10936:10950   */\n      add\n        /* \"#utility.yul\":10928:10950   */\n      swap1\n      pop\n        /* \"#utility.yul\":10843:10956   */\n      swap2\n      swap1\n      pop\n      jump\t// out\n        /* \"#utility.yul\":10992:11704   */\n    tag_184:\n        /* \"#utility.yul\":11101:11104   */\n      0x00\n        /* \"#utility.yul\":11130:11184   */\n      tag_340\n        /* \"#utility.yul\":11178:11183   */\n      dup3\n        /* \"#utility.yul\":11130:11184   */\n      tag_178\n      jump\t// in\n    tag_340:\n        /* \"#utility.yul\":11200:11276   */\n      tag_341\n        /* \"#utility.yul\":11269:11275   */\n      dup2\n        /* \"#utility.yul\":11264:11267   */\n      dup6\n        /* \"#utility.yul\":11200:11276   */\n      tag_179\n      jump\t// in\n    tag_341:\n        /* \"#utility.yul\":11193:11276   */\n      swap4\n      pop\n        /* \"#utility.yul\":11300:11356   */\n      tag_342\n        /* \"#utility.yul\":11350:11355   */\n      dup4\n        /* \"#utility.yul\":11300:11356   */\n      tag_180\n      jump\t// in\n    tag_342:\n        /* \"#utility.yul\":11379:11386   */\n      dup1\n        /* \"#utility.yul\":11410:11411   */\n      0x00\n        /* \"#utility.yul\":11395:11679   */\n    tag_343:\n        /* \"#utility.yul\":11420:11426   */\n      dup4\n        /* \"#utility.yul\":11417:11418   */\n      dup2\n        /* \"#utility.yul\":11414:11427   */\n      lt\n        /* \"#utility.yul\":11395:11679   */\n      iszero\n      tag_345\n      jumpi\n        /* \"#utility.yul\":11496:11502   */\n      dup2\n        /* \"#utility.yul\":11490:11503   */\n      mload\n        /* \"#utility.yul\":11523:11586   */\n      tag_346\n        /* \"#utility.yul\":11582:11585   */\n      dup9\n        /* \"#utility.yul\":11567:11580   */\n      dup3\n        /* \"#utility.yul\":11523:11586   */\n      tag_182\n      jump\t// in\n    tag_346:\n        /* \"#utility.yul\":11516:11586   */\n      swap8\n      pop\n        /* \"#utility.yul\":11609:11669   */\n      tag_347\n        /* \"#utility.yul\":11662:11668   */\n      dup4\n        /* \"#utility.yul\":11609:11669   */\n      tag_183\n      jump\t// in\n    tag_347:\n        /* \"#utility.yul\":11599:11669   */\n      swap3\n      pop\n        /* \"#utility.yul\":11455:11679   */\n      pop\n        /* \"#utility.yul\":11442:11443   */\n      0x01\n        /* \"#utility.yul\":11439:11440   */\n      dup2\n        /* \"#utility.yul\":11435:11444   */\n      add\n        /* \"#utility.yul\":11430:11444   */\n      swap1\n      pop\n        /* \"#utility.yul\":11395:11679   */\n      jump(tag_343)\n    tag_345:\n        /* \"#utility.yul\":11399:11413   */\n      pop\n        /* \"#utility.yul\":11695:11698   */\n      dup6\n        /* \"#utility.yul\":11688:11698   */\n      swap4\n      pop\n        /* \"#utility.yul\":11106:11704   */\n      pop\n      pop\n      pop\n        /* \"#utility.yul\":10992:11704   */\n      swap3\n      swap2\n      pop\n      pop\n      jump\t// out\n        /* \"#utility.yul\":11710:11843   */\n    tag_185:\n        /* \"#utility.yul\":11793:11836   */\n      tag_349\n        /* \"#utility.yul\":11830:11835   */\n      dup2\n        /* \"#utility.yul\":11793:11836   */\n      tag_168\n      jump\t// in\n    tag_349:\n        /* \"#utility.yul\":11788:11791   */\n      dup3\n        /* \"#utility.yul\":11781:11837   */\n      mstore\n        /* \"#utility.yul\":11710:11843   */\n      pop\n      pop\n      jump\t// out\n        /* \"#utility.yul\":11907:12972   */\n    tag_186:\n        /* \"#utility.yul\":12018:12021   */\n      0x00\n        /* \"#utility.yul\":12054:12058   */\n      0x80\n        /* \"#utility.yul\":12049:12052   */\n      dup4\n        /* \"#utility.yul\":12045:12059   */\n      add\n        /* \"#utility.yul\":12145:12149   */\n      0x00\n        /* \"#utility.yul\":12138:12143   */\n      dup4\n        /* \"#utility.yul\":12134:12150   */\n      add\n        /* \"#utility.yul\":12128:12151   */\n      mload\n        /* \"#utility.yul\":12164:12227   */\n      tag_351\n        /* \"#utility.yul\":12221:12225   */\n      0x00\n        /* \"#utility.yul\":12216:12219   */\n      dup7\n        /* \"#utility.yul\":12212:12226   */\n      add\n        /* \"#utility.yul\":12198:12210   */\n      dup3\n        /* \"#utility.yul\":12164:12227   */\n      tag_175\n      jump\t// in\n    tag_351:\n        /* \"#utility.yul\":12069:12237   */\n      pop\n        /* \"#utility.yul\":12322:12326   */\n      0x20\n        /* \"#utility.yul\":12315:12320   */\n      dup4\n        /* \"#utility.yul\":12311:12327   */\n      add\n        /* \"#utility.yul\":12305:12328   */\n      mload\n        /* \"#utility.yul\":12375:12378   */\n      dup5\n        /* \"#utility.yul\":12369:12373   */\n      dup3\n        /* \"#utility.yul\":12365:12379   */\n      sub\n        /* \"#utility.yul\":12358:12362   */\n      0x20\n        /* \"#utility.yul\":12353:12356   */\n      dup7\n        /* \"#utility.yul\":12349:12363   */\n      add\n        /* \"#utility.yul\":12342:12380   */\n      mstore\n        /* \"#utility.yul\":12401:12474   */\n      tag_352\n        /* \"#utility.yul\":12469:12473   */\n      dup3\n        /* \"#utility.yul\":12455:12467   */\n      dup3\n        /* \"#utility.yul\":12401:12474   */\n      tag_177\n      jump\t// in\n    tag_352:\n        /* \"#utility.yul\":12393:12474   */\n      swap2\n      pop\n        /* \"#utility.yul\":12247:12485   */\n      pop\n        /* \"#utility.yul\":12570:12574   */\n      0x40\n        /* \"#utility.yul\":12563:12568   */\n      dup4\n        /* \"#utility.yul\":12559:12575   */\n      add\n        /* \"#utility.yul\":12553:12576   */\n      mload\n        /* \"#utility.yul\":12623:12626   */\n      dup5\n        /* \"#utility.yul\":12617:12621   */\n      dup3\n        /* \"#utility.yul\":12613:12627   */\n      sub\n        /* \"#utility.yul\":12606:12610   */\n      0x40\n        /* \"#utility.yul\":12601:12604   */\n      dup7\n        /* \"#utility.yul\":12597:12611   */\n      add\n        /* \"#utility.yul\":12590:12628   */\n      mstore\n        /* \"#utility.yul\":12649:12752   */\n      tag_353\n        /* \"#utility.yul\":12747:12751   */\n      dup3\n        /* \"#utility.yul\":12733:12745   */\n      dup3\n        /* \"#utility.yul\":12649:12752   */\n      tag_184\n      jump\t// in\n    tag_353:\n        /* \"#utility.yul\":12641:12752   */\n      swap2\n      pop\n        /* \"#utility.yul\":12495:12763   */\n      pop\n        /* \"#utility.yul\":12847:12851   */\n      0x60\n        /* \"#utility.yul\":12840:12845   */\n      dup4\n        /* \"#utility.yul\":12836:12852   */\n      add\n        /* \"#utility.yul\":12830:12853   */\n      mload\n        /* \"#utility.yul\":12866:12935   */\n      tag_354\n        /* \"#utility.yul\":12929:12933   */\n      0x60\n        /* \"#utility.yul\":12924:12927   */\n      dup7\n        /* \"#utility.yul\":12920:12934   */\n      add\n        /* \"#utility.yul\":12906:12918   */\n      dup3\n        /* \"#utility.yul\":12866:12935   */\n      tag_185\n      jump\t// in\n    tag_354:\n        /* \"#utility.yul\":12773:12945   */\n      pop\n        /* \"#utility.yul\":12962:12966   */\n      dup1\n        /* \"#utility.yul\":12955:12966   */\n      swap2\n      pop\n        /* \"#utility.yul\":12023:12972   */\n      pop\n        /* \"#utility.yul\":11907:12972   */\n      swap3\n      swap2\n      pop\n      pop\n      jump\t// out\n        /* \"#utility.yul\":12978:13335   */\n    tag_33:\n        /* \"#utility.yul\":13113:13117   */\n      0x00\n        /* \"#utility.yul\":13151:13153   */\n      0x20\n        /* \"#utility.yul\":13140:13149   */\n      dup3\n        /* \"#utility.yul\":13136:13154   */\n      add\n        /* \"#utility.yul\":13128:13154   */\n      swap1\n      pop\n        /* \"#utility.yul\":13200:13209   */\n      dup2\n        /* \"#utility.yul\":13194:13198   */\n      dup2\n        /* \"#utility.yul\":13190:13210   */\n      sub\n        /* \"#utility.yul\":13186:13187   */\n      0x00\n        /* \"#utility.yul\":13175:13184   */\n      dup4\n        /* \"#utility.yul\":13171:13188   */\n      add\n        /* \"#utility.yul\":13164:13211   */\n      mstore\n        /* \"#utility.yul\":13228:13328   */\n      tag_356\n        /* \"#utility.yul\":13323:13327   */\n      dup2\n        /* \"#utility.yul\":13314:13320   */\n      dup5\n        /* \"#utility.yul\":13228:13328   */\n      tag_186\n      jump\t// in\n    tag_356:\n        /* \"#utility.yul\":13220:13328   */\n      swap1\n      pop\n        /* \"#utility.yul\":12978:13335   */\n      swap3\n      swap2\n      pop\n      pop\n      jump\t// out\n        /* \"#utility.yul\":13341:13511   */\n    tag_187:\n        /* \"#utility.yul\":13481:13503   */\n      0x4e6f7420612076616c6964206f72646572206964000000000000000000000000\n        /* \"#utility.yul\":13477:13478   */\n      0x00\n        /* \"#utility.yul\":13469:13475   */\n      dup3\n        /* \"#utility.yul\":13465:13479   */\n      add\n        /* \"#utility.yul\":13458:13504   */\n      mstore\n        /* \"#utility.yul\":13341:13511   */\n      pop\n      jump\t// out\n        /* \"#utility.yul\":13517:13883   */\n    tag_188:\n        /* \"#utility.yul\":13659:13662   */\n      0x00\n        /* \"#utility.yul\":13680:13747   */\n      tag_359\n        /* \"#utility.yul\":13744:13746   */\n      0x14\n        /* \"#utility.yul\":13739:13742   */\n      dup4\n        /* \"#utility.yul\":13680:13747   */\n      tag_163\n      jump\t// in\n    tag_359:\n        /* \"#utility.yul\":13673:13747   */\n      swap2\n      pop\n        /* \"#utility.yul\":13756:13849   */\n      tag_360\n        /* \"#utility.yul\":13845:13848   */\n      dup3\n        /* \"#utility.yul\":13756:13849   */\n      tag_187\n      jump\t// in\n    tag_360:\n        /* \"#utility.yul\":13874:13876   */\n      0x20\n        /* \"#utility.yul\":13869:13872   */\n      dup3\n        /* \"#utility.yul\":13865:13877   */\n      add\n        /* \"#utility.yul\":13858:13877   */\n      swap1\n      pop\n        /* \"#utility.yul\":13517:13883   */\n      swap2\n      swap1\n      pop\n      jump\t// out\n        /* \"#utility.yul\":13889:14308   */\n    tag_40:\n        /* \"#utility.yul\":14055:14059   */\n      0x00\n        /* \"#utility.yul\":14093:14095   */\n      0x20\n        /* \"#utility.yul\":14082:14091   */\n      dup3\n        /* \"#utility.yul\":14078:14096   */\n      add\n        /* \"#utility.yul\":14070:14096   */\n      swap1\n      pop\n        /* \"#utility.yul\":14142:14151   */\n      dup2\n        /* \"#utility.yul\":14136:14140   */\n      dup2\n        /* \"#utility.yul\":14132:14152   */\n      sub\n        /* \"#utility.yul\":14128:14129   */\n      0x00\n        /* \"#utility.yul\":14117:14126   */\n      dup4\n        /* \"#utility.yul\":14113:14130   */\n      add\n        /* \"#utility.yul\":14106:14153   */\n      mstore\n        /* \"#utility.yul\":14170:14301   */\n      tag_362\n        /* \"#utility.yul\":14296:14300   */\n      dup2\n        /* \"#utility.yul\":14170:14301   */\n      tag_188\n      jump\t// in\n    tag_362:\n        /* \"#utility.yul\":14162:14301   */\n      swap1\n      pop\n        /* \"#utility.yul\":13889:14308   */\n      swap2\n      swap1\n      pop\n      jump\t// out\n        /* \"#utility.yul\":14314:14494   */\n    tag_43:\n        /* \"#utility.yul\":14362:14439   */\n      0x4e487b7100000000000000000000000000000000000000000000000000000000\n        /* \"#utility.yul\":14359:14360   */\n      0x00\n        /* \"#utility.yul\":14352:14440   */\n      mstore\n        /* \"#utility.yul\":14459:14463   */\n      0x32\n        /* \"#utility.yul\":14456:14457   */\n      0x04\n        /* \"#utility.yul\":14449:14464   */\n      mstore\n        /* \"#utility.yul\":14483:14487   */\n      0x24\n        /* \"#utility.yul\":14480:14481   */\n      0x00\n        /* \"#utility.yul\":14473:14488   */\n      revert\n        /* \"#utility.yul\":14500:14672   */\n    tag_189:\n        /* \"#utility.yul\":14640:14664   */\n      0x20796f7520617265206e6f7420746865206f776e657200000000000000000000\n        /* \"#utility.yul\":14636:14637   */\n      0x00\n        /* \"#utility.yul\":14628:14634   */\n      dup3\n        /* \"#utility.yul\":14624:14638   */\n      add\n        /* \"#utility.yul\":14617:14665   */\n      mstore\n        /* \"#utility.yul\":14500:14672   */\n      pop\n      jump\t// out\n        /* \"#utility.yul\":14678:15044   */\n    tag_190:\n        /* \"#utility.yul\":14820:14823   */\n      0x00\n        /* \"#utility.yul\":14841:14908   */\n      tag_366\n        /* \"#utility.yul\":14905:14907   */\n      0x16\n        /* \"#utility.yul\":14900:14903   */\n      dup4\n        /* \"#utility.yul\":14841:14908   */\n      tag_163\n      jump\t// in\n    tag_366:\n        /* \"#utility.yul\":14834:14908   */\n      swap2\n      pop\n        /* \"#utility.yul\":14917:15010   */\n      tag_367\n        /* \"#utility.yul\":15006:15009   */\n      dup3\n        /* \"#utility.yul\":14917:15010   */\n      tag_189\n      jump\t// in\n    tag_367:\n        /* \"#utility.yul\":15035:15037   */\n      0x20\n        /* \"#utility.yul\":15030:15033   */\n      dup3\n        /* \"#utility.yul\":15026:15038   */\n      add\n        /* \"#utility.yul\":15019:15038   */\n      swap1\n      pop\n        /* \"#utility.yul\":14678:15044   */\n      swap2\n      swap1\n      pop\n      jump\t// out\n        /* \"#utility.yul\":15050:15469   */\n    tag_47:\n        /* \"#utility.yul\":15216:15220   */\n      0x00\n        /* \"#utility.yul\":15254:15256   */\n      0x20\n        /* \"#utility.yul\":15243:15252   */\n      dup3\n        /* \"#utility.yul\":15239:15257   */\n      add\n        /* \"#utility.yul\":15231:15257   */\n      swap1\n      pop\n        /* \"#utility.yul\":15303:15312   */\n      dup2\n        /* \"#utility.yul\":15297:15301   */\n      dup2\n        /* \"#utility.yul\":15293:15313   */\n      sub\n        /* \"#utility.yul\":15289:15290   */\n      0x00\n        /* \"#utility.yul\":15278:15287   */\n      dup4\n        /* \"#utility.yul\":15274:15291   */\n      add\n        /* \"#utility.yul\":15267:15314   */\n      mstore\n        /* \"#utility.yul\":15331:15462   */\n      tag_369\n        /* \"#utility.yul\":15457:15461   */\n      dup2\n        /* \"#utility.yul\":15331:15462   */\n      tag_190\n      jump\t// in\n    tag_369:\n        /* \"#utility.yul\":15323:15462   */\n      swap1\n      pop\n        /* \"#utility.yul\":15050:15469   */\n      swap2\n      swap1\n      pop\n      jump\t// out\n        /* \"#utility.yul\":15475:15655   */\n    tag_191:\n        /* \"#utility.yul\":15523:15600   */\n      0x4e487b7100000000000000000000000000000000000000000000000000000000\n        /* \"#utility.yul\":15520:15521   */\n      0x00\n        /* \"#utility.yul\":15513:15601   */\n      mstore\n        /* \"#utility.yul\":15620:15624   */\n      0x22\n        /* \"#utility.yul\":15617:15618   */\n      0x04\n        /* \"#utility.yul\":15610:15625   */\n      mstore\n        /* \"#utility.yul\":15644:15648   */\n      0x24\n        /* \"#utility.yul\":15641:15642   */\n      0x00\n        /* \"#utility.yul\":15634:15649   */\n      revert\n        /* \"#utility.yul\":15661:15981   */\n    tag_53:\n        /* \"#utility.yul\":15705:15711   */\n      0x00\n        /* \"#utility.yul\":15742:15743   */\n      0x02\n        /* \"#utility.yul\":15736:15740   */\n      dup3\n        /* \"#utility.yul\":15732:15744   */\n      div\n        /* \"#utility.yul\":15722:15744   */\n      swap1\n      pop\n        /* \"#utility.yul\":15789:15790   */\n      0x01\n        /* \"#utility.yul\":15783:15787   */\n      dup3\n        /* \"#utility.yul\":15779:15791   */\n      and\n        /* \"#utility.yul\":15810:15828   */\n      dup1\n        /* \"#utility.yul\":15800:15881   */\n      tag_372\n      jumpi\n        /* \"#utility.yul\":15866:15870   */\n      0x7f\n        /* \"#utility.yul\":15858:15864   */\n      dup3\n        /* \"#utility.yul\":15854:15871   */\n      and\n        /* \"#utility.yul\":15844:15871   */\n      swap2\n      pop\n        /* \"#utility.yul\":15800:15881   */\n    tag_372:\n        /* \"#utility.yul\":15928:15930   */\n      0x20\n        /* \"#utility.yul\":15920:15926   */\n      dup3\n        /* \"#utility.yul\":15917:15931   */\n      lt\n        /* \"#utility.yul\":15897:15915   */\n      dup2\n        /* \"#utility.yul\":15894:15932   */\n      sub\n        /* \"#utility.yul\":15891:15975   */\n      tag_373\n      jumpi\n        /* \"#utility.yul\":15947:15965   */\n      tag_374\n      tag_191\n      jump\t// in\n    tag_374:\n        /* \"#utility.yul\":15891:15975   */\n    tag_373:\n        /* \"#utility.yul\":15712:15981   */\n      pop\n        /* \"#utility.yul\":15661:15981   */\n      swap2\n      swap1\n      pop\n      jump\t// out\n        /* \"#utility.yul\":15987:16128   */\n    tag_192:\n        /* \"#utility.yul\":16036:16040   */\n      0x00\n        /* \"#utility.yul\":16059:16062   */\n      dup2\n        /* \"#utility.yul\":16051:16062   */\n      swap1\n      pop\n        /* \"#utility.yul\":16082:16085   */\n      dup2\n        /* \"#utility.yul\":16079:16080   */\n      0x00\n        /* \"#utility.yul\":16072:16086   */\n      mstore\n        /* \"#utility.yul\":16116:16120   */\n      0x20\n        /* \"#utility.yul\":16113:16114   */\n      0x00\n        /* \"#utility.yul\":16103:16121   */\n      keccak256\n        /* \"#utility.yul\":16095:16121   */\n      swap1\n      pop\n        /* \"#utility.yul\":15987:16128   */\n      swap2\n      swap1\n      pop\n      jump\t// out\n        /* \"#utility.yul\":16134:16227   */\n    tag_193:\n        /* \"#utility.yul\":16171:16177   */\n      0x00\n        /* \"#utility.yul\":16218:16220   */\n      0x20\n        /* \"#utility.yul\":16213:16215   */\n      0x1f\n        /* \"#utility.yul\":16206:16211   */\n      dup4\n        /* \"#utility.yul\":16202:16216   */\n      add\n        /* \"#utility.yul\":16198:16221   */\n      div\n        /* \"#utility.yul\":16188:16221   */\n      swap1\n      pop\n        /* \"#utility.yul\":16134:16227   */\n      swap2\n      swap1\n      pop\n      jump\t// out\n        /* \"#utility.yul\":16233:16340   */\n    tag_194:\n        /* \"#utility.yul\":16277:16285   */\n      0x00\n        /* \"#utility.yul\":16327:16332   */\n      dup3\n        /* \"#utility.yul\":16321:16325   */\n      dup3\n        /* \"#utility.yul\":16317:16333   */\n      shl\n        /* \"#utility.yul\":16296:16333   */\n      swap1\n      pop\n        /* \"#utility.yul\":16233:16340   */\n      swap3\n      swap2\n      pop\n      pop\n      jump\t// out\n        /* \"#utility.yul\":16346:16739   */\n    tag_195:\n        /* \"#utility.yul\":16415:16421   */\n      0x00\n        /* \"#utility.yul\":16465:16466   */\n      0x08\n        /* \"#utility.yul\":16453:16463   */\n      dup4\n        /* \"#utility.yul\":16449:16467   */\n      mul\n        /* \"#utility.yul\":16488:16585   */\n      tag_379\n        /* \"#utility.yul\":16518:16584   */\n      0xffffffffffffffffffffffffffffffffffffffffffffffffffffffffffffffff\n        /* \"#utility.yul\":16507:16516   */\n      dup3\n        /* \"#utility.yul\":16488:16585   */\n      tag_194\n      jump\t// in\n    tag_379:\n        /* \"#utility.yul\":16606:16645   */\n      tag_380\n        /* \"#utility.yul\":16636:16644   */\n      dup7\n        /* \"#utility.yul\":16625:16634   */\n      dup4\n        /* \"#utility.yul\":16606:16645   */\n      tag_194\n      jump\t// in\n    tag_380:\n        /* \"#utility.yul\":16594:16645   */\n      swap6\n      pop\n        /* \"#utility.yul\":16678:16682   */\n      dup1\n        /* \"#utility.yul\":16674:16683   */\n      not\n        /* \"#utility.yul\":16667:16672   */\n      dup5\n        /* \"#utility.yul\":16663:16684   */\n      and\n        /* \"#utility.yul\":16654:16684   */\n      swap4\n      pop\n        /* \"#utility.yul\":16727:16731   */\n      dup1\n        /* \"#utility.yul\":16717:16725   */\n      dup7\n        /* \"#utility.yul\":16713:16732   */\n      and\n        /* \"#utility.yul\":16706:16711   */\n      dup5\n        /* \"#utility.yul\":16703:16733   */\n      or\n        /* \"#utility.yul\":16693:16733   */\n      swap3\n      pop\n        /* \"#utility.yul\":16422:16739   */\n      pop\n      pop\n        /* \"#utility.yul\":16346:16739   */\n      swap4\n      swap3\n      pop\n      pop\n      pop\n      jump\t// out\n        /* \"#utility.yul\":16745:16805   */\n    tag_196:\n        /* \"#utility.yul\":16773:16776   */\n      0x00\n        /* \"#utility.yul\":16794:16799   */\n      dup2\n        /* \"#utility.yul\":16787:16799   */\n      swap1\n      pop\n        /* \"#utility.yul\":16745:16805   */\n      swap2\n      swap1\n      pop\n      jump\t// out\n        /* \"#utility.yul\":16811:16953   */\n    tag_197:\n        /* \"#utility.yul\":16861:16870   */\n      0x00\n        /* \"#utility.yul\":16894:16947   */\n      tag_383\n        /* \"#utility.yul\":16912:16946   */\n      tag_384\n        /* \"#utility.yul\":16921:16945   */\n      tag_385\n        /* \"#utility.yul\":16939:16944   */\n      dup5\n        /* \"#utility.yul\":16921:16945   */\n      tag_146\n      jump\t// in\n    tag_385:\n        /* \"#utility.yul\":16912:16946   */\n      tag_196\n      jump\t// in\n    tag_384:\n        /* \"#utility.yul\":16894:16947   */\n      tag_146\n      jump\t// in\n    tag_383:\n        /* \"#utility.yul\":16881:16947   */\n      swap1\n      pop\n        /* \"#utility.yul\":16811:16953   */\n      swap2\n      swap1\n      pop\n      jump\t// out\n        /* \"#utility.yul\":16959:17034   */\n    tag_198:\n        /* \"#utility.yul\":17002:17005   */\n      0x00\n        /* \"#utility.yul\":17023:17028   */\n      dup2\n        /* \"#utility.yul\":17016:17028   */\n      swap1\n      pop\n        /* \"#utility.yul\":16959:17034   */\n      swap2\n      swap1\n      pop\n      jump\t// out\n        /* \"#utility.yul\":17040:17309   */\n    tag_199:\n        /* \"#utility.yul\":17150:17189   */\n      tag_388\n        /* \"#utility.yul\":17181:17188   */\n      dup4\n        /* \"#utility.yul\":17150:17189   */\n      tag_197\n      jump\t// in\n    tag_388:\n        /* \"#utility.yul\":17211:17302   */\n      tag_389\n        /* \"#utility.yul\":17260:17301   */\n      tag_390\n        /* \"#utility.yul\":17284:17300   */\n      dup3\n        /* \"#utility.yul\":17260:17301   */\n      tag_198\n      jump\t// in\n    tag_390:\n        /* \"#utility.yul\":17252:17258   */\n      dup5\n        /* \"#utility.yul\":17245:17249   */\n      dup5\n        /* \"#utility.yul\":17239:17250   */\n      sload\n        /* \"#utility.yul\":17211:17302   */\n      tag_195\n      jump\t// in\n    tag_389:\n        /* \"#utility.yul\":17205:17209   */\n      dup3\n        /* \"#utility.yul\":17198:17303   */\n      sstore\n        /* \"#utility.yul\":17116:17309   */\n      pop\n        /* \"#utility.yul\":17040:17309   */\n      pop\n      pop\n      pop\n      jump\t// out\n        /* \"#utility.yul\":17315:17388   */\n    tag_200:\n        /* \"#utility.yul\":17360:17363   */\n      0x00\n        /* \"#utility.yul\":17315:17388   */\n      swap1\n      jump\t// out\n        /* \"#utility.yul\":17394:17583   */\n    tag_201:\n        /* \"#utility.yul\":17471:17503   */\n      tag_393\n      tag_200\n      jump\t// in\n    tag_393:\n        /* \"#utility.yul\":17512:17577   */\n      tag_394\n        /* \"#utility.yul\":17570:17576   */\n      dup2\n        /* \"#utility.yul\":17562:17568   */\n      dup5\n        /* \"#utility.yul\":17556:17560   */\n      dup5\n        /* \"#utility.yul\":17512:17577   */\n      tag_199\n      jump\t// in\n    tag_394:\n        /* \"#utility.yul\":17447:17583   */\n      pop\n        /* \"#utility.yul\":17394:17583   */\n      pop\n      pop\n      jump\t// out\n        /* \"#utility.yul\":17589:17775   */\n    tag_202:\n        /* \"#utility.yul\":17649:17769   */\n    tag_396:\n        /* \"#utility.yul\":17666:17669   */\n      dup2\n        /* \"#utility.yul\":17659:17664   */\n      dup2\n        /* \"#utility.yul\":17656:17670   */\n      lt\n        /* \"#utility.yul\":17649:17769   */\n      iszero\n      tag_398\n      jumpi\n        /* \"#utility.yul\":17720:17759   */\n      tag_399\n        /* \"#utility.yul\":17757:17758   */\n      0x00\n        /* \"#utility.yul\":17750:17755   */\n      dup3\n        /* \"#utility.yul\":17720:17759   */\n      tag_201\n      jump\t// in\n    tag_399:\n        /* \"#utility.yul\":17693:17694   */\n      0x01\n        /* \"#utility.yul\":17686:17691   */\n      dup2\n        /* \"#utility.yul\":17682:17695   */\n      add\n        /* \"#utility.yul\":17673:17695   */\n      swap1\n      pop\n        /* \"#utility.yul\":17649:17769   */\n      jump(tag_396)\n    tag_398:\n        /* \"#utility.yul\":17589:17775   */\n      pop\n      pop\n      jump\t// out\n        /* \"#utility.yul\":17781:18324   */\n    tag_203:\n        /* \"#utility.yul\":17882:17884   */\n      0x1f\n        /* \"#utility.yul\":17877:17880   */\n      dup3\n        /* \"#utility.yul\":17874:17885   */\n      gt\n        /* \"#utility.yul\":17871:18317   */\n      iszero\n      tag_401\n      jumpi\n        /* \"#utility.yul\":17916:17954   */\n      tag_402\n        /* \"#utility.yul\":17948:17953   */\n      dup2\n        /* \"#utility.yul\":17916:17954   */\n      tag_192\n      jump\t// in\n    tag_402:\n        /* \"#utility.yul\":18000:18029   */\n      tag_403\n        /* \"#utility.yul\":18018:18028   */\n      dup5\n        /* \"#utility.yul\":18000:18029   */\n      tag_193\n      jump\t// in\n    tag_403:\n        /* \"#utility.yul\":17990:17998   */\n      dup2\n        /* \"#utility.yul\":17986:18030   */\n      add\n        /* \"#utility.yul\":18183:18185   */\n      0x20\n        /* \"#utility.yul\":18171:18181   */\n      dup6\n        /* \"#utility.yul\":18168:18186   */\n      lt\n        /* \"#utility.yul\":18165:18214   */\n      iszero\n      tag_404\n      jumpi\n        /* \"#utility.yul\":18204:18212   */\n      dup2\n        /* \"#utility.yul\":18189:18212   */\n      swap1\n      pop\n        /* \"#utility.yul\":18165:18214   */\n    tag_404:\n        /* \"#utility.yul\":18227:18307   */\n      tag_405\n        /* \"#utility.yul\":18283:18305   */\n      tag_406\n        /* \"#utility.yul\":18301:18304   */\n      dup6\n        /* \"#utility.yul\":18283:18305   */\n      tag_193\n      jump\t// in\n    tag_406:\n        /* \"#utility.yul\":18273:18281   */\n      dup4\n        /* \"#utility.yul\":18269:18306   */\n      add\n        /* \"#utility.yul\":18256:18267   */\n      dup3\n        /* \"#utility.yul\":18227:18307   */\n      tag_202\n      jump\t// in\n    tag_405:\n        /* \"#utility.yul\":17886:18317   */\n      pop\n      pop\n        /* \"#utility.yul\":17871:18317   */\n    tag_401:\n        /* \"#utility.yul\":17781:18324   */\n      pop\n      pop\n      pop\n      jump\t// out\n        /* \"#utility.yul\":18330:18447   */\n    tag_204:\n        /* \"#utility.yul\":18384:18392   */\n      0x00\n        /* \"#utility.yul\":18434:18439   */\n      dup3\n        /* \"#utility.yul\":18428:18432   */\n      dup3\n        /* \"#utility.yul\":18424:18440   */\n      shr\n        /* \"#utility.yul\":18403:18440   */\n      swap1\n      pop\n        /* \"#utility.yul\":18330:18447   */\n      swap3\n      swap2\n      pop\n      pop\n      jump\t// out\n        /* \"#utility.yul\":18453:18622   */\n    tag_205:\n        /* \"#utility.yul\":18497:18503   */\n      0x00\n        /* \"#utility.yul\":18530:18581   */\n      tag_409\n        /* \"#utility.yul\":18578:18579   */\n      0x00\n        /* \"#utility.yul\":18574:18580   */\n      not\n        /* \"#utility.yul\":18566:18571   */\n      dup5\n        /* \"#utility.yul\":18563:18564   */\n      0x08\n        /* \"#utility.yul\":18559:18572   */\n      mul\n        /* \"#utility.yul\":18530:18581   */\n      tag_204\n      jump\t// in\n    tag_409:\n        /* \"#utility.yul\":18526:18582   */\n      not\n        /* \"#utility.yul\":18611:18615   */\n      dup1\n        /* \"#utility.yul\":18605:18609   */\n      dup4\n        /* \"#utility.yul\":18601:18616   */\n      and\n        /* \"#utility.yul\":18591:18616   */\n      swap2\n      pop\n        /* \"#utility.yul\":18504:18622   */\n      pop\n        /* \"#utility.yul\":18453:18622   */\n      swap3\n      swap2\n      pop\n      pop\n      jump\t// out\n        /* \"#utility.yul\":18627:18922   */\n    tag_206:\n        /* \"#utility.yul\":18703:18707   */\n      0x00\n        /* \"#utility.yul\":18849:18878   */\n      tag_411\n        /* \"#utility.yul\":18874:18877   */\n      dup4\n        /* \"#utility.yul\":18868:18872   */\n      dup4\n        /* \"#utility.yul\":18849:18878   */\n      tag_205\n      jump\t// in\n    tag_411:\n        /* \"#utility.yul\":18841:18878   */\n      swap2\n      pop\n        /* \"#utility.yul\":18911:18914   */\n      dup3\n        /* \"#utility.yul\":18908:18909   */\n      0x02\n        /* \"#utility.yul\":18904:18915   */\n      mul\n        /* \"#utility.yul\":18898:18902   */\n      dup3\n        /* \"#utility.yul\":18895:18916   */\n      or\n        /* \"#utility.yul\":18887:18916   */\n      swap1\n      pop\n        /* \"#utility.yul\":18627:18922   */\n      swap3\n      swap2\n      pop\n      pop\n      jump\t// out\n        /* \"#utility.yul\":18927:20322   */\n    tag_49:\n        /* \"#utility.yul\":19044:19081   */\n      tag_413\n        /* \"#utility.yul\":19077:19080   */\n      dup3\n        /* \"#utility.yul\":19044:19081   */\n      tag_162\n      jump\t// in\n    tag_413:\n        /* \"#utility.yul\":19146:19164   */\n      0xffffffffffffffff\n        /* \"#utility.yul\":19138:19144   */\n      dup2\n        /* \"#utility.yul\":19135:19165   */\n      gt\n        /* \"#utility.yul\":19132:19188   */\n      iszero\n      tag_414\n      jumpi\n        /* \"#utility.yul\":19168:19186   */\n      tag_415\n      tag_152\n      jump\t// in\n    tag_415:\n        /* \"#utility.yul\":19132:19188   */\n    tag_414:\n        /* \"#utility.yul\":19212:19250   */\n      tag_416\n        /* \"#utility.yul\":19244:19248   */\n      dup3\n        /* \"#utility.yul\":19238:19249   */\n      sload\n        /* \"#utility.yul\":19212:19250   */\n      tag_53\n      jump\t// in\n    tag_416:\n        /* \"#utility.yul\":19297:19364   */\n      tag_417\n        /* \"#utility.yul\":19357:19363   */\n      dup3\n        /* \"#utility.yul\":19349:19355   */\n      dup3\n        /* \"#utility.yul\":19343:19347   */\n      dup6\n        /* \"#utility.yul\":19297:19364   */\n      tag_203\n      jump\t// in\n    tag_417:\n        /* \"#utility.yul\":19391:19392   */\n      0x00\n        /* \"#utility.yul\":19415:19419   */\n      0x20\n        /* \"#utility.yul\":19402:19419   */\n      swap1\n      pop\n        /* \"#utility.yul\":19447:19449   */\n      0x1f\n        /* \"#utility.yul\":19439:19445   */\n      dup4\n        /* \"#utility.yul\":19436:19450   */\n      gt\n        /* \"#utility.yul\":19464:19465   */\n      0x01\n        /* \"#utility.yul\":19459:20077   */\n      dup2\n      eq\n      tag_419\n      jumpi\n        /* \"#utility.yul\":20121:20122   */\n      0x00\n        /* \"#utility.yul\":20138:20144   */\n      dup5\n        /* \"#utility.yul\":20135:20212   */\n      iszero\n      tag_420\n      jumpi\n        /* \"#utility.yul\":20187:20196   */\n      dup3\n        /* \"#utility.yul\":20182:20185   */\n      dup8\n        /* \"#utility.yul\":20178:20197   */\n      add\n        /* \"#utility.yul\":20172:20198   */\n      mload\n        /* \"#utility.yul\":20163:20198   */\n      swap1\n      pop\n        /* \"#utility.yul\":20135:20212   */\n    tag_420:\n        /* \"#utility.yul\":20238:20305   */\n      tag_421\n        /* \"#utility.yul\":20298:20304   */\n      dup6\n        /* \"#utility.yul\":20291:20296   */\n      dup3\n        /* \"#utility.yul\":20238:20305   */\n      tag_206\n      jump\t// in\n    tag_421:\n        /* \"#utility.yul\":20232:20236   */\n      dup7\n        /* \"#utility.yul\":20225:20306   */\n      sstore\n        /* \"#utility.yul\":20094:20316   */\n      pop\n        /* \"#utility.yul\":19429:20316   */\n      jump(tag_418)\n        /* \"#utility.yul\":19459:20077   */\n    tag_419:\n        /* \"#utility.yul\":19511:19515   */\n      0x1f\n        /* \"#utility.yul\":19507:19516   */\n      not\n        /* \"#utility.yul\":19499:19505   */\n      dup5\n        /* \"#utility.yul\":19495:19517   */\n      and\n        /* \"#utility.yul\":19545:19582   */\n      tag_422\n        /* \"#utility.yul\":19577:19581   */\n      dup7\n        /* \"#utility.yul\":19545:19582   */\n      tag_192\n      jump\t// in\n    tag_422:\n        /* \"#utility.yul\":19604:19605   */\n      0x00\n        /* \"#utility.yul\":19618:19826   */\n    tag_423:\n        /* \"#utility.yul\":19632:19639   */\n      dup3\n        /* \"#utility.yul\":19629:19630   */\n      dup2\n        /* \"#utility.yul\":19626:19640   */\n      lt\n        /* \"#utility.yul\":19618:19826   */\n      iszero\n      tag_425\n      jumpi\n        /* \"#utility.yul\":19711:19720   */\n      dup5\n        /* \"#utility.yul\":19706:19709   */\n      dup10\n        /* \"#utility.yul\":19702:19721   */\n      add\n        /* \"#utility.yul\":19696:19722   */\n      mload\n        /* \"#utility.yul\":19688:19694   */\n      dup3\n        /* \"#utility.yul\":19681:19723   */\n      sstore\n        /* \"#utility.yul\":19762:19763   */\n      0x01\n        /* \"#utility.yul\":19754:19760   */\n      dup3\n        /* \"#utility.yul\":19750:19764   */\n      add\n        /* \"#utility.yul\":19740:19764   */\n      swap2\n      pop\n        /* \"#utility.yul\":19809:19811   */\n      0x20\n        /* \"#utility.yul\":19798:19807   */\n      dup6\n        /* \"#utility.yul\":19794:19812   */\n      add\n        /* \"#utility.yul\":19781:19812   */\n      swap5\n      pop\n        /* \"#utility.yul\":19655:19659   */\n      0x20\n        /* \"#utility.yul\":19652:19653   */\n      dup2\n        /* \"#utility.yul\":19648:19660   */\n      add\n        /* \"#utility.yul\":19643:19660   */\n      swap1\n      pop\n        /* \"#utility.yul\":19618:19826   */\n      jump(tag_423)\n    tag_425:\n        /* \"#utility.yul\":19854:19860   */\n      dup7\n        /* \"#utility.yul\":19845:19852   */\n      dup4\n        /* \"#utility.yul\":19842:19861   */\n      lt\n        /* \"#utility.yul\":19839:20018   */\n      iszero\n      tag_426\n      jumpi\n        /* \"#utility.yul\":19912:19921   */\n      dup5\n        /* \"#utility.yul\":19907:19910   */\n      dup10\n        /* \"#utility.yul\":19903:19922   */\n      add\n        /* \"#utility.yul\":19897:19923   */\n      mload\n        /* \"#utility.yul\":19955:20003   */\n      tag_427\n        /* \"#utility.yul\":19997:20001   */\n      0x1f\n        /* \"#utility.yul\":19989:19995   */\n      dup10\n        /* \"#utility.yul\":19985:20002   */\n      and\n        /* \"#utility.yul\":19974:19983   */\n      dup3\n        /* \"#utility.yul\":19955:20003   */\n      tag_205\n      jump\t// in\n    tag_427:\n        /* \"#utility.yul\":19947:19953   */\n      dup4\n        /* \"#utility.yul\":19940:20004   */\n      sstore\n        /* \"#utility.yul\":19862:20018   */\n      pop\n        /* \"#utility.yul\":19839:20018   */\n    tag_426:\n        /* \"#utility.yul\":20064:20065   */\n      0x01\n        /* \"#utility.yul\":20060:20061   */\n      0x02\n        /* \"#utility.yul\":20052:20058   */\n      dup9\n        /* \"#utility.yul\":20048:20062   */\n      mul\n        /* \"#utility.yul\":20044:20066   */\n      add\n        /* \"#utility.yul\":20038:20042   */\n      dup9\n        /* \"#utility.yul\":20031:20067   */\n      sstore\n        /* \"#utility.yul\":19466:20077   */\n      pop\n      pop\n      pop\n        /* \"#utility.yul\":19429:20316   */\n    tag_418:\n      pop\n        /* \"#utility.yul\":19019:20322   */\n      pop\n      pop\n      pop\n        /* \"#utility.yul\":18927:20322   */\n      pop\n      pop\n      jump\t// out\n        /* \"#utility.yul\":20328:20489   */\n    tag_207:\n        /* \"#utility.yul\":20468:20481   */\n      0x4e6f2070726f6475637473000000000000000000000000000000000000000000\n        /* \"#utility.yul\":20464:20465   */\n      0x00\n        /* \"#utility.yul\":20456:20462   */\n      dup3\n        /* \"#utility.yul\":20452:20466   */\n      add\n        /* \"#utility.yul\":20445:20482   */\n      mstore\n        /* \"#utility.yul\":20328:20489   */\n      pop\n      jump\t// out\n        /* \"#utility.yul\":20495:20861   */\n    tag_208:\n        /* \"#utility.yul\":20637:20640   */\n      0x00\n        /* \"#utility.yul\":20658:20725   */\n      tag_430\n        /* \"#utility.yul\":20722:20724   */\n      0x0b\n        /* \"#utility.yul\":20717:20720   */\n      dup4\n        /* \"#utility.yul\":20658:20725   */\n      tag_163\n      jump\t// in\n    tag_430:\n        /* \"#utility.yul\":20651:20725   */\n      swap2\n      pop\n        /* \"#utility.yul\":20734:20827   */\n      tag_431\n        /* \"#utility.yul\":20823:20826   */\n      dup3\n        /* \"#utility.yul\":20734:20827   */\n      tag_207\n      jump\t// in\n    tag_431:\n        /* \"#utility.yul\":20852:20854   */\n      0x20\n        /* \"#utility.yul\":20847:20850   */\n      dup3\n        /* \"#utility.yul\":20843:20855   */\n      add\n        /* \"#utility.yul\":20836:20855   */\n      swap1\n      pop\n        /* \"#utility.yul\":20495:20861   */\n      swap2\n      swap1\n      pop\n      jump\t// out\n        /* \"#utility.yul\":20867:21286   */\n    tag_61:\n        /* \"#utility.yul\":21033:21037   */\n      0x00\n        /* \"#utility.yul\":21071:21073   */\n      0x20\n        /* \"#utility.yul\":21060:21069   */\n      dup3\n        /* \"#utility.yul\":21056:21074   */\n      add\n        /* \"#utility.yul\":21048:21074   */\n      swap1\n      pop\n        /* \"#utility.yul\":21120:21129   */\n      dup2\n        /* \"#utility.yul\":21114:21118   */\n      dup2\n        /* \"#utility.yul\":21110:21130   */\n      sub\n        /* \"#utility.yul\":21106:21107   */\n      0x00\n        /* \"#utility.yul\":21095:21104   */\n      dup4\n        /* \"#utility.yul\":21091:21108   */\n      add\n        /* \"#utility.yul\":21084:21131   */\n      mstore\n        /* \"#utility.yul\":21148:21279   */\n      tag_433\n        /* \"#utility.yul\":21274:21278   */\n      dup2\n        /* \"#utility.yul\":21148:21279   */\n      tag_208\n      jump\t// in\n    tag_433:\n        /* \"#utility.yul\":21140:21279   */\n      swap1\n      pop\n        /* \"#utility.yul\":20867:21286   */\n      swap2\n      swap1\n      pop\n      jump\t// out\n        /* \"#utility.yul\":21292:21472   */\n    tag_209:\n        /* \"#utility.yul\":21340:21417   */\n      0x4e487b7100000000000000000000000000000000000000000000000000000000\n        /* \"#utility.yul\":21337:21338   */\n      0x00\n        /* \"#utility.yul\":21330:21418   */\n      mstore\n        /* \"#utility.yul\":21437:21441   */\n      0x11\n        /* \"#utility.yul\":21434:21435   */\n      0x04\n        /* \"#utility.yul\":21427:21442   */\n      mstore\n        /* \"#utility.yul\":21461:21465   */\n      0x24\n        /* \"#utility.yul\":21458:21459   */\n      0x00\n        /* \"#utility.yul\":21451:21466   */\n      revert\n        /* \"#utility.yul\":21478:21672   */\n    tag_76:\n        /* \"#utility.yul\":21518:21522   */\n      0x00\n        /* \"#utility.yul\":21538:21558   */\n      tag_436\n        /* \"#utility.yul\":21556:21557   */\n      dup3\n        /* \"#utility.yul\":21538:21558   */\n      tag_146\n      jump\t// in\n    tag_436:\n        /* \"#utility.yul\":21533:21558   */\n      swap2\n      pop\n        /* \"#utility.yul\":21572:21592   */\n      tag_437\n        /* \"#utility.yul\":21590:21591   */\n      dup4\n        /* \"#utility.yul\":21572:21592   */\n      tag_146\n      jump\t// in\n    tag_437:\n        /* \"#utility.yul\":21567:21592   */\n      swap3\n      pop\n        /* \"#utility.yul\":21616:21617   */\n      dup3\n        /* \"#utility.yul\":21613:21614   */\n      dup3\n        /* \"#utility.yul\":21609:21618   */\n      sub\n        /* \"#utility.yul\":21601:21618   */\n      swap1\n      pop\n        /* \"#utility.yul\":21640:21641   */\n      dup2\n        /* \"#utility.yul\":21634:21638   */\n      dup2\n        /* \"#utility.yul\":21631:21642   */\n      gt\n        /* \"#utility.yul\":21628:21665   */\n      iszero\n      tag_438\n      jumpi\n        /* \"#utility.yul\":21645:21663   */\n      tag_439\n      tag_209\n      jump\t// in\n    tag_439:\n        /* \"#utility.yul\":21628:21665   */\n    tag_438:\n        /* \"#utility.yul\":21478:21672   */\n      swap3\n      swap2\n      pop\n      pop\n      jump\t// out\n        /* \"#utility.yul\":21678:21851   */\n    tag_210:\n        /* \"#utility.yul\":21818:21843   */\n      0x20796f7520617265206e6f7420617574686f72697a6564000000000000000000\n        /* \"#utility.yul\":21814:21815   */\n      0x00\n        /* \"#utility.yul\":21806:21812   */\n      dup3\n        /* \"#utility.yul\":21802:21816   */\n      add\n        /* \"#utility.yul\":21795:21844   */\n      mstore\n        /* \"#utility.yul\":21678:21851   */\n      pop\n      jump\t// out\n        /* \"#utility.yul\":21857:22223   */\n    tag_211:\n        /* \"#utility.yul\":21999:22002   */\n      0x00\n        /* \"#utility.yul\":22020:22087   */\n      tag_442\n        /* \"#utility.yul\":22084:22086   */\n      0x17\n        /* \"#utility.yul\":22079:22082   */\n      dup4\n        /* \"#utility.yul\":22020:22087   */\n      tag_163\n      jump\t// in\n    tag_442:\n        /* \"#utility.yul\":22013:22087   */\n      swap2\n      pop\n        /* \"#utility.yul\":22096:22189   */\n      tag_443\n        /* \"#utility.yul\":22185:22188   */\n      dup3\n        /* \"#utility.yul\":22096:22189   */\n      tag_210\n      jump\t// in\n    tag_443:\n        /* \"#utility.yul\":22214:22216   */\n      0x20\n        /* \"#utility.yul\":22209:22212   */\n      dup3\n        /* \"#utility.yul\":22205:22217   */\n      add\n        /* \"#utility.yul\":22198:22217   */\n      swap1\n      pop\n        /* \"#utility.yul\":21857:22223   */\n      swap2\n      swap1\n      pop\n      jump\t// out\n        /* \"#utility.yul\":22229:22648   */\n    tag_98:\n        /* \"#utility.yul\":22395:22399   */\n      0x00\n        /* \"#utility.yul\":22433:22435   */\n      0x20\n        /* \"#utility.yul\":22422:22431   */\n      dup3\n        /* \"#utility.yul\":22418:22436   */\n      add\n        /* \"#utility.yul\":22410:22436   */\n      swap1\n      pop\n        /* \"#utility.yul\":22482:22491   */\n      dup2\n        /* \"#utility.yul\":22476:22480   */\n      dup2\n        /* \"#utility.yul\":22472:22492   */\n      sub\n        /* \"#utility.yul\":22468:22469   */\n      0x00\n        /* \"#utility.yul\":22457:22466   */\n      dup4\n        /* \"#utility.yul\":22453:22470   */\n      add\n        /* \"#utility.yul\":22446:22493   */\n      mstore\n        /* \"#utility.yul\":22510:22641   */\n      tag_445\n        /* \"#utility.yul\":22636:22640   */\n      dup2\n        /* \"#utility.yul\":22510:22641   */\n      tag_211\n      jump\t// in\n    tag_445:\n        /* \"#utility.yul\":22502:22641   */\n      swap1\n      pop\n        /* \"#utility.yul\":22229:22648   */\n      swap2\n      swap1\n      pop\n      jump\t// out\n        /* \"#utility.yul\":22654:22828   */\n    tag_212:\n        /* \"#utility.yul\":22794:22820   */\n      0x4f7264657220697320616c726561647920736869707065640000000000000000\n        /* \"#utility.yul\":22790:22791   */\n      0x00\n        /* \"#utility.yul\":22782:22788   */\n      dup3\n        /* \"#utility.yul\":22778:22792   */\n      add\n        /* \"#utility.yul\":22771:22821   */\n      mstore\n        /* \"#utility.yul\":22654:22828   */\n      pop\n      jump\t// out\n        /* \"#utility.yul\":22834:23200   */\n    tag_213:\n        /* \"#utility.yul\":22976:22979   */\n      0x00\n        /* \"#utility.yul\":22997:23064   */\n      tag_448\n        /* \"#utility.yul\":23061:23063   */\n      0x18\n        /* \"#utility.yul\":23056:23059   */\n      dup4\n        /* \"#utility.yul\":22997:23064   */\n      tag_163\n      jump\t// in\n    tag_448:\n        /* \"#utility.yul\":22990:23064   */\n      swap2\n      pop\n        /* \"#utility.yul\":23073:23166   */\n      tag_449\n        /* \"#utility.yul\":23162:23165   */\n      dup3\n        /* \"#utility.yul\":23073:23166   */\n      tag_212\n      jump\t// in\n    tag_449:\n        /* \"#utility.yul\":23191:23193   */\n      0x20\n        /* \"#utility.yul\":23186:23189   */\n      dup3\n        /* \"#utility.yul\":23182:23194   */\n      add\n        /* \"#utility.yul\":23175:23194   */\n      swap1\n      pop\n        /* \"#utility.yul\":22834:23200   */\n      swap2\n      swap1\n      pop\n      jump\t// out\n        /* \"#utility.yul\":23206:23625   */\n    tag_110:\n        /* \"#utility.yul\":23372:23376   */\n      0x00\n        /* \"#utility.yul\":23410:23412   */\n      0x20\n        /* \"#utility.yul\":23399:23408   */\n      dup3\n        /* \"#utility.yul\":23395:23413   */\n      add\n        /* \"#utility.yul\":23387:23413   */\n      swap1\n      pop\n        /* \"#utility.yul\":23459:23468   */\n      dup2\n        /* \"#utility.yul\":23453:23457   */\n      dup2\n        /* \"#utility.yul\":23449:23469   */\n      sub\n        /* \"#utility.yul\":23445:23446   */\n      0x00\n        /* \"#utility.yul\":23434:23443   */\n      dup4\n        /* \"#utility.yul\":23430:23447   */\n      add\n        /* \"#utility.yul\":23423:23470   */\n      mstore\n        /* \"#utility.yul\":23487:23618   */\n      tag_451\n        /* \"#utility.yul\":23613:23617   */\n      dup2\n        /* \"#utility.yul\":23487:23618   */\n      tag_213\n      jump\t// in\n    tag_451:\n        /* \"#utility.yul\":23479:23618   */\n      swap1\n      pop\n        /* \"#utility.yul\":23206:23625   */\n      swap2\n      swap1\n      pop\n      jump\t// out\n\n    auxdata: 0xa2646970667358221220a40856bd0ec78eecf5ee5a1c2746af46cfe9fd98a61266c6908d77cf15cde82364736f6c63430008170033\n}\n",
				"bytecode": {
					"linkReferences": {},
					"object": "608060405234801561000f575f80fd5b503360015f6101000a81548173ffffffffffffffffffffffffffffffffffffffff021916908373ffffffffffffffffffffffffffffffffffffffff1602179055506116908061005d5f395ff3fe608060405234801561000f575f80fd5b5060043610610060575f3560e01c8063577dc0a0146100645780638da5cb5b14610080578063a85c38ef1461009e578063b147135d146100d0578063d09ef24114610100578063f68d22d614610130575b5f80fd5b61007e60048036038101906100799190610bf0565b61014c565b005b61008861025b565b6040516100959190610c89565b60405180910390f35b6100b860048036038101906100b39190610ca2565b610280565b6040516100c793929190610dba565b60405180910390f35b6100ea60048036038101906100e59190610eba565b610365565b6040516100f79190610f3f565b60405180910390f35b61011a60048036038101906101159190610ca2565b610514565b60405161012791906110dc565b60405180910390f35b61014a60048036038101906101459190610ca2565b610707565b005b5f805490508210610192576040517f08c379a000000000000000000000000000000000000000000000000000000000815260040161018990611146565b60405180910390fd5b5f8083815481106101a6576101a5611164565b5b905f5260205f20906004020190503373ffffffffffffffffffffffffffffffffffffffff16815f015f9054906101000a900473ffffffffffffffffffffffffffffffffffffffff1673ffffffffffffffffffffffffffffffffffffffff1614610244576040517f08c379a000000000000000000000000000000000000000000000000000000000815260040161023b906111db565b60405180910390fd5b8181600101908161025591906113f3565b50505050565b60015f9054906101000a900473ffffffffffffffffffffffffffffffffffffffff1681565b5f818154811061028e575f80fd5b905f5260205f2090600402015f91509050805f015f9054906101000a900473ffffffffffffffffffffffffffffffffffffffff16908060010180546102d290611226565b80601f01602080910402602001604051908101604052809291908181526020018280546102fe90611226565b80156103495780601f1061032057610100808354040283529160200191610349565b820191905f5260205f20905b81548152906001019060200180831161032c57829003601f168201915b505050505090806003015f9054906101000a900460ff16905083565b5f808251116103a9576040517f08c379a00000000000000000000000000000000000000000000000000000000081526004016103a09061150c565b60405180910390fd5b6103b16109bc565b33815f019073ffffffffffffffffffffffffffffffffffffffff16908173ffffffffffffffffffffffffffffffffffffffff16815250508381602001819052508281604001819052505f8160600190600381111561041257610411610d47565b5b9081600381111561042657610425610d47565b5b815250505f81908060018154018082558091505060019003905f5260205f2090600402015f909190919091505f820151815f015f6101000a81548173ffffffffffffffffffffffffffffffffffffffff021916908373ffffffffffffffffffffffffffffffffffffffff16021790555060208201518160010190816104ab91906113f3565b5060408201518160020190805190602001906104c8929190610a0a565b506060820151816003015f6101000a81548160ff021916908360038111156104f3576104f2610d47565b5b0217905550505060015f8054905061050b9190611557565b91505092915050565b61051c6109bc565b5f805490508210610562576040517f08c379a000000000000000000000000000000000000000000000000000000000815260040161055990611146565b60405180910390fd5b5f828154811061057557610574611164565b5b905f5260205f2090600402016040518060800160405290815f82015f9054906101000a900473ffffffffffffffffffffffffffffffffffffffff1673ffffffffffffffffffffffffffffffffffffffff1673ffffffffffffffffffffffffffffffffffffffff1681526020016001820180546105f090611226565b80601f016020809104026020016040519081016040528092919081815260200182805461061c90611226565b80156106675780601f1061063e57610100808354040283529160200191610667565b820191905f5260205f20905b81548152906001019060200180831161064a57829003601f168201915b50505050508152602001600282018054806020026020016040519081016040528092919081815260200182805480156106bd57602002820191905f5260205f20905b8154815260200190600101908083116106a9575b50505050508152602001600382015f9054906101000a900460ff1660038111156106ea576106e9610d47565b5b60038111156106fc576106fb610d47565b5b815250509050919050565b3373ffffffffffffffffffffffffffffffffffffffff1660015f9054906101000a900473ffffffffffffffffffffffffffffffffffffffff1673ffffffffffffffffffffffffffffffffffffffff1614610796576040517f08c379a000000000000000000000000000000000000000000000000000000000815260040161078d906115d4565b60405180910390fd5b5f8054905081106107dc576040517f08c379a00000000000000000000000000000000000000000000000000000000081526004016107d390611146565b60405180910390fd5b5f8082815481106107f0576107ef611164565b5b905f5260205f209060040201905060038081111561081157610810610d47565b5b816003015f9054906101000a900460ff16600381111561083457610833610d47565b5b03610874576040517f08c379a000000000000000000000000000000000000000000000000000000000815260040161086b9061163c565b60405180910390fd5b5f600381111561088757610886610d47565b5b816003015f9054906101000a900460ff1660038111156108aa576108a9610d47565b5b036108e0576001816003015f6101000a81548160ff021916908360038111156108d6576108d5610d47565b5b02179055506109b8565b600160038111156108f4576108f3610d47565b5b816003015f9054906101000a900460ff16600381111561091757610916610d47565b5b0361094d576002816003015f6101000a81548160ff0219169083600381111561094357610942610d47565b5b02179055506109b7565b6002600381111561096157610960610d47565b5b816003015f9054906101000a900460ff16600381111561098457610983610d47565b5b036109b6576003816003015f6101000a81548160ff021916908360038111156109b0576109af610d47565b5b02179055505b5b5b5050565b60405180608001604052805f73ffffffffffffffffffffffffffffffffffffffff16815260200160608152602001606081526020015f6003811115610a0457610a03610d47565b5b81525090565b828054828255905f5260205f20908101928215610a44579160200282015b82811115610a43578251825591602001919060010190610a28565b5b509050610a519190610a55565b5090565b5b80821115610a6c575f815f905550600101610a56565b5090565b5f604051905090565b5f80fd5b5f80fd5b5f819050919050565b610a9381610a81565b8114610a9d575f80fd5b50565b5f81359050610aae81610a8a565b92915050565b5f80fd5b5f80fd5b5f601f19601f8301169050919050565b7f4e487b71000000000000000000000000000000000000000000000000000000005f52604160045260245ffd5b610b0282610abc565b810181811067ffffffffffffffff82111715610b2157610b20610acc565b5b80604052505050565b5f610b33610a70565b9050610b3f8282610af9565b919050565b5f67ffffffffffffffff821115610b5e57610b5d610acc565b5b610b6782610abc565b9050602081019050919050565b828183375f83830152505050565b5f610b94610b8f84610b44565b610b2a565b905082815260208101848484011115610bb057610baf610ab8565b5b610bbb848285610b74565b509392505050565b5f82601f830112610bd757610bd6610ab4565b5b8135610be7848260208601610b82565b91505092915050565b5f8060408385031215610c0657610c05610a79565b5b5f610c1385828601610aa0565b925050602083013567ffffffffffffffff811115610c3457610c33610a7d565b5b610c4085828601610bc3565b9150509250929050565b5f73ffffffffffffffffffffffffffffffffffffffff82169050919050565b5f610c7382610c4a565b9050919050565b610c8381610c69565b82525050565b5f602082019050610c9c5f830184610c7a565b92915050565b5f60208284031215610cb757610cb6610a79565b5b5f610cc484828501610aa0565b91505092915050565b5f81519050919050565b5f82825260208201905092915050565b5f5b83811015610d04578082015181840152602081019050610ce9565b5f8484015250505050565b5f610d1982610ccd565b610d238185610cd7565b9350610d33818560208601610ce7565b610d3c81610abc565b840191505092915050565b7f4e487b71000000000000000000000000000000000000000000000000000000005f52602160045260245ffd5b60048110610d8557610d84610d47565b5b50565b5f819050610d9582610d74565b919050565b5f610da482610d88565b9050919050565b610db481610d9a565b82525050565b5f606082019050610dcd5f830186610c7a565b8181036020830152610ddf8185610d0f565b9050610dee6040830184610dab565b949350505050565b5f67ffffffffffffffff821115610e1057610e0f610acc565b5b602082029050602081019050919050565b5f80fd5b5f610e37610e3284610df6565b610b2a565b90508083825260208201905060208402830185811115610e5a57610e59610e21565b5b835b81811015610e835780610e6f8882610aa0565b845260208401935050602081019050610e5c565b5050509392505050565b5f82601f830112610ea157610ea0610ab4565b5b8135610eb1848260208601610e25565b91505092915050565b5f8060408385031215610ed057610ecf610a79565b5b5f83013567ffffffffffffffff811115610eed57610eec610a7d565b5b610ef985828601610bc3565b925050602083013567ffffffffffffffff811115610f1a57610f19610a7d565b5b610f2685828601610e8d565b9150509250929050565b610f3981610a81565b82525050565b5f602082019050610f525f830184610f30565b92915050565b610f6181610c69565b82525050565b5f82825260208201905092915050565b5f610f8182610ccd565b610f8b8185610f67565b9350610f9b818560208601610ce7565b610fa481610abc565b840191505092915050565b5f81519050919050565b5f82825260208201905092915050565b5f819050602082019050919050565b610fe181610a81565b82525050565b5f610ff28383610fd8565b60208301905092915050565b5f602082019050919050565b5f61101482610faf565b61101e8185610fb9565b935061102983610fc9565b805f5b838110156110595781516110408882610fe7565b975061104b83610ffe565b92505060018101905061102c565b5085935050505092915050565b61106f81610d9a565b82525050565b5f608083015f83015161108a5f860182610f58565b50602083015184820360208601526110a28282610f77565b915050604083015184820360408601526110bc828261100a565b91505060608301516110d16060860182611066565b508091505092915050565b5f6020820190508181035f8301526110f48184611075565b905092915050565b7f4e6f7420612076616c6964206f726465722069640000000000000000000000005f82015250565b5f611130601483610cd7565b915061113b826110fc565b602082019050919050565b5f6020820190508181035f83015261115d81611124565b9050919050565b7f4e487b71000000000000000000000000000000000000000000000000000000005f52603260045260245ffd5b7f20796f7520617265206e6f7420746865206f776e6572000000000000000000005f82015250565b5f6111c5601683610cd7565b91506111d082611191565b602082019050919050565b5f6020820190508181035f8301526111f2816111b9565b9050919050565b7f4e487b71000000000000000000000000000000000000000000000000000000005f52602260045260245ffd5b5f600282049050600182168061123d57607f821691505b6020821081036112505761124f6111f9565b5b50919050565b5f819050815f5260205f209050919050565b5f6020601f8301049050919050565b5f82821b905092915050565b5f600883026112b27fffffffffffffffffffffffffffffffffffffffffffffffffffffffffffffffff82611277565b6112bc8683611277565b95508019841693508086168417925050509392505050565b5f819050919050565b5f6112f76112f26112ed84610a81565b6112d4565b610a81565b9050919050565b5f819050919050565b611310836112dd565b61132461131c826112fe565b848454611283565b825550505050565b5f90565b61133861132c565b611343818484611307565b505050565b5b818110156113665761135b5f82611330565b600181019050611349565b5050565b601f8211156113ab5761137c81611256565b61138584611268565b81016020851015611394578190505b6113a86113a085611268565b830182611348565b50505b505050565b5f82821c905092915050565b5f6113cb5f19846008026113b0565b1980831691505092915050565b5f6113e383836113bc565b9150826002028217905092915050565b6113fc82610ccd565b67ffffffffffffffff81111561141557611414610acc565b5b61141f8254611226565b61142a82828561136a565b5f60209050601f83116001811461145b575f8415611449578287015190505b61145385826113d8565b8655506114ba565b601f19841661146986611256565b5f5b828110156114905784890151825560018201915060208501945060208101905061146b565b868310156114ad57848901516114a9601f8916826113bc565b8355505b6001600288020188555050505b505050505050565b7f4e6f2070726f64756374730000000000000000000000000000000000000000005f82015250565b5f6114f6600b83610cd7565b9150611501826114c2565b602082019050919050565b5f6020820190508181035f830152611523816114ea565b9050919050565b7f4e487b71000000000000000000000000000000000000000000000000000000005f52601160045260245ffd5b5f61156182610a81565b915061156c83610a81565b92508282039050818111156115845761158361152a565b5b92915050565b7f20796f7520617265206e6f7420617574686f72697a65640000000000000000005f82015250565b5f6115be601783610cd7565b91506115c98261158a565b602082019050919050565b5f6020820190508181035f8301526115eb816115b2565b9050919050565b7f4f7264657220697320616c7265616479207368697070656400000000000000005f82015250565b5f611626601883610cd7565b9150611631826115f2565b602082019050919050565b5f6020820190508181035f8301526116538161161a565b905091905056fea2646970667358221220a40856bd0ec78eecf5ee5a1c2746af46cfe9fd98a61266c6908d77cf15cde82364736f6c63430008170033",
					"opcodes": "PUSH1 0x80 PUSH1 0x40 MSTORE CALLVALUE DUP1 ISZERO PUSH2 0xF JUMPI PUSH0 DUP1 REVERT JUMPDEST POP CALLER PUSH1 0x1 PUSH0 PUSH2 0x100 EXP DUP2 SLOAD DUP2 PUSH20 0xFFFFFFFFFFFFFFFFFFFFFFFFFFFFFFFFFFFFFFFF MUL NOT AND SWAP1 DUP4 PUSH20 0xFFFFFFFFFFFFFFFFFFFFFFFFFFFFFFFFFFFFFFFF AND MUL OR SWAP1 SSTORE POP PUSH2 0x1690 DUP1 PUSH2 0x5D PUSH0 CODECOPY PUSH0 RETURN INVALID PUSH1 0x80 PUSH1 0x40 MSTORE CALLVALUE DUP1 ISZERO PUSH2 0xF JUMPI PUSH0 DUP1 REVERT JUMPDEST POP PUSH1 0x4 CALLDATASIZE LT PUSH2 0x60 JUMPI PUSH0 CALLDATALOAD PUSH1 0xE0 SHR DUP1 PUSH4 0x577DC0A0 EQ PUSH2 0x64 JUMPI DUP1 PUSH4 0x8DA5CB5B EQ PUSH2 0x80 JUMPI DUP1 PUSH4 0xA85C38EF EQ PUSH2 0x9E JUMPI DUP1 PUSH4 0xB147135D EQ PUSH2 0xD0 JUMPI DUP1 PUSH4 0xD09EF241 EQ PUSH2 0x100 JUMPI DUP1 PUSH4 0xF68D22D6 EQ PUSH2 0x130 JUMPI JUMPDEST PUSH0 DUP1 REVERT JUMPDEST PUSH2 0x7E PUSH1 0x4 DUP1 CALLDATASIZE SUB DUP2 ADD SWAP1 PUSH2 0x79 SWAP2 SWAP1 PUSH2 0xBF0 JUMP JUMPDEST PUSH2 0x14C JUMP JUMPDEST STOP JUMPDEST PUSH2 0x88 PUSH2 0x25B JUMP JUMPDEST PUSH1 0x40 MLOAD PUSH2 0x95 SWAP2 SWAP1 PUSH2 0xC89 JUMP JUMPDEST PUSH1 0x40 MLOAD DUP1 SWAP2 SUB SWAP1 RETURN JUMPDEST PUSH2 0xB8 PUSH1 0x4 DUP1 CALLDATASIZE SUB DUP2 ADD SWAP1 PUSH2 0xB3 SWAP2 SWAP1 PUSH2 0xCA2 JUMP JUMPDEST PUSH2 0x280 JUMP JUMPDEST PUSH1 0x40 MLOAD PUSH2 0xC7 SWAP4 SWAP3 SWAP2 SWAP1 PUSH2 0xDBA JUMP JUMPDEST PUSH1 0x40 MLOAD DUP1 SWAP2 SUB SWAP1 RETURN JUMPDEST PUSH2 0xEA PUSH1 0x4 DUP1 CALLDATASIZE SUB DUP2 ADD SWAP1 PUSH2 0xE5 SWAP2 SWAP1 PUSH2 0xEBA JUMP JUMPDEST PUSH2 0x365 JUMP JUMPDEST PUSH1 0x40 MLOAD PUSH2 0xF7 SWAP2 SWAP1 PUSH2 0xF3F JUMP JUMPDEST PUSH1 0x40 MLOAD DUP1 SWAP2 SUB SWAP1 RETURN JUMPDEST PUSH2 0x11A PUSH1 0x4 DUP1 CALLDATASIZE SUB DUP2 ADD SWAP1 PUSH2 0x115 SWAP2 SWAP1 PUSH2 0xCA2 JUMP JUMPDEST PUSH2 0x514 JUMP JUMPDEST PUSH1 0x40 MLOAD PUSH2 0x127 SWAP2 SWAP1 PUSH2 0x10DC JUMP JUMPDEST PUSH1 0x40 MLOAD DUP1 SWAP2 SUB SWAP1 RETURN JUMPDEST PUSH2 0x14A PUSH1 0x4 DUP1 CALLDATASIZE SUB DUP2 ADD SWAP1 PUSH2 0x145 SWAP2 SWAP1 PUSH2 0xCA2 JUMP JUMPDEST PUSH2 0x707 JUMP JUMPDEST STOP JUMPDEST PUSH0 DUP1 SLOAD SWAP1 POP DUP3 LT PUSH2 0x192 JUMPI PUSH1 0x40 MLOAD PUSH32 0x8C379A000000000000000000000000000000000000000000000000000000000 DUP2 MSTORE PUSH1 0x4 ADD PUSH2 0x189 SWAP1 PUSH2 0x1146 JUMP JUMPDEST PUSH1 0x40 MLOAD DUP1 SWAP2 SUB SWAP1 REVERT JUMPDEST PUSH0 DUP1 DUP4 DUP2 SLOAD DUP2 LT PUSH2 0x1A6 JUMPI PUSH2 0x1A5 PUSH2 0x1164 JUMP JUMPDEST JUMPDEST SWAP1 PUSH0 MSTORE PUSH1 0x20 PUSH0 KECCAK256 SWAP1 PUSH1 0x4 MUL ADD SWAP1 POP CALLER PUSH20 0xFFFFFFFFFFFFFFFFFFFFFFFFFFFFFFFFFFFFFFFF AND DUP2 PUSH0 ADD PUSH0 SWAP1 SLOAD SWAP1 PUSH2 0x100 EXP SWAP1 DIV PUSH20 0xFFFFFFFFFFFFFFFFFFFFFFFFFFFFFFFFFFFFFFFF AND PUSH20 0xFFFFFFFFFFFFFFFFFFFFFFFFFFFFFFFFFFFFFFFF AND EQ PUSH2 0x244 JUMPI PUSH1 0x40 MLOAD PUSH32 0x8C379A000000000000000000000000000000000000000000000000000000000 DUP2 MSTORE PUSH1 0x4 ADD PUSH2 0x23B SWAP1 PUSH2 0x11DB JUMP JUMPDEST PUSH1 0x40 MLOAD DUP1 SWAP2 SUB SWAP1 REVERT JUMPDEST DUP2 DUP2 PUSH1 0x1 ADD SWAP1 DUP2 PUSH2 0x255 SWAP2 SWAP1 PUSH2 0x13F3 JUMP JUMPDEST POP POP POP POP JUMP JUMPDEST PUSH1 0x1 PUSH0 SWAP1 SLOAD SWAP1 PUSH2 0x100 EXP SWAP1 DIV PUSH20 0xFFFFFFFFFFFFFFFFFFFFFFFFFFFFFFFFFFFFFFFF AND DUP2 JUMP JUMPDEST PUSH0 DUP2 DUP2 SLOAD DUP2 LT PUSH2 0x28E JUMPI PUSH0 DUP1 REVERT JUMPDEST SWAP1 PUSH0 MSTORE PUSH1 0x20 PUSH0 KECCAK256 SWAP1 PUSH1 0x4 MUL ADD PUSH0 SWAP2 POP SWAP1 POP DUP1 PUSH0 ADD PUSH0 SWAP1 SLOAD SWAP1 PUSH2 0x100 EXP SWAP1 DIV PUSH20 0xFFFFFFFFFFFFFFFFFFFFFFFFFFFFFFFFFFFFFFFF AND SWAP1 DUP1 PUSH1 0x1 ADD DUP1 SLOAD PUSH2 0x2D2 SWAP1 PUSH2 0x1226 JUMP JUMPDEST DUP1 PUSH1 0x1F ADD PUSH1 0x20 DUP1 SWAP2 DIV MUL PUSH1 0x20 ADD PUSH1 0x40 MLOAD SWAP1 DUP2 ADD PUSH1 0x40 MSTORE DUP1 SWAP3 SWAP2 SWAP1 DUP2 DUP2 MSTORE PUSH1 0x20 ADD DUP3 DUP1 SLOAD PUSH2 0x2FE SWAP1 PUSH2 0x1226 JUMP JUMPDEST DUP1 ISZERO PUSH2 0x349 JUMPI DUP1 PUSH1 0x1F LT PUSH2 0x320 JUMPI PUSH2 0x100 DUP1 DUP4 SLOAD DIV MUL DUP4 MSTORE SWAP2 PUSH1 0x20 ADD SWAP2 PUSH2 0x349 JUMP JUMPDEST DUP3 ADD SWAP2 SWAP1 PUSH0 MSTORE PUSH1 0x20 PUSH0 KECCAK256 SWAP1 JUMPDEST DUP2 SLOAD DUP2 MSTORE SWAP1 PUSH1 0x1 ADD SWAP1 PUSH1 0x20 ADD DUP1 DUP4 GT PUSH2 0x32C JUMPI DUP3 SWAP1 SUB PUSH1 0x1F AND DUP3 ADD SWAP2 JUMPDEST POP POP POP POP POP SWAP1 DUP1 PUSH1 0x3 ADD PUSH0 SWAP1 SLOAD SWAP1 PUSH2 0x100 EXP SWAP1 DIV PUSH1 0xFF AND SWAP1 POP DUP4 JUMP JUMPDEST PUSH0 DUP1 DUP3 MLOAD GT PUSH2 0x3A9 JUMPI PUSH1 0x40 MLOAD PUSH32 0x8C379A000000000000000000000000000000000000000000000000000000000 DUP2 MSTORE PUSH1 0x4 ADD PUSH2 0x3A0 SWAP1 PUSH2 0x150C JUMP JUMPDEST PUSH1 0x40 MLOAD DUP1 SWAP2 SUB SWAP1 REVERT JUMPDEST PUSH2 0x3B1 PUSH2 0x9BC JUMP JUMPDEST CALLER DUP2 PUSH0 ADD SWAP1 PUSH20 0xFFFFFFFFFFFFFFFFFFFFFFFFFFFFFFFFFFFFFFFF AND SWAP1 DUP2 PUSH20 0xFFFFFFFFFFFFFFFFFFFFFFFFFFFFFFFFFFFFFFFF AND DUP2 MSTORE POP POP DUP4 DUP2 PUSH1 0x20 ADD DUP2 SWAP1 MSTORE POP DUP3 DUP2 PUSH1 0x40 ADD DUP2 SWAP1 MSTORE POP PUSH0 DUP2 PUSH1 0x60 ADD SWAP1 PUSH1 0x3 DUP2 GT ISZERO PUSH2 0x412 JUMPI PUSH2 0x411 PUSH2 0xD47 JUMP JUMPDEST JUMPDEST SWAP1 DUP2 PUSH1 0x3 DUP2 GT ISZERO PUSH2 0x426 JUMPI PUSH2 0x425 PUSH2 0xD47 JUMP JUMPDEST JUMPDEST DUP2 MSTORE POP POP PUSH0 DUP2 SWAP1 DUP1 PUSH1 0x1 DUP2 SLOAD ADD DUP1 DUP3 SSTORE DUP1 SWAP2 POP POP PUSH1 0x1 SWAP1 SUB SWAP1 PUSH0 MSTORE PUSH1 0x20 PUSH0 KECCAK256 SWAP1 PUSH1 0x4 MUL ADD PUSH0 SWAP1 SWAP2 SWAP1 SWAP2 SWAP1 SWAP2 POP PUSH0 DUP3 ADD MLOAD DUP2 PUSH0 ADD PUSH0 PUSH2 0x100 EXP DUP2 SLOAD DUP2 PUSH20 0xFFFFFFFFFFFFFFFFFFFFFFFFFFFFFFFFFFFFFFFF MUL NOT AND SWAP1 DUP4 PUSH20 0xFFFFFFFFFFFFFFFFFFFFFFFFFFFFFFFFFFFFFFFF AND MUL OR SWAP1 SSTORE POP PUSH1 0x20 DUP3 ADD MLOAD DUP2 PUSH1 0x1 ADD SWAP1 DUP2 PUSH2 0x4AB SWAP2 SWAP1 PUSH2 0x13F3 JUMP JUMPDEST POP PUSH1 0x40 DUP3 ADD MLOAD DUP2 PUSH1 0x2 ADD SWAP1 DUP1 MLOAD SWAP1 PUSH1 0x20 ADD SWAP1 PUSH2 0x4C8 SWAP3 SWAP2 SWAP1 PUSH2 0xA0A JUMP JUMPDEST POP PUSH1 0x60 DUP3 ADD MLOAD DUP2 PUSH1 0x3 ADD PUSH0 PUSH2 0x100 EXP DUP2 SLOAD DUP2 PUSH1 0xFF MUL NOT AND SWAP1 DUP4 PUSH1 0x3 DUP2 GT ISZERO PUSH2 0x4F3 JUMPI PUSH2 0x4F2 PUSH2 0xD47 JUMP JUMPDEST JUMPDEST MUL OR SWAP1 SSTORE POP POP POP PUSH1 0x1 PUSH0 DUP1 SLOAD SWAP1 POP PUSH2 0x50B SWAP2 SWAP1 PUSH2 0x1557 JUMP JUMPDEST SWAP2 POP POP SWAP3 SWAP2 POP POP JUMP JUMPDEST PUSH2 0x51C PUSH2 0x9BC JUMP JUMPDEST PUSH0 DUP1 SLOAD SWAP1 POP DUP3 LT PUSH2 0x562 JUMPI PUSH1 0x40 MLOAD PUSH32 0x8C379A000000000000000000000000000000000000000000000000000000000 DUP2 MSTORE PUSH1 0x4 ADD PUSH2 0x559 SWAP1 PUSH2 0x1146 JUMP JUMPDEST PUSH1 0x40 MLOAD DUP1 SWAP2 SUB SWAP1 REVERT JUMPDEST PUSH0 DUP3 DUP2 SLOAD DUP2 LT PUSH2 0x575 JUMPI PUSH2 0x574 PUSH2 0x1164 JUMP JUMPDEST JUMPDEST SWAP1 PUSH0 MSTORE PUSH1 0x20 PUSH0 KECCAK256 SWAP1 PUSH1 0x4 MUL ADD PUSH1 0x40 MLOAD DUP1 PUSH1 0x80 ADD PUSH1 0x40 MSTORE SWAP1 DUP2 PUSH0 DUP3 ADD PUSH0 SWAP1 SLOAD SWAP1 PUSH2 0x100 EXP SWAP1 DIV PUSH20 0xFFFFFFFFFFFFFFFFFFFFFFFFFFFFFFFFFFFFFFFF AND PUSH20 0xFFFFFFFFFFFFFFFFFFFFFFFFFFFFFFFFFFFFFFFF AND PUSH20 0xFFFFFFFFFFFFFFFFFFFFFFFFFFFFFFFFFFFFFFFF AND DUP2 MSTORE PUSH1 0x20 ADD PUSH1 0x1 DUP3 ADD DUP1 SLOAD PUSH2 0x5F0 SWAP1 PUSH2 0x1226 JUMP JUMPDEST DUP1 PUSH1 0x1F ADD PUSH1 0x20 DUP1 SWAP2 DIV MUL PUSH1 0x20 ADD PUSH1 0x40 MLOAD SWAP1 DUP2 ADD PUSH1 0x40 MSTORE DUP1 SWAP3 SWAP2 SWAP1 DUP2 DUP2 MSTORE PUSH1 0x20 ADD DUP3 DUP1 SLOAD PUSH2 0x61C SWAP1 PUSH2 0x1226 JUMP JUMPDEST DUP1 ISZERO PUSH2 0x667 JUMPI DUP1 PUSH1 0x1F LT PUSH2 0x63E JUMPI PUSH2 0x100 DUP1 DUP4 SLOAD DIV MUL DUP4 MSTORE SWAP2 PUSH1 0x20 ADD SWAP2 PUSH2 0x667 JUMP JUMPDEST DUP3 ADD SWAP2 SWAP1 PUSH0 MSTORE PUSH1 0x20 PUSH0 KECCAK256 SWAP1 JUMPDEST DUP2 SLOAD DUP2 MSTORE SWAP1 PUSH1 0x1 ADD SWAP1 PUSH1 0x20 ADD DUP1 DUP4 GT PUSH2 0x64A JUMPI DUP3 SWAP1 SUB PUSH1 0x1F AND DUP3 ADD SWAP2 JUMPDEST POP POP POP POP POP DUP2 MSTORE PUSH1 0x20 ADD PUSH1 0x2 DUP3 ADD DUP1 SLOAD DUP1 PUSH1 0x20 MUL PUSH1 0x20 ADD PUSH1 0x40 MLOAD SWAP1 DUP2 ADD PUSH1 0x40 MSTORE DUP1 SWAP3 SWAP2 SWAP1 DUP2 DUP2 MSTORE PUSH1 0x20 ADD DUP3 DUP1 SLOAD DUP1 ISZERO PUSH2 0x6BD JUMPI PUSH1 0x20 MUL DUP3 ADD SWAP2 SWAP1 PUSH0 MSTORE PUSH1 0x20 PUSH0 KECCAK256 SWAP1 JUMPDEST DUP2 SLOAD DUP2 MSTORE PUSH1 0x20 ADD SWAP1 PUSH1 0x1 ADD SWAP1 DUP1 DUP4 GT PUSH2 0x6A9 JUMPI JUMPDEST POP POP POP POP POP DUP2 MSTORE PUSH1 0x20 ADD PUSH1 0x3 DUP3 ADD PUSH0 SWAP1 SLOAD SWAP1 PUSH2 0x100 EXP SWAP1 DIV PUSH1 0xFF AND PUSH1 0x3 DUP2 GT ISZERO PUSH2 0x6EA JUMPI PUSH2 0x6E9 PUSH2 0xD47 JUMP JUMPDEST JUMPDEST PUSH1 0x3 DUP2 GT ISZERO PUSH2 0x6FC JUMPI PUSH2 0x6FB PUSH2 0xD47 JUMP JUMPDEST JUMPDEST DUP2 MSTORE POP POP SWAP1 POP SWAP2 SWAP1 POP JUMP JUMPDEST CALLER PUSH20 0xFFFFFFFFFFFFFFFFFFFFFFFFFFFFFFFFFFFFFFFF AND PUSH1 0x1 PUSH0 SWAP1 SLOAD SWAP1 PUSH2 0x100 EXP SWAP1 DIV PUSH20 0xFFFFFFFFFFFFFFFFFFFFFFFFFFFFFFFFFFFFFFFF AND PUSH20 0xFFFFFFFFFFFFFFFFFFFFFFFFFFFFFFFFFFFFFFFF AND EQ PUSH2 0x796 JUMPI PUSH1 0x40 MLOAD PUSH32 0x8C379A000000000000000000000000000000000000000000000000000000000 DUP2 MSTORE PUSH1 0x4 ADD PUSH2 0x78D SWAP1 PUSH2 0x15D4 JUMP JUMPDEST PUSH1 0x40 MLOAD DUP1 SWAP2 SUB SWAP1 REVERT JUMPDEST PUSH0 DUP1 SLOAD SWAP1 POP DUP2 LT PUSH2 0x7DC JUMPI PUSH1 0x40 MLOAD PUSH32 0x8C379A000000000000000000000000000000000000000000000000000000000 DUP2 MSTORE PUSH1 0x4 ADD PUSH2 0x7D3 SWAP1 PUSH2 0x1146 JUMP JUMPDEST PUSH1 0x40 MLOAD DUP1 SWAP2 SUB SWAP1 REVERT JUMPDEST PUSH0 DUP1 DUP3 DUP2 SLOAD DUP2 LT PUSH2 0x7F0 JUMPI PUSH2 0x7EF PUSH2 0x1164 JUMP JUMPDEST JUMPDEST SWAP1 PUSH0 MSTORE PUSH1 0x20 PUSH0 KECCAK256 SWAP1 PUSH1 0x4 MUL ADD SWAP1 POP PUSH1 0x3 DUP1 DUP2 GT ISZERO PUSH2 0x811 JUMPI PUSH2 0x810 PUSH2 0xD47 JUMP JUMPDEST JUMPDEST DUP2 PUSH1 0x3 ADD PUSH0 SWAP1 SLOAD SWAP1 PUSH2 0x100 EXP SWAP1 DIV PUSH1 0xFF AND PUSH1 0x3 DUP2 GT ISZERO PUSH2 0x834 JUMPI PUSH2 0x833 PUSH2 0xD47 JUMP JUMPDEST JUMPDEST SUB PUSH2 0x874 JUMPI PUSH1 0x40 MLOAD PUSH32 0x8C379A000000000000000000000000000000000000000000000000000000000 DUP2 MSTORE PUSH1 0x4 ADD PUSH2 0x86B SWAP1 PUSH2 0x163C JUMP JUMPDEST PUSH1 0x40 MLOAD DUP1 SWAP2 SUB SWAP1 REVERT JUMPDEST PUSH0 PUSH1 0x3 DUP2 GT ISZERO PUSH2 0x887 JUMPI PUSH2 0x886 PUSH2 0xD47 JUMP JUMPDEST JUMPDEST DUP2 PUSH1 0x3 ADD PUSH0 SWAP1 SLOAD SWAP1 PUSH2 0x100 EXP SWAP1 DIV PUSH1 0xFF AND PUSH1 0x3 DUP2 GT ISZERO PUSH2 0x8AA JUMPI PUSH2 0x8A9 PUSH2 0xD47 JUMP JUMPDEST JUMPDEST SUB PUSH2 0x8E0 JUMPI PUSH1 0x1 DUP2 PUSH1 0x3 ADD PUSH0 PUSH2 0x100 EXP DUP2 SLOAD DUP2 PUSH1 0xFF MUL NOT AND SWAP1 DUP4 PUSH1 0x3 DUP2 GT ISZERO PUSH2 0x8D6 JUMPI PUSH2 0x8D5 PUSH2 0xD47 JUMP JUMPDEST JUMPDEST MUL OR SWAP1 SSTORE POP PUSH2 0x9B8 JUMP JUMPDEST PUSH1 0x1 PUSH1 0x3 DUP2 GT ISZERO PUSH2 0x8F4 JUMPI PUSH2 0x8F3 PUSH2 0xD47 JUMP JUMPDEST JUMPDEST DUP2 PUSH1 0x3 ADD PUSH0 SWAP1 SLOAD SWAP1 PUSH2 0x100 EXP SWAP1 DIV PUSH1 0xFF AND PUSH1 0x3 DUP2 GT ISZERO PUSH2 0x917 JUMPI PUSH2 0x916 PUSH2 0xD47 JUMP JUMPDEST JUMPDEST SUB PUSH2 0x94D JUMPI PUSH1 0x2 DUP2 PUSH1 0x3 ADD PUSH0 PUSH2 0x100 EXP DUP2 SLOAD DUP2 PUSH1 0xFF MUL NOT AND SWAP1 DUP4 PUSH1 0x3 DUP2 GT ISZERO PUSH2 0x943 JUMPI PUSH2 0x942 PUSH2 0xD47 JUMP JUMPDEST JUMPDEST MUL OR SWAP1 SSTORE POP PUSH2 0x9B7 JUMP JUMPDEST PUSH1 0x2 PUSH1 0x3 DUP2 GT ISZERO PUSH2 0x961 JUMPI PUSH2 0x960 PUSH2 0xD47 JUMP JUMPDEST JUMPDEST DUP2 PUSH1 0x3 ADD PUSH0 SWAP1 SLOAD SWAP1 PUSH2 0x100 EXP SWAP1 DIV PUSH1 0xFF AND PUSH1 0x3 DUP2 GT ISZERO PUSH2 0x984 JUMPI PUSH2 0x983 PUSH2 0xD47 JUMP JUMPDEST JUMPDEST SUB PUSH2 0x9B6 JUMPI PUSH1 0x3 DUP2 PUSH1 0x3 ADD PUSH0 PUSH2 0x100 EXP DUP2 SLOAD DUP2 PUSH1 0xFF MUL NOT AND SWAP1 DUP4 PUSH1 0x3 DUP2 GT ISZERO PUSH2 0x9B0 JUMPI PUSH2 0x9AF PUSH2 0xD47 JUMP JUMPDEST JUMPDEST MUL OR SWAP1 SSTORE POP JUMPDEST JUMPDEST JUMPDEST POP POP JUMP JUMPDEST PUSH1 0x40 MLOAD DUP1 PUSH1 0x80 ADD PUSH1 0x40 MSTORE DUP1 PUSH0 PUSH20 0xFFFFFFFFFFFFFFFFFFFFFFFFFFFFFFFFFFFFFFFF AND DUP2 MSTORE PUSH1 0x20 ADD PUSH1 0x60 DUP2 MSTORE PUSH1 0x20 ADD PUSH1 0x60 DUP2 MSTORE PUSH1 0x20 ADD PUSH0 PUSH1 0x3 DUP2 GT ISZERO PUSH2 0xA04 JUMPI PUSH2 0xA03 PUSH2 0xD47 JUMP JUMPDEST JUMPDEST DUP2 MSTORE POP SWAP1 JUMP JUMPDEST DUP3 DUP1 SLOAD DUP3 DUP3 SSTORE SWAP1 PUSH0 MSTORE PUSH1 0x20 PUSH0 KECCAK256 SWAP1 DUP2 ADD SWAP3 DUP3 ISZERO PUSH2 0xA44 JUMPI SWAP2 PUSH1 0x20 MUL DUP3 ADD JUMPDEST DUP3 DUP2 GT ISZERO PUSH2 0xA43 JUMPI DUP3 MLOAD DUP3 SSTORE SWAP2 PUSH1 0x20 ADD SWAP2 SWAP1 PUSH1 0x1 ADD SWAP1 PUSH2 0xA28 JUMP JUMPDEST JUMPDEST POP SWAP1 POP PUSH2 0xA51 SWAP2 SWAP1 PUSH2 0xA55 JUMP JUMPDEST POP SWAP1 JUMP JUMPDEST JUMPDEST DUP1 DUP3 GT ISZERO PUSH2 0xA6C JUMPI PUSH0 DUP2 PUSH0 SWAP1 SSTORE POP PUSH1 0x1 ADD PUSH2 0xA56 JUMP JUMPDEST POP SWAP1 JUMP JUMPDEST PUSH0 PUSH1 0x40 MLOAD SWAP1 POP SWAP1 JUMP JUMPDEST PUSH0 DUP1 REVERT JUMPDEST PUSH0 DUP1 REVERT JUMPDEST PUSH0 DUP2 SWAP1 POP SWAP2 SWAP1 POP JUMP JUMPDEST PUSH2 0xA93 DUP2 PUSH2 0xA81 JUMP JUMPDEST DUP2 EQ PUSH2 0xA9D JUMPI PUSH0 DUP1 REVERT JUMPDEST POP JUMP JUMPDEST PUSH0 DUP2 CALLDATALOAD SWAP1 POP PUSH2 0xAAE DUP2 PUSH2 0xA8A JUMP JUMPDEST SWAP3 SWAP2 POP POP JUMP JUMPDEST PUSH0 DUP1 REVERT JUMPDEST PUSH0 DUP1 REVERT JUMPDEST PUSH0 PUSH1 0x1F NOT PUSH1 0x1F DUP4 ADD AND SWAP1 POP SWAP2 SWAP1 POP JUMP JUMPDEST PUSH32 0x4E487B7100000000000000000000000000000000000000000000000000000000 PUSH0 MSTORE PUSH1 0x41 PUSH1 0x4 MSTORE PUSH1 0x24 PUSH0 REVERT JUMPDEST PUSH2 0xB02 DUP3 PUSH2 0xABC JUMP JUMPDEST DUP2 ADD DUP2 DUP2 LT PUSH8 0xFFFFFFFFFFFFFFFF DUP3 GT OR ISZERO PUSH2 0xB21 JUMPI PUSH2 0xB20 PUSH2 0xACC JUMP JUMPDEST JUMPDEST DUP1 PUSH1 0x40 MSTORE POP POP POP JUMP JUMPDEST PUSH0 PUSH2 0xB33 PUSH2 0xA70 JUMP JUMPDEST SWAP1 POP PUSH2 0xB3F DUP3 DUP3 PUSH2 0xAF9 JUMP JUMPDEST SWAP2 SWAP1 POP JUMP JUMPDEST PUSH0 PUSH8 0xFFFFFFFFFFFFFFFF DUP3 GT ISZERO PUSH2 0xB5E JUMPI PUSH2 0xB5D PUSH2 0xACC JUMP JUMPDEST JUMPDEST PUSH2 0xB67 DUP3 PUSH2 0xABC JUMP JUMPDEST SWAP1 POP PUSH1 0x20 DUP2 ADD SWAP1 POP SWAP2 SWAP1 POP JUMP JUMPDEST DUP3 DUP2 DUP4 CALLDATACOPY PUSH0 DUP4 DUP4 ADD MSTORE POP POP POP JUMP JUMPDEST PUSH0 PUSH2 0xB94 PUSH2 0xB8F DUP5 PUSH2 0xB44 JUMP JUMPDEST PUSH2 0xB2A JUMP JUMPDEST SWAP1 POP DUP3 DUP2 MSTORE PUSH1 0x20 DUP2 ADD DUP5 DUP5 DUP5 ADD GT ISZERO PUSH2 0xBB0 JUMPI PUSH2 0xBAF PUSH2 0xAB8 JUMP JUMPDEST JUMPDEST PUSH2 0xBBB DUP5 DUP3 DUP6 PUSH2 0xB74 JUMP JUMPDEST POP SWAP4 SWAP3 POP POP POP JUMP JUMPDEST PUSH0 DUP3 PUSH1 0x1F DUP4 ADD SLT PUSH2 0xBD7 JUMPI PUSH2 0xBD6 PUSH2 0xAB4 JUMP JUMPDEST JUMPDEST DUP2 CALLDATALOAD PUSH2 0xBE7 DUP5 DUP3 PUSH1 0x20 DUP7 ADD PUSH2 0xB82 JUMP JUMPDEST SWAP2 POP POP SWAP3 SWAP2 POP POP JUMP JUMPDEST PUSH0 DUP1 PUSH1 0x40 DUP4 DUP6 SUB SLT ISZERO PUSH2 0xC06 JUMPI PUSH2 0xC05 PUSH2 0xA79 JUMP JUMPDEST JUMPDEST PUSH0 PUSH2 0xC13 DUP6 DUP3 DUP7 ADD PUSH2 0xAA0 JUMP JUMPDEST SWAP3 POP POP PUSH1 0x20 DUP4 ADD CALLDATALOAD PUSH8 0xFFFFFFFFFFFFFFFF DUP2 GT ISZERO PUSH2 0xC34 JUMPI PUSH2 0xC33 PUSH2 0xA7D JUMP JUMPDEST JUMPDEST PUSH2 0xC40 DUP6 DUP3 DUP7 ADD PUSH2 0xBC3 JUMP JUMPDEST SWAP2 POP POP SWAP3 POP SWAP3 SWAP1 POP JUMP JUMPDEST PUSH0 PUSH20 0xFFFFFFFFFFFFFFFFFFFFFFFFFFFFFFFFFFFFFFFF DUP3 AND SWAP1 POP SWAP2 SWAP1 POP JUMP JUMPDEST PUSH0 PUSH2 0xC73 DUP3 PUSH2 0xC4A JUMP JUMPDEST SWAP1 POP SWAP2 SWAP1 POP JUMP JUMPDEST PUSH2 0xC83 DUP2 PUSH2 0xC69 JUMP JUMPDEST DUP3 MSTORE POP POP JUMP JUMPDEST PUSH0 PUSH1 0x20 DUP3 ADD SWAP1 POP PUSH2 0xC9C PUSH0 DUP4 ADD DUP5 PUSH2 0xC7A JUMP JUMPDEST SWAP3 SWAP2 POP POP JUMP JUMPDEST PUSH0 PUSH1 0x20 DUP3 DUP5 SUB SLT ISZERO PUSH2 0xCB7 JUMPI PUSH2 0xCB6 PUSH2 0xA79 JUMP JUMPDEST JUMPDEST PUSH0 PUSH2 0xCC4 DUP5 DUP3 DUP6 ADD PUSH2 0xAA0 JUMP JUMPDEST SWAP2 POP POP SWAP3 SWAP2 POP POP JUMP JUMPDEST PUSH0 DUP2 MLOAD SWAP1 POP SWAP2 SWAP1 POP JUMP JUMPDEST PUSH0 DUP3 DUP3 MSTORE PUSH1 0x20 DUP3 ADD SWAP1 POP SWAP3 SWAP2 POP POP JUMP JUMPDEST PUSH0 JUMPDEST DUP4 DUP2 LT ISZERO PUSH2 0xD04 JUMPI DUP1 DUP3 ADD MLOAD DUP2 DUP5 ADD MSTORE PUSH1 0x20 DUP2 ADD SWAP1 POP PUSH2 0xCE9 JUMP JUMPDEST PUSH0 DUP5 DUP5 ADD MSTORE POP POP POP POP JUMP JUMPDEST PUSH0 PUSH2 0xD19 DUP3 PUSH2 0xCCD JUMP JUMPDEST PUSH2 0xD23 DUP2 DUP6 PUSH2 0xCD7 JUMP JUMPDEST SWAP4 POP PUSH2 0xD33 DUP2 DUP6 PUSH1 0x20 DUP7 ADD PUSH2 0xCE7 JUMP JUMPDEST PUSH2 0xD3C DUP2 PUSH2 0xABC JUMP JUMPDEST DUP5 ADD SWAP2 POP POP SWAP3 SWAP2 POP POP JUMP JUMPDEST PUSH32 0x4E487B7100000000000000000000000000000000000000000000000000000000 PUSH0 MSTORE PUSH1 0x21 PUSH1 0x4 MSTORE PUSH1 0x24 PUSH0 REVERT JUMPDEST PUSH1 0x4 DUP2 LT PUSH2 0xD85 JUMPI PUSH2 0xD84 PUSH2 0xD47 JUMP JUMPDEST JUMPDEST POP JUMP JUMPDEST PUSH0 DUP2 SWAP1 POP PUSH2 0xD95 DUP3 PUSH2 0xD74 JUMP JUMPDEST SWAP2 SWAP1 POP JUMP JUMPDEST PUSH0 PUSH2 0xDA4 DUP3 PUSH2 0xD88 JUMP JUMPDEST SWAP1 POP SWAP2 SWAP1 POP JUMP JUMPDEST PUSH2 0xDB4 DUP2 PUSH2 0xD9A JUMP JUMPDEST DUP3 MSTORE POP POP JUMP JUMPDEST PUSH0 PUSH1 0x60 DUP3 ADD SWAP1 POP PUSH2 0xDCD PUSH0 DUP4 ADD DUP7 PUSH2 0xC7A JUMP JUMPDEST DUP2 DUP2 SUB PUSH1 0x20 DUP4 ADD MSTORE PUSH2 0xDDF DUP2 DUP6 PUSH2 0xD0F JUMP JUMPDEST SWAP1 POP PUSH2 0xDEE PUSH1 0x40 DUP4 ADD DUP5 PUSH2 0xDAB JUMP JUMPDEST SWAP5 SWAP4 POP POP POP POP JUMP JUMPDEST PUSH0 PUSH8 0xFFFFFFFFFFFFFFFF DUP3 GT ISZERO PUSH2 0xE10 JUMPI PUSH2 0xE0F PUSH2 0xACC JUMP JUMPDEST JUMPDEST PUSH1 0x20 DUP3 MUL SWAP1 POP PUSH1 0x20 DUP2 ADD SWAP1 POP SWAP2 SWAP1 POP JUMP JUMPDEST PUSH0 DUP1 REVERT JUMPDEST PUSH0 PUSH2 0xE37 PUSH2 0xE32 DUP5 PUSH2 0xDF6 JUMP JUMPDEST PUSH2 0xB2A JUMP JUMPDEST SWAP1 POP DUP1 DUP4 DUP3 MSTORE PUSH1 0x20 DUP3 ADD SWAP1 POP PUSH1 0x20 DUP5 MUL DUP4 ADD DUP6 DUP2 GT ISZERO PUSH2 0xE5A JUMPI PUSH2 0xE59 PUSH2 0xE21 JUMP JUMPDEST JUMPDEST DUP4 JUMPDEST DUP2 DUP2 LT ISZERO PUSH2 0xE83 JUMPI DUP1 PUSH2 0xE6F DUP9 DUP3 PUSH2 0xAA0 JUMP JUMPDEST DUP5 MSTORE PUSH1 0x20 DUP5 ADD SWAP4 POP POP PUSH1 0x20 DUP2 ADD SWAP1 POP PUSH2 0xE5C JUMP JUMPDEST POP POP POP SWAP4 SWAP3 POP POP POP JUMP JUMPDEST PUSH0 DUP3 PUSH1 0x1F DUP4 ADD SLT PUSH2 0xEA1 JUMPI PUSH2 0xEA0 PUSH2 0xAB4 JUMP JUMPDEST JUMPDEST DUP2 CALLDATALOAD PUSH2 0xEB1 DUP5 DUP3 PUSH1 0x20 DUP7 ADD PUSH2 0xE25 JUMP JUMPDEST SWAP2 POP POP SWAP3 SWAP2 POP POP JUMP JUMPDEST PUSH0 DUP1 PUSH1 0x40 DUP4 DUP6 SUB SLT ISZERO PUSH2 0xED0 JUMPI PUSH2 0xECF PUSH2 0xA79 JUMP JUMPDEST JUMPDEST PUSH0 DUP4 ADD CALLDATALOAD PUSH8 0xFFFFFFFFFFFFFFFF DUP2 GT ISZERO PUSH2 0xEED JUMPI PUSH2 0xEEC PUSH2 0xA7D JUMP JUMPDEST JUMPDEST PUSH2 0xEF9 DUP6 DUP3 DUP7 ADD PUSH2 0xBC3 JUMP JUMPDEST SWAP3 POP POP PUSH1 0x20 DUP4 ADD CALLDATALOAD PUSH8 0xFFFFFFFFFFFFFFFF DUP2 GT ISZERO PUSH2 0xF1A JUMPI PUSH2 0xF19 PUSH2 0xA7D JUMP JUMPDEST JUMPDEST PUSH2 0xF26 DUP6 DUP3 DUP7 ADD PUSH2 0xE8D JUMP JUMPDEST SWAP2 POP POP SWAP3 POP SWAP3 SWAP1 POP JUMP JUMPDEST PUSH2 0xF39 DUP2 PUSH2 0xA81 JUMP JUMPDEST DUP3 MSTORE POP POP JUMP JUMPDEST PUSH0 PUSH1 0x20 DUP3 ADD SWAP1 POP PUSH2 0xF52 PUSH0 DUP4 ADD DUP5 PUSH2 0xF30 JUMP JUMPDEST SWAP3 SWAP2 POP POP JUMP JUMPDEST PUSH2 0xF61 DUP2 PUSH2 0xC69 JUMP JUMPDEST DUP3 MSTORE POP POP JUMP JUMPDEST PUSH0 DUP3 DUP3 MSTORE PUSH1 0x20 DUP3 ADD SWAP1 POP SWAP3 SWAP2 POP POP JUMP JUMPDEST PUSH0 PUSH2 0xF81 DUP3 PUSH2 0xCCD JUMP JUMPDEST PUSH2 0xF8B DUP2 DUP6 PUSH2 0xF67 JUMP JUMPDEST SWAP4 POP PUSH2 0xF9B DUP2 DUP6 PUSH1 0x20 DUP7 ADD PUSH2 0xCE7 JUMP JUMPDEST PUSH2 0xFA4 DUP2 PUSH2 0xABC JUMP JUMPDEST DUP5 ADD SWAP2 POP POP SWAP3 SWAP2 POP POP JUMP JUMPDEST PUSH0 DUP2 MLOAD SWAP1 POP SWAP2 SWAP1 POP JUMP JUMPDEST PUSH0 DUP3 DUP3 MSTORE PUSH1 0x20 DUP3 ADD SWAP1 POP SWAP3 SWAP2 POP POP JUMP JUMPDEST PUSH0 DUP2 SWAP1 POP PUSH1 0x20 DUP3 ADD SWAP1 POP SWAP2 SWAP1 POP JUMP JUMPDEST PUSH2 0xFE1 DUP2 PUSH2 0xA81 JUMP JUMPDEST DUP3 MSTORE POP POP JUMP JUMPDEST PUSH0 PUSH2 0xFF2 DUP4 DUP4 PUSH2 0xFD8 JUMP JUMPDEST PUSH1 0x20 DUP4 ADD SWAP1 POP SWAP3 SWAP2 POP POP JUMP JUMPDEST PUSH0 PUSH1 0x20 DUP3 ADD SWAP1 POP SWAP2 SWAP1 POP JUMP JUMPDEST PUSH0 PUSH2 0x1014 DUP3 PUSH2 0xFAF JUMP JUMPDEST PUSH2 0x101E DUP2 DUP6 PUSH2 0xFB9 JUMP JUMPDEST SWAP4 POP PUSH2 0x1029 DUP4 PUSH2 0xFC9 JUMP JUMPDEST DUP1 PUSH0 JUMPDEST DUP4 DUP2 LT ISZERO PUSH2 0x1059 JUMPI DUP2 MLOAD PUSH2 0x1040 DUP9 DUP3 PUSH2 0xFE7 JUMP JUMPDEST SWAP8 POP PUSH2 0x104B DUP4 PUSH2 0xFFE JUMP JUMPDEST SWAP3 POP POP PUSH1 0x1 DUP2 ADD SWAP1 POP PUSH2 0x102C JUMP JUMPDEST POP DUP6 SWAP4 POP POP POP POP SWAP3 SWAP2 POP POP JUMP JUMPDEST PUSH2 0x106F DUP2 PUSH2 0xD9A JUMP JUMPDEST DUP3 MSTORE POP POP JUMP JUMPDEST PUSH0 PUSH1 0x80 DUP4 ADD PUSH0 DUP4 ADD MLOAD PUSH2 0x108A PUSH0 DUP7 ADD DUP3 PUSH2 0xF58 JUMP JUMPDEST POP PUSH1 0x20 DUP4 ADD MLOAD DUP5 DUP3 SUB PUSH1 0x20 DUP7 ADD MSTORE PUSH2 0x10A2 DUP3 DUP3 PUSH2 0xF77 JUMP JUMPDEST SWAP2 POP POP PUSH1 0x40 DUP4 ADD MLOAD DUP5 DUP3 SUB PUSH1 0x40 DUP7 ADD MSTORE PUSH2 0x10BC DUP3 DUP3 PUSH2 0x100A JUMP JUMPDEST SWAP2 POP POP PUSH1 0x60 DUP4 ADD MLOAD PUSH2 0x10D1 PUSH1 0x60 DUP7 ADD DUP3 PUSH2 0x1066 JUMP JUMPDEST POP DUP1 SWAP2 POP POP SWAP3 SWAP2 POP POP JUMP JUMPDEST PUSH0 PUSH1 0x20 DUP3 ADD SWAP1 POP DUP2 DUP2 SUB PUSH0 DUP4 ADD MSTORE PUSH2 0x10F4 DUP2 DUP5 PUSH2 0x1075 JUMP JUMPDEST SWAP1 POP SWAP3 SWAP2 POP POP JUMP JUMPDEST PUSH32 0x4E6F7420612076616C6964206F72646572206964000000000000000000000000 PUSH0 DUP3 ADD MSTORE POP JUMP JUMPDEST PUSH0 PUSH2 0x1130 PUSH1 0x14 DUP4 PUSH2 0xCD7 JUMP JUMPDEST SWAP2 POP PUSH2 0x113B DUP3 PUSH2 0x10FC JUMP JUMPDEST PUSH1 0x20 DUP3 ADD SWAP1 POP SWAP2 SWAP1 POP JUMP JUMPDEST PUSH0 PUSH1 0x20 DUP3 ADD SWAP1 POP DUP2 DUP2 SUB PUSH0 DUP4 ADD MSTORE PUSH2 0x115D DUP2 PUSH2 0x1124 JUMP JUMPDEST SWAP1 POP SWAP2 SWAP1 POP JUMP JUMPDEST PUSH32 0x4E487B7100000000000000000000000000000000000000000000000000000000 PUSH0 MSTORE PUSH1 0x32 PUSH1 0x4 MSTORE PUSH1 0x24 PUSH0 REVERT JUMPDEST PUSH32 0x20796F7520617265206E6F7420746865206F776E657200000000000000000000 PUSH0 DUP3 ADD MSTORE POP JUMP JUMPDEST PUSH0 PUSH2 0x11C5 PUSH1 0x16 DUP4 PUSH2 0xCD7 JUMP JUMPDEST SWAP2 POP PUSH2 0x11D0 DUP3 PUSH2 0x1191 JUMP JUMPDEST PUSH1 0x20 DUP3 ADD SWAP1 POP SWAP2 SWAP1 POP JUMP JUMPDEST PUSH0 PUSH1 0x20 DUP3 ADD SWAP1 POP DUP2 DUP2 SUB PUSH0 DUP4 ADD MSTORE PUSH2 0x11F2 DUP2 PUSH2 0x11B9 JUMP JUMPDEST SWAP1 POP SWAP2 SWAP1 POP JUMP JUMPDEST PUSH32 0x4E487B7100000000000000000000000000000000000000000000000000000000 PUSH0 MSTORE PUSH1 0x22 PUSH1 0x4 MSTORE PUSH1 0x24 PUSH0 REVERT JUMPDEST PUSH0 PUSH1 0x2 DUP3 DIV SWAP1 POP PUSH1 0x1 DUP3 AND DUP1 PUSH2 0x123D JUMPI PUSH1 0x7F DUP3 AND SWAP2 POP JUMPDEST PUSH1 0x20 DUP3 LT DUP2 SUB PUSH2 0x1250 JUMPI PUSH2 0x124F PUSH2 0x11F9 JUMP JUMPDEST JUMPDEST POP SWAP2 SWAP1 POP JUMP JUMPDEST PUSH0 DUP2 SWAP1 POP DUP2 PUSH0 MSTORE PUSH1 0x20 PUSH0 KECCAK256 SWAP1 POP SWAP2 SWAP1 POP JUMP JUMPDEST PUSH0 PUSH1 0x20 PUSH1 0x1F DUP4 ADD DIV SWAP1 POP SWAP2 SWAP1 POP JUMP JUMPDEST PUSH0 DUP3 DUP3 SHL SWAP1 POP SWAP3 SWAP2 POP POP JUMP JUMPDEST PUSH0 PUSH1 0x8 DUP4 MUL PUSH2 0x12B2 PUSH32 0xFFFFFFFFFFFFFFFFFFFFFFFFFFFFFFFFFFFFFFFFFFFFFFFFFFFFFFFFFFFFFFFF DUP3 PUSH2 0x1277 JUMP JUMPDEST PUSH2 0x12BC DUP7 DUP4 PUSH2 0x1277 JUMP JUMPDEST SWAP6 POP DUP1 NOT DUP5 AND SWAP4 POP DUP1 DUP7 AND DUP5 OR SWAP3 POP POP POP SWAP4 SWAP3 POP POP POP JUMP JUMPDEST PUSH0 DUP2 SWAP1 POP SWAP2 SWAP1 POP JUMP JUMPDEST PUSH0 PUSH2 0x12F7 PUSH2 0x12F2 PUSH2 0x12ED DUP5 PUSH2 0xA81 JUMP JUMPDEST PUSH2 0x12D4 JUMP JUMPDEST PUSH2 0xA81 JUMP JUMPDEST SWAP1 POP SWAP2 SWAP1 POP JUMP JUMPDEST PUSH0 DUP2 SWAP1 POP SWAP2 SWAP1 POP JUMP JUMPDEST PUSH2 0x1310 DUP4 PUSH2 0x12DD JUMP JUMPDEST PUSH2 0x1324 PUSH2 0x131C DUP3 PUSH2 0x12FE JUMP JUMPDEST DUP5 DUP5 SLOAD PUSH2 0x1283 JUMP JUMPDEST DUP3 SSTORE POP POP POP POP JUMP JUMPDEST PUSH0 SWAP1 JUMP JUMPDEST PUSH2 0x1338 PUSH2 0x132C JUMP JUMPDEST PUSH2 0x1343 DUP2 DUP5 DUP5 PUSH2 0x1307 JUMP JUMPDEST POP POP POP JUMP JUMPDEST JUMPDEST DUP2 DUP2 LT ISZERO PUSH2 0x1366 JUMPI PUSH2 0x135B PUSH0 DUP3 PUSH2 0x1330 JUMP JUMPDEST PUSH1 0x1 DUP2 ADD SWAP1 POP PUSH2 0x1349 JUMP JUMPDEST POP POP JUMP JUMPDEST PUSH1 0x1F DUP3 GT ISZERO PUSH2 0x13AB JUMPI PUSH2 0x137C DUP2 PUSH2 0x1256 JUMP JUMPDEST PUSH2 0x1385 DUP5 PUSH2 0x1268 JUMP JUMPDEST DUP2 ADD PUSH1 0x20 DUP6 LT ISZERO PUSH2 0x1394 JUMPI DUP2 SWAP1 POP JUMPDEST PUSH2 0x13A8 PUSH2 0x13A0 DUP6 PUSH2 0x1268 JUMP JUMPDEST DUP4 ADD DUP3 PUSH2 0x1348 JUMP JUMPDEST POP POP JUMPDEST POP POP POP JUMP JUMPDEST PUSH0 DUP3 DUP3 SHR SWAP1 POP SWAP3 SWAP2 POP POP JUMP JUMPDEST PUSH0 PUSH2 0x13CB PUSH0 NOT DUP5 PUSH1 0x8 MUL PUSH2 0x13B0 JUMP JUMPDEST NOT DUP1 DUP4 AND SWAP2 POP POP SWAP3 SWAP2 POP POP JUMP JUMPDEST PUSH0 PUSH2 0x13E3 DUP4 DUP4 PUSH2 0x13BC JUMP JUMPDEST SWAP2 POP DUP3 PUSH1 0x2 MUL DUP3 OR SWAP1 POP SWAP3 SWAP2 POP POP JUMP JUMPDEST PUSH2 0x13FC DUP3 PUSH2 0xCCD JUMP JUMPDEST PUSH8 0xFFFFFFFFFFFFFFFF DUP2 GT ISZERO PUSH2 0x1415 JUMPI PUSH2 0x1414 PUSH2 0xACC JUMP JUMPDEST JUMPDEST PUSH2 0x141F DUP3 SLOAD PUSH2 0x1226 JUMP JUMPDEST PUSH2 0x142A DUP3 DUP3 DUP6 PUSH2 0x136A JUMP JUMPDEST PUSH0 PUSH1 0x20 SWAP1 POP PUSH1 0x1F DUP4 GT PUSH1 0x1 DUP2 EQ PUSH2 0x145B JUMPI PUSH0 DUP5 ISZERO PUSH2 0x1449 JUMPI DUP3 DUP8 ADD MLOAD SWAP1 POP JUMPDEST PUSH2 0x1453 DUP6 DUP3 PUSH2 0x13D8 JUMP JUMPDEST DUP7 SSTORE POP PUSH2 0x14BA JUMP JUMPDEST PUSH1 0x1F NOT DUP5 AND PUSH2 0x1469 DUP7 PUSH2 0x1256 JUMP JUMPDEST PUSH0 JUMPDEST DUP3 DUP2 LT ISZERO PUSH2 0x1490 JUMPI DUP5 DUP10 ADD MLOAD DUP3 SSTORE PUSH1 0x1 DUP3 ADD SWAP2 POP PUSH1 0x20 DUP6 ADD SWAP5 POP PUSH1 0x20 DUP2 ADD SWAP1 POP PUSH2 0x146B JUMP JUMPDEST DUP7 DUP4 LT ISZERO PUSH2 0x14AD JUMPI DUP5 DUP10 ADD MLOAD PUSH2 0x14A9 PUSH1 0x1F DUP10 AND DUP3 PUSH2 0x13BC JUMP JUMPDEST DUP4 SSTORE POP JUMPDEST PUSH1 0x1 PUSH1 0x2 DUP9 MUL ADD DUP9 SSTORE POP POP POP JUMPDEST POP POP POP POP POP POP JUMP JUMPDEST PUSH32 0x4E6F2070726F6475637473000000000000000000000000000000000000000000 PUSH0 DUP3 ADD MSTORE POP JUMP JUMPDEST PUSH0 PUSH2 0x14F6 PUSH1 0xB DUP4 PUSH2 0xCD7 JUMP JUMPDEST SWAP2 POP PUSH2 0x1501 DUP3 PUSH2 0x14C2 JUMP JUMPDEST PUSH1 0x20 DUP3 ADD SWAP1 POP SWAP2 SWAP1 POP JUMP JUMPDEST PUSH0 PUSH1 0x20 DUP3 ADD SWAP1 POP DUP2 DUP2 SUB PUSH0 DUP4 ADD MSTORE PUSH2 0x1523 DUP2 PUSH2 0x14EA JUMP JUMPDEST SWAP1 POP SWAP2 SWAP1 POP JUMP JUMPDEST PUSH32 0x4E487B7100000000000000000000000000000000000000000000000000000000 PUSH0 MSTORE PUSH1 0x11 PUSH1 0x4 MSTORE PUSH1 0x24 PUSH0 REVERT JUMPDEST PUSH0 PUSH2 0x1561 DUP3 PUSH2 0xA81 JUMP JUMPDEST SWAP2 POP PUSH2 0x156C DUP4 PUSH2 0xA81 JUMP JUMPDEST SWAP3 POP DUP3 DUP3 SUB SWAP1 POP DUP2 DUP2 GT ISZERO PUSH2 0x1584 JUMPI PUSH2 0x1583 PUSH2 0x152A JUMP JUMPDEST JUMPDEST SWAP3 SWAP2 POP POP JUMP JUMPDEST PUSH32 0x20796F7520617265206E6F7420617574686F72697A6564000000000000000000 PUSH0 DUP3 ADD MSTORE POP JUMP JUMPDEST PUSH0 PUSH2 0x15BE PUSH1 0x17 DUP4 PUSH2 0xCD7 JUMP JUMPDEST SWAP2 POP PUSH2 0x15C9 DUP3 PUSH2 0x158A JUMP JUMPDEST PUSH1 0x20 DUP3 ADD SWAP1 POP SWAP2 SWAP1 POP JUMP JUMPDEST PUSH0 PUSH1 0x20 DUP3 ADD SWAP1 POP DUP2 DUP2 SUB PUSH0 DUP4 ADD MSTORE PUSH2 0x15EB DUP2 PUSH2 0x15B2 JUMP JUMPDEST SWAP1 POP SWAP2 SWAP1 POP JUMP JUMPDEST PUSH32 0x4F7264657220697320616C726561647920736869707065640000000000000000 PUSH0 DUP3 ADD MSTORE POP JUMP JUMPDEST PUSH0 PUSH2 0x1626 PUSH1 0x18 DUP4 PUSH2 0xCD7 JUMP JUMPDEST SWAP2 POP PUSH2 0x1631 DUP3 PUSH2 0x15F2 JUMP JUMPDEST PUSH1 0x20 DUP3 ADD SWAP1 POP SWAP2 SWAP1 POP JUMP JUMPDEST PUSH0 PUSH1 0x20 DUP3 ADD SWAP1 POP DUP2 DUP2 SUB PUSH0 DUP4 ADD MSTORE PUSH2 0x1653 DUP2 PUSH2 0x161A JUMP JUMPDEST SWAP1 POP SWAP2 SWAP1 POP JUMP INVALID LOG2 PUSH5 0x6970667358 0x22 SLT KECCAK256 LOG4 ADDMOD JUMP 0xBD 0xE 0xC7 DUP15 0xEC CREATE2 0xEE GAS SHR 0x27 CHAINID 0xAF CHAINID 0xCF 0xE9 REVERT SWAP9 0xA6 SLT PUSH7 0xC6908D77CF15CD 0xE8 0x23 PUSH5 0x736F6C6343 STOP ADDMOD OR STOP CALLER "
				},
				"gasEstimates": {
					"creation": {
						"codeDepositCost": "1155200",
						"executionCost": "25463",
						"totalCost": "1180663"
					},
					"external": {
						"advencerOrder(uint256)": "40146",
						"creatOrder(string,uint256[])": "infinite",
						"getOrder(uint256)": "infinite",
						"orders(uint256)": "infinite",
						"owner()": "2508",
						"updateZip(uint256,string)": "infinite"
					}
				},
				"methodIdentifiers": {
					"advencerOrder(uint256)": "f68d22d6",
					"creatOrder(string,uint256[])": "b147135d",
					"getOrder(uint256)": "d09ef241",
					"orders(uint256)": "a85c38ef",
					"owner()": "8da5cb5b",
					"updateZip(uint256,string)": "577dc0a0"
				}
			},
			"storageLayout": {
				"storage": [
					{
						"astId": 21,
						"contract": "contracts/StructEnum.sol:StructEnum",
						"label": "orders",
						"offset": 0,
						"slot": "0",
						"type": "t_array(t_struct(Order)17_storage)dyn_storage"
					},
					{
						"astId": 23,
						"contract": "contracts/StructEnum.sol:StructEnum",
						"label": "owner",
						"offset": 0,
						"slot": "1",
						"type": "t_address"
					}
				],
				"types": {
					"t_address": {
						"encoding": "inplace",
						"label": "address",
						"numberOfBytes": "20"
					},
					"t_array(t_struct(Order)17_storage)dyn_storage": {
						"base": "t_struct(Order)17_storage",
						"encoding": "dynamic_array",
						"label": "struct StructEnum.Order[]",
						"numberOfBytes": "32"
					},
					"t_array(t_uint256)dyn_storage": {
						"base": "t_uint256",
						"encoding": "dynamic_array",
						"label": "uint256[]",
						"numberOfBytes": "32"
					},
					"t_enum(Status)6": {
						"encoding": "inplace",
						"label": "enum StructEnum.Status",
						"numberOfBytes": "1"
					},
					"t_string_storage": {
						"encoding": "bytes",
						"label": "string",
						"numberOfBytes": "32"
					},
					"t_struct(Order)17_storage": {
						"encoding": "inplace",
						"label": "struct StructEnum.Order",
						"members": [
							{
								"astId": 8,
								"contract": "contracts/StructEnum.sol:StructEnum",
								"label": "customer",
								"offset": 0,
								"slot": "0",
								"type": "t_address"
							},
							{
								"astId": 10,
								"contract": "contracts/StructEnum.sol:StructEnum",
								"label": "zipCode",
								"offset": 0,
								"slot": "1",
								"type": "t_string_storage"
							},
							{
								"astId": 13,
								"contract": "contracts/StructEnum.sol:StructEnum",
								"label": "product",
								"offset": 0,
								"slot": "2",
								"type": "t_array(t_uint256)dyn_storage"
							},
							{
								"astId": 16,
								"contract": "contracts/StructEnum.sol:StructEnum",
								"label": "status",
								"offset": 0,
								"slot": "3",
								"type": "t_enum(Status)6"
							}
						],
						"numberOfBytes": "128"
					},
					"t_uint256": {
						"encoding": "inplace",
						"label": "uint256",
						"numberOfBytes": "32"
					}
				}
			},
			"userdoc": {
				"kind": "user",
				"methods": {},
				"version": 1
			}
		}
	}
}